{
  "abi": [
    {
      "anonymous": false,
      "inputs": [
        {
          "indexed": true,
          "internalType": "address",
          "name": "user",
          "type": "address"
        },
        {
          "indexed": false,
          "internalType": "uint256",
          "name": "nodeIndex",
          "type": "uint256"
        },
        {
          "indexed": false,
          "internalType": "string",
          "name": "description",
          "type": "string"
        },
        {
          "indexed": false,
          "internalType": "uint256",
          "name": "points",
          "type": "uint256"
        }
      ],
      "name": "DescriptionAdded",
      "type": "event"
    },
    {
      "anonymous": false,
      "inputs": [
        {
          "indexed": true,
          "internalType": "uint256",
          "name": "nodeIndex",
          "type": "uint256"
        },
        {
          "indexed": false,
          "internalType": "uint256",
          "name": "amount",
          "type": "uint256"
        }
      ],
      "name": "FundsAdded",
      "type": "event"
    },
    {
      "anonymous": false,
      "inputs": [
        {
          "indexed": true,
          "internalType": "uint256",
          "name": "nodeId",
          "type": "uint256"
        },
        {
          "indexed": false,
          "internalType": "string",
          "name": "title",
          "type": "string"
        },
        {
          "indexed": false,
          "internalType": "uint256",
          "name": "points",
          "type": "uint256"
        }
      ],
      "name": "NodeAdded",
      "type": "event"
    },
    {
      "anonymous": false,
      "inputs": [
        {
          "indexed": true,
          "internalType": "uint256",
          "name": "nodeId",
          "type": "uint256"
        }
      ],
      "name": "NodeFinished",
      "type": "event"
    },
    {
      "inputs": [
        {
          "internalType": "uint256",
          "name": "nodeIndex",
          "type": "uint256"
        },
        {
          "internalType": "string",
          "name": "_description",
          "type": "string"
        }
      ],
      "name": "addDescription",
      "outputs": [],
      "stateMutability": "nonpayable",
      "type": "function"
    },
    {
      "inputs": [
        {
          "internalType": "uint256",
          "name": "nodeIndex",
          "type": "uint256"
        }
      ],
      "name": "addFunds",
      "outputs": [],
      "stateMutability": "payable",
      "type": "function"
    },
    {
      "inputs": [
        {
          "internalType": "string",
          "name": "_title",
          "type": "string"
        },
        {
          "internalType": "string[]",
          "name": "_descriptions",
          "type": "string[]"
        }
      ],
      "name": "addNode",
      "outputs": [],
      "stateMutability": "nonpayable",
      "type": "function"
    },
    {
      "inputs": [
        {
          "internalType": "uint256",
          "name": "nodeIndex",
          "type": "uint256"
        }
      ],
      "name": "finishNode",
      "outputs": [],
      "stateMutability": "nonpayable",
      "type": "function"
    },
    {
      "inputs": [
        {
          "internalType": "address",
          "name": "_user",
          "type": "address"
        },
        {
          "internalType": "uint256",
          "name": "nodeIndex",
          "type": "uint256"
        }
      ],
      "name": "getLastDripBlock",
      "outputs": [
        {
          "internalType": "uint256",
          "name": "",
          "type": "uint256"
        }
      ],
      "stateMutability": "view",
      "type": "function"
    },
    {
      "inputs": [
        {
          "internalType": "uint256",
          "name": "nodeIndex",
          "type": "uint256"
        }
      ],
      "name": "getNode",
      "outputs": [
        {
          "components": [
            {
              "internalType": "string",
              "name": "title",
              "type": "string"
            },
            {
              "internalType": "string[]",
              "name": "descriptions",
              "type": "string[]"
            },
            {
              "internalType": "uint256",
              "name": "points",
              "type": "uint256"
            },
            {
              "internalType": "uint256",
              "name": "fundingPool",
              "type": "uint256"
            },
            {
              "internalType": "uint256",
              "name": "creationTime",
              "type": "uint256"
            },
            {
              "internalType": "bool",
              "name": "isFinished",
              "type": "bool"
            }
          ],
          "internalType": "struct Contribution.Node",
          "name": "",
          "type": "tuple"
        }
      ],
      "stateMutability": "view",
      "type": "function"
    },
    {
      "inputs": [],
      "name": "getNodes",
      "outputs": [
        {
          "components": [
            {
              "internalType": "string",
              "name": "title",
              "type": "string"
            },
            {
              "internalType": "string[]",
              "name": "descriptions",
              "type": "string[]"
            },
            {
              "internalType": "uint256",
              "name": "points",
              "type": "uint256"
            },
            {
              "internalType": "uint256",
              "name": "fundingPool",
              "type": "uint256"
            },
            {
              "internalType": "uint256",
              "name": "creationTime",
              "type": "uint256"
            },
            {
              "internalType": "bool",
              "name": "isFinished",
              "type": "bool"
            }
          ],
          "internalType": "struct Contribution.Node[]",
          "name": "",
          "type": "tuple[]"
        }
      ],
      "stateMutability": "view",
      "type": "function"
    },
    {
      "inputs": [
        {
          "internalType": "address",
          "name": "_user",
          "type": "address"
        },
        {
          "internalType": "uint256",
          "name": "nodeIndex",
          "type": "uint256"
        }
      ],
      "name": "getUserNodePoints",
      "outputs": [
        {
          "internalType": "uint256",
          "name": "",
          "type": "uint256"
        }
      ],
      "stateMutability": "view",
      "type": "function"
    },
    {
      "inputs": [
        {
          "internalType": "uint256",
          "name": "",
          "type": "uint256"
        }
      ],
      "name": "nodes",
      "outputs": [
        {
          "internalType": "string",
          "name": "title",
          "type": "string"
        },
        {
          "internalType": "uint256",
          "name": "points",
          "type": "uint256"
        },
        {
          "internalType": "uint256",
          "name": "fundingPool",
          "type": "uint256"
        },
        {
          "internalType": "uint256",
          "name": "creationTime",
          "type": "uint256"
        },
        {
          "internalType": "bool",
          "name": "isFinished",
          "type": "bool"
        }
      ],
      "stateMutability": "view",
      "type": "function"
    },
    {
      "inputs": [
        {
          "internalType": "address",
          "name": "_user",
          "type": "address"
        },
        {
          "internalType": "uint256",
          "name": "nodeIndex",
          "type": "uint256"
        }
      ],
      "name": "updateLastDripBlock",
      "outputs": [],
      "stateMutability": "nonpayable",
      "type": "function"
    },
    {
      "inputs": [
        {
          "internalType": "address",
          "name": "",
          "type": "address"
        },
        {
          "internalType": "uint256",
          "name": "",
          "type": "uint256"
        }
      ],
      "name": "userLastDripBlock",
      "outputs": [
        {
          "internalType": "uint256",
          "name": "",
          "type": "uint256"
        }
      ],
      "stateMutability": "view",
      "type": "function"
    },
    {
      "inputs": [
        {
          "internalType": "address",
          "name": "",
          "type": "address"
        },
        {
          "internalType": "uint256",
          "name": "",
          "type": "uint256"
        }
      ],
      "name": "userNodePoints",
      "outputs": [
        {
          "internalType": "uint256",
          "name": "",
          "type": "uint256"
        }
      ],
      "stateMutability": "view",
      "type": "function"
    }
  ],
  "devdoc": {
    "kind": "dev",
    "methods": {},
    "version": 1
  },
  "evm": {
    "assembly": "    /* \"Contribution.sol\":57:3139  contract Contribution {... */\n  mstore(0x40, 0x80)\n  callvalue\n  dup1\n  iszero\n  tag_1\n  jumpi\n  0x00\n  dup1\n  revert\ntag_1:\n  pop\n  dataSize(sub_0)\n  dup1\n  dataOffset(sub_0)\n  0x00\n  codecopy\n  0x00\n  return\nstop\n\nsub_0: assembly {\n        /* \"Contribution.sol\":57:3139  contract Contribution {... */\n      mstore(0x40, 0x80)\n      jumpi(tag_1, lt(calldatasize, 0x04))\n      shr(0xe0, calldataload(0x00))\n      dup1\n      0xb51f79e3\n      gt\n      tag_14\n      jumpi\n      dup1\n      0xcbb9efeb\n      gt\n      tag_15\n      jumpi\n      dup1\n      0xcbb9efeb\n      eq\n      tag_11\n      jumpi\n      dup1\n      0xdd1ead00\n      eq\n      tag_12\n      jumpi\n      dup1\n      0xe29581aa\n      eq\n      tag_13\n      jumpi\n      0x00\n      dup1\n      revert\n    tag_15:\n      dup1\n      0xb51f79e3\n      eq\n      tag_8\n      jumpi\n      dup1\n      0xbe999705\n      eq\n      tag_9\n      jumpi\n      dup1\n      0xc8b4d1d6\n      eq\n      tag_10\n      jumpi\n      0x00\n      dup1\n      revert\n    tag_14:\n      dup1\n      0x4a55ef1e\n      gt\n      tag_16\n      jumpi\n      dup1\n      0x4a55ef1e\n      eq\n      tag_5\n      jumpi\n      dup1\n      0x4f0f4aa9\n      eq\n      tag_6\n      jumpi\n      dup1\n      0x9db338ae\n      eq\n      tag_7\n      jumpi\n      0x00\n      dup1\n      revert\n    tag_16:\n      dup1\n      0x04abc319\n      eq\n      tag_2\n      jumpi\n      dup1\n      0x1c53c280\n      eq\n      tag_3\n      jumpi\n      dup1\n      0x23995ade\n      eq\n      tag_4\n      jumpi\n    tag_1:\n      0x00\n      dup1\n      revert\n        /* \"Contribution.sol\":2998:3137  function updateLastDripBlock(address _user, uint256 nodeIndex) external {... */\n    tag_2:\n      callvalue\n      dup1\n      iszero\n      tag_17\n      jumpi\n      0x00\n      dup1\n      revert\n    tag_17:\n      pop\n      tag_18\n      tag_19\n      calldatasize\n      0x04\n      tag_20\n      jump\t// in\n    tag_19:\n      sub(shl(0xa0, 0x01), 0x01)\n        /* \"Contribution.sol\":3080:3104  userLastDripBlock[_user] */\n      swap1\n      swap2\n      and\n      0x00\n      swap1\n      dup2\n      mstore\n        /* \"Contribution.sol\":3080:3097  userLastDripBlock */\n      0x02\n        /* \"Contribution.sol\":3080:3104  userLastDripBlock[_user] */\n      0x20\n      swap1\n      dup2\n      mstore\n      0x40\n      dup1\n      dup4\n      keccak256\n        /* \"Contribution.sol\":3080:3115  userLastDripBlock[_user][nodeIndex] */\n      swap4\n      dup4\n      mstore\n      swap3\n      swap1\n      mstore\n      keccak256\n        /* \"Contribution.sol\":3118:3130  block.number */\n      number\n        /* \"Contribution.sol\":3080:3130  userLastDripBlock[_user][nodeIndex] = block.number */\n      swap1\n      sstore\n        /* \"Contribution.sol\":2998:3137  function updateLastDripBlock(address _user, uint256 nodeIndex) external {... */\n      jump\n    tag_18:\n      stop\n        /* \"Contribution.sol\":271:290  Node[] public nodes */\n    tag_3:\n      callvalue\n      dup1\n      iszero\n      tag_22\n      jumpi\n      0x00\n      dup1\n      revert\n    tag_22:\n      pop\n      tag_23\n      tag_24\n      calldatasize\n      0x04\n      tag_25\n      jump\t// in\n    tag_24:\n      tag_26\n      jump\t// in\n    tag_23:\n      mload(0x40)\n      tag_27\n      swap6\n      swap5\n      swap4\n      swap3\n      swap2\n      swap1\n      tag_28\n      jump\t// in\n    tag_27:\n      mload(0x40)\n      dup1\n      swap2\n      sub\n      swap1\n      return\n        /* \"Contribution.sol\":2841:2992  function getLastDripBlock(address _user, uint256 nodeIndex) external view returns (uint256) {... */\n    tag_4:\n      callvalue\n      dup1\n      iszero\n      tag_29\n      jumpi\n      0x00\n      dup1\n      revert\n    tag_29:\n      pop\n      tag_30\n      tag_31\n      calldatasize\n      0x04\n      tag_20\n      jump\t// in\n    tag_31:\n      tag_32\n      jump\t// in\n    tag_30:\n      mload(0x40)\n        /* \"#utility.yul\":1639:1664   */\n      swap1\n      dup2\n      mstore\n        /* \"#utility.yul\":1627:1629   */\n      0x20\n        /* \"#utility.yul\":1612:1630   */\n      add\n        /* \"Contribution.sol\":2841:2992  function getLastDripBlock(address _user, uint256 nodeIndex) external view returns (uint256) {... */\n      tag_27\n        /* \"#utility.yul\":1493:1670   */\n      jump\n        /* \"Contribution.sol\":2232:2469  function finishNode(uint256 nodeIndex) public {... */\n    tag_5:\n      callvalue\n      dup1\n      iszero\n      tag_35\n      jumpi\n      0x00\n      dup1\n      revert\n    tag_35:\n      pop\n      tag_18\n      tag_37\n      calldatasize\n      0x04\n      tag_25\n      jump\t// in\n    tag_37:\n      tag_38\n      jump\t// in\n        /* \"Contribution.sol\":2568:2680  function getNode(uint256 nodeIndex) external view returns (Node memory) {... */\n    tag_6:\n      callvalue\n      dup1\n      iszero\n      tag_39\n      jumpi\n      0x00\n      dup1\n      revert\n    tag_39:\n      pop\n      tag_40\n      tag_41\n      calldatasize\n      0x04\n      tag_25\n      jump\t// in\n    tag_41:\n      tag_42\n      jump\t// in\n    tag_40:\n      mload(0x40)\n      tag_27\n      swap2\n      swap1\n      tag_44\n      jump\t// in\n        /* \"Contribution.sol\":744:1294  function addNode(string memory _title, string[] memory _descriptions) public {... */\n    tag_7:\n      callvalue\n      dup1\n      iszero\n      tag_45\n      jumpi\n      0x00\n      dup1\n      revert\n    tag_45:\n      pop\n      tag_18\n      tag_47\n      calldatasize\n      0x04\n      tag_48\n      jump\t// in\n    tag_47:\n      tag_49\n      jump\t// in\n        /* \"Contribution.sol\":1300:1888  function addDescription(uint256 nodeIndex, string memory _description) public {... */\n    tag_8:\n      callvalue\n      dup1\n      iszero\n      tag_50\n      jumpi\n      0x00\n      dup1\n      revert\n    tag_50:\n      pop\n      tag_18\n      tag_52\n      calldatasize\n      0x04\n      tag_53\n      jump\t// in\n    tag_52:\n      tag_54\n      jump\t// in\n        /* \"Contribution.sol\":1894:2226  function addFunds(uint256 nodeIndex) public payable {... */\n    tag_9:\n      tag_18\n      tag_56\n      calldatasize\n      0x04\n      tag_25\n      jump\t// in\n    tag_56:\n      tag_57\n      jump\t// in\n        /* \"Contribution.sol\":2686:2835  function getUserNodePoints(address _user, uint256 nodeIndex) external view returns (uint256) {... */\n    tag_10:\n      callvalue\n      dup1\n      iszero\n      tag_58\n      jumpi\n      0x00\n      dup1\n      revert\n    tag_58:\n      pop\n      tag_30\n      tag_60\n      calldatasize\n      0x04\n      tag_20\n      jump\t// in\n    tag_60:\n      sub(shl(0xa0, 0x01), 0x01)\n        /* \"Contribution.sol\":2796:2817  userNodePoints[_user] */\n      swap2\n      swap1\n      swap2\n      and\n        /* \"Contribution.sol\":2770:2777  uint256 */\n      0x00\n        /* \"Contribution.sol\":2796:2817  userNodePoints[_user] */\n      swap1\n      dup2\n      mstore\n        /* \"Contribution.sol\":2796:2810  userNodePoints */\n      0x01\n        /* \"Contribution.sol\":2796:2817  userNodePoints[_user] */\n      0x20\n      swap1\n      dup2\n      mstore\n      0x40\n      dup1\n      dup4\n      keccak256\n        /* \"Contribution.sol\":2796:2828  userNodePoints[_user][nodeIndex] */\n      swap4\n      dup4\n      mstore\n      swap3\n      swap1\n      mstore\n      keccak256\n      sload\n      swap1\n        /* \"Contribution.sol\":2686:2835  function getUserNodePoints(address _user, uint256 nodeIndex) external view returns (uint256) {... */\n      jump\n        /* \"Contribution.sol\":371:443  mapping(address => mapping(uint256 => uint256)) public userLastDripBlock */\n    tag_11:\n      callvalue\n      dup1\n      iszero\n      tag_63\n      jumpi\n      0x00\n      dup1\n      revert\n    tag_63:\n      pop\n      tag_30\n      tag_65\n      calldatasize\n      0x04\n      tag_20\n      jump\t// in\n    tag_65:\n      0x02\n      0x20\n      swap1\n      dup2\n      mstore\n      0x00\n      swap3\n      dup4\n      mstore\n      0x40\n      dup1\n      dup5\n      keccak256\n      swap1\n      swap2\n      mstore\n      swap1\n      dup3\n      mstore\n      swap1\n      keccak256\n      sload\n      dup2\n      jump\n        /* \"Contribution.sol\":296:365  mapping(address => mapping(uint256 => uint256)) public userNodePoints */\n    tag_12:\n      callvalue\n      dup1\n      iszero\n      tag_68\n      jumpi\n      0x00\n      dup1\n      revert\n    tag_68:\n      pop\n      tag_30\n      tag_70\n      calldatasize\n      0x04\n      tag_20\n      jump\t// in\n    tag_70:\n      0x01\n      0x20\n      swap1\n      dup2\n      mstore\n      0x00\n      swap3\n      dup4\n      mstore\n      0x40\n      dup1\n      dup5\n      keccak256\n      swap1\n      swap2\n      mstore\n      swap1\n      dup3\n      mstore\n      swap1\n      keccak256\n      sload\n      dup2\n      jump\n        /* \"Contribution.sol\":2475:2562  function getNodes() external view returns (Node[] memory) {... */\n    tag_13:\n      callvalue\n      dup1\n      iszero\n      tag_73\n      jumpi\n      0x00\n      dup1\n      revert\n    tag_73:\n      pop\n      tag_74\n      tag_75\n      jump\t// in\n    tag_74:\n      mload(0x40)\n      tag_27\n      swap2\n      swap1\n      tag_77\n      jump\t// in\n        /* \"Contribution.sol\":271:290  Node[] public nodes */\n    tag_26:\n      0x00\n      dup2\n      dup2\n      sload\n      dup2\n      lt\n      tag_79\n      jumpi\n      0x00\n      dup1\n      revert\n    tag_79:\n      swap1\n      0x00\n      mstore\n      keccak256(0x00, 0x20)\n      swap1\n      0x06\n      mul\n      add\n      0x00\n      swap2\n      pop\n      swap1\n      pop\n      dup1\n      0x00\n      add\n      dup1\n      sload\n      tag_81\n      swap1\n      tag_82\n      jump\t// in\n    tag_81:\n      dup1\n      0x1f\n      add\n      0x20\n      dup1\n      swap2\n      div\n      mul\n      0x20\n      add\n      mload(0x40)\n      swap1\n      dup2\n      add\n      0x40\n      mstore\n      dup1\n      swap3\n      swap2\n      swap1\n      dup2\n      dup2\n      mstore\n      0x20\n      add\n      dup3\n      dup1\n      sload\n      tag_83\n      swap1\n      tag_82\n      jump\t// in\n    tag_83:\n      dup1\n      iszero\n      tag_84\n      jumpi\n      dup1\n      0x1f\n      lt\n      tag_85\n      jumpi\n      0x0100\n      dup1\n      dup4\n      sload\n      div\n      mul\n      dup4\n      mstore\n      swap2\n      0x20\n      add\n      swap2\n      jump(tag_84)\n    tag_85:\n      dup3\n      add\n      swap2\n      swap1\n      0x00\n      mstore\n      keccak256(0x00, 0x20)\n      swap1\n    tag_86:\n      dup2\n      sload\n      dup2\n      mstore\n      swap1\n      0x01\n      add\n      swap1\n      0x20\n      add\n      dup1\n      dup4\n      gt\n      tag_86\n      jumpi\n      dup3\n      swap1\n      sub\n      0x1f\n      and\n      dup3\n      add\n      swap2\n    tag_84:\n      pop\n      pop\n      pop\n      pop\n      0x02\n      dup4\n      add\n      sload\n      0x03\n      dup5\n      add\n      sload\n      0x04\n      dup6\n      add\n      sload\n      0x05\n      swap1\n      swap6\n      add\n      sload\n      swap4\n      swap5\n      swap2\n      swap4\n      swap1\n      swap3\n      pop\n      0xff\n      and\n      dup6\n      jump\t// out\n        /* \"Contribution.sol\":2841:2992  function getLastDripBlock(address _user, uint256 nodeIndex) external view returns (uint256) {... */\n    tag_32:\n      sub(shl(0xa0, 0x01), 0x01)\n        /* \"Contribution.sol\":2950:2974  userLastDripBlock[_user] */\n      dup3\n      and\n        /* \"Contribution.sol\":2924:2931  uint256 */\n      0x00\n        /* \"Contribution.sol\":2950:2974  userLastDripBlock[_user] */\n      swap1\n      dup2\n      mstore\n        /* \"Contribution.sol\":2950:2967  userLastDripBlock */\n      0x02\n        /* \"Contribution.sol\":2950:2974  userLastDripBlock[_user] */\n      0x20\n      swap1\n      dup2\n      mstore\n      0x40\n      dup1\n      dup4\n      keccak256\n        /* \"Contribution.sol\":2950:2985  userLastDripBlock[_user][nodeIndex] */\n      dup5\n      dup5\n      mstore\n      swap1\n      swap2\n      mstore\n      swap1\n      keccak256\n      sload\n        /* \"Contribution.sol\":2841:2992  function getLastDripBlock(address _user, uint256 nodeIndex) external view returns (uint256) {... */\n    tag_87:\n      swap3\n      swap2\n      pop\n      pop\n      jump\t// out\n        /* \"Contribution.sol\":2232:2469  function finishNode(uint256 nodeIndex) public {... */\n    tag_38:\n        /* \"Contribution.sol\":2308:2313  nodes */\n      0x00\n        /* \"Contribution.sol\":2308:2320  nodes.length */\n      sload\n        /* \"Contribution.sol\":2296:2320  nodeIndex < nodes.length */\n      dup2\n      lt\n        /* \"Contribution.sol\":2288:2344  require(nodeIndex < nodes.length, \"Node does not exist\") */\n      tag_89\n      jumpi\n      mload(0x40)\n      shl(0xe5, 0x461bcd)\n      dup2\n      mstore\n        /* \"#utility.yul\":7129:7131   */\n      0x20\n        /* \"Contribution.sol\":2288:2344  require(nodeIndex < nodes.length, \"Node does not exist\") */\n      0x04\n      dup3\n      add\n        /* \"#utility.yul\":7111:7132   */\n      mstore\n        /* \"#utility.yul\":7168:7170   */\n      0x13\n        /* \"#utility.yul\":7148:7166   */\n      0x24\n      dup3\n      add\n        /* \"#utility.yul\":7141:7171   */\n      mstore\n      shl(0x6a, 0x139bd91948191bd95cc81b9bdd08195e1a5cdd)\n        /* \"#utility.yul\":7187:7205   */\n      0x44\n      dup3\n      add\n        /* \"#utility.yul\":7180:7229   */\n      mstore\n        /* \"#utility.yul\":7246:7264   */\n      0x64\n      add\n        /* \"Contribution.sol\":2288:2344  require(nodeIndex < nodes.length, \"Node does not exist\") */\n    tag_90:\n      mload(0x40)\n      dup1\n      swap2\n      sub\n      swap1\n      revert\n    tag_89:\n        /* \"Contribution.sol\":2355:2372  Node storage node */\n      0x00\n        /* \"Contribution.sol\":2375:2380  nodes */\n      dup1\n        /* \"Contribution.sol\":2381:2390  nodeIndex */\n      dup3\n        /* \"Contribution.sol\":2375:2391  nodes[nodeIndex] */\n      dup2\n      sload\n      dup2\n      lt\n      tag_93\n      jumpi\n      tag_93\n      tag_94\n      jump\t// in\n    tag_93:\n      0x00\n      swap2\n      dup3\n      mstore\n      0x20\n      dup3\n      keccak256\n        /* \"Contribution.sol\":2401:2416  node.isFinished */\n      0x05\n        /* \"Contribution.sol\":2375:2391  nodes[nodeIndex] */\n      0x06\n      swap1\n      swap3\n      mul\n      add\n        /* \"Contribution.sol\":2401:2416  node.isFinished */\n      swap1\n      dup2\n      add\n        /* \"Contribution.sol\":2401:2423  node.isFinished = true */\n      dup1\n      sload\n      not(0xff)\n      and\n        /* \"Contribution.sol\":2419:2423  true */\n      0x01\n        /* \"Contribution.sol\":2401:2423  node.isFinished = true */\n      or\n      swap1\n      sstore\n        /* \"Contribution.sol\":2439:2462  NodeFinished(nodeIndex) */\n      mload(0x40)\n        /* \"Contribution.sol\":2375:2391  nodes[nodeIndex] */\n      swap1\n      swap3\n      pop\n        /* \"Contribution.sol\":2452:2461  nodeIndex */\n      dup4\n      swap2\n        /* \"Contribution.sol\":2439:2462  NodeFinished(nodeIndex) */\n      0xf1c92498f9b82ac12ed4160513cd238f89e2cf39b41ed4173c014e05b4abb5da\n      swap2\n      log2\n        /* \"Contribution.sol\":2278:2469  {... */\n      pop\n        /* \"Contribution.sol\":2232:2469  function finishNode(uint256 nodeIndex) public {... */\n      pop\n      jump\t// out\n        /* \"Contribution.sol\":2568:2680  function getNode(uint256 nodeIndex) external view returns (Node memory) {... */\n    tag_42:\n        /* \"Contribution.sol\":2627:2638  Node memory */\n      tag_96\n      mload(0x40)\n      dup1\n      0xc0\n      add\n      0x40\n      mstore\n      dup1\n      0x60\n      dup2\n      mstore\n      0x20\n      add\n      0x60\n      dup2\n      mstore\n      0x20\n      add\n      0x00\n      dup2\n      mstore\n      0x20\n      add\n      0x00\n      dup2\n      mstore\n      0x20\n      add\n      0x00\n      dup2\n      mstore\n      0x20\n      add\n      iszero(iszero(0x00))\n      dup2\n      mstore\n      pop\n      swap1\n      jump\n    tag_96:\n        /* \"Contribution.sol\":2657:2662  nodes */\n      0x00\n        /* \"Contribution.sol\":2663:2672  nodeIndex */\n      dup3\n        /* \"Contribution.sol\":2657:2673  nodes[nodeIndex] */\n      dup2\n      sload\n      dup2\n      lt\n      tag_100\n      jumpi\n      tag_100\n      tag_94\n      jump\t// in\n    tag_100:\n      swap1\n      0x00\n      mstore\n      keccak256(0x00, 0x20)\n      swap1\n      0x06\n      mul\n      add\n        /* \"Contribution.sol\":2650:2673  return nodes[nodeIndex] */\n      mload(0x40)\n      dup1\n      0xc0\n      add\n      0x40\n      mstore\n      swap1\n      dup2\n      0x00\n      dup3\n      add\n      dup1\n      sload\n      tag_102\n      swap1\n      tag_82\n      jump\t// in\n    tag_102:\n      dup1\n      0x1f\n      add\n      0x20\n      dup1\n      swap2\n      div\n      mul\n      0x20\n      add\n      mload(0x40)\n      swap1\n      dup2\n      add\n      0x40\n      mstore\n      dup1\n      swap3\n      swap2\n      swap1\n      dup2\n      dup2\n      mstore\n      0x20\n      add\n      dup3\n      dup1\n      sload\n      tag_103\n      swap1\n      tag_82\n      jump\t// in\n    tag_103:\n      dup1\n      iszero\n      tag_104\n      jumpi\n      dup1\n      0x1f\n      lt\n      tag_105\n      jumpi\n      0x0100\n      dup1\n      dup4\n      sload\n      div\n      mul\n      dup4\n      mstore\n      swap2\n      0x20\n      add\n      swap2\n      jump(tag_104)\n    tag_105:\n      dup3\n      add\n      swap2\n      swap1\n      0x00\n      mstore\n      keccak256(0x00, 0x20)\n      swap1\n    tag_106:\n      dup2\n      sload\n      dup2\n      mstore\n      swap1\n      0x01\n      add\n      swap1\n      0x20\n      add\n      dup1\n      dup4\n      gt\n      tag_106\n      jumpi\n      dup3\n      swap1\n      sub\n      0x1f\n      and\n      dup3\n      add\n      swap2\n    tag_104:\n      pop\n      pop\n      pop\n      pop\n      pop\n      dup2\n      mstore\n      0x20\n      add\n      0x01\n      dup3\n      add\n      dup1\n      sload\n      dup1\n      0x20\n      mul\n      0x20\n      add\n      mload(0x40)\n      swap1\n      dup2\n      add\n      0x40\n      mstore\n      dup1\n      swap3\n      swap2\n      swap1\n      dup2\n      dup2\n      mstore\n      0x20\n      add\n      0x00\n      swap1\n    tag_107:\n      dup3\n      dup3\n      lt\n      iszero\n      tag_108\n      jumpi\n      dup4\n      dup3\n      swap1\n      0x00\n      mstore\n      keccak256(0x00, 0x20)\n      add\n      dup1\n      sload\n      tag_110\n      swap1\n      tag_82\n      jump\t// in\n    tag_110:\n      dup1\n      0x1f\n      add\n      0x20\n      dup1\n      swap2\n      div\n      mul\n      0x20\n      add\n      mload(0x40)\n      swap1\n      dup2\n      add\n      0x40\n      mstore\n      dup1\n      swap3\n      swap2\n      swap1\n      dup2\n      dup2\n      mstore\n      0x20\n      add\n      dup3\n      dup1\n      sload\n      tag_111\n      swap1\n      tag_82\n      jump\t// in\n    tag_111:\n      dup1\n      iszero\n      tag_112\n      jumpi\n      dup1\n      0x1f\n      lt\n      tag_113\n      jumpi\n      0x0100\n      dup1\n      dup4\n      sload\n      div\n      mul\n      dup4\n      mstore\n      swap2\n      0x20\n      add\n      swap2\n      jump(tag_112)\n    tag_113:\n      dup3\n      add\n      swap2\n      swap1\n      0x00\n      mstore\n      keccak256(0x00, 0x20)\n      swap1\n    tag_114:\n      dup2\n      sload\n      dup2\n      mstore\n      swap1\n      0x01\n      add\n      swap1\n      0x20\n      add\n      dup1\n      dup4\n      gt\n      tag_114\n      jumpi\n      dup3\n      swap1\n      sub\n      0x1f\n      and\n      dup3\n      add\n      swap2\n    tag_112:\n      pop\n      pop\n      pop\n      pop\n      pop\n      dup2\n      mstore\n      0x20\n      add\n      swap1\n      0x01\n      add\n      swap1\n      jump(tag_107)\n    tag_108:\n      pop\n      pop\n      pop\n      swap1\n      dup3\n      mstore\n      pop\n      0x02\n      dup3\n      add\n      sload\n      0x20\n      dup3\n      add\n      mstore\n      0x03\n      dup3\n      add\n      sload\n      0x40\n      dup3\n      add\n      mstore\n      0x04\n      dup3\n      add\n      sload\n      0x60\n      dup3\n      add\n      mstore\n      0x05\n      swap1\n      swap2\n      add\n      sload\n      0xff\n      and\n      iszero\n      iszero\n      0x80\n      swap1\n      swap2\n      add\n      mstore\n      swap3\n        /* \"Contribution.sol\":2568:2680  function getNode(uint256 nodeIndex) external view returns (Node memory) {... */\n      swap2\n      pop\n      pop\n      jump\t// out\n        /* \"Contribution.sol\":744:1294  function addNode(string memory _title, string[] memory _descriptions) public {... */\n    tag_49:\n        /* \"Contribution.sol\":831:851  Node storage newNode */\n      0x00\n        /* \"Contribution.sol\":854:866  nodes.push() */\n      dup1\n      sload\n      0x01\n      dup2\n      add\n      dup3\n      sstore\n      swap1\n      dup1\n      mstore\n      0x06\n      mul\n      0x290decd9548b62a8d60345a988386fc84ba6bc95484008f6362f93160ef3e563\n      add\n      dup1\n        /* \"Contribution.sol\":876:898  newNode.title = _title */\n      tag_117\n        /* \"Contribution.sol\":892:898  _title */\n      dup5\n        /* \"Contribution.sol\":854:866  nodes.push() */\n      dup3\n        /* \"Contribution.sol\":876:898  newNode.title = _title */\n      tag_118\n      jump\t// in\n    tag_117:\n      pop\n        /* \"Contribution.sol\":908:944  newNode.descriptions = _descriptions */\n      dup2\n      mload\n      tag_119\n      swap1\n        /* \"Contribution.sol\":908:928  newNode.descriptions */\n      0x01\n      dup4\n      add\n      swap1\n        /* \"Contribution.sol\":908:944  newNode.descriptions = _descriptions */\n      0x20\n      dup6\n      add\n      swap1\n      tag_120\n      jump\t// in\n    tag_119:\n      pop\n        /* \"Contribution.sol\":971:973  10 */\n      0x0a\n        /* \"Contribution.sol\":954:968  newNode.points */\n      0x02\n      dup3\n      add\n        /* \"Contribution.sol\":954:973  newNode.points = 10 */\n      sstore\n        /* \"Contribution.sol\":1039:1040  0 */\n      0x00\n        /* \"Contribution.sol\":1017:1036  newNode.fundingPool */\n      0x03\n      dup3\n      add\n        /* \"Contribution.sol\":1017:1040  newNode.fundingPool = 0 */\n      dup2\n      swap1\n      sstore\n        /* \"Contribution.sol\":1073:1088  block.timestamp */\n      timestamp\n        /* \"Contribution.sol\":1050:1070  newNode.creationTime */\n      0x04\n      dup4\n      add\n        /* \"Contribution.sol\":1050:1088  newNode.creationTime = block.timestamp */\n      sstore\n        /* \"Contribution.sol\":1098:1116  newNode.isFinished */\n      0x05\n      dup3\n      add\n        /* \"Contribution.sol\":1098:1124  newNode.isFinished = false */\n      dup1\n      sload\n      not(0xff)\n      and\n      swap1\n      sstore\n        /* \"Contribution.sol\":1152:1164  nodes.length */\n      dup1\n      sload\n        /* \"Contribution.sol\":1152:1168  nodes.length - 1 */\n      tag_121\n      swap1\n        /* \"Contribution.sol\":1098:1124  newNode.isFinished = false */\n      0x01\n      swap1\n        /* \"Contribution.sol\":1152:1168  nodes.length - 1 */\n      tag_122\n      jump\t// in\n    tag_121:\n        /* \"Contribution.sol\":1196:1206  msg.sender */\n      caller\n        /* \"Contribution.sol\":1178:1207  userLastDripBlock[msg.sender] */\n      0x00\n      swap1\n      dup2\n      mstore\n        /* \"Contribution.sol\":1178:1195  userLastDripBlock */\n      0x02\n        /* \"Contribution.sol\":1178:1207  userLastDripBlock[msg.sender] */\n      0x20\n      dup2\n      dup2\n      mstore\n      0x40\n      dup1\n      dup5\n      keccak256\n        /* \"Contribution.sol\":1178:1215  userLastDripBlock[msg.sender][nodeId] */\n      dup6\n      dup6\n      mstore\n      swap1\n      swap2\n      mstore\n      swap2\n      dup3\n      swap1\n      keccak256\n        /* \"Contribution.sol\":1218:1230  block.number */\n      number\n        /* \"Contribution.sol\":1178:1230  userLastDripBlock[msg.sender][nodeId] = block.number */\n      swap1\n      sstore\n        /* \"Contribution.sol\":1272:1286  newNode.points */\n      dup5\n      add\n      sload\n        /* \"Contribution.sol\":1246:1287  NodeAdded(nodeId, _title, newNode.points) */\n      swap1\n      mload\n        /* \"Contribution.sol\":1135:1168  uint256 nodeId = nodes.length - 1 */\n      swap2\n      swap3\n      pop\n      dup3\n      swap2\n        /* \"Contribution.sol\":1246:1287  NodeAdded(nodeId, _title, newNode.points) */\n      0xd6b9fd965278c07866df5cd73b387c2be1b4cee8babd38ce44f1910c2f2a6ef0\n      swap2\n      tag_123\n      swap2\n        /* \"Contribution.sol\":1264:1270  _title */\n      dup9\n      swap2\n        /* \"Contribution.sol\":1272:1286  newNode.points */\n      swap1\n        /* \"Contribution.sol\":1246:1287  NodeAdded(nodeId, _title, newNode.points) */\n      tag_124\n      jump\t// in\n    tag_123:\n      mload(0x40)\n      dup1\n      swap2\n      sub\n      swap1\n      log2\n        /* \"Contribution.sol\":821:1294  {... */\n      pop\n      pop\n        /* \"Contribution.sol\":744:1294  function addNode(string memory _title, string[] memory _descriptions) public {... */\n      pop\n      pop\n      jump\t// out\n        /* \"Contribution.sol\":1300:1888  function addDescription(uint256 nodeIndex, string memory _description) public {... */\n    tag_54:\n        /* \"Contribution.sol\":1408:1413  nodes */\n      0x00\n        /* \"Contribution.sol\":1408:1420  nodes.length */\n      sload\n        /* \"Contribution.sol\":1396:1420  nodeIndex < nodes.length */\n      dup3\n      lt\n        /* \"Contribution.sol\":1388:1444  require(nodeIndex < nodes.length, \"Node does not exist\") */\n      tag_126\n      jumpi\n      mload(0x40)\n      shl(0xe5, 0x461bcd)\n      dup2\n      mstore\n        /* \"#utility.yul\":7129:7131   */\n      0x20\n        /* \"Contribution.sol\":1388:1444  require(nodeIndex < nodes.length, \"Node does not exist\") */\n      0x04\n      dup3\n      add\n        /* \"#utility.yul\":7111:7132   */\n      mstore\n        /* \"#utility.yul\":7168:7170   */\n      0x13\n        /* \"#utility.yul\":7148:7166   */\n      0x24\n      dup3\n      add\n        /* \"#utility.yul\":7141:7171   */\n      mstore\n      shl(0x6a, 0x139bd91948191bd95cc81b9bdd08195e1a5cdd)\n        /* \"#utility.yul\":7187:7205   */\n      0x44\n      dup3\n      add\n        /* \"#utility.yul\":7180:7229   */\n      mstore\n        /* \"#utility.yul\":7246:7264   */\n      0x64\n      add\n        /* \"Contribution.sol\":1388:1444  require(nodeIndex < nodes.length, \"Node does not exist\") */\n      tag_90\n        /* \"#utility.yul\":6927:7270   */\n      jump\n        /* \"Contribution.sol\":1388:1444  require(nodeIndex < nodes.length, \"Node does not exist\") */\n    tag_126:\n        /* \"Contribution.sol\":1455:1472  Node storage node */\n      0x00\n        /* \"Contribution.sol\":1475:1480  nodes */\n      dup1\n        /* \"Contribution.sol\":1481:1490  nodeIndex */\n      dup4\n        /* \"Contribution.sol\":1475:1491  nodes[nodeIndex] */\n      dup2\n      sload\n      dup2\n      lt\n      tag_129\n      jumpi\n      tag_129\n      tag_94\n      jump\t// in\n    tag_129:\n      0x00\n      swap2\n      dup3\n      mstore\n      0x20\n      dup1\n      dup4\n      keccak256\n        /* \"Contribution.sol\":1501:1518  node.descriptions */\n      0x01\n        /* \"Contribution.sol\":1475:1491  nodes[nodeIndex] */\n      0x06\n      swap1\n      swap4\n      mul\n      add\n        /* \"Contribution.sol\":1501:1518  node.descriptions */\n      dup3\n      dup2\n      add\n        /* \"Contribution.sol\":1501:1537  node.descriptions.push(_description) */\n      dup1\n      sload\n      swap4\n      dup5\n      add\n      dup2\n      sstore\n      dup5\n      mstore\n      swap3\n      keccak256\n        /* \"Contribution.sol\":1475:1491  nodes[nodeIndex] */\n      swap2\n      swap3\n      pop\n        /* \"Contribution.sol\":1501:1537  node.descriptions.push(_description) */\n      add\n      tag_132\n        /* \"Contribution.sol\":1524:1536  _description */\n      dup4\n        /* \"Contribution.sol\":1501:1537  node.descriptions.push(_description) */\n      dup3\n      tag_118\n      jump\t// in\n    tag_132:\n      pop\n        /* \"Contribution.sol\":1548:1573  uint256 descriptionPoints */\n      0x00\n        /* \"Contribution.sol\":1576:1577  5 */\n      0x05\n        /* \"Contribution.sol\":1548:1577  uint256 descriptionPoints = 5 */\n      swap1\n      pop\n        /* \"Contribution.sol\":1643:1660  descriptionPoints */\n      dup1\n        /* \"Contribution.sol\":1628:1632  node */\n      dup3\n        /* \"Contribution.sol\":1628:1639  node.points */\n      0x02\n      add\n      0x00\n        /* \"Contribution.sol\":1628:1660  node.points += descriptionPoints */\n      dup3\n      dup3\n      sload\n      tag_133\n      swap2\n      swap1\n      tag_134\n      jump\t// in\n    tag_133:\n      swap1\n      swap2\n      sstore\n      pop\n      pop\n        /* \"Contribution.sol\":1685:1695  msg.sender */\n      caller\n        /* \"Contribution.sol\":1670:1696  userNodePoints[msg.sender] */\n      0x00\n      swap1\n      dup2\n      mstore\n        /* \"Contribution.sol\":1670:1684  userNodePoints */\n      0x01\n        /* \"Contribution.sol\":1670:1696  userNodePoints[msg.sender] */\n      0x20\n      swap1\n      dup2\n      mstore\n      0x40\n      dup1\n      dup4\n      keccak256\n        /* \"Contribution.sol\":1670:1707  userNodePoints[msg.sender][nodeIndex] */\n      dup8\n      dup5\n      mstore\n      swap1\n      swap2\n      mstore\n      dup2\n      keccak256\n        /* \"Contribution.sol\":1670:1728  userNodePoints[msg.sender][nodeIndex] += descriptionPoints */\n      dup1\n      sload\n        /* \"Contribution.sol\":1711:1728  descriptionPoints */\n      dup4\n      swap3\n        /* \"Contribution.sol\":1670:1696  userNodePoints[msg.sender] */\n      swap1\n        /* \"Contribution.sol\":1670:1728  userNodePoints[msg.sender][nodeIndex] += descriptionPoints */\n      tag_135\n      swap1\n        /* \"Contribution.sol\":1711:1728  descriptionPoints */\n      dup5\n      swap1\n        /* \"Contribution.sol\":1670:1728  userNodePoints[msg.sender][nodeIndex] += descriptionPoints */\n      tag_134\n      jump\t// in\n    tag_135:\n      swap1\n      swap2\n      sstore\n      pop\n      pop\n        /* \"Contribution.sol\":1756:1766  msg.sender */\n      caller\n        /* \"Contribution.sol\":1738:1767  userLastDripBlock[msg.sender] */\n      0x00\n      dup2\n      dup2\n      mstore\n        /* \"Contribution.sol\":1738:1755  userLastDripBlock */\n      0x02\n        /* \"Contribution.sol\":1738:1767  userLastDripBlock[msg.sender] */\n      0x20\n      swap1\n      dup2\n      mstore\n      0x40\n      dup1\n      dup4\n      keccak256\n        /* \"Contribution.sol\":1738:1778  userLastDripBlock[msg.sender][nodeIndex] */\n      dup9\n      dup5\n      mstore\n      swap1\n      swap2\n      mstore\n      swap1\n      dup2\n      swap1\n      keccak256\n        /* \"Contribution.sol\":1781:1793  block.number */\n      number\n        /* \"Contribution.sol\":1738:1793  userLastDripBlock[msg.sender][nodeIndex] = block.number */\n      swap1\n      sstore\n        /* \"Contribution.sol\":1809:1881  DescriptionAdded(msg.sender, nodeIndex, _description, descriptionPoints) */\n      mload\n      0x0dd8be5834cebc72bd117e9164b0fa989d3724a6fa3246582bf3938adb99ba38\n      swap1\n      tag_123\n      swap1\n        /* \"Contribution.sol\":1768:1777  nodeIndex */\n      dup8\n      swap1\n        /* \"Contribution.sol\":1849:1861  _description */\n      dup8\n      swap1\n        /* \"Contribution.sol\":1863:1880  descriptionPoints */\n      dup7\n      swap1\n        /* \"Contribution.sol\":1809:1881  DescriptionAdded(msg.sender, nodeIndex, _description, descriptionPoints) */\n      tag_137\n      jump\t// in\n        /* \"Contribution.sol\":1894:2226  function addFunds(uint256 nodeIndex) public payable {... */\n    tag_57:\n        /* \"Contribution.sol\":1976:1981  nodes */\n      0x00\n        /* \"Contribution.sol\":1976:1988  nodes.length */\n      sload\n        /* \"Contribution.sol\":1964:1988  nodeIndex < nodes.length */\n      dup2\n      lt\n        /* \"Contribution.sol\":1956:2012  require(nodeIndex < nodes.length, \"Node does not exist\") */\n      tag_139\n      jumpi\n      mload(0x40)\n      shl(0xe5, 0x461bcd)\n      dup2\n      mstore\n        /* \"#utility.yul\":7129:7131   */\n      0x20\n        /* \"Contribution.sol\":1956:2012  require(nodeIndex < nodes.length, \"Node does not exist\") */\n      0x04\n      dup3\n      add\n        /* \"#utility.yul\":7111:7132   */\n      mstore\n        /* \"#utility.yul\":7168:7170   */\n      0x13\n        /* \"#utility.yul\":7148:7166   */\n      0x24\n      dup3\n      add\n        /* \"#utility.yul\":7141:7171   */\n      mstore\n      shl(0x6a, 0x139bd91948191bd95cc81b9bdd08195e1a5cdd)\n        /* \"#utility.yul\":7187:7205   */\n      0x44\n      dup3\n      add\n        /* \"#utility.yul\":7180:7229   */\n      mstore\n        /* \"#utility.yul\":7246:7264   */\n      0x64\n      add\n        /* \"Contribution.sol\":1956:2012  require(nodeIndex < nodes.length, \"Node does not exist\") */\n      tag_90\n        /* \"#utility.yul\":6927:7270   */\n      jump\n        /* \"Contribution.sol\":1956:2012  require(nodeIndex < nodes.length, \"Node does not exist\") */\n    tag_139:\n        /* \"Contribution.sol\":2042:2043  0 */\n      0x00\n        /* \"Contribution.sol\":2030:2039  msg.value */\n      callvalue\n        /* \"Contribution.sol\":2030:2043  msg.value > 0 */\n      gt\n        /* \"Contribution.sol\":2022:2085  require(msg.value > 0, \"Must send some ether to fund the node\") */\n      tag_141\n      jumpi\n      mload(0x40)\n      shl(0xe5, 0x461bcd)\n      dup2\n      mstore\n        /* \"#utility.yul\":10837:10839   */\n      0x20\n        /* \"Contribution.sol\":2022:2085  require(msg.value > 0, \"Must send some ether to fund the node\") */\n      0x04\n      dup3\n      add\n        /* \"#utility.yul\":10819:10840   */\n      mstore\n        /* \"#utility.yul\":10876:10878   */\n      0x25\n        /* \"#utility.yul\":10856:10874   */\n      0x24\n      dup3\n      add\n        /* \"#utility.yul\":10849:10879   */\n      mstore\n        /* \"#utility.yul\":10915:10949   */\n      0x4d7573742073656e6420736f6d6520657468657220746f2066756e6420746865\n        /* \"#utility.yul\":10895:10913   */\n      0x44\n      dup3\n      add\n        /* \"#utility.yul\":10888:10950   */\n      mstore\n        /* \"#utility.yul\":10986:10993   */\n      0x206e6f6465000000000000000000000000000000000000000000000000000000\n        /* \"#utility.yul\":10966:10984   */\n      0x64\n      dup3\n      add\n        /* \"#utility.yul\":10959:10994   */\n      mstore\n        /* \"#utility.yul\":11011:11030   */\n      0x84\n      add\n        /* \"Contribution.sol\":2022:2085  require(msg.value > 0, \"Must send some ether to fund the node\") */\n      tag_90\n        /* \"#utility.yul\":10635:11036   */\n      jump\n        /* \"Contribution.sol\":2022:2085  require(msg.value > 0, \"Must send some ether to fund the node\") */\n    tag_141:\n        /* \"Contribution.sol\":2096:2113  Node storage node */\n      0x00\n        /* \"Contribution.sol\":2116:2121  nodes */\n      dup1\n        /* \"Contribution.sol\":2122:2131  nodeIndex */\n      dup3\n        /* \"Contribution.sol\":2116:2132  nodes[nodeIndex] */\n      dup2\n      sload\n      dup2\n      lt\n      tag_145\n      jumpi\n      tag_145\n      tag_94\n      jump\t// in\n    tag_145:\n      swap1\n      0x00\n      mstore\n      keccak256(0x00, 0x20)\n      swap1\n      0x06\n      mul\n      add\n        /* \"Contribution.sol\":2096:2132  Node storage node = nodes[nodeIndex] */\n      swap1\n      pop\n        /* \"Contribution.sol\":2162:2171  msg.value */\n      callvalue\n        /* \"Contribution.sol\":2142:2146  node */\n      dup2\n        /* \"Contribution.sol\":2142:2158  node.fundingPool */\n      0x03\n      add\n      0x00\n        /* \"Contribution.sol\":2142:2171  node.fundingPool += msg.value */\n      dup3\n      dup3\n      sload\n      tag_147\n      swap2\n      swap1\n      tag_134\n      jump\t// in\n    tag_147:\n      swap1\n      swap2\n      sstore\n      pop\n      pop\n        /* \"Contribution.sol\":2187:2219  FundsAdded(nodeIndex, msg.value) */\n      mload(0x40)\n        /* \"Contribution.sol\":2209:2218  msg.value */\n      callvalue\n        /* \"#utility.yul\":1639:1664   */\n      dup2\n      mstore\n        /* \"Contribution.sol\":2198:2207  nodeIndex */\n      dup3\n      swap1\n        /* \"Contribution.sol\":2187:2219  FundsAdded(nodeIndex, msg.value) */\n      0xf5e4934928a1e45d88c7a5aa2661fe0a801ca5017922e15122d74f1880155e1a\n      swap1\n        /* \"#utility.yul\":1627:1629   */\n      0x20\n        /* \"#utility.yul\":1612:1630   */\n      add\n        /* \"Contribution.sol\":2187:2219  FundsAdded(nodeIndex, msg.value) */\n      mload(0x40)\n      dup1\n      swap2\n      sub\n      swap1\n      log2\n        /* \"Contribution.sol\":1946:2226  {... */\n      pop\n        /* \"Contribution.sol\":1894:2226  function addFunds(uint256 nodeIndex) public payable {... */\n      pop\n      jump\t// out\n        /* \"Contribution.sol\":2475:2562  function getNodes() external view returns (Node[] memory) {... */\n    tag_75:\n        /* \"Contribution.sol\":2518:2531  Node[] memory */\n      0x60\n        /* \"Contribution.sol\":2550:2555  nodes */\n      0x00\n        /* \"Contribution.sol\":2543:2555  return nodes */\n      dup1\n      sload\n      dup1\n      0x20\n      mul\n      0x20\n      add\n      mload(0x40)\n      swap1\n      dup2\n      add\n      0x40\n      mstore\n      dup1\n      swap3\n      swap2\n      swap1\n      dup2\n      dup2\n      mstore\n      0x20\n      add\n      0x00\n      swap1\n    tag_151:\n      dup3\n      dup3\n      lt\n      iszero\n      tag_152\n      jumpi\n      dup4\n      dup3\n      swap1\n      0x00\n      mstore\n      keccak256(0x00, 0x20)\n      swap1\n      0x06\n      mul\n      add\n      mload(0x40)\n      dup1\n      0xc0\n      add\n      0x40\n      mstore\n      swap1\n      dup2\n      0x00\n      dup3\n      add\n      dup1\n      sload\n      tag_154\n      swap1\n      tag_82\n      jump\t// in\n    tag_154:\n      dup1\n      0x1f\n      add\n      0x20\n      dup1\n      swap2\n      div\n      mul\n      0x20\n      add\n      mload(0x40)\n      swap1\n      dup2\n      add\n      0x40\n      mstore\n      dup1\n      swap3\n      swap2\n      swap1\n      dup2\n      dup2\n      mstore\n      0x20\n      add\n      dup3\n      dup1\n      sload\n      tag_155\n      swap1\n      tag_82\n      jump\t// in\n    tag_155:\n      dup1\n      iszero\n      tag_156\n      jumpi\n      dup1\n      0x1f\n      lt\n      tag_157\n      jumpi\n      0x0100\n      dup1\n      dup4\n      sload\n      div\n      mul\n      dup4\n      mstore\n      swap2\n      0x20\n      add\n      swap2\n      jump(tag_156)\n    tag_157:\n      dup3\n      add\n      swap2\n      swap1\n      0x00\n      mstore\n      keccak256(0x00, 0x20)\n      swap1\n    tag_158:\n      dup2\n      sload\n      dup2\n      mstore\n      swap1\n      0x01\n      add\n      swap1\n      0x20\n      add\n      dup1\n      dup4\n      gt\n      tag_158\n      jumpi\n      dup3\n      swap1\n      sub\n      0x1f\n      and\n      dup3\n      add\n      swap2\n    tag_156:\n      pop\n      pop\n      pop\n      pop\n      pop\n      dup2\n      mstore\n      0x20\n      add\n      0x01\n      dup3\n      add\n      dup1\n      sload\n      dup1\n      0x20\n      mul\n      0x20\n      add\n      mload(0x40)\n      swap1\n      dup2\n      add\n      0x40\n      mstore\n      dup1\n      swap3\n      swap2\n      swap1\n      dup2\n      dup2\n      mstore\n      0x20\n      add\n      0x00\n      swap1\n    tag_159:\n      dup3\n      dup3\n      lt\n      iszero\n      tag_160\n      jumpi\n      dup4\n      dup3\n      swap1\n      0x00\n      mstore\n      keccak256(0x00, 0x20)\n      add\n      dup1\n      sload\n      tag_162\n      swap1\n      tag_82\n      jump\t// in\n    tag_162:\n      dup1\n      0x1f\n      add\n      0x20\n      dup1\n      swap2\n      div\n      mul\n      0x20\n      add\n      mload(0x40)\n      swap1\n      dup2\n      add\n      0x40\n      mstore\n      dup1\n      swap3\n      swap2\n      swap1\n      dup2\n      dup2\n      mstore\n      0x20\n      add\n      dup3\n      dup1\n      sload\n      tag_163\n      swap1\n      tag_82\n      jump\t// in\n    tag_163:\n      dup1\n      iszero\n      tag_164\n      jumpi\n      dup1\n      0x1f\n      lt\n      tag_165\n      jumpi\n      0x0100\n      dup1\n      dup4\n      sload\n      div\n      mul\n      dup4\n      mstore\n      swap2\n      0x20\n      add\n      swap2\n      jump(tag_164)\n    tag_165:\n      dup3\n      add\n      swap2\n      swap1\n      0x00\n      mstore\n      keccak256(0x00, 0x20)\n      swap1\n    tag_166:\n      dup2\n      sload\n      dup2\n      mstore\n      swap1\n      0x01\n      add\n      swap1\n      0x20\n      add\n      dup1\n      dup4\n      gt\n      tag_166\n      jumpi\n      dup3\n      swap1\n      sub\n      0x1f\n      and\n      dup3\n      add\n      swap2\n    tag_164:\n      pop\n      pop\n      pop\n      pop\n      pop\n      dup2\n      mstore\n      0x20\n      add\n      swap1\n      0x01\n      add\n      swap1\n      jump(tag_159)\n    tag_160:\n      pop\n      pop\n      pop\n      swap1\n      dup3\n      mstore\n      pop\n      0x02\n      dup3\n      add\n      sload\n      0x20\n      dup1\n      dup4\n      add\n      swap2\n      swap1\n      swap2\n      mstore\n      0x03\n      dup4\n      add\n      sload\n      0x40\n      dup4\n      add\n      mstore\n      0x04\n      dup4\n      add\n      sload\n      0x60\n      dup4\n      add\n      mstore\n      0x05\n      swap1\n      swap3\n      add\n      sload\n      0xff\n      and\n      iszero\n      iszero\n      0x80\n      swap1\n      swap2\n      add\n      mstore\n      swap1\n      dup3\n      mstore\n      0x01\n      swap3\n      swap1\n      swap3\n      add\n      swap2\n      add\n      jump(tag_151)\n    tag_152:\n      pop\n      pop\n      pop\n      pop\n      swap1\n      pop\n        /* \"Contribution.sol\":2475:2562  function getNodes() external view returns (Node[] memory) {... */\n      swap1\n      jump\t// out\n    tag_120:\n      dup3\n      dup1\n      sload\n      dup3\n      dup3\n      sstore\n      swap1\n      0x00\n      mstore\n      keccak256(0x00, 0x20)\n      swap1\n      dup2\n      add\n      swap3\n      dup3\n      iszero\n      tag_169\n      jumpi\n      swap2\n      0x20\n      mul\n      dup3\n      add\n    tag_168:\n      dup3\n      dup2\n      gt\n      iszero\n      tag_169\n      jumpi\n      dup3\n      mload\n      dup3\n      swap1\n      tag_170\n      swap1\n      dup3\n      tag_118\n      jump\t// in\n    tag_170:\n      pop\n      swap2\n      0x20\n      add\n      swap2\n      swap1\n      0x01\n      add\n      swap1\n      jump(tag_168)\n    tag_169:\n      pop\n      tag_171\n      swap3\n      swap2\n      pop\n      tag_172\n      jump\t// in\n    tag_171:\n      pop\n      swap1\n      jump\t// out\n    tag_172:\n      dup1\n      dup3\n      gt\n      iszero\n      tag_171\n      jumpi\n      0x00\n      tag_175\n      dup3\n      dup3\n      tag_176\n      jump\t// in\n    tag_175:\n      pop\n      0x01\n      add\n      jump(tag_172)\n    tag_176:\n      pop\n      dup1\n      sload\n      tag_177\n      swap1\n      tag_82\n      jump\t// in\n    tag_177:\n      0x00\n      dup3\n      sstore\n      dup1\n      0x1f\n      lt\n      tag_179\n      jumpi\n      pop\n      pop\n      jump\t// out\n    tag_179:\n      0x1f\n      add\n      0x20\n      swap1\n      div\n      swap1\n      0x00\n      mstore\n      keccak256(0x00, 0x20)\n      swap1\n      dup2\n      add\n      swap1\n      tag_180\n      swap2\n      swap1\n      tag_181\n      jump\t// in\n    tag_180:\n      pop\n      jump\t// out\n    tag_181:\n    tag_182:\n      dup1\n      dup3\n      gt\n      iszero\n      tag_171\n      jumpi\n      0x00\n      dup2\n      sstore\n      0x01\n      add\n      jump(tag_182)\n        /* \"#utility.yul\":14:391   */\n    tag_20:\n        /* \"#utility.yul\":82:88   */\n      0x00\n        /* \"#utility.yul\":90:96   */\n      dup1\n        /* \"#utility.yul\":143:145   */\n      0x40\n        /* \"#utility.yul\":131:140   */\n      dup4\n        /* \"#utility.yul\":122:129   */\n      dup6\n        /* \"#utility.yul\":118:141   */\n      sub\n        /* \"#utility.yul\":114:146   */\n      slt\n        /* \"#utility.yul\":111:163   */\n      iszero\n      tag_196\n      jumpi\n        /* \"#utility.yul\":159:160   */\n      0x00\n        /* \"#utility.yul\":156:157   */\n      dup1\n        /* \"#utility.yul\":149:161   */\n      revert\n        /* \"#utility.yul\":111:163   */\n    tag_196:\n        /* \"#utility.yul\":198:207   */\n      dup3\n        /* \"#utility.yul\":185:208   */\n      calldataload\n      sub(shl(0xa0, 0x01), 0x01)\n        /* \"#utility.yul\":241:246   */\n      dup2\n        /* \"#utility.yul\":237:291   */\n      and\n        /* \"#utility.yul\":230:235   */\n      dup2\n        /* \"#utility.yul\":227:292   */\n      eq\n        /* \"#utility.yul\":217:310   */\n      tag_197\n      jumpi\n        /* \"#utility.yul\":306:307   */\n      0x00\n        /* \"#utility.yul\":303:304   */\n      dup1\n        /* \"#utility.yul\":296:308   */\n      revert\n        /* \"#utility.yul\":217:310   */\n    tag_197:\n        /* \"#utility.yul\":329:334   */\n      swap5\n        /* \"#utility.yul\":381:383   */\n      0x20\n        /* \"#utility.yul\":366:384   */\n      swap4\n      swap1\n      swap4\n      add\n        /* \"#utility.yul\":353:385   */\n      calldataload\n      swap4\n      pop\n      pop\n      pop\n        /* \"#utility.yul\":14:391   */\n      jump\t// out\n        /* \"#utility.yul\":396:576   */\n    tag_25:\n        /* \"#utility.yul\":455:461   */\n      0x00\n        /* \"#utility.yul\":508:510   */\n      0x20\n        /* \"#utility.yul\":496:505   */\n      dup3\n        /* \"#utility.yul\":487:494   */\n      dup5\n        /* \"#utility.yul\":483:506   */\n      sub\n        /* \"#utility.yul\":479:511   */\n      slt\n        /* \"#utility.yul\":476:528   */\n      iszero\n      tag_199\n      jumpi\n        /* \"#utility.yul\":524:525   */\n      0x00\n        /* \"#utility.yul\":521:522   */\n      dup1\n        /* \"#utility.yul\":514:526   */\n      revert\n        /* \"#utility.yul\":476:528   */\n    tag_199:\n      pop\n        /* \"#utility.yul\":547:570   */\n      calldataload\n      swap2\n        /* \"#utility.yul\":396:576   */\n      swap1\n      pop\n      jump\t// out\n        /* \"#utility.yul\":581:870   */\n    tag_184:\n        /* \"#utility.yul\":623:626   */\n      0x00\n        /* \"#utility.yul\":661:666   */\n      dup2\n        /* \"#utility.yul\":655:667   */\n      mload\n        /* \"#utility.yul\":688:694   */\n      dup1\n        /* \"#utility.yul\":683:686   */\n      dup5\n        /* \"#utility.yul\":676:695   */\n      mstore\n        /* \"#utility.yul\":744:750   */\n      dup1\n        /* \"#utility.yul\":737:741   */\n      0x20\n        /* \"#utility.yul\":730:735   */\n      dup5\n        /* \"#utility.yul\":726:742   */\n      add\n        /* \"#utility.yul\":719:723   */\n      0x20\n        /* \"#utility.yul\":714:717   */\n      dup7\n        /* \"#utility.yul\":710:724   */\n      add\n        /* \"#utility.yul\":704:751   */\n      mcopy\n        /* \"#utility.yul\":796:797   */\n      0x00\n        /* \"#utility.yul\":789:793   */\n      0x20\n        /* \"#utility.yul\":780:786   */\n      dup3\n        /* \"#utility.yul\":775:778   */\n      dup7\n        /* \"#utility.yul\":771:787   */\n      add\n        /* \"#utility.yul\":767:794   */\n      add\n        /* \"#utility.yul\":760:798   */\n      mstore\n        /* \"#utility.yul\":859:863   */\n      0x20\n        /* \"#utility.yul\":852:854   */\n      0x1f\n        /* \"#utility.yul\":848:855   */\n      not\n        /* \"#utility.yul\":843:845   */\n      0x1f\n        /* \"#utility.yul\":835:841   */\n      dup4\n        /* \"#utility.yul\":831:846   */\n      add\n        /* \"#utility.yul\":827:856   */\n      and\n        /* \"#utility.yul\":822:825   */\n      dup6\n        /* \"#utility.yul\":818:857   */\n      add\n        /* \"#utility.yul\":814:864   */\n      add\n        /* \"#utility.yul\":807:864   */\n      swap2\n      pop\n      pop\n        /* \"#utility.yul\":581:870   */\n      swap3\n      swap2\n      pop\n      pop\n      jump\t// out\n        /* \"#utility.yul\":971:1488   */\n    tag_28:\n        /* \"#utility.yul\":1226:1229   */\n      0xa0\n        /* \"#utility.yul\":1215:1224   */\n      dup2\n        /* \"#utility.yul\":1208:1230   */\n      mstore\n        /* \"#utility.yul\":1189:1193   */\n      0x00\n        /* \"#utility.yul\":1247:1293   */\n      tag_203\n        /* \"#utility.yul\":1288:1291   */\n      0xa0\n        /* \"#utility.yul\":1277:1286   */\n      dup4\n        /* \"#utility.yul\":1273:1292   */\n      add\n        /* \"#utility.yul\":1265:1271   */\n      dup9\n        /* \"#utility.yul\":1247:1293   */\n      tag_184\n      jump\t// in\n    tag_203:\n        /* \"#utility.yul\":1239:1293   */\n      swap1\n      pop\n        /* \"#utility.yul\":1329:1335   */\n      dup6\n        /* \"#utility.yul\":1324:1326   */\n      0x20\n        /* \"#utility.yul\":1313:1322   */\n      dup4\n        /* \"#utility.yul\":1309:1327   */\n      add\n        /* \"#utility.yul\":1302:1336   */\n      mstore\n        /* \"#utility.yul\":1372:1378   */\n      dup5\n        /* \"#utility.yul\":1367:1369   */\n      0x40\n        /* \"#utility.yul\":1356:1365   */\n      dup4\n        /* \"#utility.yul\":1352:1370   */\n      add\n        /* \"#utility.yul\":1345:1379   */\n      mstore\n        /* \"#utility.yul\":1415:1421   */\n      dup4\n        /* \"#utility.yul\":1410:1412   */\n      0x60\n        /* \"#utility.yul\":1399:1408   */\n      dup4\n        /* \"#utility.yul\":1395:1413   */\n      add\n        /* \"#utility.yul\":1388:1422   */\n      mstore\n        /* \"#utility.yul\":1473:1479   */\n      dup3\n        /* \"#utility.yul\":1466:1480   */\n      iszero\n        /* \"#utility.yul\":1459:1481   */\n      iszero\n        /* \"#utility.yul\":1453:1456   */\n      0x80\n        /* \"#utility.yul\":1442:1451   */\n      dup4\n        /* \"#utility.yul\":1438:1457   */\n      add\n        /* \"#utility.yul\":1431:1482   */\n      mstore\n        /* \"#utility.yul\":971:1488   */\n      swap7\n      swap6\n      pop\n      pop\n      pop\n      pop\n      pop\n      pop\n      jump\t// out\n        /* \"#utility.yul\":1675:2809   */\n    tag_186:\n        /* \"#utility.yul\":1722:1725   */\n      0x00\n        /* \"#utility.yul\":1766:1771   */\n      dup2\n        /* \"#utility.yul\":1760:1772   */\n      mload\n        /* \"#utility.yul\":1793:1797   */\n      0xc0\n        /* \"#utility.yul\":1788:1791   */\n      dup5\n        /* \"#utility.yul\":1781:1798   */\n      mstore\n        /* \"#utility.yul\":1819:1866   */\n      tag_206\n        /* \"#utility.yul\":1860:1864   */\n      0xc0\n        /* \"#utility.yul\":1855:1858   */\n      dup6\n        /* \"#utility.yul\":1851:1865   */\n      add\n        /* \"#utility.yul\":1837:1849   */\n      dup3\n        /* \"#utility.yul\":1819:1866   */\n      tag_184\n      jump\t// in\n    tag_206:\n        /* \"#utility.yul\":1807:1866   */\n      swap1\n      pop\n        /* \"#utility.yul\":1885:1889   */\n      0x20\n        /* \"#utility.yul\":1937:1939   */\n      dup1\n        /* \"#utility.yul\":1930:1935   */\n      dup5\n        /* \"#utility.yul\":1926:1940   */\n      add\n        /* \"#utility.yul\":1920:1941   */\n      mload\n        /* \"#utility.yul\":1981:1984   */\n      dup6\n        /* \"#utility.yul\":1975:1979   */\n      dup4\n        /* \"#utility.yul\":1971:1985   */\n      sub\n        /* \"#utility.yul\":1966:1968   */\n      dup3\n        /* \"#utility.yul\":1961:1964   */\n      dup8\n        /* \"#utility.yul\":1957:1969   */\n      add\n        /* \"#utility.yul\":1950:1986   */\n      mstore\n        /* \"#utility.yul\":2008:2012   */\n      dup3\n        /* \"#utility.yul\":2041:2055   */\n      dup2\n        /* \"#utility.yul\":2035:2056   */\n      mload\n        /* \"#utility.yul\":2078:2084   */\n      dup1\n        /* \"#utility.yul\":2072:2076   */\n      dup6\n        /* \"#utility.yul\":2065:2085   */\n      mstore\n        /* \"#utility.yul\":2113:2115   */\n      dup4\n        /* \"#utility.yul\":2107:2111   */\n      dup6\n        /* \"#utility.yul\":2103:2116   */\n      add\n        /* \"#utility.yul\":2094:2116   */\n      swap2\n      pop\n        /* \"#utility.yul\":2170:2172   */\n      dup4\n        /* \"#utility.yul\":2160:2166   */\n      dup2\n        /* \"#utility.yul\":2157:2158   */\n      0x05\n        /* \"#utility.yul\":2153:2167   */\n      shl\n        /* \"#utility.yul\":2147:2151   */\n      dup7\n        /* \"#utility.yul\":2143:2168   */\n      add\n        /* \"#utility.yul\":2139:2173   */\n      add\n        /* \"#utility.yul\":2216:2218   */\n      dup5\n        /* \"#utility.yul\":2200:2214   */\n      dup5\n        /* \"#utility.yul\":2196:2219   */\n      add\n        /* \"#utility.yul\":2182:2219   */\n      swap4\n      pop\n        /* \"#utility.yul\":2237:2238   */\n      0x00\n        /* \"#utility.yul\":2247:2503   */\n    tag_207:\n        /* \"#utility.yul\":2261:2267   */\n      dup3\n        /* \"#utility.yul\":2258:2259   */\n      dup2\n        /* \"#utility.yul\":2255:2268   */\n      lt\n        /* \"#utility.yul\":2247:2503   */\n      iszero\n      tag_209\n      jumpi\n        /* \"#utility.yul\":2351:2353   */\n      0x1f\n        /* \"#utility.yul\":2347:2354   */\n      not\n        /* \"#utility.yul\":2340:2344   */\n      dup8\n        /* \"#utility.yul\":2332:2338   */\n      dup4\n        /* \"#utility.yul\":2328:2345   */\n      sub\n        /* \"#utility.yul\":2324:2355   */\n      add\n        /* \"#utility.yul\":2317:2322   */\n      dup5\n        /* \"#utility.yul\":2310:2356   */\n      mstore\n        /* \"#utility.yul\":2379:2419   */\n      tag_210\n        /* \"#utility.yul\":2412:2418   */\n      dup3\n        /* \"#utility.yul\":2403:2409   */\n      dup7\n        /* \"#utility.yul\":2397:2410   */\n      mload\n        /* \"#utility.yul\":2379:2419   */\n      tag_184\n      jump\t// in\n    tag_210:\n        /* \"#utility.yul\":2442:2457   */\n      swap5\n      dup7\n      add\n      swap5\n        /* \"#utility.yul\":2479:2493   */\n      swap4\n      dup7\n      add\n      swap4\n        /* \"#utility.yul\":2369:2419   */\n      swap2\n      pop\n        /* \"#utility.yul\":2283:2284   */\n      0x01\n        /* \"#utility.yul\":2276:2285   */\n      add\n        /* \"#utility.yul\":2247:2503   */\n      jump(tag_207)\n    tag_209:\n        /* \"#utility.yul\":2251:2254   */\n      pop\n        /* \"#utility.yul\":2552:2556   */\n      0x40\n        /* \"#utility.yul\":2545:2550   */\n      dup9\n        /* \"#utility.yul\":2541:2557   */\n      add\n        /* \"#utility.yul\":2535:2558   */\n      mload\n        /* \"#utility.yul\":2528:2532   */\n      0x40\n        /* \"#utility.yul\":2523:2526   */\n      dup11\n        /* \"#utility.yul\":2519:2533   */\n      add\n        /* \"#utility.yul\":2512:2559   */\n      mstore\n        /* \"#utility.yul\":2608:2612   */\n      0x60\n        /* \"#utility.yul\":2601:2606   */\n      dup9\n        /* \"#utility.yul\":2597:2613   */\n      add\n        /* \"#utility.yul\":2591:2614   */\n      mload\n        /* \"#utility.yul\":2584:2588   */\n      0x60\n        /* \"#utility.yul\":2579:2582   */\n      dup11\n        /* \"#utility.yul\":2575:2589   */\n      add\n        /* \"#utility.yul\":2568:2615   */\n      mstore\n        /* \"#utility.yul\":2664:2668   */\n      0x80\n        /* \"#utility.yul\":2657:2662   */\n      dup9\n        /* \"#utility.yul\":2653:2669   */\n      add\n        /* \"#utility.yul\":2647:2670   */\n      mload\n        /* \"#utility.yul\":2640:2644   */\n      0x80\n        /* \"#utility.yul\":2635:2638   */\n      dup11\n        /* \"#utility.yul\":2631:2645   */\n      add\n        /* \"#utility.yul\":2624:2671   */\n      mstore\n        /* \"#utility.yul\":2719:2723   */\n      0xa0\n        /* \"#utility.yul\":2712:2717   */\n      dup9\n        /* \"#utility.yul\":2708:2724   */\n      add\n        /* \"#utility.yul\":2702:2725   */\n      mload\n        /* \"#utility.yul\":2680:2725   */\n      swap6\n      pop\n        /* \"#utility.yul\":2734:2781   */\n      tag_211\n        /* \"#utility.yul\":2775:2779   */\n      0xa0\n        /* \"#utility.yul\":2770:2773   */\n      dup11\n        /* \"#utility.yul\":2766:2780   */\n      add\n        /* \"#utility.yul\":2750:2764   */\n      dup8\n        /* \"#utility.yul\":945:958   */\n      iszero\n        /* \"#utility.yul\":938:959   */\n      iszero\n        /* \"#utility.yul\":926:960   */\n      swap1\n      mstore\n        /* \"#utility.yul\":875:966   */\n      jump\n        /* \"#utility.yul\":2734:2781   */\n    tag_211:\n        /* \"#utility.yul\":2797:2803   */\n      swap9\n        /* \"#utility.yul\":1675:2809   */\n      swap8\n      pop\n      pop\n      pop\n      pop\n      pop\n      pop\n      pop\n      pop\n      jump\t// out\n        /* \"#utility.yul\":2814:3059   */\n    tag_44:\n        /* \"#utility.yul\":2983:2985   */\n      0x20\n        /* \"#utility.yul\":2972:2981   */\n      dup2\n        /* \"#utility.yul\":2965:2986   */\n      mstore\n        /* \"#utility.yul\":2946:2950   */\n      0x00\n        /* \"#utility.yul\":3003:3053   */\n      tag_213\n        /* \"#utility.yul\":3049:3051   */\n      0x20\n        /* \"#utility.yul\":3038:3047   */\n      dup4\n        /* \"#utility.yul\":3034:3052   */\n      add\n        /* \"#utility.yul\":3026:3032   */\n      dup5\n        /* \"#utility.yul\":3003:3053   */\n      tag_186\n      jump\t// in\n    tag_213:\n        /* \"#utility.yul\":2995:3053   */\n      swap4\n        /* \"#utility.yul\":2814:3059   */\n      swap3\n      pop\n      pop\n      pop\n      jump\t// out\n        /* \"#utility.yul\":3064:3191   */\n    tag_187:\n        /* \"#utility.yul\":3125:3135   */\n      0x4e487b71\n        /* \"#utility.yul\":3120:3123   */\n      0xe0\n        /* \"#utility.yul\":3116:3136   */\n      shl\n        /* \"#utility.yul\":3113:3114   */\n      0x00\n        /* \"#utility.yul\":3106:3137   */\n      mstore\n        /* \"#utility.yul\":3156:3160   */\n      0x41\n        /* \"#utility.yul\":3153:3154   */\n      0x04\n        /* \"#utility.yul\":3146:3161   */\n      mstore\n        /* \"#utility.yul\":3180:3184   */\n      0x24\n        /* \"#utility.yul\":3177:3178   */\n      0x00\n        /* \"#utility.yul\":3170:3185   */\n      revert\n        /* \"#utility.yul\":3196:3471   */\n    tag_188:\n        /* \"#utility.yul\":3267:3269   */\n      0x40\n        /* \"#utility.yul\":3261:3270   */\n      mload\n        /* \"#utility.yul\":3332:3334   */\n      0x1f\n        /* \"#utility.yul\":3313:3326   */\n      dup3\n      add\n      not(0x1f)\n        /* \"#utility.yul\":3309:3336   */\n      and\n        /* \"#utility.yul\":3297:3337   */\n      dup2\n      add\n        /* \"#utility.yul\":3367:3385   */\n      0xffffffffffffffff\n        /* \"#utility.yul\":3352:3386   */\n      dup2\n      gt\n        /* \"#utility.yul\":3388:3410   */\n      dup3\n      dup3\n      lt\n        /* \"#utility.yul\":3349:3411   */\n      or\n        /* \"#utility.yul\":3346:3434   */\n      iszero\n      tag_217\n      jumpi\n        /* \"#utility.yul\":3414:3432   */\n      tag_217\n      tag_187\n      jump\t// in\n    tag_217:\n        /* \"#utility.yul\":3450:3452   */\n      0x40\n        /* \"#utility.yul\":3443:3465   */\n      mstore\n        /* \"#utility.yul\":3196:3471   */\n      swap2\n      swap1\n      pop\n      jump\t// out\n        /* \"#utility.yul\":3476:4007   */\n    tag_189:\n        /* \"#utility.yul\":3519:3524   */\n      0x00\n        /* \"#utility.yul\":3572:3575   */\n      dup3\n        /* \"#utility.yul\":3565:3569   */\n      0x1f\n        /* \"#utility.yul\":3557:3563   */\n      dup4\n        /* \"#utility.yul\":3553:3570   */\n      add\n        /* \"#utility.yul\":3549:3576   */\n      slt\n        /* \"#utility.yul\":3539:3594   */\n      tag_219\n      jumpi\n        /* \"#utility.yul\":3590:3591   */\n      0x00\n        /* \"#utility.yul\":3587:3588   */\n      dup1\n        /* \"#utility.yul\":3580:3592   */\n      revert\n        /* \"#utility.yul\":3539:3594   */\n    tag_219:\n        /* \"#utility.yul\":3626:3632   */\n      dup2\n        /* \"#utility.yul\":3613:3633   */\n      calldataload\n        /* \"#utility.yul\":3652:3670   */\n      0xffffffffffffffff\n        /* \"#utility.yul\":3648:3650   */\n      dup2\n        /* \"#utility.yul\":3645:3671   */\n      gt\n        /* \"#utility.yul\":3642:3694   */\n      iszero\n      tag_221\n      jumpi\n        /* \"#utility.yul\":3674:3692   */\n      tag_221\n      tag_187\n      jump\t// in\n    tag_221:\n        /* \"#utility.yul\":3718:3773   */\n      tag_222\n        /* \"#utility.yul\":3761:3763   */\n      0x1f\n        /* \"#utility.yul\":3742:3755   */\n      dup3\n      add\n      not(0x1f)\n        /* \"#utility.yul\":3738:3765   */\n      and\n        /* \"#utility.yul\":3767:3771   */\n      0x20\n        /* \"#utility.yul\":3734:3772   */\n      add\n        /* \"#utility.yul\":3718:3773   */\n      tag_188\n      jump\t// in\n    tag_222:\n        /* \"#utility.yul\":3798:3800   */\n      dup2\n        /* \"#utility.yul\":3789:3796   */\n      dup2\n        /* \"#utility.yul\":3782:3801   */\n      mstore\n        /* \"#utility.yul\":3844:3847   */\n      dup5\n        /* \"#utility.yul\":3837:3841   */\n      0x20\n        /* \"#utility.yul\":3832:3834   */\n      dup4\n        /* \"#utility.yul\":3824:3830   */\n      dup7\n        /* \"#utility.yul\":3820:3835   */\n      add\n        /* \"#utility.yul\":3816:3842   */\n      add\n        /* \"#utility.yul\":3813:3848   */\n      gt\n        /* \"#utility.yul\":3810:3865   */\n      iszero\n      tag_223\n      jumpi\n        /* \"#utility.yul\":3861:3862   */\n      0x00\n        /* \"#utility.yul\":3858:3859   */\n      dup1\n        /* \"#utility.yul\":3851:3863   */\n      revert\n        /* \"#utility.yul\":3810:3865   */\n    tag_223:\n        /* \"#utility.yul\":3926:3928   */\n      dup2\n        /* \"#utility.yul\":3919:3923   */\n      0x20\n        /* \"#utility.yul\":3911:3917   */\n      dup6\n        /* \"#utility.yul\":3907:3924   */\n      add\n        /* \"#utility.yul\":3900:3904   */\n      0x20\n        /* \"#utility.yul\":3891:3898   */\n      dup4\n        /* \"#utility.yul\":3887:3905   */\n      add\n        /* \"#utility.yul\":3874:3929   */\n      calldatacopy\n        /* \"#utility.yul\":3974:3975   */\n      0x00\n        /* \"#utility.yul\":3949:3965   */\n      swap2\n      dup2\n      add\n        /* \"#utility.yul\":3967:3971   */\n      0x20\n        /* \"#utility.yul\":3945:3972   */\n      add\n        /* \"#utility.yul\":3938:3976   */\n      swap2\n      swap1\n      swap2\n      mstore\n        /* \"#utility.yul\":3953:3960   */\n      swap4\n        /* \"#utility.yul\":3476:4007   */\n      swap3\n      pop\n      pop\n      pop\n      jump\t// out\n        /* \"#utility.yul\":4012:5309   */\n    tag_48:\n        /* \"#utility.yul\":4125:4131   */\n      0x00\n        /* \"#utility.yul\":4133:4139   */\n      dup1\n        /* \"#utility.yul\":4186:4188   */\n      0x40\n        /* \"#utility.yul\":4174:4183   */\n      dup4\n        /* \"#utility.yul\":4165:4172   */\n      dup6\n        /* \"#utility.yul\":4161:4184   */\n      sub\n        /* \"#utility.yul\":4157:4189   */\n      slt\n        /* \"#utility.yul\":4154:4206   */\n      iszero\n      tag_225\n      jumpi\n        /* \"#utility.yul\":4202:4203   */\n      0x00\n        /* \"#utility.yul\":4199:4200   */\n      dup1\n        /* \"#utility.yul\":4192:4204   */\n      revert\n        /* \"#utility.yul\":4154:4206   */\n    tag_225:\n        /* \"#utility.yul\":4242:4251   */\n      dup3\n        /* \"#utility.yul\":4229:4252   */\n      calldataload\n        /* \"#utility.yul\":4271:4289   */\n      0xffffffffffffffff\n        /* \"#utility.yul\":4312:4314   */\n      dup1\n        /* \"#utility.yul\":4304:4310   */\n      dup3\n        /* \"#utility.yul\":4301:4315   */\n      gt\n        /* \"#utility.yul\":4298:4332   */\n      iszero\n      tag_226\n      jumpi\n        /* \"#utility.yul\":4328:4329   */\n      0x00\n        /* \"#utility.yul\":4325:4326   */\n      dup1\n        /* \"#utility.yul\":4318:4330   */\n      revert\n        /* \"#utility.yul\":4298:4332   */\n    tag_226:\n        /* \"#utility.yul\":4351:4401   */\n      tag_227\n        /* \"#utility.yul\":4393:4400   */\n      dup7\n        /* \"#utility.yul\":4384:4390   */\n      dup4\n        /* \"#utility.yul\":4373:4382   */\n      dup8\n        /* \"#utility.yul\":4369:4391   */\n      add\n        /* \"#utility.yul\":4351:4401   */\n      tag_189\n      jump\t// in\n    tag_227:\n        /* \"#utility.yul\":4341:4401   */\n      swap4\n      pop\n        /* \"#utility.yul\":4420:4422   */\n      0x20\n        /* \"#utility.yul\":4410:4422   */\n      swap2\n      pop\n        /* \"#utility.yul\":4475:4477   */\n      dup2\n        /* \"#utility.yul\":4464:4473   */\n      dup6\n        /* \"#utility.yul\":4460:4478   */\n      add\n        /* \"#utility.yul\":4447:4479   */\n      calldataload\n        /* \"#utility.yul\":4504:4506   */\n      dup2\n        /* \"#utility.yul\":4494:4502   */\n      dup2\n        /* \"#utility.yul\":4491:4507   */\n      gt\n        /* \"#utility.yul\":4488:4524   */\n      iszero\n      tag_228\n      jumpi\n        /* \"#utility.yul\":4520:4521   */\n      0x00\n        /* \"#utility.yul\":4517:4518   */\n      dup1\n        /* \"#utility.yul\":4510:4522   */\n      revert\n        /* \"#utility.yul\":4488:4524   */\n    tag_228:\n        /* \"#utility.yul\":4543:4567   */\n      dup6\n      add\n        /* \"#utility.yul\":4598:4602   */\n      0x1f\n        /* \"#utility.yul\":4590:4603   */\n      dup2\n      add\n        /* \"#utility.yul\":4586:4613   */\n      dup8\n      sgt\n        /* \"#utility.yul\":4576:4631   */\n      tag_229\n      jumpi\n        /* \"#utility.yul\":4627:4628   */\n      0x00\n        /* \"#utility.yul\":4624:4625   */\n      dup1\n        /* \"#utility.yul\":4617:4629   */\n      revert\n        /* \"#utility.yul\":4576:4631   */\n    tag_229:\n        /* \"#utility.yul\":4663:4665   */\n      dup1\n        /* \"#utility.yul\":4650:4666   */\n      calldataload\n        /* \"#utility.yul\":4685:4687   */\n      dup3\n        /* \"#utility.yul\":4681:4683   */\n      dup2\n        /* \"#utility.yul\":4678:4688   */\n      gt\n        /* \"#utility.yul\":4675:4711   */\n      iszero\n      tag_231\n      jumpi\n        /* \"#utility.yul\":4691:4709   */\n      tag_231\n      tag_187\n      jump\t// in\n    tag_231:\n        /* \"#utility.yul\":4737:4739   */\n      dup1\n        /* \"#utility.yul\":4734:4735   */\n      0x05\n        /* \"#utility.yul\":4730:4740   */\n      shl\n        /* \"#utility.yul\":4760:4788   */\n      tag_232\n        /* \"#utility.yul\":4784:4786   */\n      dup6\n        /* \"#utility.yul\":4780:4782   */\n      dup3\n        /* \"#utility.yul\":4776:4787   */\n      add\n        /* \"#utility.yul\":4760:4788   */\n      tag_188\n      jump\t// in\n    tag_232:\n        /* \"#utility.yul\":4822:4837   */\n      swap2\n      dup3\n      mstore\n        /* \"#utility.yul\":4892:4903   */\n      dup3\n      dup2\n      add\n        /* \"#utility.yul\":4888:4908   */\n      dup6\n      add\n      swap2\n        /* \"#utility.yul\":4853:4865   */\n      dup6\n      dup2\n      add\n      swap1\n        /* \"#utility.yul\":4920:4939   */\n      dup11\n      dup5\n      gt\n        /* \"#utility.yul\":4917:4956   */\n      iszero\n      tag_233\n      jumpi\n        /* \"#utility.yul\":4952:4953   */\n      0x00\n        /* \"#utility.yul\":4949:4950   */\n      dup1\n        /* \"#utility.yul\":4942:4954   */\n      revert\n        /* \"#utility.yul\":4917:4956   */\n    tag_233:\n        /* \"#utility.yul\":4984:4986   */\n      dup7\n        /* \"#utility.yul\":4980:4982   */\n      dup6\n        /* \"#utility.yul\":4976:4987   */\n      add\n        /* \"#utility.yul\":4965:4987   */\n      swap3\n      pop\n        /* \"#utility.yul\":4996:5279   */\n    tag_234:\n        /* \"#utility.yul\":5012:5018   */\n      dup4\n        /* \"#utility.yul\":5007:5010   */\n      dup4\n        /* \"#utility.yul\":5004:5019   */\n      lt\n        /* \"#utility.yul\":4996:5279   */\n      iszero\n      tag_236\n      jumpi\n        /* \"#utility.yul\":5098:5101   */\n      dup3\n        /* \"#utility.yul\":5085:5102   */\n      calldataload\n        /* \"#utility.yul\":5134:5136   */\n      dup7\n        /* \"#utility.yul\":5121:5132   */\n      dup2\n        /* \"#utility.yul\":5118:5137   */\n      gt\n        /* \"#utility.yul\":5115:5154   */\n      iszero\n      tag_237\n      jumpi\n        /* \"#utility.yul\":5150:5151   */\n      0x00\n        /* \"#utility.yul\":5147:5148   */\n      dup1\n        /* \"#utility.yul\":5140:5152   */\n      revert\n        /* \"#utility.yul\":5115:5154   */\n    tag_237:\n        /* \"#utility.yul\":5179:5236   */\n      tag_238\n        /* \"#utility.yul\":5228:5235   */\n      dup13\n        /* \"#utility.yul\":5223:5225   */\n      dup10\n        /* \"#utility.yul\":5209:5220   */\n      dup4\n        /* \"#utility.yul\":5205:5207   */\n      dup10\n        /* \"#utility.yul\":5201:5221   */\n      add\n        /* \"#utility.yul\":5197:5226   */\n      add\n        /* \"#utility.yul\":5179:5236   */\n      tag_189\n      jump\t// in\n    tag_238:\n        /* \"#utility.yul\":5167:5237   */\n      dup4\n      mstore\n      pop\n        /* \"#utility.yul\":5029:5041   */\n      swap2\n      dup7\n      add\n      swap2\n        /* \"#utility.yul\":5257:5269   */\n      swap1\n      dup7\n      add\n      swap1\n        /* \"#utility.yul\":4996:5279   */\n      jump(tag_234)\n    tag_236:\n        /* \"#utility.yul\":5298:5303   */\n      dup1\n        /* \"#utility.yul\":5288:5303   */\n      swap8\n      pop\n      pop\n      pop\n      pop\n      pop\n      pop\n      pop\n      pop\n        /* \"#utility.yul\":4012:5309   */\n      swap3\n      pop\n      swap3\n      swap1\n      pop\n      jump\t// out\n        /* \"#utility.yul\":5314:5704   */\n    tag_53:\n        /* \"#utility.yul\":5392:5398   */\n      0x00\n        /* \"#utility.yul\":5400:5406   */\n      dup1\n        /* \"#utility.yul\":5453:5455   */\n      0x40\n        /* \"#utility.yul\":5441:5450   */\n      dup4\n        /* \"#utility.yul\":5432:5439   */\n      dup6\n        /* \"#utility.yul\":5428:5451   */\n      sub\n        /* \"#utility.yul\":5424:5456   */\n      slt\n        /* \"#utility.yul\":5421:5473   */\n      iszero\n      tag_240\n      jumpi\n        /* \"#utility.yul\":5469:5470   */\n      0x00\n        /* \"#utility.yul\":5466:5467   */\n      dup1\n        /* \"#utility.yul\":5459:5471   */\n      revert\n        /* \"#utility.yul\":5421:5473   */\n    tag_240:\n        /* \"#utility.yul\":5505:5514   */\n      dup3\n        /* \"#utility.yul\":5492:5515   */\n      calldataload\n        /* \"#utility.yul\":5482:5515   */\n      swap2\n      pop\n        /* \"#utility.yul\":5566:5568   */\n      0x20\n        /* \"#utility.yul\":5555:5564   */\n      dup4\n        /* \"#utility.yul\":5551:5569   */\n      add\n        /* \"#utility.yul\":5538:5570   */\n      calldataload\n        /* \"#utility.yul\":5593:5611   */\n      0xffffffffffffffff\n        /* \"#utility.yul\":5585:5591   */\n      dup2\n        /* \"#utility.yul\":5582:5612   */\n      gt\n        /* \"#utility.yul\":5579:5629   */\n      iszero\n      tag_241\n      jumpi\n        /* \"#utility.yul\":5625:5626   */\n      0x00\n        /* \"#utility.yul\":5622:5623   */\n      dup1\n        /* \"#utility.yul\":5615:5627   */\n      revert\n        /* \"#utility.yul\":5579:5629   */\n    tag_241:\n        /* \"#utility.yul\":5648:5698   */\n      tag_242\n        /* \"#utility.yul\":5690:5697   */\n      dup6\n        /* \"#utility.yul\":5681:5687   */\n      dup3\n        /* \"#utility.yul\":5670:5679   */\n      dup7\n        /* \"#utility.yul\":5666:5688   */\n      add\n        /* \"#utility.yul\":5648:5698   */\n      tag_189\n      jump\t// in\n    tag_242:\n        /* \"#utility.yul\":5638:5698   */\n      swap2\n      pop\n      pop\n        /* \"#utility.yul\":5314:5704   */\n      swap3\n      pop\n      swap3\n      swap1\n      pop\n      jump\t// out\n        /* \"#utility.yul\":5709:6537   */\n    tag_77:\n        /* \"#utility.yul\":5891:5895   */\n      0x00\n        /* \"#utility.yul\":5920:5922   */\n      0x20\n        /* \"#utility.yul\":5960:5962   */\n      dup1\n        /* \"#utility.yul\":5949:5958   */\n      dup4\n        /* \"#utility.yul\":5945:5963   */\n      add\n        /* \"#utility.yul\":5990:5992   */\n      0x20\n        /* \"#utility.yul\":5979:5988   */\n      dup5\n        /* \"#utility.yul\":5972:5993   */\n      mstore\n        /* \"#utility.yul\":6013:6019   */\n      dup1\n        /* \"#utility.yul\":6048:6054   */\n      dup6\n        /* \"#utility.yul\":6042:6055   */\n      mload\n        /* \"#utility.yul\":6079:6085   */\n      dup1\n        /* \"#utility.yul\":6071:6077   */\n      dup4\n        /* \"#utility.yul\":6064:6086   */\n      mstore\n        /* \"#utility.yul\":6117:6119   */\n      0x40\n        /* \"#utility.yul\":6106:6115   */\n      dup7\n        /* \"#utility.yul\":6102:6120   */\n      add\n        /* \"#utility.yul\":6095:6120   */\n      swap2\n      pop\n        /* \"#utility.yul\":6179:6181   */\n      0x40\n        /* \"#utility.yul\":6169:6175   */\n      dup2\n        /* \"#utility.yul\":6166:6167   */\n      0x05\n        /* \"#utility.yul\":6162:6176   */\n      shl\n        /* \"#utility.yul\":6151:6160   */\n      dup8\n        /* \"#utility.yul\":6147:6177   */\n      add\n        /* \"#utility.yul\":6143:6182   */\n      add\n        /* \"#utility.yul\":6129:6182   */\n      swap3\n      pop\n        /* \"#utility.yul\":6217:6219   */\n      0x20\n        /* \"#utility.yul\":6209:6215   */\n      dup8\n        /* \"#utility.yul\":6205:6220   */\n      add\n        /* \"#utility.yul\":6238:6239   */\n      0x00\n        /* \"#utility.yul\":6248:6508   */\n    tag_244:\n        /* \"#utility.yul\":6262:6268   */\n      dup3\n        /* \"#utility.yul\":6259:6260   */\n      dup2\n        /* \"#utility.yul\":6256:6269   */\n      lt\n        /* \"#utility.yul\":6248:6508   */\n      iszero\n      tag_246\n      jumpi\n        /* \"#utility.yul\":6355:6357   */\n      0x3f\n        /* \"#utility.yul\":6351:6358   */\n      not\n        /* \"#utility.yul\":6339:6348   */\n      dup9\n        /* \"#utility.yul\":6331:6337   */\n      dup7\n        /* \"#utility.yul\":6327:6349   */\n      sub\n        /* \"#utility.yul\":6323:6359   */\n      add\n        /* \"#utility.yul\":6318:6321   */\n      dup5\n        /* \"#utility.yul\":6311:6360   */\n      mstore\n        /* \"#utility.yul\":6383:6428   */\n      tag_247\n        /* \"#utility.yul\":6421:6427   */\n      dup6\n        /* \"#utility.yul\":6412:6418   */\n      dup4\n        /* \"#utility.yul\":6406:6419   */\n      mload\n        /* \"#utility.yul\":6383:6428   */\n      tag_186\n      jump\t// in\n    tag_247:\n        /* \"#utility.yul\":6373:6428   */\n      swap5\n      pop\n        /* \"#utility.yul\":6486:6498   */\n      swap3\n      dup6\n      add\n      swap3\n        /* \"#utility.yul\":6451:6466   */\n      swap1\n      dup6\n      add\n      swap1\n        /* \"#utility.yul\":6284:6285   */\n      0x01\n        /* \"#utility.yul\":6277:6286   */\n      add\n        /* \"#utility.yul\":6248:6508   */\n      jump(tag_244)\n    tag_246:\n      pop\n        /* \"#utility.yul\":6525:6531   */\n      swap3\n      swap8\n        /* \"#utility.yul\":5709:6537   */\n      swap7\n      pop\n      pop\n      pop\n      pop\n      pop\n      pop\n      pop\n      jump\t// out\n        /* \"#utility.yul\":6542:6922   */\n    tag_82:\n        /* \"#utility.yul\":6621:6622   */\n      0x01\n        /* \"#utility.yul\":6617:6629   */\n      dup2\n      dup2\n      shr\n      swap1\n        /* \"#utility.yul\":6664:6676   */\n      dup3\n      and\n      dup1\n        /* \"#utility.yul\":6685:6746   */\n      tag_249\n      jumpi\n        /* \"#utility.yul\":6739:6743   */\n      0x7f\n        /* \"#utility.yul\":6731:6737   */\n      dup3\n        /* \"#utility.yul\":6727:6744   */\n      and\n        /* \"#utility.yul\":6717:6744   */\n      swap2\n      pop\n        /* \"#utility.yul\":6685:6746   */\n    tag_249:\n        /* \"#utility.yul\":6792:6794   */\n      0x20\n        /* \"#utility.yul\":6784:6790   */\n      dup3\n        /* \"#utility.yul\":6781:6795   */\n      lt\n        /* \"#utility.yul\":6761:6779   */\n      dup2\n        /* \"#utility.yul\":6758:6796   */\n      sub\n        /* \"#utility.yul\":6755:6916   */\n      tag_250\n      jumpi\n        /* \"#utility.yul\":6838:6848   */\n      0x4e487b71\n        /* \"#utility.yul\":6833:6836   */\n      0xe0\n        /* \"#utility.yul\":6829:6849   */\n      shl\n        /* \"#utility.yul\":6826:6827   */\n      0x00\n        /* \"#utility.yul\":6819:6850   */\n      mstore\n        /* \"#utility.yul\":6873:6877   */\n      0x22\n        /* \"#utility.yul\":6870:6871   */\n      0x04\n        /* \"#utility.yul\":6863:6878   */\n      mstore\n        /* \"#utility.yul\":6901:6905   */\n      0x24\n        /* \"#utility.yul\":6898:6899   */\n      0x00\n        /* \"#utility.yul\":6891:6906   */\n      revert\n        /* \"#utility.yul\":6755:6916   */\n    tag_250:\n      pop\n        /* \"#utility.yul\":6542:6922   */\n      swap2\n      swap1\n      pop\n      jump\t// out\n        /* \"#utility.yul\":7275:7402   */\n    tag_94:\n        /* \"#utility.yul\":7336:7346   */\n      0x4e487b71\n        /* \"#utility.yul\":7331:7334   */\n      0xe0\n        /* \"#utility.yul\":7327:7347   */\n      shl\n        /* \"#utility.yul\":7324:7325   */\n      0x00\n        /* \"#utility.yul\":7317:7348   */\n      mstore\n        /* \"#utility.yul\":7367:7371   */\n      0x32\n        /* \"#utility.yul\":7364:7365   */\n      0x04\n        /* \"#utility.yul\":7357:7372   */\n      mstore\n        /* \"#utility.yul\":7391:7395   */\n      0x24\n        /* \"#utility.yul\":7388:7389   */\n      0x00\n        /* \"#utility.yul\":7381:7396   */\n      revert\n        /* \"#utility.yul\":7533:8051   */\n    tag_191:\n        /* \"#utility.yul\":7635:7637   */\n      0x1f\n        /* \"#utility.yul\":7630:7633   */\n      dup3\n        /* \"#utility.yul\":7627:7638   */\n      gt\n        /* \"#utility.yul\":7624:8045   */\n      iszero\n      tag_255\n      jumpi\n        /* \"#utility.yul\":7671:7676   */\n      dup1\n        /* \"#utility.yul\":7668:7669   */\n      0x00\n        /* \"#utility.yul\":7661:7677   */\n      mstore\n        /* \"#utility.yul\":7715:7719   */\n      0x20\n        /* \"#utility.yul\":7712:7713   */\n      0x00\n        /* \"#utility.yul\":7702:7720   */\n      keccak256\n        /* \"#utility.yul\":7785:7787   */\n      0x1f\n        /* \"#utility.yul\":7773:7783   */\n      dup5\n        /* \"#utility.yul\":7769:7788   */\n      add\n        /* \"#utility.yul\":7766:7767   */\n      0x05\n        /* \"#utility.yul\":7762:7789   */\n      shr\n        /* \"#utility.yul\":7756:7760   */\n      dup2\n        /* \"#utility.yul\":7752:7790   */\n      add\n        /* \"#utility.yul\":7821:7825   */\n      0x20\n        /* \"#utility.yul\":7809:7819   */\n      dup6\n        /* \"#utility.yul\":7806:7826   */\n      lt\n        /* \"#utility.yul\":7803:7850   */\n      iszero\n      tag_256\n      jumpi\n      pop\n        /* \"#utility.yul\":7844:7848   */\n      dup1\n        /* \"#utility.yul\":7803:7850   */\n    tag_256:\n        /* \"#utility.yul\":7899:7901   */\n      0x1f\n        /* \"#utility.yul\":7894:7897   */\n      dup5\n        /* \"#utility.yul\":7890:7902   */\n      add\n        /* \"#utility.yul\":7887:7888   */\n      0x05\n        /* \"#utility.yul\":7883:7903   */\n      shr\n        /* \"#utility.yul\":7877:7881   */\n      dup3\n        /* \"#utility.yul\":7873:7904   */\n      add\n        /* \"#utility.yul\":7863:7904   */\n      swap2\n      pop\n        /* \"#utility.yul\":7954:8035   */\n    tag_257:\n        /* \"#utility.yul\":7972:7974   */\n      dup2\n        /* \"#utility.yul\":7965:7970   */\n      dup2\n        /* \"#utility.yul\":7962:7975   */\n      lt\n        /* \"#utility.yul\":7954:8035   */\n      iszero\n      tag_259\n      jumpi\n        /* \"#utility.yul\":8031:8032   */\n      0x00\n        /* \"#utility.yul\":8017:8033   */\n      dup2\n      sstore\n        /* \"#utility.yul\":7998:7999   */\n      0x01\n        /* \"#utility.yul\":7987:8000   */\n      add\n        /* \"#utility.yul\":7954:8035   */\n      jump(tag_257)\n    tag_259:\n        /* \"#utility.yul\":7958:7961   */\n      pop\n      pop\n        /* \"#utility.yul\":7624:8045   */\n    tag_255:\n        /* \"#utility.yul\":7533:8051   */\n      pop\n      pop\n      pop\n      jump\t// out\n        /* \"#utility.yul\":8227:9572   */\n    tag_118:\n        /* \"#utility.yul\":8353:8356   */\n      dup2\n        /* \"#utility.yul\":8347:8357   */\n      mload\n        /* \"#utility.yul\":8380:8398   */\n      0xffffffffffffffff\n        /* \"#utility.yul\":8372:8378   */\n      dup2\n        /* \"#utility.yul\":8369:8399   */\n      gt\n        /* \"#utility.yul\":8366:8422   */\n      iszero\n      tag_263\n      jumpi\n        /* \"#utility.yul\":8402:8420   */\n      tag_263\n      tag_187\n      jump\t// in\n    tag_263:\n        /* \"#utility.yul\":8431:8528   */\n      tag_264\n        /* \"#utility.yul\":8521:8527   */\n      dup2\n        /* \"#utility.yul\":8481:8519   */\n      tag_265\n        /* \"#utility.yul\":8513:8517   */\n      dup5\n        /* \"#utility.yul\":8507:8518   */\n      sload\n        /* \"#utility.yul\":8481:8519   */\n      tag_82\n      jump\t// in\n    tag_265:\n        /* \"#utility.yul\":8475:8479   */\n      dup5\n        /* \"#utility.yul\":8431:8528   */\n      tag_191\n      jump\t// in\n    tag_264:\n        /* \"#utility.yul\":8583:8587   */\n      0x20\n      dup1\n        /* \"#utility.yul\":8640:8642   */\n      0x1f\n        /* \"#utility.yul\":8629:8643   */\n      dup4\n      gt\n        /* \"#utility.yul\":8657:8658   */\n      0x01\n        /* \"#utility.yul\":8652:9315   */\n      dup2\n      eq\n      tag_267\n      jumpi\n        /* \"#utility.yul\":9359:9360   */\n      0x00\n        /* \"#utility.yul\":9376:9382   */\n      dup5\n        /* \"#utility.yul\":9373:9462   */\n      iszero\n      tag_268\n      jumpi\n      pop\n        /* \"#utility.yul\":9428:9447   */\n      dup6\n      dup4\n      add\n        /* \"#utility.yul\":9422:9448   */\n      mload\n        /* \"#utility.yul\":9373:9462   */\n    tag_268:\n      not(0x00)\n        /* \"#utility.yul\":8184:8185   */\n      0x03\n        /* \"#utility.yul\":8180:8191   */\n      dup7\n      swap1\n      shl\n        /* \"#utility.yul\":8176:8200   */\n      shr\n        /* \"#utility.yul\":8172:8201   */\n      not\n        /* \"#utility.yul\":8162:8202   */\n      and\n        /* \"#utility.yul\":8208:8209   */\n      0x01\n        /* \"#utility.yul\":8204:8215   */\n      dup6\n      swap1\n      shl\n        /* \"#utility.yul\":8159:8216   */\n      or\n        /* \"#utility.yul\":9475:9556   */\n      dup6\n      sstore\n        /* \"#utility.yul\":8622:9566   */\n      jump(tag_266)\n        /* \"#utility.yul\":8652:9315   */\n    tag_267:\n        /* \"#utility.yul\":7480:7481   */\n      0x00\n        /* \"#utility.yul\":7473:7487   */\n      dup6\n      dup2\n      mstore\n        /* \"#utility.yul\":7517:7521   */\n      0x20\n        /* \"#utility.yul\":7504:7522   */\n      dup2\n      keccak256\n      not(0x1f)\n        /* \"#utility.yul\":8688:8708   */\n      dup7\n      and\n      swap2\n        /* \"#utility.yul\":8806:9042   */\n    tag_271:\n        /* \"#utility.yul\":8820:8827   */\n      dup3\n        /* \"#utility.yul\":8817:8818   */\n      dup2\n        /* \"#utility.yul\":8814:8828   */\n      lt\n        /* \"#utility.yul\":8806:9042   */\n      iszero\n      tag_273\n      jumpi\n        /* \"#utility.yul\":8909:8928   */\n      dup9\n      dup7\n      add\n        /* \"#utility.yul\":8903:8929   */\n      mload\n        /* \"#utility.yul\":8888:8930   */\n      dup3\n      sstore\n        /* \"#utility.yul\":9001:9028   */\n      swap5\n      dup5\n      add\n      swap5\n        /* \"#utility.yul\":8969:8970   */\n      0x01\n        /* \"#utility.yul\":8957:8971   */\n      swap1\n      swap2\n      add\n      swap1\n        /* \"#utility.yul\":8836:8855   */\n      dup5\n      add\n        /* \"#utility.yul\":8806:9042   */\n      jump(tag_271)\n    tag_273:\n        /* \"#utility.yul\":8810:8813   */\n      pop\n        /* \"#utility.yul\":9070:9076   */\n      dup6\n        /* \"#utility.yul\":9061:9068   */\n      dup3\n        /* \"#utility.yul\":9058:9077   */\n      lt\n        /* \"#utility.yul\":9055:9256   */\n      iszero\n      tag_274\n      jumpi\n        /* \"#utility.yul\":9131:9150   */\n      dup8\n      dup6\n      add\n        /* \"#utility.yul\":9125:9151   */\n      mload\n      not(0x00)\n        /* \"#utility.yul\":9214:9215   */\n      0x03\n        /* \"#utility.yul\":9210:9224   */\n      dup9\n      swap1\n      shl\n        /* \"#utility.yul\":9226:9229   */\n      0xf8\n        /* \"#utility.yul\":9206:9230   */\n      and\n        /* \"#utility.yul\":9202:9239   */\n      shr\n        /* \"#utility.yul\":9198:9240   */\n      not\n        /* \"#utility.yul\":9183:9241   */\n      and\n        /* \"#utility.yul\":9168:9242   */\n      dup2\n      sstore\n        /* \"#utility.yul\":9055:9256   */\n    tag_274:\n      pop\n      pop\n        /* \"#utility.yul\":9302:9303   */\n      0x01\n        /* \"#utility.yul\":9293:9299   */\n      dup5\n        /* \"#utility.yul\":9290:9291   */\n      0x01\n        /* \"#utility.yul\":9286:9300   */\n      shl\n        /* \"#utility.yul\":9282:9304   */\n      add\n        /* \"#utility.yul\":9276:9280   */\n      dup6\n        /* \"#utility.yul\":9269:9305   */\n      sstore\n        /* \"#utility.yul\":8622:9566   */\n    tag_266:\n      pop\n      pop\n      pop\n      pop\n        /* \"#utility.yul\":8227:9572   */\n      pop\n      pop\n      jump\t// out\n        /* \"#utility.yul\":9577:9704   */\n    tag_193:\n        /* \"#utility.yul\":9638:9648   */\n      0x4e487b71\n        /* \"#utility.yul\":9633:9636   */\n      0xe0\n        /* \"#utility.yul\":9629:9649   */\n      shl\n        /* \"#utility.yul\":9626:9627   */\n      0x00\n        /* \"#utility.yul\":9619:9650   */\n      mstore\n        /* \"#utility.yul\":9669:9673   */\n      0x11\n        /* \"#utility.yul\":9666:9667   */\n      0x04\n        /* \"#utility.yul\":9659:9674   */\n      mstore\n        /* \"#utility.yul\":9693:9697   */\n      0x24\n        /* \"#utility.yul\":9690:9691   */\n      0x00\n        /* \"#utility.yul\":9683:9698   */\n      revert\n        /* \"#utility.yul\":9709:9837   */\n    tag_122:\n        /* \"#utility.yul\":9776:9785   */\n      dup2\n      dup2\n      sub\n        /* \"#utility.yul\":9797:9808   */\n      dup2\n      dup2\n      gt\n        /* \"#utility.yul\":9794:9831   */\n      iszero\n      tag_87\n      jumpi\n        /* \"#utility.yul\":9811:9829   */\n      tag_87\n      tag_193\n      jump\t// in\n        /* \"#utility.yul\":9842:10133   */\n    tag_124:\n        /* \"#utility.yul\":10019:10021   */\n      0x40\n        /* \"#utility.yul\":10008:10017   */\n      dup2\n        /* \"#utility.yul\":10001:10022   */\n      mstore\n        /* \"#utility.yul\":9982:9986   */\n      0x00\n        /* \"#utility.yul\":10039:10084   */\n      tag_280\n        /* \"#utility.yul\":10080:10082   */\n      0x40\n        /* \"#utility.yul\":10069:10078   */\n      dup4\n        /* \"#utility.yul\":10065:10083   */\n      add\n        /* \"#utility.yul\":10057:10063   */\n      dup6\n        /* \"#utility.yul\":10039:10084   */\n      tag_184\n      jump\t// in\n    tag_280:\n        /* \"#utility.yul\":10031:10084   */\n      swap1\n      pop\n        /* \"#utility.yul\":10120:10126   */\n      dup3\n        /* \"#utility.yul\":10115:10117   */\n      0x20\n        /* \"#utility.yul\":10104:10113   */\n      dup4\n        /* \"#utility.yul\":10100:10118   */\n      add\n        /* \"#utility.yul\":10093:10127   */\n      mstore\n        /* \"#utility.yul\":9842:10133   */\n      swap4\n      swap3\n      pop\n      pop\n      pop\n      jump\t// out\n        /* \"#utility.yul\":10138:10263   */\n    tag_134:\n        /* \"#utility.yul\":10203:10212   */\n      dup1\n      dup3\n      add\n        /* \"#utility.yul\":10224:10234   */\n      dup1\n      dup3\n      gt\n        /* \"#utility.yul\":10221:10257   */\n      iszero\n      tag_87\n      jumpi\n        /* \"#utility.yul\":10237:10255   */\n      tag_87\n      tag_193\n      jump\t// in\n        /* \"#utility.yul\":10268:10630   */\n    tag_137:\n        /* \"#utility.yul\":10473:10479   */\n      dup4\n        /* \"#utility.yul\":10462:10471   */\n      dup2\n        /* \"#utility.yul\":10455:10480   */\n      mstore\n        /* \"#utility.yul\":10516:10518   */\n      0x60\n        /* \"#utility.yul\":10511:10513   */\n      0x20\n        /* \"#utility.yul\":10500:10509   */\n      dup3\n        /* \"#utility.yul\":10496:10514   */\n      add\n        /* \"#utility.yul\":10489:10519   */\n      mstore\n        /* \"#utility.yul\":10436:10440   */\n      0x00\n        /* \"#utility.yul\":10536:10581   */\n      tag_285\n        /* \"#utility.yul\":10577:10579   */\n      0x60\n        /* \"#utility.yul\":10566:10575   */\n      dup4\n        /* \"#utility.yul\":10562:10580   */\n      add\n        /* \"#utility.yul\":10554:10560   */\n      dup6\n        /* \"#utility.yul\":10536:10581   */\n      tag_184\n      jump\t// in\n    tag_285:\n        /* \"#utility.yul\":10528:10581   */\n      swap1\n      pop\n        /* \"#utility.yul\":10617:10623   */\n      dup3\n        /* \"#utility.yul\":10612:10614   */\n      0x40\n        /* \"#utility.yul\":10601:10610   */\n      dup4\n        /* \"#utility.yul\":10597:10615   */\n      add\n        /* \"#utility.yul\":10590:10624   */\n      mstore\n        /* \"#utility.yul\":10268:10630   */\n      swap5\n      swap4\n      pop\n      pop\n      pop\n      pop\n      jump\t// out\n\n    auxdata: 0xa2646970667358221220384610a0319a219438237502d14d472972ae09d347c021799fd04d586e489e6864736f6c63430008190033\n}\n",
    "bytecode": {
      "linkReferences": {},
      "object": "6080604052348015600e575f80fd5b506112118061001c5f395ff3fe6080604052600436106100c3575f3560e01c8063b51f79e311610071578063cbb9efeb1161004c578063cbb9efeb1461024d578063dd1ead0014610283578063e29581aa146102b9575f80fd5b8063b51f79e3146101da578063be999705146101f9578063c8b4d1d61461020c575f80fd5b80634a55ef1e116100a15780634a55ef1e146101705780634f0f4aa91461018f5780639db338ae146101bb575f80fd5b806304abc319146100c75780631c53c2801461010a57806323995ade14610143575b5f80fd5b3480156100d2575f80fd5b506101086100e1366004610c54565b6001600160a01b039091165f90815260026020908152604080832093835292905220439055565b005b348015610115575f80fd5b50610129610124366004610c89565b6102da565b60405161013a959493929190610cce565b60405180910390f35b34801561014e575f80fd5b5061016261015d366004610c54565b6103a4565b60405190815260200161013a565b34801561017b575f80fd5b5061010861018a366004610c89565b6103ce565b34801561019a575f80fd5b506101ae6101a9366004610c89565b610479565b60405161013a9190610db1565b3480156101c6575f80fd5b506101086101d5366004610e7b565b610670565b3480156101e5575f80fd5b506101086101f4366004610f5a565b610756565b610108610207366004610c89565b610878565b348015610217575f80fd5b50610162610226366004610c54565b6001600160a01b03919091165f908152600160209081526040808320938352929052205490565b348015610258575f80fd5b50610162610267366004610c54565b600260209081525f928352604080842090915290825290205481565b34801561028e575f80fd5b5061016261029d366004610c54565b600160209081525f928352604080842090915290825290205481565b3480156102c4575f80fd5b506102cd6109a5565b60405161013a9190610f9e565b5f81815481106102e8575f80fd5b905f5260205f2090600602015f91509050805f01805461030790611000565b80601f016020809104026020016040519081016040528092919081815260200182805461033390611000565b801561037e5780601f106103555761010080835404028352916020019161037e565b820191905f5260205f20905b81548152906001019060200180831161036157829003601f168201915b505050506002830154600384015460048501546005909501549394919390925060ff1685565b6001600160a01b0382165f9081526002602090815260408083208484529091529020545b92915050565b5f5481106104195760405162461bcd60e51b8152602060048201526013602482015272139bd91948191bd95cc81b9bdd08195e1a5cdd606a1b60448201526064015b60405180910390fd5b5f80828154811061042c5761042c611038565b5f918252602082206005600690920201908101805460ff1916600117905560405190925083917ff1c92498f9b82ac12ed4160513cd238f89e2cf39b41ed4173c014e05b4abb5da91a25050565b6104b06040518060c0016040528060608152602001606081526020015f81526020015f81526020015f81526020015f151581525090565b5f82815481106104c2576104c2611038565b905f5260205f2090600602016040518060c00160405290815f820180546104e890611000565b80601f016020809104026020016040519081016040528092919081815260200182805461051490611000565b801561055f5780601f106105365761010080835404028352916020019161055f565b820191905f5260205f20905b81548152906001019060200180831161054257829003601f168201915b5050505050815260200160018201805480602002602001604051908101604052809291908181526020015f905b82821015610634578382905f5260205f200180546105a990611000565b80601f01602080910402602001604051908101604052809291908181526020018280546105d590611000565b80156106205780601f106105f757610100808354040283529160200191610620565b820191905f5260205f20905b81548152906001019060200180831161060357829003601f168201915b50505050508152602001906001019061058c565b5050509082525060028201546020820152600382015460408201526004820154606082015260059091015460ff16151560809091015292915050565b5f80546001810182559080526006027f290decd9548b62a8d60345a988386fc84ba6bc95484008f6362f93160ef3e56301806106ac8482611098565b5081516106c29060018301906020850190610b96565b50600a60028201555f6003820181905542600483015560058201805460ff1916905580546106f29060019061116c565b335f90815260026020818152604080842085855290915291829020439055840154905191925082917fd6b9fd965278c07866df5cd73b387c2be1b4cee8babd38ce44f1910c2f2a6ef0916107489188919061117f565b60405180910390a250505050565b5f54821061079c5760405162461bcd60e51b8152602060048201526013602482015272139bd91948191bd95cc81b9bdd08195e1a5cdd606a1b6044820152606401610410565b5f8083815481106107af576107af611038565b5f918252602080832060016006909302018281018054938401815584529220919250016107dc8382611098565b505f6005905080826002015f8282546107f591906111a0565b9091555050335f908152600160209081526040808320878452909152812080548392906108239084906111a0565b9091555050335f81815260026020908152604080832088845290915290819020439055517f0dd8be5834cebc72bd117e9164b0fa989d3724a6fa3246582bf3938adb99ba3890610748908790879086906111b3565b5f5481106108be5760405162461bcd60e51b8152602060048201526013602482015272139bd91948191bd95cc81b9bdd08195e1a5cdd606a1b6044820152606401610410565b5f34116109335760405162461bcd60e51b815260206004820152602560248201527f4d7573742073656e6420736f6d6520657468657220746f2066756e642074686560448201527f206e6f64650000000000000000000000000000000000000000000000000000006064820152608401610410565b5f80828154811061094657610946611038565b905f5260205f209060060201905034816003015f82825461096791906111a0565b909155505060405134815282907ff5e4934928a1e45d88c7a5aa2661fe0a801ca5017922e15122d74f1880155e1a9060200160405180910390a25050565b60605f805480602002602001604051908101604052809291908181526020015f905b82821015610b8d578382905f5260205f2090600602016040518060c00160405290815f820180546109f790611000565b80601f0160208091040260200160405190810160405280929190818152602001828054610a2390611000565b8015610a6e5780601f10610a4557610100808354040283529160200191610a6e565b820191905f5260205f20905b815481529060010190602001808311610a5157829003601f168201915b5050505050815260200160018201805480602002602001604051908101604052809291908181526020015f905b82821015610b43578382905f5260205f20018054610ab890611000565b80601f0160208091040260200160405190810160405280929190818152602001828054610ae490611000565b8015610b2f5780601f10610b0657610100808354040283529160200191610b2f565b820191905f5260205f20905b815481529060010190602001808311610b1257829003601f168201915b505050505081526020019060010190610a9b565b505050908252506002820154602080830191909152600383015460408301526004830154606083015260059092015460ff16151560809091015290825260019290920191016109c7565b50505050905090565b828054828255905f5260205f20908101928215610bda579160200282015b82811115610bda5782518290610bca9082611098565b5091602001919060010190610bb4565b50610be6929150610bea565b5090565b80821115610be6575f610bfd8282610c06565b50600101610bea565b508054610c1290611000565b5f825580601f10610c21575050565b601f0160209004905f5260205f2090810190610c3d9190610c40565b50565b5b80821115610be6575f8155600101610c41565b5f8060408385031215610c65575f80fd5b82356001600160a01b0381168114610c7b575f80fd5b946020939093013593505050565b5f60208284031215610c99575f80fd5b5035919050565b5f81518084528060208401602086015e5f602082860101526020601f19601f83011685010191505092915050565b60a081525f610ce060a0830188610ca0565b905085602083015284604083015283606083015282151560808301529695505050505050565b5f815160c08452610d1a60c0850182610ca0565b9050602080840151858303828701528281518085528385019150838160051b86010184840193505f5b82811015610d7157601f19878303018452610d5f828651610ca0565b94860194938601939150600101610d43565b50604088015160408a0152606088015160608a0152608088015160808a015260a08801519550610da560a08a018715159052565b98975050505050505050565b602081525f610dc36020830184610d06565b9392505050565b634e487b7160e01b5f52604160045260245ffd5b604051601f8201601f1916810167ffffffffffffffff81118282101715610e0757610e07610dca565b604052919050565b5f82601f830112610e1e575f80fd5b813567ffffffffffffffff811115610e3857610e38610dca565b610e4b601f8201601f1916602001610dde565b818152846020838601011115610e5f575f80fd5b816020850160208301375f918101602001919091529392505050565b5f8060408385031215610e8c575f80fd5b823567ffffffffffffffff80821115610ea3575f80fd5b610eaf86838701610e0f565b9350602091508185013581811115610ec5575f80fd5b8501601f81018713610ed5575f80fd5b803582811115610ee757610ee7610dca565b8060051b610ef6858201610dde565b918252828101850191858101908a841115610f0f575f80fd5b86850192505b83831015610f4957823586811115610f2b575f80fd5b610f398c8983890101610e0f565b8352509186019190860190610f15565b809750505050505050509250929050565b5f8060408385031215610f6b575f80fd5b82359150602083013567ffffffffffffffff811115610f88575f80fd5b610f9485828601610e0f565b9150509250929050565b5f60208083016020845280855180835260408601915060408160051b8701019250602087015f5b82811015610ff357603f19888603018452610fe1858351610d06565b94509285019290850190600101610fc5565b5092979650505050505050565b600181811c9082168061101457607f821691505b60208210810361103257634e487b7160e01b5f52602260045260245ffd5b50919050565b634e487b7160e01b5f52603260045260245ffd5b601f82111561109357805f5260205f20601f840160051c810160208510156110715750805b601f840160051c820191505b81811015611090575f815560010161107d565b50505b505050565b815167ffffffffffffffff8111156110b2576110b2610dca565b6110c6816110c08454611000565b8461104c565b602080601f8311600181146110f9575f84156110e25750858301515b5f19600386901b1c1916600185901b178555611150565b5f85815260208120601f198616915b8281101561112757888601518255948401946001909101908401611108565b508582101561114457878501515f19600388901b60f8161c191681555b505060018460011b0185555b505050505050565b634e487b7160e01b5f52601160045260245ffd5b818103818111156103c8576103c8611158565b604081525f6111916040830185610ca0565b90508260208301529392505050565b808201808211156103c8576103c8611158565b838152606060208201525f6111cb6060830185610ca0565b905082604083015294935050505056fea2646970667358221220384610a0319a219438237502d14d472972ae09d347c021799fd04d586e489e6864736f6c63430008190033",
      "opcodes": "PUSH1 0x80 PUSH1 0x40 MSTORE CALLVALUE DUP1 ISZERO PUSH1 0xE JUMPI PUSH0 DUP1 REVERT JUMPDEST POP PUSH2 0x1211 DUP1 PUSH2 0x1C PUSH0 CODECOPY PUSH0 RETURN INVALID PUSH1 0x80 PUSH1 0x40 MSTORE PUSH1 0x4 CALLDATASIZE LT PUSH2 0xC3 JUMPI PUSH0 CALLDATALOAD PUSH1 0xE0 SHR DUP1 PUSH4 0xB51F79E3 GT PUSH2 0x71 JUMPI DUP1 PUSH4 0xCBB9EFEB GT PUSH2 0x4C JUMPI DUP1 PUSH4 0xCBB9EFEB EQ PUSH2 0x24D JUMPI DUP1 PUSH4 0xDD1EAD00 EQ PUSH2 0x283 JUMPI DUP1 PUSH4 0xE29581AA EQ PUSH2 0x2B9 JUMPI PUSH0 DUP1 REVERT JUMPDEST DUP1 PUSH4 0xB51F79E3 EQ PUSH2 0x1DA JUMPI DUP1 PUSH4 0xBE999705 EQ PUSH2 0x1F9 JUMPI DUP1 PUSH4 0xC8B4D1D6 EQ PUSH2 0x20C JUMPI PUSH0 DUP1 REVERT JUMPDEST DUP1 PUSH4 0x4A55EF1E GT PUSH2 0xA1 JUMPI DUP1 PUSH4 0x4A55EF1E EQ PUSH2 0x170 JUMPI DUP1 PUSH4 0x4F0F4AA9 EQ PUSH2 0x18F JUMPI DUP1 PUSH4 0x9DB338AE EQ PUSH2 0x1BB JUMPI PUSH0 DUP1 REVERT JUMPDEST DUP1 PUSH4 0x4ABC319 EQ PUSH2 0xC7 JUMPI DUP1 PUSH4 0x1C53C280 EQ PUSH2 0x10A JUMPI DUP1 PUSH4 0x23995ADE EQ PUSH2 0x143 JUMPI JUMPDEST PUSH0 DUP1 REVERT JUMPDEST CALLVALUE DUP1 ISZERO PUSH2 0xD2 JUMPI PUSH0 DUP1 REVERT JUMPDEST POP PUSH2 0x108 PUSH2 0xE1 CALLDATASIZE PUSH1 0x4 PUSH2 0xC54 JUMP JUMPDEST PUSH1 0x1 PUSH1 0x1 PUSH1 0xA0 SHL SUB SWAP1 SWAP2 AND PUSH0 SWAP1 DUP2 MSTORE PUSH1 0x2 PUSH1 0x20 SWAP1 DUP2 MSTORE PUSH1 0x40 DUP1 DUP4 KECCAK256 SWAP4 DUP4 MSTORE SWAP3 SWAP1 MSTORE KECCAK256 NUMBER SWAP1 SSTORE JUMP JUMPDEST STOP JUMPDEST CALLVALUE DUP1 ISZERO PUSH2 0x115 JUMPI PUSH0 DUP1 REVERT JUMPDEST POP PUSH2 0x129 PUSH2 0x124 CALLDATASIZE PUSH1 0x4 PUSH2 0xC89 JUMP JUMPDEST PUSH2 0x2DA JUMP JUMPDEST PUSH1 0x40 MLOAD PUSH2 0x13A SWAP6 SWAP5 SWAP4 SWAP3 SWAP2 SWAP1 PUSH2 0xCCE JUMP JUMPDEST PUSH1 0x40 MLOAD DUP1 SWAP2 SUB SWAP1 RETURN JUMPDEST CALLVALUE DUP1 ISZERO PUSH2 0x14E JUMPI PUSH0 DUP1 REVERT JUMPDEST POP PUSH2 0x162 PUSH2 0x15D CALLDATASIZE PUSH1 0x4 PUSH2 0xC54 JUMP JUMPDEST PUSH2 0x3A4 JUMP JUMPDEST PUSH1 0x40 MLOAD SWAP1 DUP2 MSTORE PUSH1 0x20 ADD PUSH2 0x13A JUMP JUMPDEST CALLVALUE DUP1 ISZERO PUSH2 0x17B JUMPI PUSH0 DUP1 REVERT JUMPDEST POP PUSH2 0x108 PUSH2 0x18A CALLDATASIZE PUSH1 0x4 PUSH2 0xC89 JUMP JUMPDEST PUSH2 0x3CE JUMP JUMPDEST CALLVALUE DUP1 ISZERO PUSH2 0x19A JUMPI PUSH0 DUP1 REVERT JUMPDEST POP PUSH2 0x1AE PUSH2 0x1A9 CALLDATASIZE PUSH1 0x4 PUSH2 0xC89 JUMP JUMPDEST PUSH2 0x479 JUMP JUMPDEST PUSH1 0x40 MLOAD PUSH2 0x13A SWAP2 SWAP1 PUSH2 0xDB1 JUMP JUMPDEST CALLVALUE DUP1 ISZERO PUSH2 0x1C6 JUMPI PUSH0 DUP1 REVERT JUMPDEST POP PUSH2 0x108 PUSH2 0x1D5 CALLDATASIZE PUSH1 0x4 PUSH2 0xE7B JUMP JUMPDEST PUSH2 0x670 JUMP JUMPDEST CALLVALUE DUP1 ISZERO PUSH2 0x1E5 JUMPI PUSH0 DUP1 REVERT JUMPDEST POP PUSH2 0x108 PUSH2 0x1F4 CALLDATASIZE PUSH1 0x4 PUSH2 0xF5A JUMP JUMPDEST PUSH2 0x756 JUMP JUMPDEST PUSH2 0x108 PUSH2 0x207 CALLDATASIZE PUSH1 0x4 PUSH2 0xC89 JUMP JUMPDEST PUSH2 0x878 JUMP JUMPDEST CALLVALUE DUP1 ISZERO PUSH2 0x217 JUMPI PUSH0 DUP1 REVERT JUMPDEST POP PUSH2 0x162 PUSH2 0x226 CALLDATASIZE PUSH1 0x4 PUSH2 0xC54 JUMP JUMPDEST PUSH1 0x1 PUSH1 0x1 PUSH1 0xA0 SHL SUB SWAP2 SWAP1 SWAP2 AND PUSH0 SWAP1 DUP2 MSTORE PUSH1 0x1 PUSH1 0x20 SWAP1 DUP2 MSTORE PUSH1 0x40 DUP1 DUP4 KECCAK256 SWAP4 DUP4 MSTORE SWAP3 SWAP1 MSTORE KECCAK256 SLOAD SWAP1 JUMP JUMPDEST CALLVALUE DUP1 ISZERO PUSH2 0x258 JUMPI PUSH0 DUP1 REVERT JUMPDEST POP PUSH2 0x162 PUSH2 0x267 CALLDATASIZE PUSH1 0x4 PUSH2 0xC54 JUMP JUMPDEST PUSH1 0x2 PUSH1 0x20 SWAP1 DUP2 MSTORE PUSH0 SWAP3 DUP4 MSTORE PUSH1 0x40 DUP1 DUP5 KECCAK256 SWAP1 SWAP2 MSTORE SWAP1 DUP3 MSTORE SWAP1 KECCAK256 SLOAD DUP2 JUMP JUMPDEST CALLVALUE DUP1 ISZERO PUSH2 0x28E JUMPI PUSH0 DUP1 REVERT JUMPDEST POP PUSH2 0x162 PUSH2 0x29D CALLDATASIZE PUSH1 0x4 PUSH2 0xC54 JUMP JUMPDEST PUSH1 0x1 PUSH1 0x20 SWAP1 DUP2 MSTORE PUSH0 SWAP3 DUP4 MSTORE PUSH1 0x40 DUP1 DUP5 KECCAK256 SWAP1 SWAP2 MSTORE SWAP1 DUP3 MSTORE SWAP1 KECCAK256 SLOAD DUP2 JUMP JUMPDEST CALLVALUE DUP1 ISZERO PUSH2 0x2C4 JUMPI PUSH0 DUP1 REVERT JUMPDEST POP PUSH2 0x2CD PUSH2 0x9A5 JUMP JUMPDEST PUSH1 0x40 MLOAD PUSH2 0x13A SWAP2 SWAP1 PUSH2 0xF9E JUMP JUMPDEST PUSH0 DUP2 DUP2 SLOAD DUP2 LT PUSH2 0x2E8 JUMPI PUSH0 DUP1 REVERT JUMPDEST SWAP1 PUSH0 MSTORE PUSH1 0x20 PUSH0 KECCAK256 SWAP1 PUSH1 0x6 MUL ADD PUSH0 SWAP2 POP SWAP1 POP DUP1 PUSH0 ADD DUP1 SLOAD PUSH2 0x307 SWAP1 PUSH2 0x1000 JUMP JUMPDEST DUP1 PUSH1 0x1F ADD PUSH1 0x20 DUP1 SWAP2 DIV MUL PUSH1 0x20 ADD PUSH1 0x40 MLOAD SWAP1 DUP2 ADD PUSH1 0x40 MSTORE DUP1 SWAP3 SWAP2 SWAP1 DUP2 DUP2 MSTORE PUSH1 0x20 ADD DUP3 DUP1 SLOAD PUSH2 0x333 SWAP1 PUSH2 0x1000 JUMP JUMPDEST DUP1 ISZERO PUSH2 0x37E JUMPI DUP1 PUSH1 0x1F LT PUSH2 0x355 JUMPI PUSH2 0x100 DUP1 DUP4 SLOAD DIV MUL DUP4 MSTORE SWAP2 PUSH1 0x20 ADD SWAP2 PUSH2 0x37E JUMP JUMPDEST DUP3 ADD SWAP2 SWAP1 PUSH0 MSTORE PUSH1 0x20 PUSH0 KECCAK256 SWAP1 JUMPDEST DUP2 SLOAD DUP2 MSTORE SWAP1 PUSH1 0x1 ADD SWAP1 PUSH1 0x20 ADD DUP1 DUP4 GT PUSH2 0x361 JUMPI DUP3 SWAP1 SUB PUSH1 0x1F AND DUP3 ADD SWAP2 JUMPDEST POP POP POP POP PUSH1 0x2 DUP4 ADD SLOAD PUSH1 0x3 DUP5 ADD SLOAD PUSH1 0x4 DUP6 ADD SLOAD PUSH1 0x5 SWAP1 SWAP6 ADD SLOAD SWAP4 SWAP5 SWAP2 SWAP4 SWAP1 SWAP3 POP PUSH1 0xFF AND DUP6 JUMP JUMPDEST PUSH1 0x1 PUSH1 0x1 PUSH1 0xA0 SHL SUB DUP3 AND PUSH0 SWAP1 DUP2 MSTORE PUSH1 0x2 PUSH1 0x20 SWAP1 DUP2 MSTORE PUSH1 0x40 DUP1 DUP4 KECCAK256 DUP5 DUP5 MSTORE SWAP1 SWAP2 MSTORE SWAP1 KECCAK256 SLOAD JUMPDEST SWAP3 SWAP2 POP POP JUMP JUMPDEST PUSH0 SLOAD DUP2 LT PUSH2 0x419 JUMPI PUSH1 0x40 MLOAD PUSH3 0x461BCD PUSH1 0xE5 SHL DUP2 MSTORE PUSH1 0x20 PUSH1 0x4 DUP3 ADD MSTORE PUSH1 0x13 PUSH1 0x24 DUP3 ADD MSTORE PUSH19 0x139BD91948191BD95CC81B9BDD08195E1A5CDD PUSH1 0x6A SHL PUSH1 0x44 DUP3 ADD MSTORE PUSH1 0x64 ADD JUMPDEST PUSH1 0x40 MLOAD DUP1 SWAP2 SUB SWAP1 REVERT JUMPDEST PUSH0 DUP1 DUP3 DUP2 SLOAD DUP2 LT PUSH2 0x42C JUMPI PUSH2 0x42C PUSH2 0x1038 JUMP JUMPDEST PUSH0 SWAP2 DUP3 MSTORE PUSH1 0x20 DUP3 KECCAK256 PUSH1 0x5 PUSH1 0x6 SWAP1 SWAP3 MUL ADD SWAP1 DUP2 ADD DUP1 SLOAD PUSH1 0xFF NOT AND PUSH1 0x1 OR SWAP1 SSTORE PUSH1 0x40 MLOAD SWAP1 SWAP3 POP DUP4 SWAP2 PUSH32 0xF1C92498F9B82AC12ED4160513CD238F89E2CF39B41ED4173C014E05B4ABB5DA SWAP2 LOG2 POP POP JUMP JUMPDEST PUSH2 0x4B0 PUSH1 0x40 MLOAD DUP1 PUSH1 0xC0 ADD PUSH1 0x40 MSTORE DUP1 PUSH1 0x60 DUP2 MSTORE PUSH1 0x20 ADD PUSH1 0x60 DUP2 MSTORE PUSH1 0x20 ADD PUSH0 DUP2 MSTORE PUSH1 0x20 ADD PUSH0 DUP2 MSTORE PUSH1 0x20 ADD PUSH0 DUP2 MSTORE PUSH1 0x20 ADD PUSH0 ISZERO ISZERO DUP2 MSTORE POP SWAP1 JUMP JUMPDEST PUSH0 DUP3 DUP2 SLOAD DUP2 LT PUSH2 0x4C2 JUMPI PUSH2 0x4C2 PUSH2 0x1038 JUMP JUMPDEST SWAP1 PUSH0 MSTORE PUSH1 0x20 PUSH0 KECCAK256 SWAP1 PUSH1 0x6 MUL ADD PUSH1 0x40 MLOAD DUP1 PUSH1 0xC0 ADD PUSH1 0x40 MSTORE SWAP1 DUP2 PUSH0 DUP3 ADD DUP1 SLOAD PUSH2 0x4E8 SWAP1 PUSH2 0x1000 JUMP JUMPDEST DUP1 PUSH1 0x1F ADD PUSH1 0x20 DUP1 SWAP2 DIV MUL PUSH1 0x20 ADD PUSH1 0x40 MLOAD SWAP1 DUP2 ADD PUSH1 0x40 MSTORE DUP1 SWAP3 SWAP2 SWAP1 DUP2 DUP2 MSTORE PUSH1 0x20 ADD DUP3 DUP1 SLOAD PUSH2 0x514 SWAP1 PUSH2 0x1000 JUMP JUMPDEST DUP1 ISZERO PUSH2 0x55F JUMPI DUP1 PUSH1 0x1F LT PUSH2 0x536 JUMPI PUSH2 0x100 DUP1 DUP4 SLOAD DIV MUL DUP4 MSTORE SWAP2 PUSH1 0x20 ADD SWAP2 PUSH2 0x55F JUMP JUMPDEST DUP3 ADD SWAP2 SWAP1 PUSH0 MSTORE PUSH1 0x20 PUSH0 KECCAK256 SWAP1 JUMPDEST DUP2 SLOAD DUP2 MSTORE SWAP1 PUSH1 0x1 ADD SWAP1 PUSH1 0x20 ADD DUP1 DUP4 GT PUSH2 0x542 JUMPI DUP3 SWAP1 SUB PUSH1 0x1F AND DUP3 ADD SWAP2 JUMPDEST POP POP POP POP POP DUP2 MSTORE PUSH1 0x20 ADD PUSH1 0x1 DUP3 ADD DUP1 SLOAD DUP1 PUSH1 0x20 MUL PUSH1 0x20 ADD PUSH1 0x40 MLOAD SWAP1 DUP2 ADD PUSH1 0x40 MSTORE DUP1 SWAP3 SWAP2 SWAP1 DUP2 DUP2 MSTORE PUSH1 0x20 ADD PUSH0 SWAP1 JUMPDEST DUP3 DUP3 LT ISZERO PUSH2 0x634 JUMPI DUP4 DUP3 SWAP1 PUSH0 MSTORE PUSH1 0x20 PUSH0 KECCAK256 ADD DUP1 SLOAD PUSH2 0x5A9 SWAP1 PUSH2 0x1000 JUMP JUMPDEST DUP1 PUSH1 0x1F ADD PUSH1 0x20 DUP1 SWAP2 DIV MUL PUSH1 0x20 ADD PUSH1 0x40 MLOAD SWAP1 DUP2 ADD PUSH1 0x40 MSTORE DUP1 SWAP3 SWAP2 SWAP1 DUP2 DUP2 MSTORE PUSH1 0x20 ADD DUP3 DUP1 SLOAD PUSH2 0x5D5 SWAP1 PUSH2 0x1000 JUMP JUMPDEST DUP1 ISZERO PUSH2 0x620 JUMPI DUP1 PUSH1 0x1F LT PUSH2 0x5F7 JUMPI PUSH2 0x100 DUP1 DUP4 SLOAD DIV MUL DUP4 MSTORE SWAP2 PUSH1 0x20 ADD SWAP2 PUSH2 0x620 JUMP JUMPDEST DUP3 ADD SWAP2 SWAP1 PUSH0 MSTORE PUSH1 0x20 PUSH0 KECCAK256 SWAP1 JUMPDEST DUP2 SLOAD DUP2 MSTORE SWAP1 PUSH1 0x1 ADD SWAP1 PUSH1 0x20 ADD DUP1 DUP4 GT PUSH2 0x603 JUMPI DUP3 SWAP1 SUB PUSH1 0x1F AND DUP3 ADD SWAP2 JUMPDEST POP POP POP POP POP DUP2 MSTORE PUSH1 0x20 ADD SWAP1 PUSH1 0x1 ADD SWAP1 PUSH2 0x58C JUMP JUMPDEST POP POP POP SWAP1 DUP3 MSTORE POP PUSH1 0x2 DUP3 ADD SLOAD PUSH1 0x20 DUP3 ADD MSTORE PUSH1 0x3 DUP3 ADD SLOAD PUSH1 0x40 DUP3 ADD MSTORE PUSH1 0x4 DUP3 ADD SLOAD PUSH1 0x60 DUP3 ADD MSTORE PUSH1 0x5 SWAP1 SWAP2 ADD SLOAD PUSH1 0xFF AND ISZERO ISZERO PUSH1 0x80 SWAP1 SWAP2 ADD MSTORE SWAP3 SWAP2 POP POP JUMP JUMPDEST PUSH0 DUP1 SLOAD PUSH1 0x1 DUP2 ADD DUP3 SSTORE SWAP1 DUP1 MSTORE PUSH1 0x6 MUL PUSH32 0x290DECD9548B62A8D60345A988386FC84BA6BC95484008F6362F93160EF3E563 ADD DUP1 PUSH2 0x6AC DUP5 DUP3 PUSH2 0x1098 JUMP JUMPDEST POP DUP2 MLOAD PUSH2 0x6C2 SWAP1 PUSH1 0x1 DUP4 ADD SWAP1 PUSH1 0x20 DUP6 ADD SWAP1 PUSH2 0xB96 JUMP JUMPDEST POP PUSH1 0xA PUSH1 0x2 DUP3 ADD SSTORE PUSH0 PUSH1 0x3 DUP3 ADD DUP2 SWAP1 SSTORE TIMESTAMP PUSH1 0x4 DUP4 ADD SSTORE PUSH1 0x5 DUP3 ADD DUP1 SLOAD PUSH1 0xFF NOT AND SWAP1 SSTORE DUP1 SLOAD PUSH2 0x6F2 SWAP1 PUSH1 0x1 SWAP1 PUSH2 0x116C JUMP JUMPDEST CALLER PUSH0 SWAP1 DUP2 MSTORE PUSH1 0x2 PUSH1 0x20 DUP2 DUP2 MSTORE PUSH1 0x40 DUP1 DUP5 KECCAK256 DUP6 DUP6 MSTORE SWAP1 SWAP2 MSTORE SWAP2 DUP3 SWAP1 KECCAK256 NUMBER SWAP1 SSTORE DUP5 ADD SLOAD SWAP1 MLOAD SWAP2 SWAP3 POP DUP3 SWAP2 PUSH32 0xD6B9FD965278C07866DF5CD73B387C2BE1B4CEE8BABD38CE44F1910C2F2A6EF0 SWAP2 PUSH2 0x748 SWAP2 DUP9 SWAP2 SWAP1 PUSH2 0x117F JUMP JUMPDEST PUSH1 0x40 MLOAD DUP1 SWAP2 SUB SWAP1 LOG2 POP POP POP POP JUMP JUMPDEST PUSH0 SLOAD DUP3 LT PUSH2 0x79C JUMPI PUSH1 0x40 MLOAD PUSH3 0x461BCD PUSH1 0xE5 SHL DUP2 MSTORE PUSH1 0x20 PUSH1 0x4 DUP3 ADD MSTORE PUSH1 0x13 PUSH1 0x24 DUP3 ADD MSTORE PUSH19 0x139BD91948191BD95CC81B9BDD08195E1A5CDD PUSH1 0x6A SHL PUSH1 0x44 DUP3 ADD MSTORE PUSH1 0x64 ADD PUSH2 0x410 JUMP JUMPDEST PUSH0 DUP1 DUP4 DUP2 SLOAD DUP2 LT PUSH2 0x7AF JUMPI PUSH2 0x7AF PUSH2 0x1038 JUMP JUMPDEST PUSH0 SWAP2 DUP3 MSTORE PUSH1 0x20 DUP1 DUP4 KECCAK256 PUSH1 0x1 PUSH1 0x6 SWAP1 SWAP4 MUL ADD DUP3 DUP2 ADD DUP1 SLOAD SWAP4 DUP5 ADD DUP2 SSTORE DUP5 MSTORE SWAP3 KECCAK256 SWAP2 SWAP3 POP ADD PUSH2 0x7DC DUP4 DUP3 PUSH2 0x1098 JUMP JUMPDEST POP PUSH0 PUSH1 0x5 SWAP1 POP DUP1 DUP3 PUSH1 0x2 ADD PUSH0 DUP3 DUP3 SLOAD PUSH2 0x7F5 SWAP2 SWAP1 PUSH2 0x11A0 JUMP JUMPDEST SWAP1 SWAP2 SSTORE POP POP CALLER PUSH0 SWAP1 DUP2 MSTORE PUSH1 0x1 PUSH1 0x20 SWAP1 DUP2 MSTORE PUSH1 0x40 DUP1 DUP4 KECCAK256 DUP8 DUP5 MSTORE SWAP1 SWAP2 MSTORE DUP2 KECCAK256 DUP1 SLOAD DUP4 SWAP3 SWAP1 PUSH2 0x823 SWAP1 DUP5 SWAP1 PUSH2 0x11A0 JUMP JUMPDEST SWAP1 SWAP2 SSTORE POP POP CALLER PUSH0 DUP2 DUP2 MSTORE PUSH1 0x2 PUSH1 0x20 SWAP1 DUP2 MSTORE PUSH1 0x40 DUP1 DUP4 KECCAK256 DUP9 DUP5 MSTORE SWAP1 SWAP2 MSTORE SWAP1 DUP2 SWAP1 KECCAK256 NUMBER SWAP1 SSTORE MLOAD PUSH32 0xDD8BE5834CEBC72BD117E9164B0FA989D3724A6FA3246582BF3938ADB99BA38 SWAP1 PUSH2 0x748 SWAP1 DUP8 SWAP1 DUP8 SWAP1 DUP7 SWAP1 PUSH2 0x11B3 JUMP JUMPDEST PUSH0 SLOAD DUP2 LT PUSH2 0x8BE JUMPI PUSH1 0x40 MLOAD PUSH3 0x461BCD PUSH1 0xE5 SHL DUP2 MSTORE PUSH1 0x20 PUSH1 0x4 DUP3 ADD MSTORE PUSH1 0x13 PUSH1 0x24 DUP3 ADD MSTORE PUSH19 0x139BD91948191BD95CC81B9BDD08195E1A5CDD PUSH1 0x6A SHL PUSH1 0x44 DUP3 ADD MSTORE PUSH1 0x64 ADD PUSH2 0x410 JUMP JUMPDEST PUSH0 CALLVALUE GT PUSH2 0x933 JUMPI PUSH1 0x40 MLOAD PUSH3 0x461BCD PUSH1 0xE5 SHL DUP2 MSTORE PUSH1 0x20 PUSH1 0x4 DUP3 ADD MSTORE PUSH1 0x25 PUSH1 0x24 DUP3 ADD MSTORE PUSH32 0x4D7573742073656E6420736F6D6520657468657220746F2066756E6420746865 PUSH1 0x44 DUP3 ADD MSTORE PUSH32 0x206E6F6465000000000000000000000000000000000000000000000000000000 PUSH1 0x64 DUP3 ADD MSTORE PUSH1 0x84 ADD PUSH2 0x410 JUMP JUMPDEST PUSH0 DUP1 DUP3 DUP2 SLOAD DUP2 LT PUSH2 0x946 JUMPI PUSH2 0x946 PUSH2 0x1038 JUMP JUMPDEST SWAP1 PUSH0 MSTORE PUSH1 0x20 PUSH0 KECCAK256 SWAP1 PUSH1 0x6 MUL ADD SWAP1 POP CALLVALUE DUP2 PUSH1 0x3 ADD PUSH0 DUP3 DUP3 SLOAD PUSH2 0x967 SWAP2 SWAP1 PUSH2 0x11A0 JUMP JUMPDEST SWAP1 SWAP2 SSTORE POP POP PUSH1 0x40 MLOAD CALLVALUE DUP2 MSTORE DUP3 SWAP1 PUSH32 0xF5E4934928A1E45D88C7A5AA2661FE0A801CA5017922E15122D74F1880155E1A SWAP1 PUSH1 0x20 ADD PUSH1 0x40 MLOAD DUP1 SWAP2 SUB SWAP1 LOG2 POP POP JUMP JUMPDEST PUSH1 0x60 PUSH0 DUP1 SLOAD DUP1 PUSH1 0x20 MUL PUSH1 0x20 ADD PUSH1 0x40 MLOAD SWAP1 DUP2 ADD PUSH1 0x40 MSTORE DUP1 SWAP3 SWAP2 SWAP1 DUP2 DUP2 MSTORE PUSH1 0x20 ADD PUSH0 SWAP1 JUMPDEST DUP3 DUP3 LT ISZERO PUSH2 0xB8D JUMPI DUP4 DUP3 SWAP1 PUSH0 MSTORE PUSH1 0x20 PUSH0 KECCAK256 SWAP1 PUSH1 0x6 MUL ADD PUSH1 0x40 MLOAD DUP1 PUSH1 0xC0 ADD PUSH1 0x40 MSTORE SWAP1 DUP2 PUSH0 DUP3 ADD DUP1 SLOAD PUSH2 0x9F7 SWAP1 PUSH2 0x1000 JUMP JUMPDEST DUP1 PUSH1 0x1F ADD PUSH1 0x20 DUP1 SWAP2 DIV MUL PUSH1 0x20 ADD PUSH1 0x40 MLOAD SWAP1 DUP2 ADD PUSH1 0x40 MSTORE DUP1 SWAP3 SWAP2 SWAP1 DUP2 DUP2 MSTORE PUSH1 0x20 ADD DUP3 DUP1 SLOAD PUSH2 0xA23 SWAP1 PUSH2 0x1000 JUMP JUMPDEST DUP1 ISZERO PUSH2 0xA6E JUMPI DUP1 PUSH1 0x1F LT PUSH2 0xA45 JUMPI PUSH2 0x100 DUP1 DUP4 SLOAD DIV MUL DUP4 MSTORE SWAP2 PUSH1 0x20 ADD SWAP2 PUSH2 0xA6E JUMP JUMPDEST DUP3 ADD SWAP2 SWAP1 PUSH0 MSTORE PUSH1 0x20 PUSH0 KECCAK256 SWAP1 JUMPDEST DUP2 SLOAD DUP2 MSTORE SWAP1 PUSH1 0x1 ADD SWAP1 PUSH1 0x20 ADD DUP1 DUP4 GT PUSH2 0xA51 JUMPI DUP3 SWAP1 SUB PUSH1 0x1F AND DUP3 ADD SWAP2 JUMPDEST POP POP POP POP POP DUP2 MSTORE PUSH1 0x20 ADD PUSH1 0x1 DUP3 ADD DUP1 SLOAD DUP1 PUSH1 0x20 MUL PUSH1 0x20 ADD PUSH1 0x40 MLOAD SWAP1 DUP2 ADD PUSH1 0x40 MSTORE DUP1 SWAP3 SWAP2 SWAP1 DUP2 DUP2 MSTORE PUSH1 0x20 ADD PUSH0 SWAP1 JUMPDEST DUP3 DUP3 LT ISZERO PUSH2 0xB43 JUMPI DUP4 DUP3 SWAP1 PUSH0 MSTORE PUSH1 0x20 PUSH0 KECCAK256 ADD DUP1 SLOAD PUSH2 0xAB8 SWAP1 PUSH2 0x1000 JUMP JUMPDEST DUP1 PUSH1 0x1F ADD PUSH1 0x20 DUP1 SWAP2 DIV MUL PUSH1 0x20 ADD PUSH1 0x40 MLOAD SWAP1 DUP2 ADD PUSH1 0x40 MSTORE DUP1 SWAP3 SWAP2 SWAP1 DUP2 DUP2 MSTORE PUSH1 0x20 ADD DUP3 DUP1 SLOAD PUSH2 0xAE4 SWAP1 PUSH2 0x1000 JUMP JUMPDEST DUP1 ISZERO PUSH2 0xB2F JUMPI DUP1 PUSH1 0x1F LT PUSH2 0xB06 JUMPI PUSH2 0x100 DUP1 DUP4 SLOAD DIV MUL DUP4 MSTORE SWAP2 PUSH1 0x20 ADD SWAP2 PUSH2 0xB2F JUMP JUMPDEST DUP3 ADD SWAP2 SWAP1 PUSH0 MSTORE PUSH1 0x20 PUSH0 KECCAK256 SWAP1 JUMPDEST DUP2 SLOAD DUP2 MSTORE SWAP1 PUSH1 0x1 ADD SWAP1 PUSH1 0x20 ADD DUP1 DUP4 GT PUSH2 0xB12 JUMPI DUP3 SWAP1 SUB PUSH1 0x1F AND DUP3 ADD SWAP2 JUMPDEST POP POP POP POP POP DUP2 MSTORE PUSH1 0x20 ADD SWAP1 PUSH1 0x1 ADD SWAP1 PUSH2 0xA9B JUMP JUMPDEST POP POP POP SWAP1 DUP3 MSTORE POP PUSH1 0x2 DUP3 ADD SLOAD PUSH1 0x20 DUP1 DUP4 ADD SWAP2 SWAP1 SWAP2 MSTORE PUSH1 0x3 DUP4 ADD SLOAD PUSH1 0x40 DUP4 ADD MSTORE PUSH1 0x4 DUP4 ADD SLOAD PUSH1 0x60 DUP4 ADD MSTORE PUSH1 0x5 SWAP1 SWAP3 ADD SLOAD PUSH1 0xFF AND ISZERO ISZERO PUSH1 0x80 SWAP1 SWAP2 ADD MSTORE SWAP1 DUP3 MSTORE PUSH1 0x1 SWAP3 SWAP1 SWAP3 ADD SWAP2 ADD PUSH2 0x9C7 JUMP JUMPDEST POP POP POP POP SWAP1 POP SWAP1 JUMP JUMPDEST DUP3 DUP1 SLOAD DUP3 DUP3 SSTORE SWAP1 PUSH0 MSTORE PUSH1 0x20 PUSH0 KECCAK256 SWAP1 DUP2 ADD SWAP3 DUP3 ISZERO PUSH2 0xBDA JUMPI SWAP2 PUSH1 0x20 MUL DUP3 ADD JUMPDEST DUP3 DUP2 GT ISZERO PUSH2 0xBDA JUMPI DUP3 MLOAD DUP3 SWAP1 PUSH2 0xBCA SWAP1 DUP3 PUSH2 0x1098 JUMP JUMPDEST POP SWAP2 PUSH1 0x20 ADD SWAP2 SWAP1 PUSH1 0x1 ADD SWAP1 PUSH2 0xBB4 JUMP JUMPDEST POP PUSH2 0xBE6 SWAP3 SWAP2 POP PUSH2 0xBEA JUMP JUMPDEST POP SWAP1 JUMP JUMPDEST DUP1 DUP3 GT ISZERO PUSH2 0xBE6 JUMPI PUSH0 PUSH2 0xBFD DUP3 DUP3 PUSH2 0xC06 JUMP JUMPDEST POP PUSH1 0x1 ADD PUSH2 0xBEA JUMP JUMPDEST POP DUP1 SLOAD PUSH2 0xC12 SWAP1 PUSH2 0x1000 JUMP JUMPDEST PUSH0 DUP3 SSTORE DUP1 PUSH1 0x1F LT PUSH2 0xC21 JUMPI POP POP JUMP JUMPDEST PUSH1 0x1F ADD PUSH1 0x20 SWAP1 DIV SWAP1 PUSH0 MSTORE PUSH1 0x20 PUSH0 KECCAK256 SWAP1 DUP2 ADD SWAP1 PUSH2 0xC3D SWAP2 SWAP1 PUSH2 0xC40 JUMP JUMPDEST POP JUMP JUMPDEST JUMPDEST DUP1 DUP3 GT ISZERO PUSH2 0xBE6 JUMPI PUSH0 DUP2 SSTORE PUSH1 0x1 ADD PUSH2 0xC41 JUMP JUMPDEST PUSH0 DUP1 PUSH1 0x40 DUP4 DUP6 SUB SLT ISZERO PUSH2 0xC65 JUMPI PUSH0 DUP1 REVERT JUMPDEST DUP3 CALLDATALOAD PUSH1 0x1 PUSH1 0x1 PUSH1 0xA0 SHL SUB DUP2 AND DUP2 EQ PUSH2 0xC7B JUMPI PUSH0 DUP1 REVERT JUMPDEST SWAP5 PUSH1 0x20 SWAP4 SWAP1 SWAP4 ADD CALLDATALOAD SWAP4 POP POP POP JUMP JUMPDEST PUSH0 PUSH1 0x20 DUP3 DUP5 SUB SLT ISZERO PUSH2 0xC99 JUMPI PUSH0 DUP1 REVERT JUMPDEST POP CALLDATALOAD SWAP2 SWAP1 POP JUMP JUMPDEST PUSH0 DUP2 MLOAD DUP1 DUP5 MSTORE DUP1 PUSH1 0x20 DUP5 ADD PUSH1 0x20 DUP7 ADD MCOPY PUSH0 PUSH1 0x20 DUP3 DUP7 ADD ADD MSTORE PUSH1 0x20 PUSH1 0x1F NOT PUSH1 0x1F DUP4 ADD AND DUP6 ADD ADD SWAP2 POP POP SWAP3 SWAP2 POP POP JUMP JUMPDEST PUSH1 0xA0 DUP2 MSTORE PUSH0 PUSH2 0xCE0 PUSH1 0xA0 DUP4 ADD DUP9 PUSH2 0xCA0 JUMP JUMPDEST SWAP1 POP DUP6 PUSH1 0x20 DUP4 ADD MSTORE DUP5 PUSH1 0x40 DUP4 ADD MSTORE DUP4 PUSH1 0x60 DUP4 ADD MSTORE DUP3 ISZERO ISZERO PUSH1 0x80 DUP4 ADD MSTORE SWAP7 SWAP6 POP POP POP POP POP POP JUMP JUMPDEST PUSH0 DUP2 MLOAD PUSH1 0xC0 DUP5 MSTORE PUSH2 0xD1A PUSH1 0xC0 DUP6 ADD DUP3 PUSH2 0xCA0 JUMP JUMPDEST SWAP1 POP PUSH1 0x20 DUP1 DUP5 ADD MLOAD DUP6 DUP4 SUB DUP3 DUP8 ADD MSTORE DUP3 DUP2 MLOAD DUP1 DUP6 MSTORE DUP4 DUP6 ADD SWAP2 POP DUP4 DUP2 PUSH1 0x5 SHL DUP7 ADD ADD DUP5 DUP5 ADD SWAP4 POP PUSH0 JUMPDEST DUP3 DUP2 LT ISZERO PUSH2 0xD71 JUMPI PUSH1 0x1F NOT DUP8 DUP4 SUB ADD DUP5 MSTORE PUSH2 0xD5F DUP3 DUP7 MLOAD PUSH2 0xCA0 JUMP JUMPDEST SWAP5 DUP7 ADD SWAP5 SWAP4 DUP7 ADD SWAP4 SWAP2 POP PUSH1 0x1 ADD PUSH2 0xD43 JUMP JUMPDEST POP PUSH1 0x40 DUP9 ADD MLOAD PUSH1 0x40 DUP11 ADD MSTORE PUSH1 0x60 DUP9 ADD MLOAD PUSH1 0x60 DUP11 ADD MSTORE PUSH1 0x80 DUP9 ADD MLOAD PUSH1 0x80 DUP11 ADD MSTORE PUSH1 0xA0 DUP9 ADD MLOAD SWAP6 POP PUSH2 0xDA5 PUSH1 0xA0 DUP11 ADD DUP8 ISZERO ISZERO SWAP1 MSTORE JUMP JUMPDEST SWAP9 SWAP8 POP POP POP POP POP POP POP POP JUMP JUMPDEST PUSH1 0x20 DUP2 MSTORE PUSH0 PUSH2 0xDC3 PUSH1 0x20 DUP4 ADD DUP5 PUSH2 0xD06 JUMP JUMPDEST SWAP4 SWAP3 POP POP POP JUMP JUMPDEST PUSH4 0x4E487B71 PUSH1 0xE0 SHL PUSH0 MSTORE PUSH1 0x41 PUSH1 0x4 MSTORE PUSH1 0x24 PUSH0 REVERT JUMPDEST PUSH1 0x40 MLOAD PUSH1 0x1F DUP3 ADD PUSH1 0x1F NOT AND DUP2 ADD PUSH8 0xFFFFFFFFFFFFFFFF DUP2 GT DUP3 DUP3 LT OR ISZERO PUSH2 0xE07 JUMPI PUSH2 0xE07 PUSH2 0xDCA JUMP JUMPDEST PUSH1 0x40 MSTORE SWAP2 SWAP1 POP JUMP JUMPDEST PUSH0 DUP3 PUSH1 0x1F DUP4 ADD SLT PUSH2 0xE1E JUMPI PUSH0 DUP1 REVERT JUMPDEST DUP2 CALLDATALOAD PUSH8 0xFFFFFFFFFFFFFFFF DUP2 GT ISZERO PUSH2 0xE38 JUMPI PUSH2 0xE38 PUSH2 0xDCA JUMP JUMPDEST PUSH2 0xE4B PUSH1 0x1F DUP3 ADD PUSH1 0x1F NOT AND PUSH1 0x20 ADD PUSH2 0xDDE JUMP JUMPDEST DUP2 DUP2 MSTORE DUP5 PUSH1 0x20 DUP4 DUP7 ADD ADD GT ISZERO PUSH2 0xE5F JUMPI PUSH0 DUP1 REVERT JUMPDEST DUP2 PUSH1 0x20 DUP6 ADD PUSH1 0x20 DUP4 ADD CALLDATACOPY PUSH0 SWAP2 DUP2 ADD PUSH1 0x20 ADD SWAP2 SWAP1 SWAP2 MSTORE SWAP4 SWAP3 POP POP POP JUMP JUMPDEST PUSH0 DUP1 PUSH1 0x40 DUP4 DUP6 SUB SLT ISZERO PUSH2 0xE8C JUMPI PUSH0 DUP1 REVERT JUMPDEST DUP3 CALLDATALOAD PUSH8 0xFFFFFFFFFFFFFFFF DUP1 DUP3 GT ISZERO PUSH2 0xEA3 JUMPI PUSH0 DUP1 REVERT JUMPDEST PUSH2 0xEAF DUP7 DUP4 DUP8 ADD PUSH2 0xE0F JUMP JUMPDEST SWAP4 POP PUSH1 0x20 SWAP2 POP DUP2 DUP6 ADD CALLDATALOAD DUP2 DUP2 GT ISZERO PUSH2 0xEC5 JUMPI PUSH0 DUP1 REVERT JUMPDEST DUP6 ADD PUSH1 0x1F DUP2 ADD DUP8 SGT PUSH2 0xED5 JUMPI PUSH0 DUP1 REVERT JUMPDEST DUP1 CALLDATALOAD DUP3 DUP2 GT ISZERO PUSH2 0xEE7 JUMPI PUSH2 0xEE7 PUSH2 0xDCA JUMP JUMPDEST DUP1 PUSH1 0x5 SHL PUSH2 0xEF6 DUP6 DUP3 ADD PUSH2 0xDDE JUMP JUMPDEST SWAP2 DUP3 MSTORE DUP3 DUP2 ADD DUP6 ADD SWAP2 DUP6 DUP2 ADD SWAP1 DUP11 DUP5 GT ISZERO PUSH2 0xF0F JUMPI PUSH0 DUP1 REVERT JUMPDEST DUP7 DUP6 ADD SWAP3 POP JUMPDEST DUP4 DUP4 LT ISZERO PUSH2 0xF49 JUMPI DUP3 CALLDATALOAD DUP7 DUP2 GT ISZERO PUSH2 0xF2B JUMPI PUSH0 DUP1 REVERT JUMPDEST PUSH2 0xF39 DUP13 DUP10 DUP4 DUP10 ADD ADD PUSH2 0xE0F JUMP JUMPDEST DUP4 MSTORE POP SWAP2 DUP7 ADD SWAP2 SWAP1 DUP7 ADD SWAP1 PUSH2 0xF15 JUMP JUMPDEST DUP1 SWAP8 POP POP POP POP POP POP POP POP SWAP3 POP SWAP3 SWAP1 POP JUMP JUMPDEST PUSH0 DUP1 PUSH1 0x40 DUP4 DUP6 SUB SLT ISZERO PUSH2 0xF6B JUMPI PUSH0 DUP1 REVERT JUMPDEST DUP3 CALLDATALOAD SWAP2 POP PUSH1 0x20 DUP4 ADD CALLDATALOAD PUSH8 0xFFFFFFFFFFFFFFFF DUP2 GT ISZERO PUSH2 0xF88 JUMPI PUSH0 DUP1 REVERT JUMPDEST PUSH2 0xF94 DUP6 DUP3 DUP7 ADD PUSH2 0xE0F JUMP JUMPDEST SWAP2 POP POP SWAP3 POP SWAP3 SWAP1 POP JUMP JUMPDEST PUSH0 PUSH1 0x20 DUP1 DUP4 ADD PUSH1 0x20 DUP5 MSTORE DUP1 DUP6 MLOAD DUP1 DUP4 MSTORE PUSH1 0x40 DUP7 ADD SWAP2 POP PUSH1 0x40 DUP2 PUSH1 0x5 SHL DUP8 ADD ADD SWAP3 POP PUSH1 0x20 DUP8 ADD PUSH0 JUMPDEST DUP3 DUP2 LT ISZERO PUSH2 0xFF3 JUMPI PUSH1 0x3F NOT DUP9 DUP7 SUB ADD DUP5 MSTORE PUSH2 0xFE1 DUP6 DUP4 MLOAD PUSH2 0xD06 JUMP JUMPDEST SWAP5 POP SWAP3 DUP6 ADD SWAP3 SWAP1 DUP6 ADD SWAP1 PUSH1 0x1 ADD PUSH2 0xFC5 JUMP JUMPDEST POP SWAP3 SWAP8 SWAP7 POP POP POP POP POP POP POP JUMP JUMPDEST PUSH1 0x1 DUP2 DUP2 SHR SWAP1 DUP3 AND DUP1 PUSH2 0x1014 JUMPI PUSH1 0x7F DUP3 AND SWAP2 POP JUMPDEST PUSH1 0x20 DUP3 LT DUP2 SUB PUSH2 0x1032 JUMPI PUSH4 0x4E487B71 PUSH1 0xE0 SHL PUSH0 MSTORE PUSH1 0x22 PUSH1 0x4 MSTORE PUSH1 0x24 PUSH0 REVERT JUMPDEST POP SWAP2 SWAP1 POP JUMP JUMPDEST PUSH4 0x4E487B71 PUSH1 0xE0 SHL PUSH0 MSTORE PUSH1 0x32 PUSH1 0x4 MSTORE PUSH1 0x24 PUSH0 REVERT JUMPDEST PUSH1 0x1F DUP3 GT ISZERO PUSH2 0x1093 JUMPI DUP1 PUSH0 MSTORE PUSH1 0x20 PUSH0 KECCAK256 PUSH1 0x1F DUP5 ADD PUSH1 0x5 SHR DUP2 ADD PUSH1 0x20 DUP6 LT ISZERO PUSH2 0x1071 JUMPI POP DUP1 JUMPDEST PUSH1 0x1F DUP5 ADD PUSH1 0x5 SHR DUP3 ADD SWAP2 POP JUMPDEST DUP2 DUP2 LT ISZERO PUSH2 0x1090 JUMPI PUSH0 DUP2 SSTORE PUSH1 0x1 ADD PUSH2 0x107D JUMP JUMPDEST POP POP JUMPDEST POP POP POP JUMP JUMPDEST DUP2 MLOAD PUSH8 0xFFFFFFFFFFFFFFFF DUP2 GT ISZERO PUSH2 0x10B2 JUMPI PUSH2 0x10B2 PUSH2 0xDCA JUMP JUMPDEST PUSH2 0x10C6 DUP2 PUSH2 0x10C0 DUP5 SLOAD PUSH2 0x1000 JUMP JUMPDEST DUP5 PUSH2 0x104C JUMP JUMPDEST PUSH1 0x20 DUP1 PUSH1 0x1F DUP4 GT PUSH1 0x1 DUP2 EQ PUSH2 0x10F9 JUMPI PUSH0 DUP5 ISZERO PUSH2 0x10E2 JUMPI POP DUP6 DUP4 ADD MLOAD JUMPDEST PUSH0 NOT PUSH1 0x3 DUP7 SWAP1 SHL SHR NOT AND PUSH1 0x1 DUP6 SWAP1 SHL OR DUP6 SSTORE PUSH2 0x1150 JUMP JUMPDEST PUSH0 DUP6 DUP2 MSTORE PUSH1 0x20 DUP2 KECCAK256 PUSH1 0x1F NOT DUP7 AND SWAP2 JUMPDEST DUP3 DUP2 LT ISZERO PUSH2 0x1127 JUMPI DUP9 DUP7 ADD MLOAD DUP3 SSTORE SWAP5 DUP5 ADD SWAP5 PUSH1 0x1 SWAP1 SWAP2 ADD SWAP1 DUP5 ADD PUSH2 0x1108 JUMP JUMPDEST POP DUP6 DUP3 LT ISZERO PUSH2 0x1144 JUMPI DUP8 DUP6 ADD MLOAD PUSH0 NOT PUSH1 0x3 DUP9 SWAP1 SHL PUSH1 0xF8 AND SHR NOT AND DUP2 SSTORE JUMPDEST POP POP PUSH1 0x1 DUP5 PUSH1 0x1 SHL ADD DUP6 SSTORE JUMPDEST POP POP POP POP POP POP JUMP JUMPDEST PUSH4 0x4E487B71 PUSH1 0xE0 SHL PUSH0 MSTORE PUSH1 0x11 PUSH1 0x4 MSTORE PUSH1 0x24 PUSH0 REVERT JUMPDEST DUP2 DUP2 SUB DUP2 DUP2 GT ISZERO PUSH2 0x3C8 JUMPI PUSH2 0x3C8 PUSH2 0x1158 JUMP JUMPDEST PUSH1 0x40 DUP2 MSTORE PUSH0 PUSH2 0x1191 PUSH1 0x40 DUP4 ADD DUP6 PUSH2 0xCA0 JUMP JUMPDEST SWAP1 POP DUP3 PUSH1 0x20 DUP4 ADD MSTORE SWAP4 SWAP3 POP POP POP JUMP JUMPDEST DUP1 DUP3 ADD DUP1 DUP3 GT ISZERO PUSH2 0x3C8 JUMPI PUSH2 0x3C8 PUSH2 0x1158 JUMP JUMPDEST DUP4 DUP2 MSTORE PUSH1 0x60 PUSH1 0x20 DUP3 ADD MSTORE PUSH0 PUSH2 0x11CB PUSH1 0x60 DUP4 ADD DUP6 PUSH2 0xCA0 JUMP JUMPDEST SWAP1 POP DUP3 PUSH1 0x40 DUP4 ADD MSTORE SWAP5 SWAP4 POP POP POP POP JUMP INVALID LOG2 PUSH5 0x6970667358 0x22 SLT KECCAK256 CODESIZE CHAINID LT LOG0 BALANCE SWAP11 0x21 SWAP5 CODESIZE 0x23 PUSH22 0x2D14D472972AE09D347C021799FD04D586E489E6864 PUSH20 0x6F6C634300081900330000000000000000000000 "
    },
    "gasEstimates": {
      "creation": {
        "codeDepositCost": "925000",
        "executionCost": "960",
        "totalCost": "925960"
      },
      "external": {
        "addDescription(uint256,string)": "infinite",
        "addFunds(uint256)": "30327",
        "addNode(string,string[])": "infinite",
        "finishNode(uint256)": "29953",
        "getLastDripBlock(address,uint256)": "2683",
        "getNode(uint256)": "infinite",
        "getNodes()": "infinite",
        "getUserNodePoints(address,uint256)": "2665",
        "nodes(uint256)": "infinite",
        "updateLastDripBlock(address,uint256)": "22564",
        "userLastDripBlock(address,uint256)": "2596",
        "userNodePoints(address,uint256)": "2618"
      }
    },
    "methodIdentifiers": {
      "addDescription(uint256,string)": "b51f79e3",
      "addFunds(uint256)": "be999705",
      "addNode(string,string[])": "9db338ae",
      "finishNode(uint256)": "4a55ef1e",
      "getLastDripBlock(address,uint256)": "23995ade",
      "getNode(uint256)": "4f0f4aa9",
      "getNodes()": "e29581aa",
      "getUserNodePoints(address,uint256)": "c8b4d1d6",
      "nodes(uint256)": "1c53c280",
      "updateLastDripBlock(address,uint256)": "04abc319",
      "userLastDripBlock(address,uint256)": "cbb9efeb",
      "userNodePoints(address,uint256)": "dd1ead00"
    }
  },
  "storageLayout": {
    "storage": [
      {
        "astId": 19,
        "contract": "Contribution.sol:Contribution",
        "label": "nodes",
        "offset": 0,
        "slot": "0",
        "type": "t_array(t_struct(Node)15_storage)dyn_storage"
      },
      {
        "astId": 25,
        "contract": "Contribution.sol:Contribution",
        "label": "userNodePoints",
        "offset": 0,
        "slot": "1",
        "type": "t_mapping(t_address,t_mapping(t_uint256,t_uint256))"
      },
      {
        "astId": 31,
        "contract": "Contribution.sol:Contribution",
        "label": "userLastDripBlock",
        "offset": 0,
        "slot": "2",
        "type": "t_mapping(t_address,t_mapping(t_uint256,t_uint256))"
      }
    ],
    "types": {
      "t_address": {
        "encoding": "inplace",
        "label": "address",
        "numberOfBytes": "20"
      },
      "t_array(t_string_storage)dyn_storage": {
        "base": "t_string_storage",
        "encoding": "dynamic_array",
        "label": "string[]",
        "numberOfBytes": "32"
      },
      "t_array(t_struct(Node)15_storage)dyn_storage": {
        "base": "t_struct(Node)15_storage",
        "encoding": "dynamic_array",
        "label": "struct Contribution.Node[]",
        "numberOfBytes": "32"
      },
      "t_bool": {
        "encoding": "inplace",
        "label": "bool",
        "numberOfBytes": "1"
      },
      "t_mapping(t_address,t_mapping(t_uint256,t_uint256))": {
        "encoding": "mapping",
        "key": "t_address",
        "label": "mapping(address => mapping(uint256 => uint256))",
        "numberOfBytes": "32",
        "value": "t_mapping(t_uint256,t_uint256)"
      },
      "t_mapping(t_uint256,t_uint256)": {
        "encoding": "mapping",
        "key": "t_uint256",
        "label": "mapping(uint256 => uint256)",
        "numberOfBytes": "32",
        "value": "t_uint256"
      },
      "t_string_storage": {
        "encoding": "bytes",
        "label": "string",
        "numberOfBytes": "32"
      },
      "t_struct(Node)15_storage": {
        "encoding": "inplace",
        "label": "struct Contribution.Node",
        "members": [
          {
            "astId": 3,
            "contract": "Contribution.sol:Contribution",
            "label": "title",
            "offset": 0,
            "slot": "0",
            "type": "t_string_storage"
          },
          {
            "astId": 6,
            "contract": "Contribution.sol:Contribution",
            "label": "descriptions",
            "offset": 0,
            "slot": "1",
            "type": "t_array(t_string_storage)dyn_storage"
          },
          {
            "astId": 8,
            "contract": "Contribution.sol:Contribution",
            "label": "points",
            "offset": 0,
            "slot": "2",
            "type": "t_uint256"
          },
          {
            "astId": 10,
            "contract": "Contribution.sol:Contribution",
            "label": "fundingPool",
            "offset": 0,
            "slot": "3",
            "type": "t_uint256"
          },
          {
            "astId": 12,
            "contract": "Contribution.sol:Contribution",
            "label": "creationTime",
            "offset": 0,
            "slot": "4",
            "type": "t_uint256"
          },
          {
            "astId": 14,
            "contract": "Contribution.sol:Contribution",
            "label": "isFinished",
            "offset": 0,
            "slot": "5",
            "type": "t_bool"
          }
        ],
        "numberOfBytes": "192"
      },
      "t_uint256": {
        "encoding": "inplace",
        "label": "uint256",
        "numberOfBytes": "32"
      }
    }
  },
  "userdoc": {
    "kind": "user",
    "methods": {},
    "version": 1
  }
}