{
  "abi": [
    {
      "inputs": [
        {
          "internalType": "address",
          "name": "_contributionContract",
          "type": "address"
        }
      ],
      "stateMutability": "nonpayable",
      "type": "constructor"
    },
    {
      "anonymous": false,
      "inputs": [
        {
          "indexed": true,
          "internalType": "address",
          "name": "user",
          "type": "address"
        },
        {
          "indexed": false,
          "internalType": "uint256",
          "name": "nodeIndex",
          "type": "uint256"
        },
        {
          "indexed": false,
          "internalType": "uint256",
          "name": "amount",
          "type": "uint256"
        }
      ],
      "name": "Drip",
      "type": "event"
    },
    {
      "inputs": [
        {
          "internalType": "address",
          "name": "_user",
          "type": "address"
        },
        {
          "internalType": "uint256",
          "name": "nodeIndex",
          "type": "uint256"
        }
      ],
      "name": "calculateDrip",
      "outputs": [
        {
          "internalType": "uint256",
          "name": "",
          "type": "uint256"
        }
      ],
      "stateMutability": "view",
      "type": "function"
    },
    {
      "inputs": [],
      "name": "contributionContract",
      "outputs": [
        {
          "internalType": "contract Contribution",
          "name": "",
          "type": "address"
        }
      ],
      "stateMutability": "view",
      "type": "function"
    },
    {
      "inputs": [],
      "name": "dripPeriod",
      "outputs": [
        {
          "internalType": "uint256",
          "name": "",
          "type": "uint256"
        }
      ],
      "stateMutability": "view",
      "type": "function"
    },
    {
      "inputs": [],
      "name": "dripRatePerBlock",
      "outputs": [
        {
          "internalType": "uint256",
          "name": "",
          "type": "uint256"
        }
      ],
      "stateMutability": "view",
      "type": "function"
    },
    {
      "inputs": [
        {
          "internalType": "address",
          "name": "_user",
          "type": "address"
        },
        {
          "internalType": "uint256",
          "name": "nodeIndex",
          "type": "uint256"
        }
      ],
      "name": "getBalance",
      "outputs": [
        {
          "internalType": "uint256",
          "name": "",
          "type": "uint256"
        }
      ],
      "stateMutability": "view",
      "type": "function"
    },
    {
      "inputs": [
        {
          "internalType": "uint256",
          "name": "nodeIndex",
          "type": "uint256"
        }
      ],
      "name": "withdraw",
      "outputs": [],
      "stateMutability": "nonpayable",
      "type": "function"
    },
    {
      "stateMutability": "payable",
      "type": "receive"
    }
  ],
  "devdoc": {
    "kind": "dev",
    "methods": {},
    "version": 1
  },
  "evm": {
    "assembly": "    /* \"FundingDrip.sol\":87:2153  contract FundingDrip {... */\n  mstore(0x40, 0x80)\n    /* \"FundingDrip.sol\":195:196  1 */\n  0x01\n    /* \"FundingDrip.sol\":161:196  uint256 public dripRatePerBlock = 1 */\n  dup1\n  sstore\n    /* \"FundingDrip.sol\":258:266  365 days */\n  0x01e13380\n    /* \"FundingDrip.sol\":230:266  uint256 public dripPeriod = 365 days */\n  0x02\n  sstore\n    /* \"FundingDrip.sol\":379:497  constructor(address _contributionContract) {... */\n  callvalue\n  dup1\n  iszero\n  tag_1\n  jumpi\n  0x00\n  dup1\n  revert\ntag_1:\n  pop\n  mload(0x40)\n  sub(codesize, bytecodeSize)\n  dup1\n  bytecodeSize\n  dup4\n  codecopy\n  dup2\n  add\n  0x40\n  dup2\n  swap1\n  mstore\n  tag_2\n  swap2\n  tag_3\n  jump\t// in\ntag_2:\n    /* \"FundingDrip.sol\":432:452  contributionContract */\n  0x00\n    /* \"FundingDrip.sol\":432:490  contributionContract = Contribution(_contributionContract) */\n  dup1\n  sload\n  not(sub(shl(0xa0, 0x01), 0x01))\n  and\n  sub(shl(0xa0, 0x01), 0x01)\n  swap3\n  swap1\n  swap3\n  and\n  swap2\n  swap1\n  swap2\n  or\n  swap1\n  sstore\n    /* \"FundingDrip.sol\":87:2153  contract FundingDrip {... */\n  jump(tag_7)\n    /* \"#utility.yul\":14:304   */\ntag_3:\n    /* \"#utility.yul\":84:90   */\n  0x00\n    /* \"#utility.yul\":137:139   */\n  0x20\n    /* \"#utility.yul\":125:134   */\n  dup3\n    /* \"#utility.yul\":116:123   */\n  dup5\n    /* \"#utility.yul\":112:135   */\n  sub\n    /* \"#utility.yul\":108:140   */\n  slt\n    /* \"#utility.yul\":105:157   */\n  iszero\n  tag_9\n  jumpi\n    /* \"#utility.yul\":153:154   */\n  0x00\n    /* \"#utility.yul\":150:151   */\n  dup1\n    /* \"#utility.yul\":143:155   */\n  revert\n    /* \"#utility.yul\":105:157   */\ntag_9:\n    /* \"#utility.yul\":179:195   */\n  dup2\n  mload\n  sub(shl(0xa0, 0x01), 0x01)\n    /* \"#utility.yul\":224:255   */\n  dup2\n  and\n    /* \"#utility.yul\":214:256   */\n  dup2\n  eq\n    /* \"#utility.yul\":204:274   */\n  tag_10\n  jumpi\n    /* \"#utility.yul\":270:271   */\n  0x00\n    /* \"#utility.yul\":267:268   */\n  dup1\n    /* \"#utility.yul\":260:272   */\n  revert\n    /* \"#utility.yul\":204:274   */\ntag_10:\n    /* \"#utility.yul\":293:298   */\n  swap4\n    /* \"#utility.yul\":14:304   */\n  swap3\n  pop\n  pop\n  pop\n  jump\t// out\ntag_7:\n    /* \"FundingDrip.sol\":87:2153  contract FundingDrip {... */\n  dataSize(sub_0)\n  dup1\n  dataOffset(sub_0)\n  0x00\n  codecopy\n  0x00\n  return\nstop\n\nsub_0: assembly {\n        /* \"FundingDrip.sol\":87:2153  contract FundingDrip {... */\n      mstore(0x40, 0x80)\n      jumpi(tag_1, lt(calldatasize, 0x04))\n      shr(0xe0, calldataload(0x00))\n      dup1\n      0x3a9b7cb2\n      gt\n      tag_9\n      jumpi\n      dup1\n      0x3a9b7cb2\n      eq\n      tag_6\n      jumpi\n      dup1\n      0x71506414\n      eq\n      tag_7\n      jumpi\n      dup1\n      0xddfdec60\n      eq\n      tag_8\n      jumpi\n      0x00\n      dup1\n      revert\n    tag_9:\n      dup1\n      0x2b04e840\n      eq\n      tag_3\n      jumpi\n      dup1\n      0x2e1a7d4d\n      eq\n      tag_4\n      jumpi\n      dup1\n      0x362c55da\n      eq\n      tag_5\n      jumpi\n      0x00\n      dup1\n      revert\n    tag_1:\n      jumpi(tag_2, calldatasize)\n      stop\n    tag_2:\n      0x00\n      dup1\n      revert\n        /* \"FundingDrip.sol\":1291:1430  function getBalance(address _user, uint256 nodeIndex) public view returns (uint256) {... */\n    tag_3:\n      callvalue\n      dup1\n      iszero\n      tag_12\n      jumpi\n      0x00\n      dup1\n      revert\n    tag_12:\n      pop\n      tag_13\n      tag_14\n      calldatasize\n      0x04\n      tag_15\n      jump\t// in\n    tag_14:\n      tag_16\n      jump\t// in\n    tag_13:\n      mload(0x40)\n        /* \"#utility.yul\":542:567   */\n      swap1\n      dup2\n      mstore\n        /* \"#utility.yul\":530:532   */\n      0x20\n        /* \"#utility.yul\":515:533   */\n      add\n        /* \"FundingDrip.sol\":1291:1430  function getBalance(address _user, uint256 nodeIndex) public view returns (uint256) {... */\n    tag_17:\n      mload(0x40)\n      dup1\n      swap2\n      sub\n      swap1\n      return\n        /* \"FundingDrip.sol\":1436:2074  function withdraw(uint256 nodeIndex) public {... */\n    tag_4:\n      callvalue\n      dup1\n      iszero\n      tag_19\n      jumpi\n      0x00\n      dup1\n      revert\n    tag_19:\n      pop\n      tag_20\n      tag_21\n      calldatasize\n      0x04\n      tag_22\n      jump\t// in\n    tag_21:\n      tag_23\n      jump\t// in\n    tag_20:\n      stop\n        /* \"FundingDrip.sol\":161:196  uint256 public dripRatePerBlock = 1 */\n    tag_5:\n      callvalue\n      dup1\n      iszero\n      tag_24\n      jumpi\n      0x00\n      dup1\n      revert\n    tag_24:\n      pop\n      tag_13\n      sload(0x01)\n      dup2\n      jump\n        /* \"FundingDrip.sol\":503:1285  function calculateDrip(address _user, uint256 nodeIndex) public view returns (uint256) {... */\n    tag_6:\n      callvalue\n      dup1\n      iszero\n      tag_28\n      jumpi\n      0x00\n      dup1\n      revert\n    tag_28:\n      pop\n      tag_13\n      tag_30\n      calldatasize\n      0x04\n      tag_15\n      jump\t// in\n    tag_30:\n      tag_31\n      jump\t// in\n        /* \"FundingDrip.sol\":230:266  uint256 public dripPeriod = 365 days */\n    tag_7:\n      callvalue\n      dup1\n      iszero\n      tag_33\n      jumpi\n      0x00\n      dup1\n      revert\n    tag_33:\n      pop\n      tag_13\n      sload(0x02)\n      dup2\n      jump\n        /* \"FundingDrip.sol\":114:154  Contribution public contributionContract */\n    tag_8:\n      callvalue\n      dup1\n      iszero\n      tag_37\n      jumpi\n      0x00\n      dup1\n      revert\n    tag_37:\n      pop\n      sload(0x00)\n      tag_38\n      swap1\n      sub(shl(0xa0, 0x01), 0x01)\n      and\n      dup2\n      jump\n    tag_38:\n      mload(0x40)\n      sub(shl(0xa0, 0x01), 0x01)\n        /* \"#utility.yul\":947:1002   */\n      swap1\n      swap2\n      and\n        /* \"#utility.yul\":929:1003   */\n      dup2\n      mstore\n        /* \"#utility.yul\":917:919   */\n      0x20\n        /* \"#utility.yul\":902:920   */\n      add\n        /* \"FundingDrip.sol\":114:154  Contribution public contributionContract */\n      tag_17\n        /* \"#utility.yul\":763:1009   */\n      jump\n        /* \"FundingDrip.sol\":1291:1430  function getBalance(address _user, uint256 nodeIndex) public view returns (uint256) {... */\n    tag_16:\n        /* \"FundingDrip.sol\":1366:1373  uint256 */\n      0x00\n        /* \"FundingDrip.sol\":1392:1423  calculateDrip(_user, nodeIndex) */\n      tag_43\n        /* \"FundingDrip.sol\":1406:1411  _user */\n      dup4\n        /* \"FundingDrip.sol\":1413:1422  nodeIndex */\n      dup4\n        /* \"FundingDrip.sol\":1392:1405  calculateDrip */\n      tag_31\n        /* \"FundingDrip.sol\":1392:1423  calculateDrip(_user, nodeIndex) */\n      jump\t// in\n    tag_43:\n        /* \"FundingDrip.sol\":1385:1423  return calculateDrip(_user, nodeIndex) */\n      swap1\n      pop\n        /* \"FundingDrip.sol\":1291:1430  function getBalance(address _user, uint256 nodeIndex) public view returns (uint256) {... */\n    tag_42:\n      swap3\n      swap2\n      pop\n      pop\n      jump\t// out\n        /* \"FundingDrip.sol\":1436:2074  function withdraw(uint256 nodeIndex) public {... */\n    tag_23:\n        /* \"FundingDrip.sol\":1490:1508  uint256 dripAmount */\n      0x00\n        /* \"FundingDrip.sol\":1511:1547  calculateDrip(msg.sender, nodeIndex) */\n      tag_45\n        /* \"FundingDrip.sol\":1525:1535  msg.sender */\n      caller\n        /* \"FundingDrip.sol\":1537:1546  nodeIndex */\n      dup4\n        /* \"FundingDrip.sol\":1511:1524  calculateDrip */\n      tag_31\n        /* \"FundingDrip.sol\":1511:1547  calculateDrip(msg.sender, nodeIndex) */\n      jump\t// in\n    tag_45:\n        /* \"FundingDrip.sol\":1490:1547  uint256 dripAmount = calculateDrip(msg.sender, nodeIndex) */\n      swap1\n      pop\n        /* \"FundingDrip.sol\":1578:1579  0 */\n      0x00\n        /* \"FundingDrip.sol\":1565:1575  dripAmount */\n      dup2\n        /* \"FundingDrip.sol\":1565:1579  dripAmount > 0 */\n      gt\n        /* \"FundingDrip.sol\":1557:1606  require(dripAmount > 0, \"No balance to withdraw\") */\n      tag_46\n      jumpi\n      mload(0x40)\n      shl(0xe5, 0x461bcd)\n      dup2\n      mstore\n        /* \"#utility.yul\":1216:1218   */\n      0x20\n        /* \"FundingDrip.sol\":1557:1606  require(dripAmount > 0, \"No balance to withdraw\") */\n      0x04\n      dup3\n      add\n        /* \"#utility.yul\":1198:1219   */\n      mstore\n        /* \"#utility.yul\":1255:1257   */\n      0x16\n        /* \"#utility.yul\":1235:1253   */\n      0x24\n      dup3\n      add\n        /* \"#utility.yul\":1228:1258   */\n      mstore\n        /* \"#utility.yul\":1294:1318   */\n      0x4e6f2062616c616e636520746f20776974686472617700000000000000000000\n        /* \"#utility.yul\":1274:1292   */\n      0x44\n      dup3\n      add\n        /* \"#utility.yul\":1267:1319   */\n      mstore\n        /* \"#utility.yul\":1336:1354   */\n      0x64\n      add\n        /* \"FundingDrip.sol\":1557:1606  require(dripAmount > 0, \"No balance to withdraw\") */\n    tag_47:\n      mload(0x40)\n      dup1\n      swap2\n      sub\n      swap1\n      revert\n    tag_46:\n        /* \"FundingDrip.sol\":1617:1646  Contribution.Node memory node */\n      0x00\n        /* \"FundingDrip.sol\":1649:1669  contributionContract */\n      dup1\n      sload\n        /* \"FundingDrip.sol\":1649:1688  contributionContract.getNode(nodeIndex) */\n      mload(0x40)\n      shl(0xe0, 0x4f0f4aa9)\n      dup2\n      mstore\n      0x04\n      dup2\n      add\n        /* \"#utility.yul\":542:567   */\n      dup6\n      swap1\n      mstore\n      sub(shl(0xa0, 0x01), 0x01)\n        /* \"FundingDrip.sol\":1649:1669  contributionContract */\n      swap1\n      swap2\n      and\n      swap1\n        /* \"FundingDrip.sol\":1649:1677  contributionContract.getNode */\n      0x4f0f4aa9\n      swap1\n        /* \"#utility.yul\":515:533   */\n      0x24\n      add\n        /* \"FundingDrip.sol\":1649:1688  contributionContract.getNode(nodeIndex) */\n      0x00\n      mload(0x40)\n      dup1\n      dup4\n      sub\n      dup2\n      dup7\n      gas\n      staticcall\n      iszero\n      dup1\n      iszero\n      tag_51\n      jumpi\n      returndatasize\n      0x00\n      dup1\n      returndatacopy\n      revert(0x00, returndatasize)\n    tag_51:\n      pop\n      pop\n      pop\n      pop\n      mload(0x40)\n      returndatasize\n      0x00\n      dup3\n      returndatacopy\n      0x1f\n      returndatasize\n      swap1\n      dup2\n      add\n      not(0x1f)\n      and\n      dup3\n      add\n      0x40\n      mstore\n      tag_52\n      swap2\n      swap1\n      dup2\n      add\n      swap1\n      tag_53\n      jump\t// in\n    tag_52:\n        /* \"FundingDrip.sol\":1617:1688  Contribution.Node memory node = contributionContract.getNode(nodeIndex) */\n      swap1\n      pop\n        /* \"FundingDrip.sol\":1726:1736  dripAmount */\n      dup2\n        /* \"FundingDrip.sol\":1706:1710  node */\n      dup2\n        /* \"FundingDrip.sol\":1706:1722  node.fundingPool */\n      0x60\n      add\n      mload\n        /* \"FundingDrip.sol\":1706:1736  node.fundingPool >= dripAmount */\n      lt\n      iszero\n        /* \"FundingDrip.sol\":1698:1764  require(node.fundingPool >= dripAmount, \"Insufficient node funds\") */\n      tag_54\n      jumpi\n      mload(0x40)\n      shl(0xe5, 0x461bcd)\n      dup2\n      mstore\n        /* \"#utility.yul\":4856:4858   */\n      0x20\n        /* \"FundingDrip.sol\":1698:1764  require(node.fundingPool >= dripAmount, \"Insufficient node funds\") */\n      0x04\n      dup3\n      add\n        /* \"#utility.yul\":4838:4859   */\n      mstore\n        /* \"#utility.yul\":4895:4897   */\n      0x17\n        /* \"#utility.yul\":4875:4893   */\n      0x24\n      dup3\n      add\n        /* \"#utility.yul\":4868:4898   */\n      mstore\n        /* \"#utility.yul\":4934:4959   */\n      0x496e73756666696369656e74206e6f64652066756e6473000000000000000000\n        /* \"#utility.yul\":4914:4932   */\n      0x44\n      dup3\n      add\n        /* \"#utility.yul\":4907:4960   */\n      mstore\n        /* \"#utility.yul\":4977:4995   */\n      0x64\n      add\n        /* \"FundingDrip.sol\":1698:1764  require(node.fundingPool >= dripAmount, \"Insufficient node funds\") */\n      tag_47\n        /* \"#utility.yul\":4654:5001   */\n      jump\n        /* \"FundingDrip.sol\":1698:1764  require(node.fundingPool >= dripAmount, \"Insufficient node funds\") */\n    tag_54:\n        /* \"FundingDrip.sol\":1858:1878  contributionContract */\n      sload(0x00)\n        /* \"FundingDrip.sol\":1858:1921  contributionContract.updateLastDripBlock(msg.sender, nodeIndex) */\n      mload(0x40)\n      shl(0xe0, 0x04abc319)\n      dup2\n      mstore\n        /* \"FundingDrip.sol\":1899:1909  msg.sender */\n      caller\n        /* \"FundingDrip.sol\":1858:1921  contributionContract.updateLastDripBlock(msg.sender, nodeIndex) */\n      0x04\n      dup3\n      add\n        /* \"#utility.yul\":5180:5254   */\n      mstore\n        /* \"#utility.yul\":5270:5288   */\n      0x24\n      dup2\n      add\n        /* \"#utility.yul\":5263:5297   */\n      dup6\n      swap1\n      mstore\n      sub(shl(0xa0, 0x01), 0x01)\n        /* \"FundingDrip.sol\":1858:1878  contributionContract */\n      swap1\n      swap2\n      and\n      swap1\n        /* \"FundingDrip.sol\":1858:1898  contributionContract.updateLastDripBlock */\n      0x04abc319\n      swap1\n        /* \"#utility.yul\":5153:5171   */\n      0x44\n      add\n        /* \"FundingDrip.sol\":1858:1921  contributionContract.updateLastDripBlock(msg.sender, nodeIndex) */\n      0x00\n      mload(0x40)\n      dup1\n      dup4\n      sub\n      dup2\n      0x00\n      dup8\n      dup1\n      extcodesize\n      iszero\n      dup1\n      iszero\n      tag_59\n      jumpi\n      0x00\n      dup1\n      revert\n    tag_59:\n      pop\n      gas\n      call\n      iszero\n      dup1\n      iszero\n      tag_61\n      jumpi\n      returndatasize\n      0x00\n      dup1\n      returndatacopy\n      revert(0x00, returndatasize)\n    tag_61:\n      pop\n      pop\n      pop\n      pop\n        /* \"FundingDrip.sol\":1951:1961  dripAmount */\n      dup2\n        /* \"FundingDrip.sol\":1931:1935  node */\n      dup2\n        /* \"FundingDrip.sol\":1931:1947  node.fundingPool */\n      0x60\n      add\n        /* \"FundingDrip.sol\":1931:1961  node.fundingPool -= dripAmount */\n      dup2\n      dup2\n      mload\n      tag_62\n      swap2\n      swap1\n      tag_63\n      jump\t// in\n    tag_62:\n      swap1\n      mstore\n      pop\n        /* \"FundingDrip.sol\":1972:2012  payable(msg.sender).transfer(dripAmount) */\n      mload(0x40)\n        /* \"FundingDrip.sol\":1980:1990  msg.sender */\n      caller\n      swap1\n        /* \"FundingDrip.sol\":1972:2012  payable(msg.sender).transfer(dripAmount) */\n      dup4\n      iszero\n      0x08fc\n      mul\n      swap1\n        /* \"FundingDrip.sol\":2001:2011  dripAmount */\n      dup5\n      swap1\n        /* \"FundingDrip.sol\":1972:2012  payable(msg.sender).transfer(dripAmount) */\n      0x00\n      dup2\n      dup2\n      dup2\n        /* \"FundingDrip.sol\":2001:2011  dripAmount */\n      dup6\n        /* \"FundingDrip.sol\":1980:1990  msg.sender */\n      dup9\n        /* \"FundingDrip.sol\":1972:2012  payable(msg.sender).transfer(dripAmount) */\n      dup9\n      call\n      swap4\n      pop\n      pop\n      pop\n      pop\n      iszero\n      dup1\n      iszero\n      tag_65\n      jumpi\n      returndatasize\n      0x00\n      dup1\n      returndatacopy\n      revert(0x00, returndatasize)\n    tag_65:\n      pop\n        /* \"FundingDrip.sol\":2028:2067  Drip(msg.sender, nodeIndex, dripAmount) */\n      0x40\n      dup1\n      mload\n        /* \"#utility.yul\":5747:5772   */\n      dup5\n      dup2\n      mstore\n        /* \"#utility.yul\":5803:5805   */\n      0x20\n        /* \"#utility.yul\":5788:5806   */\n      dup2\n      add\n        /* \"#utility.yul\":5781:5815   */\n      dup5\n      swap1\n      mstore\n        /* \"FundingDrip.sol\":2033:2043  msg.sender */\n      caller\n      swap2\n        /* \"FundingDrip.sol\":2028:2067  Drip(msg.sender, nodeIndex, dripAmount) */\n      0xa4acd6546ca2a791c494afafa902f3ea075e5f5381f061cc8ec601651591a59b\n      swap2\n        /* \"#utility.yul\":5720:5738   */\n      add\n        /* \"FundingDrip.sol\":2028:2067  Drip(msg.sender, nodeIndex, dripAmount) */\n      mload(0x40)\n      dup1\n      swap2\n      sub\n      swap1\n      log2\n        /* \"FundingDrip.sol\":1480:2074  {... */\n      pop\n      pop\n        /* \"FundingDrip.sol\":1436:2074  function withdraw(uint256 nodeIndex) public {... */\n      pop\n      jump\t// out\n        /* \"FundingDrip.sol\":503:1285  function calculateDrip(address _user, uint256 nodeIndex) public view returns (uint256) {... */\n    tag_31:\n        /* \"FundingDrip.sol\":581:588  uint256 */\n      0x00\n        /* \"FundingDrip.sol\":632:652  contributionContract */\n      dup1\n      sload\n        /* \"FundingDrip.sol\":632:671  contributionContract.getNode(nodeIndex) */\n      mload(0x40)\n      shl(0xe0, 0x4f0f4aa9)\n      dup2\n      mstore\n      0x04\n      dup2\n      add\n        /* \"#utility.yul\":542:567   */\n      dup5\n      swap1\n      mstore\n        /* \"FundingDrip.sol\":581:588  uint256 */\n      dup3\n      swap2\n      sub(shl(0xa0, 0x01), 0x01)\n        /* \"FundingDrip.sol\":632:652  contributionContract */\n      and\n      swap1\n        /* \"FundingDrip.sol\":632:660  contributionContract.getNode */\n      0x4f0f4aa9\n      swap1\n        /* \"#utility.yul\":515:533   */\n      0x24\n      add\n        /* \"FundingDrip.sol\":632:671  contributionContract.getNode(nodeIndex) */\n      0x00\n      mload(0x40)\n      dup1\n      dup4\n      sub\n      dup2\n      dup7\n      gas\n      staticcall\n      iszero\n      dup1\n      iszero\n      tag_71\n      jumpi\n      returndatasize\n      0x00\n      dup1\n      returndatacopy\n      revert(0x00, returndatasize)\n    tag_71:\n      pop\n      pop\n      pop\n      pop\n      mload(0x40)\n      returndatasize\n      0x00\n      dup3\n      returndatacopy\n      0x1f\n      returndatasize\n      swap1\n      dup2\n      add\n      not(0x1f)\n      and\n      dup3\n      add\n      0x40\n      mstore\n      tag_72\n      swap2\n      swap1\n      dup2\n      add\n      swap1\n      tag_53\n      jump\t// in\n    tag_72:\n        /* \"FundingDrip.sol\":600:671  Contribution.Node memory node = contributionContract.getNode(nodeIndex) */\n      swap1\n      pop\n        /* \"FundingDrip.sol\":687:691  node */\n      dup1\n        /* \"FundingDrip.sol\":687:702  node.isFinished */\n      0xa0\n      add\n      mload\n        /* \"FundingDrip.sol\":686:702  !node.isFinished */\n      iszero\n        /* \"FundingDrip.sol\":686:754  !node.isFinished && block.timestamp < node.creationTime + dripPeriod */\n      dup1\n      iszero\n      tag_73\n      jumpi\n      pop\n        /* \"FundingDrip.sol\":744:754  dripPeriod */\n      sload(0x02)\n        /* \"FundingDrip.sol\":724:728  node */\n      dup2\n        /* \"FundingDrip.sol\":724:741  node.creationTime */\n      0x80\n      add\n      mload\n        /* \"FundingDrip.sol\":724:754  node.creationTime + dripPeriod */\n      tag_74\n      swap2\n      swap1\n      tag_75\n      jump\t// in\n    tag_74:\n        /* \"FundingDrip.sol\":706:721  block.timestamp */\n      timestamp\n        /* \"FundingDrip.sol\":706:754  block.timestamp < node.creationTime + dripPeriod */\n      lt\n        /* \"FundingDrip.sol\":686:754  !node.isFinished && block.timestamp < node.creationTime + dripPeriod */\n    tag_73:\n        /* \"FundingDrip.sol\":682:818  if (!node.isFinished && block.timestamp < node.creationTime + dripPeriod) {... */\n      iszero\n      tag_76\n      jumpi\n        /* \"FundingDrip.sol\":777:778  0 */\n      0x00\n        /* \"FundingDrip.sol\":770:778  return 0 */\n      swap2\n      pop\n      pop\n      jump(tag_42)\n        /* \"FundingDrip.sol\":682:818  if (!node.isFinished && block.timestamp < node.creationTime + dripPeriod) {... */\n    tag_76:\n        /* \"FundingDrip.sol\":828:850  uint256 userNodePoints */\n      0x00\n        /* \"FundingDrip.sol\":853:873  contributionContract */\n      dup1\n      sload\n        /* \"FundingDrip.sol\":853:909  contributionContract.getUserNodePoints(_user, nodeIndex) */\n      mload(0x40)\n      shl(0xe1, 0x645a68eb)\n      dup2\n      mstore\n      sub(shl(0xa0, 0x01), 0x01)\n        /* \"#utility.yul\":5198:5253   */\n      dup8\n      dup2\n      and\n        /* \"FundingDrip.sol\":853:909  contributionContract.getUserNodePoints(_user, nodeIndex) */\n      0x04\n      dup4\n      add\n        /* \"#utility.yul\":5180:5254   */\n      mstore\n        /* \"#utility.yul\":5270:5288   */\n      0x24\n      dup3\n      add\n        /* \"#utility.yul\":5263:5297   */\n      dup8\n      swap1\n      mstore\n        /* \"FundingDrip.sol\":853:873  contributionContract */\n      swap1\n      swap2\n      and\n      swap1\n        /* \"FundingDrip.sol\":853:891  contributionContract.getUserNodePoints */\n      0xc8b4d1d6\n      swap1\n        /* \"#utility.yul\":5153:5171   */\n      0x44\n      add\n        /* \"FundingDrip.sol\":853:909  contributionContract.getUserNodePoints(_user, nodeIndex) */\n      0x20\n      mload(0x40)\n      dup1\n      dup4\n      sub\n      dup2\n      dup7\n      gas\n      staticcall\n      iszero\n      dup1\n      iszero\n      tag_79\n      jumpi\n      returndatasize\n      0x00\n      dup1\n      returndatacopy\n      revert(0x00, returndatasize)\n    tag_79:\n      pop\n      pop\n      pop\n      pop\n      mload(0x40)\n      returndatasize\n      not(0x1f)\n      0x1f\n      dup3\n      add\n      and\n      dup3\n      add\n      dup1\n      0x40\n      mstore\n      pop\n      dup2\n      add\n      swap1\n      tag_80\n      swap2\n      swap1\n      tag_81\n      jump\t// in\n    tag_80:\n        /* \"FundingDrip.sol\":919:939  uint256 blocksPassed */\n      0x00\n        /* \"FundingDrip.sol\":957:977  contributionContract */\n      dup1\n      sload\n        /* \"FundingDrip.sol\":957:1012  contributionContract.getLastDripBlock(_user, nodeIndex) */\n      mload(0x40)\n      shl(0xe1, 0x11ccad6f)\n      dup2\n      mstore\n      sub(shl(0xa0, 0x01), 0x01)\n        /* \"#utility.yul\":5198:5253   */\n      dup10\n      dup2\n      and\n        /* \"FundingDrip.sol\":957:1012  contributionContract.getLastDripBlock(_user, nodeIndex) */\n      0x04\n      dup4\n      add\n        /* \"#utility.yul\":5180:5254   */\n      mstore\n        /* \"#utility.yul\":5270:5288   */\n      0x24\n      dup3\n      add\n        /* \"#utility.yul\":5263:5297   */\n      dup10\n      swap1\n      mstore\n        /* \"FundingDrip.sol\":828:909  uint256 userNodePoints = contributionContract.getUserNodePoints(_user, nodeIndex) */\n      swap4\n      swap5\n      pop\n        /* \"FundingDrip.sol\":919:939  uint256 blocksPassed */\n      swap2\n      swap3\n        /* \"FundingDrip.sol\":957:977  contributionContract */\n      and\n      swap1\n        /* \"FundingDrip.sol\":957:994  contributionContract.getLastDripBlock */\n      0x23995ade\n      swap1\n        /* \"#utility.yul\":5153:5171   */\n      0x44\n      add\n        /* \"FundingDrip.sol\":957:1012  contributionContract.getLastDripBlock(_user, nodeIndex) */\n      0x20\n      mload(0x40)\n      dup1\n      dup4\n      sub\n      dup2\n      dup7\n      gas\n      staticcall\n      iszero\n      dup1\n      iszero\n      tag_84\n      jumpi\n      returndatasize\n      0x00\n      dup1\n      returndatacopy\n      revert(0x00, returndatasize)\n    tag_84:\n      pop\n      pop\n      pop\n      pop\n      mload(0x40)\n      returndatasize\n      not(0x1f)\n      0x1f\n      dup3\n      add\n      and\n      dup3\n      add\n      dup1\n      0x40\n      mstore\n      pop\n      dup2\n      add\n      swap1\n      tag_85\n      swap2\n      swap1\n      tag_81\n      jump\t// in\n    tag_85:\n        /* \"FundingDrip.sol\":942:1012  block.number - contributionContract.getLastDripBlock(_user, nodeIndex) */\n      tag_86\n      swap1\n        /* \"FundingDrip.sol\":942:954  block.number */\n      number\n        /* \"FundingDrip.sol\":942:1012  block.number - contributionContract.getLastDripBlock(_user, nodeIndex) */\n      tag_63\n      jump\t// in\n    tag_86:\n        /* \"FundingDrip.sol\":919:1012  uint256 blocksPassed = block.number - contributionContract.getLastDripBlock(_user, nodeIndex) */\n      swap1\n      pop\n        /* \"FundingDrip.sol\":1022:1040  uint256 dripAmount */\n      0x00\n        /* \"FundingDrip.sol\":1077:1091  userNodePoints */\n      dup3\n        /* \"FundingDrip.sol\":1058:1074  dripRatePerBlock */\n      sload(0x01)\n        /* \"FundingDrip.sol\":1043:1055  blocksPassed */\n      dup4\n        /* \"FundingDrip.sol\":1043:1074  blocksPassed * dripRatePerBlock */\n      tag_87\n      swap2\n      swap1\n      tag_88\n      jump\t// in\n    tag_87:\n        /* \"FundingDrip.sol\":1043:1091  blocksPassed * dripRatePerBlock * userNodePoints */\n      tag_89\n      swap2\n      swap1\n      tag_88\n      jump\t// in\n    tag_89:\n        /* \"FundingDrip.sol\":1022:1091  uint256 dripAmount = blocksPassed * dripRatePerBlock * userNodePoints */\n      swap1\n      pop\n        /* \"FundingDrip.sol\":1119:1123  node */\n      dup4\n        /* \"FundingDrip.sol\":1119:1135  node.fundingPool */\n      0x60\n      add\n      mload\n        /* \"FundingDrip.sol\":1106:1116  dripAmount */\n      dup2\n        /* \"FundingDrip.sol\":1106:1135  dripAmount > node.fundingPool */\n      gt\n        /* \"FundingDrip.sol\":1102:1251  if (dripAmount > node.fundingPool) {... */\n      iszero\n      tag_90\n      jumpi\n      pop\n        /* \"FundingDrip.sol\":1164:1180  node.fundingPool */\n      0x60\n      dup4\n      add\n      mload\n        /* \"FundingDrip.sol\":1102:1251  if (dripAmount > node.fundingPool) {... */\n    tag_90:\n        /* \"FundingDrip.sol\":1268:1278  dripAmount */\n      swap7\n        /* \"FundingDrip.sol\":503:1285  function calculateDrip(address _user, uint256 nodeIndex) public view returns (uint256) {... */\n      swap6\n      pop\n      pop\n      pop\n      pop\n      pop\n      pop\n      jump\t// out\n        /* \"#utility.yul\":14:391   */\n    tag_15:\n        /* \"#utility.yul\":82:88   */\n      0x00\n        /* \"#utility.yul\":90:96   */\n      dup1\n        /* \"#utility.yul\":143:145   */\n      0x40\n        /* \"#utility.yul\":131:140   */\n      dup4\n        /* \"#utility.yul\":122:129   */\n      dup6\n        /* \"#utility.yul\":118:141   */\n      sub\n        /* \"#utility.yul\":114:146   */\n      slt\n        /* \"#utility.yul\":111:163   */\n      iszero\n      tag_100\n      jumpi\n        /* \"#utility.yul\":159:160   */\n      0x00\n        /* \"#utility.yul\":156:157   */\n      dup1\n        /* \"#utility.yul\":149:161   */\n      revert\n        /* \"#utility.yul\":111:163   */\n    tag_100:\n        /* \"#utility.yul\":198:207   */\n      dup3\n        /* \"#utility.yul\":185:208   */\n      calldataload\n      sub(shl(0xa0, 0x01), 0x01)\n        /* \"#utility.yul\":241:246   */\n      dup2\n        /* \"#utility.yul\":237:291   */\n      and\n        /* \"#utility.yul\":230:235   */\n      dup2\n        /* \"#utility.yul\":227:292   */\n      eq\n        /* \"#utility.yul\":217:310   */\n      tag_101\n      jumpi\n        /* \"#utility.yul\":306:307   */\n      0x00\n        /* \"#utility.yul\":303:304   */\n      dup1\n        /* \"#utility.yul\":296:308   */\n      revert\n        /* \"#utility.yul\":217:310   */\n    tag_101:\n        /* \"#utility.yul\":329:334   */\n      swap5\n        /* \"#utility.yul\":381:383   */\n      0x20\n        /* \"#utility.yul\":366:384   */\n      swap4\n      swap1\n      swap4\n      add\n        /* \"#utility.yul\":353:385   */\n      calldataload\n      swap4\n      pop\n      pop\n      pop\n        /* \"#utility.yul\":14:391   */\n      jump\t// out\n        /* \"#utility.yul\":578:758   */\n    tag_22:\n        /* \"#utility.yul\":637:643   */\n      0x00\n        /* \"#utility.yul\":690:692   */\n      0x20\n        /* \"#utility.yul\":678:687   */\n      dup3\n        /* \"#utility.yul\":669:676   */\n      dup5\n        /* \"#utility.yul\":665:688   */\n      sub\n        /* \"#utility.yul\":661:693   */\n      slt\n        /* \"#utility.yul\":658:710   */\n      iszero\n      tag_104\n      jumpi\n        /* \"#utility.yul\":706:707   */\n      0x00\n        /* \"#utility.yul\":703:704   */\n      dup1\n        /* \"#utility.yul\":696:708   */\n      revert\n        /* \"#utility.yul\":658:710   */\n    tag_104:\n      pop\n        /* \"#utility.yul\":729:752   */\n      calldataload\n      swap2\n        /* \"#utility.yul\":578:758   */\n      swap1\n      pop\n      jump\t// out\n        /* \"#utility.yul\":1365:1492   */\n    tag_91:\n        /* \"#utility.yul\":1426:1436   */\n      0x4e487b71\n        /* \"#utility.yul\":1421:1424   */\n      0xe0\n        /* \"#utility.yul\":1417:1437   */\n      shl\n        /* \"#utility.yul\":1414:1415   */\n      0x00\n        /* \"#utility.yul\":1407:1438   */\n      mstore\n        /* \"#utility.yul\":1457:1461   */\n      0x41\n        /* \"#utility.yul\":1454:1455   */\n      0x04\n        /* \"#utility.yul\":1447:1462   */\n      mstore\n        /* \"#utility.yul\":1481:1485   */\n      0x24\n        /* \"#utility.yul\":1478:1479   */\n      0x00\n        /* \"#utility.yul\":1471:1486   */\n      revert\n        /* \"#utility.yul\":1497:1749   */\n    tag_92:\n        /* \"#utility.yul\":1568:1570   */\n      0x40\n        /* \"#utility.yul\":1562:1571   */\n      mload\n        /* \"#utility.yul\":1610:1614   */\n      0xc0\n        /* \"#utility.yul\":1598:1615   */\n      dup2\n      add\n        /* \"#utility.yul\":1645:1663   */\n      0xffffffffffffffff\n        /* \"#utility.yul\":1630:1664   */\n      dup2\n      gt\n        /* \"#utility.yul\":1666:1688   */\n      dup3\n      dup3\n      lt\n        /* \"#utility.yul\":1627:1689   */\n      or\n        /* \"#utility.yul\":1624:1712   */\n      iszero\n      tag_110\n      jumpi\n        /* \"#utility.yul\":1692:1710   */\n      tag_110\n      tag_91\n      jump\t// in\n    tag_110:\n        /* \"#utility.yul\":1728:1730   */\n      0x40\n        /* \"#utility.yul\":1721:1743   */\n      mstore\n        /* \"#utility.yul\":1497:1749   */\n      swap1\n      jump\t// out\n        /* \"#utility.yul\":1754:2029   */\n    tag_93:\n        /* \"#utility.yul\":1825:1827   */\n      0x40\n        /* \"#utility.yul\":1819:1828   */\n      mload\n        /* \"#utility.yul\":1890:1892   */\n      0x1f\n        /* \"#utility.yul\":1871:1884   */\n      dup3\n      add\n      not(0x1f)\n        /* \"#utility.yul\":1867:1894   */\n      and\n        /* \"#utility.yul\":1855:1895   */\n      dup2\n      add\n        /* \"#utility.yul\":1925:1943   */\n      0xffffffffffffffff\n        /* \"#utility.yul\":1910:1944   */\n      dup2\n      gt\n        /* \"#utility.yul\":1946:1968   */\n      dup3\n      dup3\n      lt\n        /* \"#utility.yul\":1907:1969   */\n      or\n        /* \"#utility.yul\":1904:1992   */\n      iszero\n      tag_113\n      jumpi\n        /* \"#utility.yul\":1972:1990   */\n      tag_113\n      tag_91\n      jump\t// in\n    tag_113:\n        /* \"#utility.yul\":2008:2010   */\n      0x40\n        /* \"#utility.yul\":2001:2023   */\n      mstore\n        /* \"#utility.yul\":1754:2029   */\n      swap2\n      swap1\n      pop\n      jump\t// out\n        /* \"#utility.yul\":2034:2562   */\n    tag_94:\n        /* \"#utility.yul\":2088:2093   */\n      0x00\n        /* \"#utility.yul\":2141:2144   */\n      dup3\n        /* \"#utility.yul\":2134:2138   */\n      0x1f\n        /* \"#utility.yul\":2126:2132   */\n      dup4\n        /* \"#utility.yul\":2122:2139   */\n      add\n        /* \"#utility.yul\":2118:2145   */\n      slt\n        /* \"#utility.yul\":2108:2163   */\n      tag_115\n      jumpi\n        /* \"#utility.yul\":2159:2160   */\n      0x00\n        /* \"#utility.yul\":2156:2157   */\n      dup1\n        /* \"#utility.yul\":2149:2161   */\n      revert\n        /* \"#utility.yul\":2108:2163   */\n    tag_115:\n        /* \"#utility.yul\":2188:2194   */\n      dup2\n        /* \"#utility.yul\":2182:2195   */\n      mload\n        /* \"#utility.yul\":2214:2232   */\n      0xffffffffffffffff\n        /* \"#utility.yul\":2210:2212   */\n      dup2\n        /* \"#utility.yul\":2207:2233   */\n      gt\n        /* \"#utility.yul\":2204:2256   */\n      iszero\n      tag_117\n      jumpi\n        /* \"#utility.yul\":2236:2254   */\n      tag_117\n      tag_91\n      jump\t// in\n    tag_117:\n        /* \"#utility.yul\":2280:2335   */\n      tag_118\n        /* \"#utility.yul\":2323:2325   */\n      0x1f\n        /* \"#utility.yul\":2304:2317   */\n      dup3\n      add\n      not(0x1f)\n        /* \"#utility.yul\":2300:2327   */\n      and\n        /* \"#utility.yul\":2329:2333   */\n      0x20\n        /* \"#utility.yul\":2296:2334   */\n      add\n        /* \"#utility.yul\":2280:2335   */\n      tag_93\n      jump\t// in\n    tag_118:\n        /* \"#utility.yul\":2360:2362   */\n      dup2\n        /* \"#utility.yul\":2351:2358   */\n      dup2\n        /* \"#utility.yul\":2344:2363   */\n      mstore\n        /* \"#utility.yul\":2406:2409   */\n      dup5\n        /* \"#utility.yul\":2399:2403   */\n      0x20\n        /* \"#utility.yul\":2394:2396   */\n      dup4\n        /* \"#utility.yul\":2386:2392   */\n      dup7\n        /* \"#utility.yul\":2382:2397   */\n      add\n        /* \"#utility.yul\":2378:2404   */\n      add\n        /* \"#utility.yul\":2375:2410   */\n      gt\n        /* \"#utility.yul\":2372:2427   */\n      iszero\n      tag_119\n      jumpi\n        /* \"#utility.yul\":2423:2424   */\n      0x00\n        /* \"#utility.yul\":2420:2421   */\n      dup1\n        /* \"#utility.yul\":2413:2425   */\n      revert\n        /* \"#utility.yul\":2372:2427   */\n    tag_119:\n        /* \"#utility.yul\":2481:2483   */\n      dup2\n        /* \"#utility.yul\":2474:2478   */\n      0x20\n        /* \"#utility.yul\":2466:2472   */\n      dup6\n        /* \"#utility.yul\":2462:2479   */\n      add\n        /* \"#utility.yul\":2455:2459   */\n      0x20\n        /* \"#utility.yul\":2446:2453   */\n      dup4\n        /* \"#utility.yul\":2442:2460   */\n      add\n        /* \"#utility.yul\":2436:2484   */\n      mcopy\n        /* \"#utility.yul\":2529:2530   */\n      0x00\n        /* \"#utility.yul\":2504:2520   */\n      swap2\n      dup2\n      add\n        /* \"#utility.yul\":2522:2526   */\n      0x20\n        /* \"#utility.yul\":2500:2527   */\n      add\n        /* \"#utility.yul\":2493:2531   */\n      swap2\n      swap1\n      swap2\n      mstore\n        /* \"#utility.yul\":2508:2515   */\n      swap4\n        /* \"#utility.yul\":2034:2562   */\n      swap3\n      pop\n      pop\n      pop\n      jump\t// out\n        /* \"#utility.yul\":2567:3448   */\n    tag_95:\n        /* \"#utility.yul\":2631:2636   */\n      0x00\n        /* \"#utility.yul\":2684:2687   */\n      dup3\n        /* \"#utility.yul\":2677:2681   */\n      0x1f\n        /* \"#utility.yul\":2669:2675   */\n      dup4\n        /* \"#utility.yul\":2665:2682   */\n      add\n        /* \"#utility.yul\":2661:2688   */\n      slt\n        /* \"#utility.yul\":2651:2706   */\n      tag_121\n      jumpi\n        /* \"#utility.yul\":2702:2703   */\n      0x00\n        /* \"#utility.yul\":2699:2700   */\n      dup1\n        /* \"#utility.yul\":2692:2704   */\n      revert\n        /* \"#utility.yul\":2651:2706   */\n    tag_121:\n        /* \"#utility.yul\":2731:2737   */\n      dup2\n        /* \"#utility.yul\":2725:2738   */\n      mload\n        /* \"#utility.yul\":2757:2761   */\n      0x20\n        /* \"#utility.yul\":2780:2798   */\n      0xffffffffffffffff\n        /* \"#utility.yul\":2817:2819   */\n      dup1\n        /* \"#utility.yul\":2813:2815   */\n      dup4\n        /* \"#utility.yul\":2810:2820   */\n      gt\n        /* \"#utility.yul\":2807:2843   */\n      iszero\n      tag_123\n      jumpi\n        /* \"#utility.yul\":2823:2841   */\n      tag_123\n      tag_91\n      jump\t// in\n    tag_123:\n        /* \"#utility.yul\":2869:2871   */\n      dup3\n        /* \"#utility.yul\":2866:2867   */\n      0x05\n        /* \"#utility.yul\":2862:2872   */\n      shl\n        /* \"#utility.yul\":2892:2920   */\n      tag_124\n        /* \"#utility.yul\":2916:2918   */\n      dup4\n        /* \"#utility.yul\":2912:2914   */\n      dup3\n        /* \"#utility.yul\":2908:2919   */\n      add\n        /* \"#utility.yul\":2892:2920   */\n      tag_93\n      jump\t// in\n    tag_124:\n        /* \"#utility.yul\":2954:2969   */\n      swap4\n      dup5\n      mstore\n        /* \"#utility.yul\":3024:3039   */\n      dup6\n      dup2\n      add\n        /* \"#utility.yul\":3020:3044   */\n      dup4\n      add\n      swap4\n        /* \"#utility.yul\":2985:2997   */\n      dup4\n      dup2\n      add\n      swap1\n        /* \"#utility.yul\":3056:3071   */\n      dup9\n      dup7\n      gt\n        /* \"#utility.yul\":3053:3088   */\n      iszero\n      tag_125\n      jumpi\n        /* \"#utility.yul\":3084:3085   */\n      0x00\n        /* \"#utility.yul\":3081:3082   */\n      dup1\n        /* \"#utility.yul\":3074:3086   */\n      revert\n        /* \"#utility.yul\":3053:3088   */\n    tag_125:\n        /* \"#utility.yul\":3120:3122   */\n      dup5\n        /* \"#utility.yul\":3112:3118   */\n      dup9\n        /* \"#utility.yul\":3108:3123   */\n      add\n        /* \"#utility.yul\":3097:3123   */\n      swap3\n      pop\n        /* \"#utility.yul\":3132:3419   */\n    tag_126:\n        /* \"#utility.yul\":3148:3154   */\n      dup6\n        /* \"#utility.yul\":3143:3146   */\n      dup4\n        /* \"#utility.yul\":3140:3155   */\n      lt\n        /* \"#utility.yul\":3132:3419   */\n      iszero\n      tag_128\n      jumpi\n        /* \"#utility.yul\":3227:3230   */\n      dup3\n        /* \"#utility.yul\":3221:3231   */\n      mload\n        /* \"#utility.yul\":3263:3265   */\n      dup5\n        /* \"#utility.yul\":3250:3261   */\n      dup2\n        /* \"#utility.yul\":3247:3266   */\n      gt\n        /* \"#utility.yul\":3244:3283   */\n      iszero\n      tag_129\n      jumpi\n        /* \"#utility.yul\":3279:3280   */\n      0x00\n        /* \"#utility.yul\":3276:3277   */\n      dup1\n        /* \"#utility.yul\":3269:3281   */\n      revert\n        /* \"#utility.yul\":3244:3283   */\n    tag_129:\n        /* \"#utility.yul\":3308:3376   */\n      tag_130\n        /* \"#utility.yul\":3372:3375   */\n      dup11\n        /* \"#utility.yul\":3367:3369   */\n      dup8\n        /* \"#utility.yul\":3353:3364   */\n      dup4\n        /* \"#utility.yul\":3345:3351   */\n      dup13\n        /* \"#utility.yul\":3341:3365   */\n      add\n        /* \"#utility.yul\":3337:3370   */\n      add\n        /* \"#utility.yul\":3308:3376   */\n      tag_94\n      jump\t// in\n    tag_130:\n        /* \"#utility.yul\":3296:3377   */\n      dup4\n      mstore\n      pop\n        /* \"#utility.yul\":3165:3177   */\n      swap2\n      dup5\n      add\n      swap2\n        /* \"#utility.yul\":3397:3409   */\n      swap1\n      dup5\n      add\n      swap1\n        /* \"#utility.yul\":3132:3419   */\n      jump(tag_126)\n    tag_128:\n        /* \"#utility.yul\":3437:3442   */\n      swap9\n        /* \"#utility.yul\":2567:3448   */\n      swap8\n      pop\n      pop\n      pop\n      pop\n      pop\n      pop\n      pop\n      pop\n      jump\t// out\n        /* \"#utility.yul\":3453:3617   */\n    tag_96:\n        /* \"#utility.yul\":3529:3542   */\n      dup1\n      mload\n        /* \"#utility.yul\":3578:3591   */\n      dup1\n      iszero\n        /* \"#utility.yul\":3571:3592   */\n      iszero\n        /* \"#utility.yul\":3561:3593   */\n      dup2\n      eq\n        /* \"#utility.yul\":3551:3611   */\n      tag_132\n      jumpi\n        /* \"#utility.yul\":3607:3608   */\n      0x00\n        /* \"#utility.yul\":3604:3605   */\n      dup1\n        /* \"#utility.yul\":3597:3609   */\n      revert\n        /* \"#utility.yul\":3551:3611   */\n    tag_132:\n        /* \"#utility.yul\":3453:3617   */\n      swap2\n      swap1\n      pop\n      jump\t// out\n        /* \"#utility.yul\":3622:4649   */\n    tag_53:\n        /* \"#utility.yul\":3712:3718   */\n      0x00\n        /* \"#utility.yul\":3765:3767   */\n      0x20\n        /* \"#utility.yul\":3753:3762   */\n      dup3\n        /* \"#utility.yul\":3744:3751   */\n      dup5\n        /* \"#utility.yul\":3740:3763   */\n      sub\n        /* \"#utility.yul\":3736:3768   */\n      slt\n        /* \"#utility.yul\":3733:3785   */\n      iszero\n      tag_134\n      jumpi\n        /* \"#utility.yul\":3781:3782   */\n      0x00\n        /* \"#utility.yul\":3778:3779   */\n      dup1\n        /* \"#utility.yul\":3771:3783   */\n      revert\n        /* \"#utility.yul\":3733:3785   */\n    tag_134:\n        /* \"#utility.yul\":3814:3823   */\n      dup2\n        /* \"#utility.yul\":3808:3824   */\n      mload\n        /* \"#utility.yul\":3843:3861   */\n      0xffffffffffffffff\n        /* \"#utility.yul\":3884:3886   */\n      dup1\n        /* \"#utility.yul\":3876:3882   */\n      dup3\n        /* \"#utility.yul\":3873:3887   */\n      gt\n        /* \"#utility.yul\":3870:3904   */\n      iszero\n      tag_135\n      jumpi\n        /* \"#utility.yul\":3900:3901   */\n      0x00\n        /* \"#utility.yul\":3897:3898   */\n      dup1\n        /* \"#utility.yul\":3890:3902   */\n      revert\n        /* \"#utility.yul\":3870:3904   */\n    tag_135:\n        /* \"#utility.yul\":3923:3945   */\n      swap1\n      dup4\n      add\n      swap1\n        /* \"#utility.yul\":3979:3983   */\n      0xc0\n        /* \"#utility.yul\":3961:3977   */\n      dup3\n      dup7\n      sub\n        /* \"#utility.yul\":3957:3984   */\n      slt\n        /* \"#utility.yul\":3954:4001   */\n      iszero\n      tag_136\n      jumpi\n        /* \"#utility.yul\":3997:3998   */\n      0x00\n        /* \"#utility.yul\":3994:3995   */\n      dup1\n        /* \"#utility.yul\":3987:3999   */\n      revert\n        /* \"#utility.yul\":3954:4001   */\n    tag_136:\n        /* \"#utility.yul\":4023:4044   */\n      tag_137\n      tag_92\n      jump\t// in\n    tag_137:\n        /* \"#utility.yul\":4075:4077   */\n      dup3\n        /* \"#utility.yul\":4069:4078   */\n      mload\n        /* \"#utility.yul\":4103:4105   */\n      dup3\n        /* \"#utility.yul\":4093:4101   */\n      dup2\n        /* \"#utility.yul\":4090:4106   */\n      gt\n        /* \"#utility.yul\":4087:4123   */\n      iszero\n      tag_138\n      jumpi\n        /* \"#utility.yul\":4119:4120   */\n      0x00\n        /* \"#utility.yul\":4116:4117   */\n      dup1\n        /* \"#utility.yul\":4109:4121   */\n      revert\n        /* \"#utility.yul\":4087:4123   */\n    tag_138:\n        /* \"#utility.yul\":4146:4202   */\n      tag_139\n        /* \"#utility.yul\":4194:4201   */\n      dup8\n        /* \"#utility.yul\":4183:4191   */\n      dup3\n        /* \"#utility.yul\":4179:4181   */\n      dup7\n        /* \"#utility.yul\":4175:4192   */\n      add\n        /* \"#utility.yul\":4146:4202   */\n      tag_94\n      jump\t// in\n    tag_139:\n        /* \"#utility.yul\":4139:4144   */\n      dup3\n        /* \"#utility.yul\":4132:4203   */\n      mstore\n      pop\n        /* \"#utility.yul\":4242:4244   */\n      0x20\n        /* \"#utility.yul\":4238:4240   */\n      dup4\n        /* \"#utility.yul\":4234:4245   */\n      add\n        /* \"#utility.yul\":4228:4246   */\n      mload\n        /* \"#utility.yul\":4271:4273   */\n      dup3\n        /* \"#utility.yul\":4261:4269   */\n      dup2\n        /* \"#utility.yul\":4258:4274   */\n      gt\n        /* \"#utility.yul\":4255:4291   */\n      iszero\n      tag_140\n      jumpi\n        /* \"#utility.yul\":4287:4288   */\n      0x00\n        /* \"#utility.yul\":4284:4285   */\n      dup1\n        /* \"#utility.yul\":4277:4289   */\n      revert\n        /* \"#utility.yul\":4255:4291   */\n    tag_140:\n        /* \"#utility.yul\":4323:4389   */\n      tag_141\n        /* \"#utility.yul\":4381:4388   */\n      dup8\n        /* \"#utility.yul\":4370:4378   */\n      dup3\n        /* \"#utility.yul\":4366:4368   */\n      dup7\n        /* \"#utility.yul\":4362:4379   */\n      add\n        /* \"#utility.yul\":4323:4389   */\n      tag_95\n      jump\t// in\n    tag_141:\n        /* \"#utility.yul\":4318:4320   */\n      0x20\n        /* \"#utility.yul\":4311:4316   */\n      dup4\n        /* \"#utility.yul\":4307:4321   */\n      add\n        /* \"#utility.yul\":4300:4390   */\n      mstore\n      pop\n        /* \"#utility.yul\":4436:4438   */\n      0x40\n        /* \"#utility.yul\":4432:4434   */\n      dup4\n        /* \"#utility.yul\":4428:4439   */\n      add\n        /* \"#utility.yul\":4422:4440   */\n      mload\n        /* \"#utility.yul\":4417:4419   */\n      0x40\n        /* \"#utility.yul\":4410:4415   */\n      dup3\n        /* \"#utility.yul\":4406:4420   */\n      add\n        /* \"#utility.yul\":4399:4441   */\n      mstore\n        /* \"#utility.yul\":4487:4489   */\n      0x60\n        /* \"#utility.yul\":4483:4485   */\n      dup4\n        /* \"#utility.yul\":4479:4490   */\n      add\n        /* \"#utility.yul\":4473:4491   */\n      mload\n        /* \"#utility.yul\":4468:4470   */\n      0x60\n        /* \"#utility.yul\":4461:4466   */\n      dup3\n        /* \"#utility.yul\":4457:4471   */\n      add\n        /* \"#utility.yul\":4450:4492   */\n      mstore\n        /* \"#utility.yul\":4539:4542   */\n      0x80\n        /* \"#utility.yul\":4535:4537   */\n      dup4\n        /* \"#utility.yul\":4531:4543   */\n      add\n        /* \"#utility.yul\":4525:4544   */\n      mload\n        /* \"#utility.yul\":4519:4522   */\n      0x80\n        /* \"#utility.yul\":4512:4517   */\n      dup3\n        /* \"#utility.yul\":4508:4523   */\n      add\n        /* \"#utility.yul\":4501:4545   */\n      mstore\n        /* \"#utility.yul\":4578:4618   */\n      tag_142\n        /* \"#utility.yul\":4613:4616   */\n      0xa0\n        /* \"#utility.yul\":4609:4611   */\n      dup5\n        /* \"#utility.yul\":4605:4617   */\n      add\n        /* \"#utility.yul\":4578:4618   */\n      tag_96\n      jump\t// in\n    tag_142:\n        /* \"#utility.yul\":4572:4575   */\n      0xa0\n        /* \"#utility.yul\":4561:4576   */\n      dup3\n      add\n        /* \"#utility.yul\":4554:4619   */\n      mstore\n        /* \"#utility.yul\":4565:4570   */\n      swap6\n        /* \"#utility.yul\":3622:4649   */\n      swap5\n      pop\n      pop\n      pop\n      pop\n      pop\n      jump\t// out\n        /* \"#utility.yul\":5308:5435   */\n    tag_97:\n        /* \"#utility.yul\":5369:5379   */\n      0x4e487b71\n        /* \"#utility.yul\":5364:5367   */\n      0xe0\n        /* \"#utility.yul\":5360:5380   */\n      shl\n        /* \"#utility.yul\":5357:5358   */\n      0x00\n        /* \"#utility.yul\":5350:5381   */\n      mstore\n        /* \"#utility.yul\":5400:5404   */\n      0x11\n        /* \"#utility.yul\":5397:5398   */\n      0x04\n        /* \"#utility.yul\":5390:5405   */\n      mstore\n        /* \"#utility.yul\":5424:5428   */\n      0x24\n        /* \"#utility.yul\":5421:5422   */\n      0x00\n        /* \"#utility.yul\":5414:5429   */\n      revert\n        /* \"#utility.yul\":5440:5568   */\n    tag_63:\n        /* \"#utility.yul\":5507:5516   */\n      dup2\n      dup2\n      sub\n        /* \"#utility.yul\":5528:5539   */\n      dup2\n      dup2\n      gt\n        /* \"#utility.yul\":5525:5562   */\n      iszero\n      tag_42\n      jumpi\n        /* \"#utility.yul\":5542:5560   */\n      tag_42\n      tag_97\n      jump\t// in\n        /* \"#utility.yul\":5826:5951   */\n    tag_75:\n        /* \"#utility.yul\":5891:5900   */\n      dup1\n      dup3\n      add\n        /* \"#utility.yul\":5912:5922   */\n      dup1\n      dup3\n      gt\n        /* \"#utility.yul\":5909:5945   */\n      iszero\n      tag_42\n      jumpi\n        /* \"#utility.yul\":5925:5943   */\n      tag_42\n      tag_97\n      jump\t// in\n        /* \"#utility.yul\":5956:6140   */\n    tag_81:\n        /* \"#utility.yul\":6026:6032   */\n      0x00\n        /* \"#utility.yul\":6079:6081   */\n      0x20\n        /* \"#utility.yul\":6067:6076   */\n      dup3\n        /* \"#utility.yul\":6058:6065   */\n      dup5\n        /* \"#utility.yul\":6054:6077   */\n      sub\n        /* \"#utility.yul\":6050:6082   */\n      slt\n        /* \"#utility.yul\":6047:6099   */\n      iszero\n      tag_154\n      jumpi\n        /* \"#utility.yul\":6095:6096   */\n      0x00\n        /* \"#utility.yul\":6092:6093   */\n      dup1\n        /* \"#utility.yul\":6085:6097   */\n      revert\n        /* \"#utility.yul\":6047:6099   */\n    tag_154:\n      pop\n        /* \"#utility.yul\":6118:6134   */\n      mload\n      swap2\n        /* \"#utility.yul\":5956:6140   */\n      swap1\n      pop\n      jump\t// out\n        /* \"#utility.yul\":6145:6313   */\n    tag_88:\n        /* \"#utility.yul\":6218:6227   */\n      dup1\n      dup3\n      mul\n        /* \"#utility.yul\":6249:6258   */\n      dup2\n      iszero\n        /* \"#utility.yul\":6266:6281   */\n      dup3\n      dup3\n      div\n        /* \"#utility.yul\":6260:6282   */\n      dup5\n      eq\n        /* \"#utility.yul\":6246:6283   */\n      or\n        /* \"#utility.yul\":6236:6307   */\n      tag_42\n      jumpi\n        /* \"#utility.yul\":6287:6305   */\n      tag_42\n      tag_97\n      jump\t// in\n\n    auxdata: 0xa2646970667358221220ac72a25008ab493a41e1af6983ca093bebaf696cd05f849895a4064fd314999864736f6c63430008190033\n}\n",
    "bytecode": {
      "linkReferences": {},
      "object": "6080604052600180556301e13380600255348015601a575f80fd5b506040516108e43803806108e4833981016040819052603791605a565b5f80546001600160a01b0319166001600160a01b03929092169190911790556085565b5f602082840312156069575f80fd5b81516001600160a01b0381168114607e575f80fd5b9392505050565b610852806100925f395ff3fe608060405260043610610066575f3560e01c80633a9b7cb2116100415780633a9b7cb2146100d957806371506414146100f8578063ddfdec601461010d575f80fd5b80632b04e840146100715780632e1a7d4d146100a3578063362c55da146100c4575f80fd5b3661006d57005b5f80fd5b34801561007c575f80fd5b5061009061008b366004610526565b610143565b6040519081526020015b60405180910390f35b3480156100ae575f80fd5b506100c26100bd36600461055b565b610157565b005b3480156100cf575f80fd5b5061009060015481565b3480156100e4575f80fd5b506100906100f3366004610526565b610359565b348015610103575f80fd5b5061009060025481565b348015610118575f80fd5b505f5461012b906001600160a01b031681565b6040516001600160a01b03909116815260200161009a565b5f61014e8383610359565b90505b92915050565b5f6101623383610359565b90505f81116101b85760405162461bcd60e51b815260206004820152601660248201527f4e6f2062616c616e636520746f2077697468647261770000000000000000000060448201526064015b60405180910390fd5b5f8054604051634f0f4aa960e01b8152600481018590526001600160a01b0390911690634f0f4aa9906024015f60405180830381865afa1580156101fe573d5f803e3d5ffd5b505050506040513d5f823e601f3d908101601f1916820160405261022591908101906106fa565b9050818160600151101561027b5760405162461bcd60e51b815260206004820152601760248201527f496e73756666696369656e74206e6f64652066756e647300000000000000000060448201526064016101af565b5f546040516304abc31960e01b8152336004820152602481018590526001600160a01b03909116906304abc319906044015f604051808303815f87803b1580156102c3575f80fd5b505af11580156102d5573d5f803e3d5ffd5b5050505081816060018181516102eb91906107c8565b905250604051339083156108fc029084905f818181858888f19350505050158015610318573d5f803e3d5ffd5b50604080518481526020810184905233917fa4acd6546ca2a791c494afafa902f3ea075e5f5381f061cc8ec601651591a59b910160405180910390a2505050565b5f8054604051634f0f4aa960e01b81526004810184905282916001600160a01b031690634f0f4aa9906024015f60405180830381865afa15801561039f573d5f803e3d5ffd5b505050506040513d5f823e601f3d908101601f191682016040526103c691908101906106fa565b90508060a001511580156103ea575060025481608001516103e791906107db565b42105b156103f8575f915050610151565b5f805460405163645a68eb60e11b81526001600160a01b038781166004830152602482018790529091169063c8b4d1d690604401602060405180830381865afa158015610447573d5f803e3d5ffd5b505050506040513d601f19601f8201168201806040525081019061046b91906107ee565b5f80546040516311ccad6f60e11b81526001600160a01b03898116600483015260248201899052939450919216906323995ade90604401602060405180830381865afa1580156104bd573d5f803e3d5ffd5b505050506040513d601f19601f820116820180604052508101906104e191906107ee565b6104eb90436107c8565b90505f82600154836104fd9190610805565b6105079190610805565b9050836060015181111561051c575060608301515b9695505050505050565b5f8060408385031215610537575f80fd5b82356001600160a01b038116811461054d575f80fd5b946020939093013593505050565b5f6020828403121561056b575f80fd5b5035919050565b634e487b7160e01b5f52604160045260245ffd5b60405160c0810167ffffffffffffffff811182821017156105a9576105a9610572565b60405290565b604051601f8201601f1916810167ffffffffffffffff811182821017156105d8576105d8610572565b604052919050565b5f82601f8301126105ef575f80fd5b815167ffffffffffffffff81111561060957610609610572565b61061c601f8201601f19166020016105af565b818152846020838601011115610630575f80fd5b8160208501602083015e5f918101602001919091529392505050565b5f82601f83011261065b575f80fd5b8151602067ffffffffffffffff8083111561067857610678610572565b8260051b6106878382016105af565b93845285810183019383810190888611156106a0575f80fd5b84880192505b858310156106da578251848111156106bc575f80fd5b6106ca8a87838c01016105e0565b83525091840191908401906106a6565b98975050505050505050565b805180151581146106f5575f80fd5b919050565b5f6020828403121561070a575f80fd5b815167ffffffffffffffff80821115610721575f80fd5b9083019060c08286031215610734575f80fd5b61073c610586565b82518281111561074a575f80fd5b610756878286016105e0565b82525060208301518281111561076a575f80fd5b6107768782860161064c565b6020830152506040830151604082015260608301516060820152608083015160808201526107a660a084016106e6565b60a082015295945050505050565b634e487b7160e01b5f52601160045260245ffd5b81810381811115610151576101516107b4565b80820180821115610151576101516107b4565b5f602082840312156107fe575f80fd5b5051919050565b8082028115828204841417610151576101516107b456fea2646970667358221220ac72a25008ab493a41e1af6983ca093bebaf696cd05f849895a4064fd314999864736f6c63430008190033",
      "opcodes": "PUSH1 0x80 PUSH1 0x40 MSTORE PUSH1 0x1 DUP1 SSTORE PUSH4 0x1E13380 PUSH1 0x2 SSTORE CALLVALUE DUP1 ISZERO PUSH1 0x1A JUMPI PUSH0 DUP1 REVERT JUMPDEST POP PUSH1 0x40 MLOAD PUSH2 0x8E4 CODESIZE SUB DUP1 PUSH2 0x8E4 DUP4 CODECOPY DUP2 ADD PUSH1 0x40 DUP2 SWAP1 MSTORE PUSH1 0x37 SWAP2 PUSH1 0x5A JUMP JUMPDEST PUSH0 DUP1 SLOAD PUSH1 0x1 PUSH1 0x1 PUSH1 0xA0 SHL SUB NOT AND PUSH1 0x1 PUSH1 0x1 PUSH1 0xA0 SHL SUB SWAP3 SWAP1 SWAP3 AND SWAP2 SWAP1 SWAP2 OR SWAP1 SSTORE PUSH1 0x85 JUMP JUMPDEST PUSH0 PUSH1 0x20 DUP3 DUP5 SUB SLT ISZERO PUSH1 0x69 JUMPI PUSH0 DUP1 REVERT JUMPDEST DUP2 MLOAD PUSH1 0x1 PUSH1 0x1 PUSH1 0xA0 SHL SUB DUP2 AND DUP2 EQ PUSH1 0x7E JUMPI PUSH0 DUP1 REVERT JUMPDEST SWAP4 SWAP3 POP POP POP JUMP JUMPDEST PUSH2 0x852 DUP1 PUSH2 0x92 PUSH0 CODECOPY PUSH0 RETURN INVALID PUSH1 0x80 PUSH1 0x40 MSTORE PUSH1 0x4 CALLDATASIZE LT PUSH2 0x66 JUMPI PUSH0 CALLDATALOAD PUSH1 0xE0 SHR DUP1 PUSH4 0x3A9B7CB2 GT PUSH2 0x41 JUMPI DUP1 PUSH4 0x3A9B7CB2 EQ PUSH2 0xD9 JUMPI DUP1 PUSH4 0x71506414 EQ PUSH2 0xF8 JUMPI DUP1 PUSH4 0xDDFDEC60 EQ PUSH2 0x10D JUMPI PUSH0 DUP1 REVERT JUMPDEST DUP1 PUSH4 0x2B04E840 EQ PUSH2 0x71 JUMPI DUP1 PUSH4 0x2E1A7D4D EQ PUSH2 0xA3 JUMPI DUP1 PUSH4 0x362C55DA EQ PUSH2 0xC4 JUMPI PUSH0 DUP1 REVERT JUMPDEST CALLDATASIZE PUSH2 0x6D JUMPI STOP JUMPDEST PUSH0 DUP1 REVERT JUMPDEST CALLVALUE DUP1 ISZERO PUSH2 0x7C JUMPI PUSH0 DUP1 REVERT JUMPDEST POP PUSH2 0x90 PUSH2 0x8B CALLDATASIZE PUSH1 0x4 PUSH2 0x526 JUMP JUMPDEST PUSH2 0x143 JUMP JUMPDEST PUSH1 0x40 MLOAD SWAP1 DUP2 MSTORE PUSH1 0x20 ADD JUMPDEST PUSH1 0x40 MLOAD DUP1 SWAP2 SUB SWAP1 RETURN JUMPDEST CALLVALUE DUP1 ISZERO PUSH2 0xAE JUMPI PUSH0 DUP1 REVERT JUMPDEST POP PUSH2 0xC2 PUSH2 0xBD CALLDATASIZE PUSH1 0x4 PUSH2 0x55B JUMP JUMPDEST PUSH2 0x157 JUMP JUMPDEST STOP JUMPDEST CALLVALUE DUP1 ISZERO PUSH2 0xCF JUMPI PUSH0 DUP1 REVERT JUMPDEST POP PUSH2 0x90 PUSH1 0x1 SLOAD DUP2 JUMP JUMPDEST CALLVALUE DUP1 ISZERO PUSH2 0xE4 JUMPI PUSH0 DUP1 REVERT JUMPDEST POP PUSH2 0x90 PUSH2 0xF3 CALLDATASIZE PUSH1 0x4 PUSH2 0x526 JUMP JUMPDEST PUSH2 0x359 JUMP JUMPDEST CALLVALUE DUP1 ISZERO PUSH2 0x103 JUMPI PUSH0 DUP1 REVERT JUMPDEST POP PUSH2 0x90 PUSH1 0x2 SLOAD DUP2 JUMP JUMPDEST CALLVALUE DUP1 ISZERO PUSH2 0x118 JUMPI PUSH0 DUP1 REVERT JUMPDEST POP PUSH0 SLOAD PUSH2 0x12B SWAP1 PUSH1 0x1 PUSH1 0x1 PUSH1 0xA0 SHL SUB AND DUP2 JUMP JUMPDEST PUSH1 0x40 MLOAD PUSH1 0x1 PUSH1 0x1 PUSH1 0xA0 SHL SUB SWAP1 SWAP2 AND DUP2 MSTORE PUSH1 0x20 ADD PUSH2 0x9A JUMP JUMPDEST PUSH0 PUSH2 0x14E DUP4 DUP4 PUSH2 0x359 JUMP JUMPDEST SWAP1 POP JUMPDEST SWAP3 SWAP2 POP POP JUMP JUMPDEST PUSH0 PUSH2 0x162 CALLER DUP4 PUSH2 0x359 JUMP JUMPDEST SWAP1 POP PUSH0 DUP2 GT PUSH2 0x1B8 JUMPI PUSH1 0x40 MLOAD PUSH3 0x461BCD PUSH1 0xE5 SHL DUP2 MSTORE PUSH1 0x20 PUSH1 0x4 DUP3 ADD MSTORE PUSH1 0x16 PUSH1 0x24 DUP3 ADD MSTORE PUSH32 0x4E6F2062616C616E636520746F20776974686472617700000000000000000000 PUSH1 0x44 DUP3 ADD MSTORE PUSH1 0x64 ADD JUMPDEST PUSH1 0x40 MLOAD DUP1 SWAP2 SUB SWAP1 REVERT JUMPDEST PUSH0 DUP1 SLOAD PUSH1 0x40 MLOAD PUSH4 0x4F0F4AA9 PUSH1 0xE0 SHL DUP2 MSTORE PUSH1 0x4 DUP2 ADD DUP6 SWAP1 MSTORE PUSH1 0x1 PUSH1 0x1 PUSH1 0xA0 SHL SUB SWAP1 SWAP2 AND SWAP1 PUSH4 0x4F0F4AA9 SWAP1 PUSH1 0x24 ADD PUSH0 PUSH1 0x40 MLOAD DUP1 DUP4 SUB DUP2 DUP7 GAS STATICCALL ISZERO DUP1 ISZERO PUSH2 0x1FE JUMPI RETURNDATASIZE PUSH0 DUP1 RETURNDATACOPY RETURNDATASIZE PUSH0 REVERT JUMPDEST POP POP POP POP PUSH1 0x40 MLOAD RETURNDATASIZE PUSH0 DUP3 RETURNDATACOPY PUSH1 0x1F RETURNDATASIZE SWAP1 DUP2 ADD PUSH1 0x1F NOT AND DUP3 ADD PUSH1 0x40 MSTORE PUSH2 0x225 SWAP2 SWAP1 DUP2 ADD SWAP1 PUSH2 0x6FA JUMP JUMPDEST SWAP1 POP DUP2 DUP2 PUSH1 0x60 ADD MLOAD LT ISZERO PUSH2 0x27B JUMPI PUSH1 0x40 MLOAD PUSH3 0x461BCD PUSH1 0xE5 SHL DUP2 MSTORE PUSH1 0x20 PUSH1 0x4 DUP3 ADD MSTORE PUSH1 0x17 PUSH1 0x24 DUP3 ADD MSTORE PUSH32 0x496E73756666696369656E74206E6F64652066756E6473000000000000000000 PUSH1 0x44 DUP3 ADD MSTORE PUSH1 0x64 ADD PUSH2 0x1AF JUMP JUMPDEST PUSH0 SLOAD PUSH1 0x40 MLOAD PUSH4 0x4ABC319 PUSH1 0xE0 SHL DUP2 MSTORE CALLER PUSH1 0x4 DUP3 ADD MSTORE PUSH1 0x24 DUP2 ADD DUP6 SWAP1 MSTORE PUSH1 0x1 PUSH1 0x1 PUSH1 0xA0 SHL SUB SWAP1 SWAP2 AND SWAP1 PUSH4 0x4ABC319 SWAP1 PUSH1 0x44 ADD PUSH0 PUSH1 0x40 MLOAD DUP1 DUP4 SUB DUP2 PUSH0 DUP8 DUP1 EXTCODESIZE ISZERO DUP1 ISZERO PUSH2 0x2C3 JUMPI PUSH0 DUP1 REVERT JUMPDEST POP GAS CALL ISZERO DUP1 ISZERO PUSH2 0x2D5 JUMPI RETURNDATASIZE PUSH0 DUP1 RETURNDATACOPY RETURNDATASIZE PUSH0 REVERT JUMPDEST POP POP POP POP DUP2 DUP2 PUSH1 0x60 ADD DUP2 DUP2 MLOAD PUSH2 0x2EB SWAP2 SWAP1 PUSH2 0x7C8 JUMP JUMPDEST SWAP1 MSTORE POP PUSH1 0x40 MLOAD CALLER SWAP1 DUP4 ISZERO PUSH2 0x8FC MUL SWAP1 DUP5 SWAP1 PUSH0 DUP2 DUP2 DUP2 DUP6 DUP9 DUP9 CALL SWAP4 POP POP POP POP ISZERO DUP1 ISZERO PUSH2 0x318 JUMPI RETURNDATASIZE PUSH0 DUP1 RETURNDATACOPY RETURNDATASIZE PUSH0 REVERT JUMPDEST POP PUSH1 0x40 DUP1 MLOAD DUP5 DUP2 MSTORE PUSH1 0x20 DUP2 ADD DUP5 SWAP1 MSTORE CALLER SWAP2 PUSH32 0xA4ACD6546CA2A791C494AFAFA902F3EA075E5F5381F061CC8EC601651591A59B SWAP2 ADD PUSH1 0x40 MLOAD DUP1 SWAP2 SUB SWAP1 LOG2 POP POP POP JUMP JUMPDEST PUSH0 DUP1 SLOAD PUSH1 0x40 MLOAD PUSH4 0x4F0F4AA9 PUSH1 0xE0 SHL DUP2 MSTORE PUSH1 0x4 DUP2 ADD DUP5 SWAP1 MSTORE DUP3 SWAP2 PUSH1 0x1 PUSH1 0x1 PUSH1 0xA0 SHL SUB AND SWAP1 PUSH4 0x4F0F4AA9 SWAP1 PUSH1 0x24 ADD PUSH0 PUSH1 0x40 MLOAD DUP1 DUP4 SUB DUP2 DUP7 GAS STATICCALL ISZERO DUP1 ISZERO PUSH2 0x39F JUMPI RETURNDATASIZE PUSH0 DUP1 RETURNDATACOPY RETURNDATASIZE PUSH0 REVERT JUMPDEST POP POP POP POP PUSH1 0x40 MLOAD RETURNDATASIZE PUSH0 DUP3 RETURNDATACOPY PUSH1 0x1F RETURNDATASIZE SWAP1 DUP2 ADD PUSH1 0x1F NOT AND DUP3 ADD PUSH1 0x40 MSTORE PUSH2 0x3C6 SWAP2 SWAP1 DUP2 ADD SWAP1 PUSH2 0x6FA JUMP JUMPDEST SWAP1 POP DUP1 PUSH1 0xA0 ADD MLOAD ISZERO DUP1 ISZERO PUSH2 0x3EA JUMPI POP PUSH1 0x2 SLOAD DUP2 PUSH1 0x80 ADD MLOAD PUSH2 0x3E7 SWAP2 SWAP1 PUSH2 0x7DB JUMP JUMPDEST TIMESTAMP LT JUMPDEST ISZERO PUSH2 0x3F8 JUMPI PUSH0 SWAP2 POP POP PUSH2 0x151 JUMP JUMPDEST PUSH0 DUP1 SLOAD PUSH1 0x40 MLOAD PUSH4 0x645A68EB PUSH1 0xE1 SHL DUP2 MSTORE PUSH1 0x1 PUSH1 0x1 PUSH1 0xA0 SHL SUB DUP8 DUP2 AND PUSH1 0x4 DUP4 ADD MSTORE PUSH1 0x24 DUP3 ADD DUP8 SWAP1 MSTORE SWAP1 SWAP2 AND SWAP1 PUSH4 0xC8B4D1D6 SWAP1 PUSH1 0x44 ADD PUSH1 0x20 PUSH1 0x40 MLOAD DUP1 DUP4 SUB DUP2 DUP7 GAS STATICCALL ISZERO DUP1 ISZERO PUSH2 0x447 JUMPI RETURNDATASIZE PUSH0 DUP1 RETURNDATACOPY RETURNDATASIZE PUSH0 REVERT JUMPDEST POP POP POP POP PUSH1 0x40 MLOAD RETURNDATASIZE PUSH1 0x1F NOT PUSH1 0x1F DUP3 ADD AND DUP3 ADD DUP1 PUSH1 0x40 MSTORE POP DUP2 ADD SWAP1 PUSH2 0x46B SWAP2 SWAP1 PUSH2 0x7EE JUMP JUMPDEST PUSH0 DUP1 SLOAD PUSH1 0x40 MLOAD PUSH4 0x11CCAD6F PUSH1 0xE1 SHL DUP2 MSTORE PUSH1 0x1 PUSH1 0x1 PUSH1 0xA0 SHL SUB DUP10 DUP2 AND PUSH1 0x4 DUP4 ADD MSTORE PUSH1 0x24 DUP3 ADD DUP10 SWAP1 MSTORE SWAP4 SWAP5 POP SWAP2 SWAP3 AND SWAP1 PUSH4 0x23995ADE SWAP1 PUSH1 0x44 ADD PUSH1 0x20 PUSH1 0x40 MLOAD DUP1 DUP4 SUB DUP2 DUP7 GAS STATICCALL ISZERO DUP1 ISZERO PUSH2 0x4BD JUMPI RETURNDATASIZE PUSH0 DUP1 RETURNDATACOPY RETURNDATASIZE PUSH0 REVERT JUMPDEST POP POP POP POP PUSH1 0x40 MLOAD RETURNDATASIZE PUSH1 0x1F NOT PUSH1 0x1F DUP3 ADD AND DUP3 ADD DUP1 PUSH1 0x40 MSTORE POP DUP2 ADD SWAP1 PUSH2 0x4E1 SWAP2 SWAP1 PUSH2 0x7EE JUMP JUMPDEST PUSH2 0x4EB SWAP1 NUMBER PUSH2 0x7C8 JUMP JUMPDEST SWAP1 POP PUSH0 DUP3 PUSH1 0x1 SLOAD DUP4 PUSH2 0x4FD SWAP2 SWAP1 PUSH2 0x805 JUMP JUMPDEST PUSH2 0x507 SWAP2 SWAP1 PUSH2 0x805 JUMP JUMPDEST SWAP1 POP DUP4 PUSH1 0x60 ADD MLOAD DUP2 GT ISZERO PUSH2 0x51C JUMPI POP PUSH1 0x60 DUP4 ADD MLOAD JUMPDEST SWAP7 SWAP6 POP POP POP POP POP POP JUMP JUMPDEST PUSH0 DUP1 PUSH1 0x40 DUP4 DUP6 SUB SLT ISZERO PUSH2 0x537 JUMPI PUSH0 DUP1 REVERT JUMPDEST DUP3 CALLDATALOAD PUSH1 0x1 PUSH1 0x1 PUSH1 0xA0 SHL SUB DUP2 AND DUP2 EQ PUSH2 0x54D JUMPI PUSH0 DUP1 REVERT JUMPDEST SWAP5 PUSH1 0x20 SWAP4 SWAP1 SWAP4 ADD CALLDATALOAD SWAP4 POP POP POP JUMP JUMPDEST PUSH0 PUSH1 0x20 DUP3 DUP5 SUB SLT ISZERO PUSH2 0x56B JUMPI PUSH0 DUP1 REVERT JUMPDEST POP CALLDATALOAD SWAP2 SWAP1 POP JUMP JUMPDEST PUSH4 0x4E487B71 PUSH1 0xE0 SHL PUSH0 MSTORE PUSH1 0x41 PUSH1 0x4 MSTORE PUSH1 0x24 PUSH0 REVERT JUMPDEST PUSH1 0x40 MLOAD PUSH1 0xC0 DUP2 ADD PUSH8 0xFFFFFFFFFFFFFFFF DUP2 GT DUP3 DUP3 LT OR ISZERO PUSH2 0x5A9 JUMPI PUSH2 0x5A9 PUSH2 0x572 JUMP JUMPDEST PUSH1 0x40 MSTORE SWAP1 JUMP JUMPDEST PUSH1 0x40 MLOAD PUSH1 0x1F DUP3 ADD PUSH1 0x1F NOT AND DUP2 ADD PUSH8 0xFFFFFFFFFFFFFFFF DUP2 GT DUP3 DUP3 LT OR ISZERO PUSH2 0x5D8 JUMPI PUSH2 0x5D8 PUSH2 0x572 JUMP JUMPDEST PUSH1 0x40 MSTORE SWAP2 SWAP1 POP JUMP JUMPDEST PUSH0 DUP3 PUSH1 0x1F DUP4 ADD SLT PUSH2 0x5EF JUMPI PUSH0 DUP1 REVERT JUMPDEST DUP2 MLOAD PUSH8 0xFFFFFFFFFFFFFFFF DUP2 GT ISZERO PUSH2 0x609 JUMPI PUSH2 0x609 PUSH2 0x572 JUMP JUMPDEST PUSH2 0x61C PUSH1 0x1F DUP3 ADD PUSH1 0x1F NOT AND PUSH1 0x20 ADD PUSH2 0x5AF JUMP JUMPDEST DUP2 DUP2 MSTORE DUP5 PUSH1 0x20 DUP4 DUP7 ADD ADD GT ISZERO PUSH2 0x630 JUMPI PUSH0 DUP1 REVERT JUMPDEST DUP2 PUSH1 0x20 DUP6 ADD PUSH1 0x20 DUP4 ADD MCOPY PUSH0 SWAP2 DUP2 ADD PUSH1 0x20 ADD SWAP2 SWAP1 SWAP2 MSTORE SWAP4 SWAP3 POP POP POP JUMP JUMPDEST PUSH0 DUP3 PUSH1 0x1F DUP4 ADD SLT PUSH2 0x65B JUMPI PUSH0 DUP1 REVERT JUMPDEST DUP2 MLOAD PUSH1 0x20 PUSH8 0xFFFFFFFFFFFFFFFF DUP1 DUP4 GT ISZERO PUSH2 0x678 JUMPI PUSH2 0x678 PUSH2 0x572 JUMP JUMPDEST DUP3 PUSH1 0x5 SHL PUSH2 0x687 DUP4 DUP3 ADD PUSH2 0x5AF JUMP JUMPDEST SWAP4 DUP5 MSTORE DUP6 DUP2 ADD DUP4 ADD SWAP4 DUP4 DUP2 ADD SWAP1 DUP9 DUP7 GT ISZERO PUSH2 0x6A0 JUMPI PUSH0 DUP1 REVERT JUMPDEST DUP5 DUP9 ADD SWAP3 POP JUMPDEST DUP6 DUP4 LT ISZERO PUSH2 0x6DA JUMPI DUP3 MLOAD DUP5 DUP2 GT ISZERO PUSH2 0x6BC JUMPI PUSH0 DUP1 REVERT JUMPDEST PUSH2 0x6CA DUP11 DUP8 DUP4 DUP13 ADD ADD PUSH2 0x5E0 JUMP JUMPDEST DUP4 MSTORE POP SWAP2 DUP5 ADD SWAP2 SWAP1 DUP5 ADD SWAP1 PUSH2 0x6A6 JUMP JUMPDEST SWAP9 SWAP8 POP POP POP POP POP POP POP POP JUMP JUMPDEST DUP1 MLOAD DUP1 ISZERO ISZERO DUP2 EQ PUSH2 0x6F5 JUMPI PUSH0 DUP1 REVERT JUMPDEST SWAP2 SWAP1 POP JUMP JUMPDEST PUSH0 PUSH1 0x20 DUP3 DUP5 SUB SLT ISZERO PUSH2 0x70A JUMPI PUSH0 DUP1 REVERT JUMPDEST DUP2 MLOAD PUSH8 0xFFFFFFFFFFFFFFFF DUP1 DUP3 GT ISZERO PUSH2 0x721 JUMPI PUSH0 DUP1 REVERT JUMPDEST SWAP1 DUP4 ADD SWAP1 PUSH1 0xC0 DUP3 DUP7 SUB SLT ISZERO PUSH2 0x734 JUMPI PUSH0 DUP1 REVERT JUMPDEST PUSH2 0x73C PUSH2 0x586 JUMP JUMPDEST DUP3 MLOAD DUP3 DUP2 GT ISZERO PUSH2 0x74A JUMPI PUSH0 DUP1 REVERT JUMPDEST PUSH2 0x756 DUP8 DUP3 DUP7 ADD PUSH2 0x5E0 JUMP JUMPDEST DUP3 MSTORE POP PUSH1 0x20 DUP4 ADD MLOAD DUP3 DUP2 GT ISZERO PUSH2 0x76A JUMPI PUSH0 DUP1 REVERT JUMPDEST PUSH2 0x776 DUP8 DUP3 DUP7 ADD PUSH2 0x64C JUMP JUMPDEST PUSH1 0x20 DUP4 ADD MSTORE POP PUSH1 0x40 DUP4 ADD MLOAD PUSH1 0x40 DUP3 ADD MSTORE PUSH1 0x60 DUP4 ADD MLOAD PUSH1 0x60 DUP3 ADD MSTORE PUSH1 0x80 DUP4 ADD MLOAD PUSH1 0x80 DUP3 ADD MSTORE PUSH2 0x7A6 PUSH1 0xA0 DUP5 ADD PUSH2 0x6E6 JUMP JUMPDEST PUSH1 0xA0 DUP3 ADD MSTORE SWAP6 SWAP5 POP POP POP POP POP JUMP JUMPDEST PUSH4 0x4E487B71 PUSH1 0xE0 SHL PUSH0 MSTORE PUSH1 0x11 PUSH1 0x4 MSTORE PUSH1 0x24 PUSH0 REVERT JUMPDEST DUP2 DUP2 SUB DUP2 DUP2 GT ISZERO PUSH2 0x151 JUMPI PUSH2 0x151 PUSH2 0x7B4 JUMP JUMPDEST DUP1 DUP3 ADD DUP1 DUP3 GT ISZERO PUSH2 0x151 JUMPI PUSH2 0x151 PUSH2 0x7B4 JUMP JUMPDEST PUSH0 PUSH1 0x20 DUP3 DUP5 SUB SLT ISZERO PUSH2 0x7FE JUMPI PUSH0 DUP1 REVERT JUMPDEST POP MLOAD SWAP2 SWAP1 POP JUMP JUMPDEST DUP1 DUP3 MUL DUP2 ISZERO DUP3 DUP3 DIV DUP5 EQ OR PUSH2 0x151 JUMPI PUSH2 0x151 PUSH2 0x7B4 JUMP INVALID LOG2 PUSH5 0x6970667358 0x22 SLT KECCAK256 0xAC PUSH19 0xA25008AB493A41E1AF6983CA093BEBAF696CD0 PUSH0 DUP5 SWAP9 SWAP6 LOG4 MOD 0x4F 0xD3 EQ SWAP10 SWAP9 PUSH5 0x736F6C6343 STOP ADDMOD NOT STOP CALLER "
    },
    "gasEstimates": {
      "creation": {
        "codeDepositCost": "426000",
        "executionCost": "infinite",
        "totalCost": "infinite"
      },
      "external": {
        "calculateDrip(address,uint256)": "infinite",
        "contributionContract()": "2379",
        "dripPeriod()": "2305",
        "dripRatePerBlock()": "2328",
        "getBalance(address,uint256)": "infinite",
        "withdraw(uint256)": "infinite"
      }
    },
    "methodIdentifiers": {
      "calculateDrip(address,uint256)": "3a9b7cb2",
      "contributionContract()": "ddfdec60",
      "dripPeriod()": "71506414",
      "dripRatePerBlock()": "362c55da",
      "getBalance(address,uint256)": "2b04e840",
      "withdraw(uint256)": "2e1a7d4d"
    }
  },
  "storageLayout": {
    "storage": [
      {
        "astId": 884,
        "contract": "FundingDrip.sol:FundingDrip",
        "label": "contributionContract",
        "offset": 0,
        "slot": "0",
        "type": "t_contract(Contribution)350"
      },
      {
        "astId": 887,
        "contract": "FundingDrip.sol:FundingDrip",
        "label": "dripRatePerBlock",
        "offset": 0,
        "slot": "1",
        "type": "t_uint256"
      },
      {
        "astId": 890,
        "contract": "FundingDrip.sol:FundingDrip",
        "label": "dripPeriod",
        "offset": 0,
        "slot": "2",
        "type": "t_uint256"
      }
    ],
    "types": {
      "t_contract(Contribution)350": {
        "encoding": "inplace",
        "label": "contract Contribution",
        "numberOfBytes": "20"
      },
      "t_uint256": {
        "encoding": "inplace",
        "label": "uint256",
        "numberOfBytes": "32"
      }
    }
  },
  "userdoc": {
    "kind": "user",
    "methods": {},
    "version": 1
  }
}