{
  "abi": [
    {
      "inputs": [],
      "stateMutability": "nonpayable",
      "type": "constructor"
    },
    {
      "anonymous": false,
      "inputs": [
        {
          "indexed": true,
          "internalType": "uint256",
          "name": "id",
          "type": "uint256"
        },
        {
          "indexed": false,
          "internalType": "uint256",
          "name": "startNodeID",
          "type": "uint256"
        },
        {
          "indexed": false,
          "internalType": "uint256",
          "name": "endNodeID",
          "type": "uint256"
        },
        {
          "indexed": true,
          "internalType": "address",
          "name": "creator",
          "type": "address"
        }
      ],
      "name": "EdgeAdded",
      "type": "event"
    },
    {
      "anonymous": false,
      "inputs": [
        {
          "indexed": true,
          "internalType": "uint256",
          "name": "id",
          "type": "uint256"
        },
        {
          "indexed": false,
          "internalType": "string",
          "name": "title",
          "type": "string"
        },
        {
          "indexed": false,
          "internalType": "enum TechTree.NodeType",
          "name": "nodeType",
          "type": "uint8"
        },
        {
          "indexed": true,
          "internalType": "address",
          "name": "creator",
          "type": "address"
        }
      ],
      "name": "NodeAdded",
      "type": "event"
    },
    {
      "inputs": [
        {
          "internalType": "uint256",
          "name": "_startNodeID",
          "type": "uint256"
        },
        {
          "internalType": "uint256",
          "name": "_endNodeID",
          "type": "uint256"
        },
        {
          "internalType": "string",
          "name": "_edgeDescription",
          "type": "string"
        }
      ],
      "name": "addEdge",
      "outputs": [],
      "stateMutability": "nonpayable",
      "type": "function"
    },
    {
      "inputs": [
        {
          "internalType": "string",
          "name": "_nodeTitle",
          "type": "string"
        },
        {
          "internalType": "string",
          "name": "_nodeDescription",
          "type": "string"
        },
        {
          "internalType": "enum TechTree.NodeType",
          "name": "_nodeType",
          "type": "uint8"
        },
        {
          "internalType": "string",
          "name": "_keywords",
          "type": "string"
        },
        {
          "internalType": "uint256",
          "name": "_parentNodeID",
          "type": "uint256"
        },
        {
          "internalType": "string",
          "name": "_edgeDescription",
          "type": "string"
        },
        {
          "internalType": "string",
          "name": "_CID",
          "type": "string"
        }
      ],
      "name": "addNode",
      "outputs": [],
      "stateMutability": "nonpayable",
      "type": "function"
    },
    {
      "inputs": [
        {
          "internalType": "uint256",
          "name": "",
          "type": "uint256"
        }
      ],
      "name": "edges",
      "outputs": [
        {
          "internalType": "uint256",
          "name": "id",
          "type": "uint256"
        },
        {
          "internalType": "uint256",
          "name": "startNodeID",
          "type": "uint256"
        },
        {
          "internalType": "uint256",
          "name": "endNodeID",
          "type": "uint256"
        },
        {
          "internalType": "string",
          "name": "edgeDescription",
          "type": "string"
        },
        {
          "internalType": "address",
          "name": "creator",
          "type": "address"
        },
        {
          "internalType": "uint256",
          "name": "creationTimestamp",
          "type": "uint256"
        }
      ],
      "stateMutability": "view",
      "type": "function"
    },
    {
      "inputs": [
        {
          "internalType": "uint256",
          "name": "_id",
          "type": "uint256"
        }
      ],
      "name": "getEdge",
      "outputs": [
        {
          "components": [
            {
              "internalType": "uint256",
              "name": "id",
              "type": "uint256"
            },
            {
              "internalType": "uint256",
              "name": "startNodeID",
              "type": "uint256"
            },
            {
              "internalType": "uint256",
              "name": "endNodeID",
              "type": "uint256"
            },
            {
              "internalType": "string",
              "name": "edgeDescription",
              "type": "string"
            },
            {
              "internalType": "address",
              "name": "creator",
              "type": "address"
            },
            {
              "internalType": "uint256",
              "name": "creationTimestamp",
              "type": "uint256"
            }
          ],
          "internalType": "struct TechTree.Edge",
          "name": "",
          "type": "tuple"
        }
      ],
      "stateMutability": "view",
      "type": "function"
    },
    {
      "inputs": [
        {
          "internalType": "uint256",
          "name": "_id",
          "type": "uint256"
        }
      ],
      "name": "getNode",
      "outputs": [
        {
          "components": [
            {
              "internalType": "uint256",
              "name": "id",
              "type": "uint256"
            },
            {
              "internalType": "string",
              "name": "nodeTitle",
              "type": "string"
            },
            {
              "internalType": "string",
              "name": "nodeDescription",
              "type": "string"
            },
            {
              "internalType": "enum TechTree.NodeType",
              "name": "nodeType",
              "type": "uint8"
            },
            {
              "internalType": "address",
              "name": "creator",
              "type": "address"
            },
            {
              "internalType": "uint256",
              "name": "creationTimestamp",
              "type": "uint256"
            },
            {
              "internalType": "string",
              "name": "keywords",
              "type": "string"
            },
            {
              "internalType": "uint256",
              "name": "parentNodeID",
              "type": "uint256"
            },
            {
              "internalType": "string",
              "name": "CID",
              "type": "string"
            }
          ],
          "internalType": "struct TechTree.Node",
          "name": "",
          "type": "tuple"
        }
      ],
      "stateMutability": "view",
      "type": "function"
    },
    {
      "inputs": [
        {
          "internalType": "uint256",
          "name": "",
          "type": "uint256"
        }
      ],
      "name": "nodes",
      "outputs": [
        {
          "internalType": "uint256",
          "name": "id",
          "type": "uint256"
        },
        {
          "internalType": "string",
          "name": "nodeTitle",
          "type": "string"
        },
        {
          "internalType": "string",
          "name": "nodeDescription",
          "type": "string"
        },
        {
          "internalType": "enum TechTree.NodeType",
          "name": "nodeType",
          "type": "uint8"
        },
        {
          "internalType": "address",
          "name": "creator",
          "type": "address"
        },
        {
          "internalType": "uint256",
          "name": "creationTimestamp",
          "type": "uint256"
        },
        {
          "internalType": "string",
          "name": "keywords",
          "type": "string"
        },
        {
          "internalType": "uint256",
          "name": "parentNodeID",
          "type": "uint256"
        },
        {
          "internalType": "string",
          "name": "CID",
          "type": "string"
        }
      ],
      "stateMutability": "view",
      "type": "function"
    }
  ],
  "devdoc": {
    "kind": "dev",
    "methods": {},
    "version": 1
  },
  "evm": {
    "assembly": "    /* \"TechTreeCollaborate.sol\":57:3886  contract TechTree {... */\n  mstore(0x40, 0x80)\n    /* \"TechTreeCollaborate.sol\":1320:1767  constructor() {... */\n  callvalue\n  dup1\n  iszero\n  tag_1\n  jumpi\n  0x00\n  dup1\n  revert\ntag_1:\n  pop\n    /* \"TechTreeCollaborate.sol\":1344:1760  addNode(... */\n  tag_4\n  mload(0x40)\n  dup1\n  0x40\n  add\n  0x40\n  mstore\n  dup1\n  0x11\n  dup2\n  mstore\n  0x20\n  add\n  shl(0x78, 0x53796e7468657469632042696f6c6f6779)\n  dup2\n  mstore\n  pop\n  mload(0x40)\n  dup1\n  0xa0\n  add\n  0x40\n  mstore\n  dup1\n  0x79\n  dup2\n  mstore\n  0x20\n  add\n  data_7a14667e9e656bc117c1f56fb3371ceee3496c81e2f8b048f62c239f669edc39\n  0x79\n  swap2\n  codecopy\n    /* \"TechTreeCollaborate.sol\":1535:1562  NodeType.ScienceSubcategory */\n  0x00\n    /* \"TechTreeCollaborate.sol\":1344:1760  addNode(... */\n  mload(0x40)\n  dup1\n  0x40\n  add\n  0x40\n  mstore\n  dup1\n  0x1f\n  dup2\n  mstore\n  0x20\n  add\n  0x62696f6c6f67792c20656e67696e656572696e672c2073796e74686574696300\n  dup2\n  mstore\n  pop\n    /* \"TechTreeCollaborate.sol\":1623:1624  0 */\n  0x00\n    /* \"TechTreeCollaborate.sol\":1344:1760  addNode(... */\n  mload(0x40)\n  dup1\n  0x20\n  add\n  0x40\n  mstore\n  dup1\n  0x00\n  dup2\n  mstore\n  pop\n  mload(0x40)\n  dup1\n  0x40\n  add\n  0x40\n  mstore\n  dup1\n  0x08\n  dup2\n  mstore\n  0x20\n  add\n  shl(0xc2, 0x191d5b5b5e50d251)\n  dup2\n  mstore\n  pop\n    /* \"TechTreeCollaborate.sol\":1344:1351  addNode */\n  shl(0x20, tag_5)\n    /* \"TechTreeCollaborate.sol\":1344:1760  addNode(... */\n  0x20\n  shr\n  jump\t// in\ntag_4:\n    /* \"TechTreeCollaborate.sol\":57:3886  contract TechTree {... */\n  jump(tag_30)\n    /* \"TechTreeCollaborate.sol\":1807:3006  function addNode(... */\ntag_5:\n    /* \"TechTreeCollaborate.sol\":2081:2095  uint256 nodeId */\n  0x00\n    /* \"TechTreeCollaborate.sol\":2098:2103  nodes */\n  dup1\n    /* \"TechTreeCollaborate.sol\":2098:2110  nodes.length */\n  dup1\n  sload\n  swap1\n  pop\n    /* \"TechTreeCollaborate.sol\":2081:2110  uint256 nodeId = nodes.length */\n  swap1\n  pop\n    /* \"TechTreeCollaborate.sol\":2168:2173  nodes */\n  0x00\n    /* \"TechTreeCollaborate.sol\":2179:2512  Node({... */\n  mload(0x40)\n  dup1\n  0x0120\n  add\n  0x40\n  mstore\n  dup1\n    /* \"TechTreeCollaborate.sol\":2202:2208  nodeId */\n  dup4\n    /* \"TechTreeCollaborate.sol\":2179:2512  Node({... */\n  dup2\n  mstore\n  0x20\n  add\n    /* \"TechTreeCollaborate.sol\":2233:2243  _nodeTitle */\n  dup11\n    /* \"TechTreeCollaborate.sol\":2179:2512  Node({... */\n  dup2\n  mstore\n  0x20\n  add\n    /* \"TechTreeCollaborate.sol\":2274:2290  _nodeDescription */\n  dup10\n    /* \"TechTreeCollaborate.sol\":2179:2512  Node({... */\n  dup2\n  mstore\n  0x20\n  add\n    /* \"TechTreeCollaborate.sol\":2314:2323  _nodeType */\n  dup9\n    /* \"TechTreeCollaborate.sol\":2179:2512  Node({... */\n  0x08\n  dup2\n  gt\n  iszero\n  tag_9\n  jumpi\n  tag_9\n  tag_10\n  jump\t// in\ntag_9:\n  dup2\n  mstore\n    /* \"TechTreeCollaborate.sol\":2346:2356  msg.sender */\n  caller\n    /* \"TechTreeCollaborate.sol\":2179:2512  Node({... */\n  0x20\n  dup1\n  dup4\n  add\n  swap2\n  swap1\n  swap2\n  mstore\n    /* \"TechTreeCollaborate.sol\":2389:2404  block.timestamp */\n  timestamp\n    /* \"TechTreeCollaborate.sol\":2179:2512  Node({... */\n  0x40\n  dup4\n  add\n  mstore\n  0x60\n  dup3\n  add\n  dup10\n  swap1\n  mstore\n  0x80\n  dup3\n  add\n  dup9\n  swap1\n  mstore\n  0xa0\n  swap1\n  swap2\n  add\n  dup6\n  swap1\n  mstore\n    /* \"TechTreeCollaborate.sol\":2168:2513  nodes.push(Node({... */\n  dup3\n  sload\n  0x01\n  dup2\n  dup2\n  add\n  dup6\n  sstore\n  0x00\n  swap5\n  dup6\n  mstore\n  swap4\n  dup3\n  swap1\n  keccak256\n  dup4\n  mload\n  0x08\n  swap1\n  swap3\n  mul\n  add\n  swap1\n  dup2\n  sstore\n  swap1\n  dup3\n  add\n  mload\n  swap2\n  swap3\n  swap1\n  swap2\n  swap1\n  dup3\n  add\n  swap1\n  tag_12\n  swap1\n  dup3\n  tag_13\n  jump\t// in\ntag_12:\n  pop\n  0x40\n  dup3\n  add\n  mload\n  0x02\n  dup3\n  add\n  swap1\n  tag_14\n  swap1\n  dup3\n  tag_13\n  jump\t// in\ntag_14:\n  pop\n  0x60\n  dup3\n  add\n  mload\n  0x03\n  dup3\n  add\n  dup1\n  sload\n  not(0xff)\n  and\n  0x01\n  dup4\n  0x08\n  dup2\n  gt\n  iszero\n  tag_16\n  jumpi\n  tag_16\n  tag_10\n  jump\t// in\ntag_16:\n  mul\n  or\n  swap1\n  sstore\n  pop\n  0x80\n  dup3\n  add\n  mload\n  0x03\n  dup3\n  add\n  dup1\n  sload\n  sub(shl(0xa0, 0x01), 0x01)\n  swap1\n  swap3\n  and\n  0x0100\n  mul\n  not(sub(shl(0xa8, 0x01), 0x0100))\n  swap1\n  swap3\n  and\n  swap2\n  swap1\n  swap2\n  or\n  swap1\n  sstore\n  0xa0\n  dup3\n  add\n  mload\n  0x04\n  dup3\n  add\n  sstore\n  0xc0\n  dup3\n  add\n  mload\n  0x05\n  dup3\n  add\n  swap1\n  tag_17\n  swap1\n  dup3\n  tag_13\n  jump\t// in\ntag_17:\n  pop\n  0xe0\n  dup3\n  add\n  mload\n  0x06\n  dup3\n  add\n  sstore\n  0x0100\n  dup3\n  add\n  mload\n  0x07\n  dup3\n  add\n  swap1\n  tag_18\n  swap1\n  dup3\n  tag_13\n  jump\t// in\ntag_18:\n  pop\n  pop\n  pop\n    /* \"TechTreeCollaborate.sol\":2570:2580  msg.sender */\n  caller\n  sub(shl(0xa0, 0x01), 0x01)\n    /* \"TechTreeCollaborate.sol\":2529:2581  NodeAdded(nodeId, _nodeTitle, _nodeType, msg.sender) */\n  and\n    /* \"TechTreeCollaborate.sol\":2539:2545  nodeId */\n  dup2\n    /* \"TechTreeCollaborate.sol\":2529:2581  NodeAdded(nodeId, _nodeTitle, _nodeType, msg.sender) */\n  0xc6bb7849ef4c87b44dcc20f667654b1b4ea07ebb82fb2373297d9337f4f83ca3\n    /* \"TechTreeCollaborate.sol\":2547:2557  _nodeTitle */\n  dup11\n    /* \"TechTreeCollaborate.sol\":2559:2568  _nodeType */\n  dup10\n    /* \"TechTreeCollaborate.sol\":2529:2581  NodeAdded(nodeId, _nodeTitle, _nodeType, msg.sender) */\n  mload(0x40)\n  tag_19\n  swap3\n  swap2\n  swap1\n  tag_20\n  jump\t// in\ntag_19:\n  mload(0x40)\n  dup1\n  swap2\n  sub\n  swap1\n  log3\n    /* \"TechTreeCollaborate.sol\":2610:2615  edges */\n  0x01\n    /* \"TechTreeCollaborate.sol\":2610:2622  edges.length */\n  dup1\n  sload\n    /* \"TechTreeCollaborate.sol\":2691:2930  Edge({... */\n  0x40\n  dup1\n  mload\n  0xc0\n  dup2\n  add\n  dup3\n  mstore\n  dup3\n  dup2\n  mstore\n  0x20\n  dup2\n  add\n  dup9\n  dup2\n  mstore\n  swap2\n  dup2\n  add\n  dup6\n  dup2\n  mstore\n  0x60\n  dup3\n  add\n  dup9\n  dup2\n  mstore\n    /* \"TechTreeCollaborate.sol\":2814:2824  msg.sender */\n  caller\n    /* \"TechTreeCollaborate.sol\":2691:2930  Edge({... */\n  0x80\n  dup5\n  add\n  mstore\n    /* \"TechTreeCollaborate.sol\":2857:2872  block.timestamp */\n  timestamp\n    /* \"TechTreeCollaborate.sol\":2691:2930  Edge({... */\n  0xa0\n  dup5\n  add\n  mstore\n    /* \"TechTreeCollaborate.sol\":2680:2931  edges.push(Edge({... */\n  dup5\n  dup7\n  add\n  dup7\n  sstore\n    /* \"TechTreeCollaborate.sol\":2593:2607  uint256 edgeId */\n  0x00\n    /* \"TechTreeCollaborate.sol\":2680:2931  edges.push(Edge({... */\n  swap6\n  swap1\n  swap6\n  mstore\n  dup2\n  mload\n  0x06\n  dup6\n  mul\n  0xb10e2d527612073b26eecdfd717e6a320cf44b4afac2b0732d9fcbe2b7fa0cf6\n  dup2\n  add\n  swap2\n  dup3\n  sstore\n  swap4\n  mload\n  0xb10e2d527612073b26eecdfd717e6a320cf44b4afac2b0732d9fcbe2b7fa0cf7\n  dup6\n  add\n  sstore\n  swap1\n  mload\n  0xb10e2d527612073b26eecdfd717e6a320cf44b4afac2b0732d9fcbe2b7fa0cf8\n  dup5\n  add\n  sstore\n  swap4\n  mload\n    /* \"TechTreeCollaborate.sol\":2610:2622  edges.length */\n  swap3\n  swap4\n    /* \"TechTreeCollaborate.sol\":2691:2930  Edge({... */\n  swap1\n  swap3\n    /* \"TechTreeCollaborate.sol\":2680:2931  edges.push(Edge({... */\n  swap1\n  swap2\n  0xb10e2d527612073b26eecdfd717e6a320cf44b4afac2b0732d9fcbe2b7fa0cf9\n  add\n  swap1\n  tag_22\n  swap1\n  dup3\n  tag_13\n  jump\t// in\ntag_22:\n  pop\n  0x80\n  dup3\n  add\n  mload\n  0x04\n  dup3\n  add\n  dup1\n  sload\n  not(sub(shl(0xa0, 0x01), 0x01))\n  and\n  sub(shl(0xa0, 0x01), 0x01)\n  swap1\n  swap3\n  and\n  swap2\n  swap1\n  swap2\n  or\n  swap1\n  sstore\n  0xa0\n  swap1\n  swap2\n  add\n  mload\n  0x05\n  swap1\n  swap2\n  add\n  sstore\n    /* \"TechTreeCollaborate.sol\":2947:2999  EdgeAdded(edgeId, _parentNodeID, nodeId, msg.sender) */\n  0x40\n  dup1\n  mload\n    /* \"#utility.yul\":3669:3694   */\n  dup7\n  dup2\n  mstore\n    /* \"#utility.yul\":3725:3727   */\n  0x20\n    /* \"#utility.yul\":3710:3728   */\n  dup2\n  add\n    /* \"#utility.yul\":3703:3737   */\n  dup5\n  swap1\n  mstore\n    /* \"TechTreeCollaborate.sol\":2988:2998  msg.sender */\n  caller\n  swap2\n    /* \"TechTreeCollaborate.sol\":2957:2963  edgeId */\n  dup4\n  swap2\n    /* \"TechTreeCollaborate.sol\":2947:2999  EdgeAdded(edgeId, _parentNodeID, nodeId, msg.sender) */\n  0x354cb9b915c9f9d75c1b47abf3b3ef0aa8bdbc082fd965c77784f0b625bc08f3\n  swap2\n    /* \"#utility.yul\":3642:3660   */\n  add\n    /* \"TechTreeCollaborate.sol\":2947:2999  EdgeAdded(edgeId, _parentNodeID, nodeId, msg.sender) */\n  mload(0x40)\n  dup1\n  swap2\n  sub\n  swap1\n  log3\n    /* \"TechTreeCollaborate.sol\":2071:3006  {... */\n  pop\n  pop\n    /* \"TechTreeCollaborate.sol\":1807:3006  function addNode(... */\n  pop\n  pop\n  pop\n  pop\n  pop\n  pop\n  pop\n  jump\t// out\n    /* \"#utility.yul\":14:141   */\ntag_10:\n    /* \"#utility.yul\":75:85   */\n  0x4e487b71\n    /* \"#utility.yul\":70:73   */\n  0xe0\n    /* \"#utility.yul\":66:86   */\n  shl\n    /* \"#utility.yul\":63:64   */\n  0x00\n    /* \"#utility.yul\":56:87   */\n  mstore\n    /* \"#utility.yul\":106:110   */\n  0x21\n    /* \"#utility.yul\":103:104   */\n  0x04\n    /* \"#utility.yul\":96:111   */\n  mstore\n    /* \"#utility.yul\":130:134   */\n  0x24\n    /* \"#utility.yul\":127:128   */\n  0x00\n    /* \"#utility.yul\":120:135   */\n  revert\n    /* \"#utility.yul\":146:273   */\ntag_25:\n    /* \"#utility.yul\":207:217   */\n  0x4e487b71\n    /* \"#utility.yul\":202:205   */\n  0xe0\n    /* \"#utility.yul\":198:218   */\n  shl\n    /* \"#utility.yul\":195:196   */\n  0x00\n    /* \"#utility.yul\":188:219   */\n  mstore\n    /* \"#utility.yul\":238:242   */\n  0x41\n    /* \"#utility.yul\":235:236   */\n  0x04\n    /* \"#utility.yul\":228:243   */\n  mstore\n    /* \"#utility.yul\":262:266   */\n  0x24\n    /* \"#utility.yul\":259:260   */\n  0x00\n    /* \"#utility.yul\":252:267   */\n  revert\n    /* \"#utility.yul\":278:658   */\ntag_26:\n    /* \"#utility.yul\":357:358   */\n  0x01\n    /* \"#utility.yul\":353:365   */\n  dup2\n  dup2\n  shr\n  swap1\n    /* \"#utility.yul\":400:412   */\n  dup3\n  and\n  dup1\n    /* \"#utility.yul\":421:482   */\n  tag_34\n  jumpi\n    /* \"#utility.yul\":475:479   */\n  0x7f\n    /* \"#utility.yul\":467:473   */\n  dup3\n    /* \"#utility.yul\":463:480   */\n  and\n    /* \"#utility.yul\":453:480   */\n  swap2\n  pop\n    /* \"#utility.yul\":421:482   */\ntag_34:\n    /* \"#utility.yul\":528:530   */\n  0x20\n    /* \"#utility.yul\":520:526   */\n  dup3\n    /* \"#utility.yul\":517:531   */\n  lt\n    /* \"#utility.yul\":497:515   */\n  dup2\n    /* \"#utility.yul\":494:532   */\n  sub\n    /* \"#utility.yul\":491:652   */\n  tag_35\n  jumpi\n    /* \"#utility.yul\":574:584   */\n  0x4e487b71\n    /* \"#utility.yul\":569:572   */\n  0xe0\n    /* \"#utility.yul\":565:585   */\n  shl\n    /* \"#utility.yul\":562:563   */\n  0x00\n    /* \"#utility.yul\":555:586   */\n  mstore\n    /* \"#utility.yul\":609:613   */\n  0x22\n    /* \"#utility.yul\":606:607   */\n  0x04\n    /* \"#utility.yul\":599:614   */\n  mstore\n    /* \"#utility.yul\":637:641   */\n  0x24\n    /* \"#utility.yul\":634:635   */\n  0x00\n    /* \"#utility.yul\":627:642   */\n  revert\n    /* \"#utility.yul\":491:652   */\ntag_35:\n  pop\n    /* \"#utility.yul\":278:658   */\n  swap2\n  swap1\n  pop\n  jump\t// out\n    /* \"#utility.yul\":789:1307   */\ntag_28:\n    /* \"#utility.yul\":891:893   */\n  0x1f\n    /* \"#utility.yul\":886:889   */\n  dup3\n    /* \"#utility.yul\":883:894   */\n  gt\n    /* \"#utility.yul\":880:1301   */\n  iszero\n  tag_38\n  jumpi\n    /* \"#utility.yul\":927:932   */\n  dup1\n    /* \"#utility.yul\":924:925   */\n  0x00\n    /* \"#utility.yul\":917:933   */\n  mstore\n    /* \"#utility.yul\":971:975   */\n  0x20\n    /* \"#utility.yul\":968:969   */\n  0x00\n    /* \"#utility.yul\":958:976   */\n  keccak256\n    /* \"#utility.yul\":1041:1043   */\n  0x1f\n    /* \"#utility.yul\":1029:1039   */\n  dup5\n    /* \"#utility.yul\":1025:1044   */\n  add\n    /* \"#utility.yul\":1022:1023   */\n  0x05\n    /* \"#utility.yul\":1018:1045   */\n  shr\n    /* \"#utility.yul\":1012:1016   */\n  dup2\n    /* \"#utility.yul\":1008:1046   */\n  add\n    /* \"#utility.yul\":1077:1081   */\n  0x20\n    /* \"#utility.yul\":1065:1075   */\n  dup6\n    /* \"#utility.yul\":1062:1082   */\n  lt\n    /* \"#utility.yul\":1059:1106   */\n  iszero\n  tag_39\n  jumpi\n  pop\n    /* \"#utility.yul\":1100:1104   */\n  dup1\n    /* \"#utility.yul\":1059:1106   */\ntag_39:\n    /* \"#utility.yul\":1155:1157   */\n  0x1f\n    /* \"#utility.yul\":1150:1153   */\n  dup5\n    /* \"#utility.yul\":1146:1158   */\n  add\n    /* \"#utility.yul\":1143:1144   */\n  0x05\n    /* \"#utility.yul\":1139:1159   */\n  shr\n    /* \"#utility.yul\":1133:1137   */\n  dup3\n    /* \"#utility.yul\":1129:1160   */\n  add\n    /* \"#utility.yul\":1119:1160   */\n  swap2\n  pop\n    /* \"#utility.yul\":1210:1291   */\ntag_40:\n    /* \"#utility.yul\":1228:1230   */\n  dup2\n    /* \"#utility.yul\":1221:1226   */\n  dup2\n    /* \"#utility.yul\":1218:1231   */\n  lt\n    /* \"#utility.yul\":1210:1291   */\n  iszero\n  tag_42\n  jumpi\n    /* \"#utility.yul\":1287:1288   */\n  0x00\n    /* \"#utility.yul\":1273:1289   */\n  dup2\n  sstore\n    /* \"#utility.yul\":1254:1255   */\n  0x01\n    /* \"#utility.yul\":1243:1256   */\n  add\n    /* \"#utility.yul\":1210:1291   */\n  jump(tag_40)\ntag_42:\n    /* \"#utility.yul\":1214:1217   */\n  pop\n  pop\n    /* \"#utility.yul\":880:1301   */\ntag_38:\n    /* \"#utility.yul\":789:1307   */\n  pop\n  pop\n  pop\n  jump\t// out\n    /* \"#utility.yul\":1483:2828   */\ntag_13:\n    /* \"#utility.yul\":1603:1613   */\n  dup2\n  mload\n  sub(shl(0x40, 0x01), 0x01)\n    /* \"#utility.yul\":1625:1655   */\n  dup2\n  gt\n    /* \"#utility.yul\":1622:1678   */\n  iszero\n  tag_46\n  jumpi\n    /* \"#utility.yul\":1658:1676   */\n  tag_46\n  tag_25\n  jump\t// in\ntag_46:\n    /* \"#utility.yul\":1687:1784   */\n  tag_47\n    /* \"#utility.yul\":1777:1783   */\n  dup2\n    /* \"#utility.yul\":1737:1775   */\n  tag_48\n    /* \"#utility.yul\":1769:1773   */\n  dup5\n    /* \"#utility.yul\":1763:1774   */\n  sload\n    /* \"#utility.yul\":1737:1775   */\n  tag_26\n  jump\t// in\ntag_48:\n    /* \"#utility.yul\":1731:1735   */\n  dup5\n    /* \"#utility.yul\":1687:1784   */\n  tag_28\n  jump\t// in\ntag_47:\n    /* \"#utility.yul\":1839:1843   */\n  0x20\n  dup1\n    /* \"#utility.yul\":1896:1898   */\n  0x1f\n    /* \"#utility.yul\":1885:1899   */\n  dup4\n  gt\n    /* \"#utility.yul\":1913:1914   */\n  0x01\n    /* \"#utility.yul\":1908:2571   */\n  dup2\n  eq\n  tag_50\n  jumpi\n    /* \"#utility.yul\":2615:2616   */\n  0x00\n    /* \"#utility.yul\":2632:2638   */\n  dup5\n    /* \"#utility.yul\":2629:2718   */\n  iszero\n  tag_51\n  jumpi\n  pop\n    /* \"#utility.yul\":2684:2703   */\n  dup6\n  dup4\n  add\n    /* \"#utility.yul\":2678:2704   */\n  mload\n    /* \"#utility.yul\":2629:2718   */\ntag_51:\n  not(0x00)\n    /* \"#utility.yul\":1440:1441   */\n  0x03\n    /* \"#utility.yul\":1436:1447   */\n  dup7\n  swap1\n  shl\n    /* \"#utility.yul\":1432:1456   */\n  shr\n    /* \"#utility.yul\":1428:1457   */\n  not\n    /* \"#utility.yul\":1418:1458   */\n  and\n    /* \"#utility.yul\":1464:1465   */\n  0x01\n    /* \"#utility.yul\":1460:1471   */\n  dup6\n  swap1\n  shl\n    /* \"#utility.yul\":1415:1472   */\n  or\n    /* \"#utility.yul\":2731:2812   */\n  dup6\n  sstore\n    /* \"#utility.yul\":1878:2822   */\n  jump(tag_49)\n    /* \"#utility.yul\":1908:2571   */\ntag_50:\n    /* \"#utility.yul\":736:737   */\n  0x00\n    /* \"#utility.yul\":729:743   */\n  dup6\n  dup2\n  mstore\n    /* \"#utility.yul\":773:777   */\n  0x20\n    /* \"#utility.yul\":760:778   */\n  dup2\n  keccak256\n  not(0x1f)\n    /* \"#utility.yul\":1944:1964   */\n  dup7\n  and\n  swap2\n    /* \"#utility.yul\":2062:2298   */\ntag_54:\n    /* \"#utility.yul\":2076:2083   */\n  dup3\n    /* \"#utility.yul\":2073:2074   */\n  dup2\n    /* \"#utility.yul\":2070:2084   */\n  lt\n    /* \"#utility.yul\":2062:2298   */\n  iszero\n  tag_56\n  jumpi\n    /* \"#utility.yul\":2165:2184   */\n  dup9\n  dup7\n  add\n    /* \"#utility.yul\":2159:2185   */\n  mload\n    /* \"#utility.yul\":2144:2186   */\n  dup3\n  sstore\n    /* \"#utility.yul\":2257:2284   */\n  swap5\n  dup5\n  add\n  swap5\n    /* \"#utility.yul\":2225:2226   */\n  0x01\n    /* \"#utility.yul\":2213:2227   */\n  swap1\n  swap2\n  add\n  swap1\n    /* \"#utility.yul\":2092:2111   */\n  dup5\n  add\n    /* \"#utility.yul\":2062:2298   */\n  jump(tag_54)\ntag_56:\n    /* \"#utility.yul\":2066:2069   */\n  pop\n    /* \"#utility.yul\":2326:2332   */\n  dup6\n    /* \"#utility.yul\":2317:2324   */\n  dup3\n    /* \"#utility.yul\":2314:2333   */\n  lt\n    /* \"#utility.yul\":2311:2512   */\n  iszero\n  tag_57\n  jumpi\n    /* \"#utility.yul\":2387:2406   */\n  dup8\n  dup6\n  add\n    /* \"#utility.yul\":2381:2407   */\n  mload\n  not(0x00)\n    /* \"#utility.yul\":2470:2471   */\n  0x03\n    /* \"#utility.yul\":2466:2480   */\n  dup9\n  swap1\n  shl\n    /* \"#utility.yul\":2482:2485   */\n  0xf8\n    /* \"#utility.yul\":2462:2486   */\n  and\n    /* \"#utility.yul\":2458:2495   */\n  shr\n    /* \"#utility.yul\":2454:2496   */\n  not\n    /* \"#utility.yul\":2439:2497   */\n  and\n    /* \"#utility.yul\":2424:2498   */\n  dup2\n  sstore\n    /* \"#utility.yul\":2311:2512   */\ntag_57:\n  pop\n  pop\n    /* \"#utility.yul\":2558:2559   */\n  0x01\n    /* \"#utility.yul\":2549:2555   */\n  dup5\n    /* \"#utility.yul\":2546:2547   */\n  0x01\n    /* \"#utility.yul\":2542:2556   */\n  shl\n    /* \"#utility.yul\":2538:2560   */\n  add\n    /* \"#utility.yul\":2532:2536   */\n  dup6\n    /* \"#utility.yul\":2525:2561   */\n  sstore\n    /* \"#utility.yul\":1878:2822   */\ntag_49:\n  pop\n  pop\n  pop\n  pop\n    /* \"#utility.yul\":1483:2828   */\n  pop\n  pop\n  jump\t// out\n    /* \"#utility.yul\":2833:3490   */\ntag_20:\n    /* \"#utility.yul\":3021:3023   */\n  0x40\n    /* \"#utility.yul\":3010:3019   */\n  dup2\n    /* \"#utility.yul\":3003:3024   */\n  mstore\n    /* \"#utility.yul\":2984:2988   */\n  0x00\n    /* \"#utility.yul\":3053:3059   */\n  dup4\n    /* \"#utility.yul\":3047:3060   */\n  mload\n    /* \"#utility.yul\":3096:3102   */\n  dup1\n    /* \"#utility.yul\":3091:3093   */\n  0x40\n    /* \"#utility.yul\":3080:3089   */\n  dup5\n    /* \"#utility.yul\":3076:3094   */\n  add\n    /* \"#utility.yul\":3069:3103   */\n  mstore\n    /* \"#utility.yul\":3157:3163   */\n  dup1\n    /* \"#utility.yul\":3150:3154   */\n  0x20\n    /* \"#utility.yul\":3142:3148   */\n  dup7\n    /* \"#utility.yul\":3138:3155   */\n  add\n    /* \"#utility.yul\":3133:3135   */\n  0x60\n    /* \"#utility.yul\":3122:3131   */\n  dup6\n    /* \"#utility.yul\":3118:3136   */\n  add\n    /* \"#utility.yul\":3112:3164   */\n  mcopy\n    /* \"#utility.yul\":3213:3214   */\n  0x00\n    /* \"#utility.yul\":3208:3210   */\n  0x60\n    /* \"#utility.yul\":3199:3205   */\n  dup3\n    /* \"#utility.yul\":3188:3197   */\n  dup6\n    /* \"#utility.yul\":3184:3206   */\n  add\n    /* \"#utility.yul\":3180:3211   */\n  add\n    /* \"#utility.yul\":3173:3215   */\n  mstore\n    /* \"#utility.yul\":3283:3285   */\n  0x60\n    /* \"#utility.yul\":3276:3278   */\n  0x1f\n    /* \"#utility.yul\":3272:3279   */\n  not\n    /* \"#utility.yul\":3267:3269   */\n  0x1f\n    /* \"#utility.yul\":3259:3265   */\n  dup4\n    /* \"#utility.yul\":3255:3270   */\n  add\n    /* \"#utility.yul\":3251:3280   */\n  and\n    /* \"#utility.yul\":3240:3249   */\n  dup5\n    /* \"#utility.yul\":3236:3281   */\n  add\n    /* \"#utility.yul\":3232:3286   */\n  add\n    /* \"#utility.yul\":3224:3286   */\n  swap2\n  pop\n  pop\n    /* \"#utility.yul\":3316:3317   */\n  0x09\n    /* \"#utility.yul\":3308:3314   */\n  dup4\n    /* \"#utility.yul\":3305:3318   */\n  lt\n    /* \"#utility.yul\":3295:3439   */\n  tag_59\n  jumpi\n    /* \"#utility.yul\":3361:3371   */\n  0x4e487b71\n    /* \"#utility.yul\":3356:3359   */\n  0xe0\n    /* \"#utility.yul\":3352:3372   */\n  shl\n    /* \"#utility.yul\":3349:3350   */\n  0x00\n    /* \"#utility.yul\":3342:3373   */\n  mstore\n    /* \"#utility.yul\":3396:3400   */\n  0x21\n    /* \"#utility.yul\":3393:3394   */\n  0x04\n    /* \"#utility.yul\":3386:3401   */\n  mstore\n    /* \"#utility.yul\":3424:3428   */\n  0x24\n    /* \"#utility.yul\":3421:3422   */\n  0x00\n    /* \"#utility.yul\":3414:3429   */\n  revert\n    /* \"#utility.yul\":3295:3439   */\ntag_59:\n    /* \"#utility.yul\":3477:3483   */\n  dup3\n    /* \"#utility.yul\":3470:3474   */\n  0x20\n    /* \"#utility.yul\":3459:3468   */\n  dup4\n    /* \"#utility.yul\":3455:3475   */\n  add\n    /* \"#utility.yul\":3448:3484   */\n  mstore\n    /* \"#utility.yul\":2833:3490   */\n  swap4\n  swap3\n  pop\n  pop\n  pop\n  jump\t// out\n    /* \"#utility.yul\":3495:3743   */\ntag_30:\n    /* \"TechTreeCollaborate.sol\":57:3886  contract TechTree {... */\n  dataSize(sub_0)\n  dup1\n  dataOffset(sub_0)\n  0x00\n  codecopy\n  0x00\n  return\nstop\ndata_7a14667e9e656bc117c1f56fb3371ceee3496c81e2f8b048f62c239f669edc39 41206469736369706c696e65206272696467696e672062696f6c6f677920616e6420656e67696e656572696e672c2061696d696e6720746f2064657369676e20616e6420636f6e737472756374206e65772062696f6c6f676963616c2070617274732c20646576696365732c20616e642073797374656d732e\n\nsub_0: assembly {\n        /* \"TechTreeCollaborate.sol\":57:3886  contract TechTree {... */\n      mstore(0x40, 0x80)\n      callvalue\n      dup1\n      iszero\n      tag_1\n      jumpi\n      0x00\n      dup1\n      revert\n    tag_1:\n      pop\n      jumpi(tag_2, lt(calldatasize, 0x04))\n      shr(0xe0, calldataload(0x00))\n      dup1\n      0x4f0f4aa9\n      gt\n      tag_9\n      jumpi\n      dup1\n      0x4f0f4aa9\n      eq\n      tag_6\n      jumpi\n      dup1\n      0x9a914c44\n      eq\n      tag_7\n      jumpi\n      dup1\n      0xc5162482\n      eq\n      tag_8\n      jumpi\n      0x00\n      dup1\n      revert\n    tag_9:\n      dup1\n      0xbaae78\n      eq\n      tag_3\n      jumpi\n      dup1\n      0x1c53c280\n      eq\n      tag_4\n      jumpi\n      dup1\n      0x2ff666d6\n      eq\n      tag_5\n      jumpi\n    tag_2:\n      0x00\n      dup1\n      revert\n        /* \"TechTreeCollaborate.sol\":1011:1030  Edge[] public edges */\n    tag_3:\n      tag_10\n      tag_11\n      calldatasize\n      0x04\n      tag_12\n      jump\t// in\n    tag_11:\n      tag_13\n      jump\t// in\n    tag_10:\n      mload(0x40)\n      tag_14\n      swap7\n      swap6\n      swap5\n      swap4\n      swap3\n      swap2\n      swap1\n      tag_15\n      jump\t// in\n    tag_14:\n      mload(0x40)\n      dup1\n      swap2\n      sub\n      swap1\n      return\n        /* \"TechTreeCollaborate.sol\":986:1005  Node[] public nodes */\n    tag_4:\n      tag_16\n      tag_17\n      calldatasize\n      0x04\n      tag_12\n      jump\t// in\n    tag_17:\n      tag_18\n      jump\t// in\n    tag_16:\n      mload(0x40)\n      tag_14\n      swap10\n      swap9\n      swap8\n      swap7\n      swap6\n      swap5\n      swap4\n      swap3\n      swap2\n      swap1\n      tag_20\n      jump\t// in\n        /* \"TechTreeCollaborate.sol\":1807:3006  function addNode(... */\n    tag_5:\n      tag_21\n      tag_22\n      calldatasize\n      0x04\n      tag_23\n      jump\t// in\n    tag_22:\n      tag_24\n      jump\t// in\n    tag_21:\n      stop\n        /* \"TechTreeCollaborate.sol\":3645:3743  function getNode(uint256 _id) public view returns (Node memory) {... */\n    tag_6:\n      tag_25\n      tag_26\n      calldatasize\n      0x04\n      tag_12\n      jump\t// in\n    tag_26:\n      tag_27\n      jump\t// in\n    tag_25:\n      mload(0x40)\n      tag_14\n      swap2\n      swap1\n      tag_29\n      jump\t// in\n        /* \"TechTreeCollaborate.sol\":3786:3884  function getEdge(uint256 _id) public view returns (Edge memory) {... */\n    tag_7:\n      tag_30\n      tag_31\n      calldatasize\n      0x04\n      tag_12\n      jump\t// in\n    tag_31:\n      tag_32\n      jump\t// in\n    tag_30:\n      mload(0x40)\n      tag_14\n      swap2\n      swap1\n      tag_34\n      jump\t// in\n        /* \"TechTreeCollaborate.sol\":3046:3603  function addEdge(... */\n    tag_8:\n      tag_21\n      tag_36\n      calldatasize\n      0x04\n      tag_37\n      jump\t// in\n    tag_36:\n      tag_38\n      jump\t// in\n        /* \"TechTreeCollaborate.sol\":1011:1030  Edge[] public edges */\n    tag_13:\n      0x01\n      dup2\n      dup2\n      sload\n      dup2\n      lt\n      tag_39\n      jumpi\n      0x00\n      dup1\n      revert\n    tag_39:\n      swap1\n      0x00\n      mstore\n      keccak256(0x00, 0x20)\n      swap1\n      0x06\n      mul\n      add\n      0x00\n      swap2\n      pop\n      swap1\n      pop\n      dup1\n      0x00\n      add\n      sload\n      swap1\n      dup1\n      0x01\n      add\n      sload\n      swap1\n      dup1\n      0x02\n      add\n      sload\n      swap1\n      dup1\n      0x03\n      add\n      dup1\n      sload\n      tag_41\n      swap1\n      tag_42\n      jump\t// in\n    tag_41:\n      dup1\n      0x1f\n      add\n      0x20\n      dup1\n      swap2\n      div\n      mul\n      0x20\n      add\n      mload(0x40)\n      swap1\n      dup2\n      add\n      0x40\n      mstore\n      dup1\n      swap3\n      swap2\n      swap1\n      dup2\n      dup2\n      mstore\n      0x20\n      add\n      dup3\n      dup1\n      sload\n      tag_43\n      swap1\n      tag_42\n      jump\t// in\n    tag_43:\n      dup1\n      iszero\n      tag_44\n      jumpi\n      dup1\n      0x1f\n      lt\n      tag_45\n      jumpi\n      0x0100\n      dup1\n      dup4\n      sload\n      div\n      mul\n      dup4\n      mstore\n      swap2\n      0x20\n      add\n      swap2\n      jump(tag_44)\n    tag_45:\n      dup3\n      add\n      swap2\n      swap1\n      0x00\n      mstore\n      keccak256(0x00, 0x20)\n      swap1\n    tag_46:\n      dup2\n      sload\n      dup2\n      mstore\n      swap1\n      0x01\n      add\n      swap1\n      0x20\n      add\n      dup1\n      dup4\n      gt\n      tag_46\n      jumpi\n      dup3\n      swap1\n      sub\n      0x1f\n      and\n      dup3\n      add\n      swap2\n    tag_44:\n      pop\n      pop\n      pop\n      pop\n      0x04\n      dup4\n      add\n      sload\n      0x05\n      swap1\n      swap4\n      add\n      sload\n      swap2\n      swap3\n      sub(shl(0xa0, 0x01), 0x01)\n      and\n      swap2\n      swap1\n      pop\n      dup7\n      jump\t// out\n        /* \"TechTreeCollaborate.sol\":986:1005  Node[] public nodes */\n    tag_18:\n      0x00\n      dup2\n      dup2\n      sload\n      dup2\n      lt\n      tag_47\n      jumpi\n      0x00\n      dup1\n      revert\n    tag_47:\n      0x00\n      swap2\n      dup3\n      mstore\n      0x20\n      swap1\n      swap2\n      keccak256\n      0x08\n      swap1\n      swap2\n      mul\n      add\n      dup1\n      sload\n      0x01\n      dup3\n      add\n      dup1\n      sload\n      swap2\n      swap4\n      pop\n      swap1\n      tag_49\n      swap1\n      tag_42\n      jump\t// in\n    tag_49:\n      dup1\n      0x1f\n      add\n      0x20\n      dup1\n      swap2\n      div\n      mul\n      0x20\n      add\n      mload(0x40)\n      swap1\n      dup2\n      add\n      0x40\n      mstore\n      dup1\n      swap3\n      swap2\n      swap1\n      dup2\n      dup2\n      mstore\n      0x20\n      add\n      dup3\n      dup1\n      sload\n      tag_50\n      swap1\n      tag_42\n      jump\t// in\n    tag_50:\n      dup1\n      iszero\n      tag_51\n      jumpi\n      dup1\n      0x1f\n      lt\n      tag_52\n      jumpi\n      0x0100\n      dup1\n      dup4\n      sload\n      div\n      mul\n      dup4\n      mstore\n      swap2\n      0x20\n      add\n      swap2\n      jump(tag_51)\n    tag_52:\n      dup3\n      add\n      swap2\n      swap1\n      0x00\n      mstore\n      keccak256(0x00, 0x20)\n      swap1\n    tag_53:\n      dup2\n      sload\n      dup2\n      mstore\n      swap1\n      0x01\n      add\n      swap1\n      0x20\n      add\n      dup1\n      dup4\n      gt\n      tag_53\n      jumpi\n      dup3\n      swap1\n      sub\n      0x1f\n      and\n      dup3\n      add\n      swap2\n    tag_51:\n      pop\n      pop\n      pop\n      pop\n      pop\n      swap1\n      dup1\n      0x02\n      add\n      dup1\n      sload\n      tag_54\n      swap1\n      tag_42\n      jump\t// in\n    tag_54:\n      dup1\n      0x1f\n      add\n      0x20\n      dup1\n      swap2\n      div\n      mul\n      0x20\n      add\n      mload(0x40)\n      swap1\n      dup2\n      add\n      0x40\n      mstore\n      dup1\n      swap3\n      swap2\n      swap1\n      dup2\n      dup2\n      mstore\n      0x20\n      add\n      dup3\n      dup1\n      sload\n      tag_55\n      swap1\n      tag_42\n      jump\t// in\n    tag_55:\n      dup1\n      iszero\n      tag_56\n      jumpi\n      dup1\n      0x1f\n      lt\n      tag_57\n      jumpi\n      0x0100\n      dup1\n      dup4\n      sload\n      div\n      mul\n      dup4\n      mstore\n      swap2\n      0x20\n      add\n      swap2\n      jump(tag_56)\n    tag_57:\n      dup3\n      add\n      swap2\n      swap1\n      0x00\n      mstore\n      keccak256(0x00, 0x20)\n      swap1\n    tag_58:\n      dup2\n      sload\n      dup2\n      mstore\n      swap1\n      0x01\n      add\n      swap1\n      0x20\n      add\n      dup1\n      dup4\n      gt\n      tag_58\n      jumpi\n      dup3\n      swap1\n      sub\n      0x1f\n      and\n      dup3\n      add\n      swap2\n    tag_56:\n      pop\n      pop\n      pop\n      pop\n      0x03\n      dup4\n      add\n      sload\n      0x04\n      dup5\n      add\n      sload\n      0x05\n      dup6\n      add\n      dup1\n      sload\n      swap5\n      swap6\n      0xff\n      dup5\n      and\n      swap6\n      0x0100\n      swap1\n      swap5\n      div\n      sub(shl(0xa0, 0x01), 0x01)\n      and\n      swap5\n      pop\n      swap2\n      swap3\n      tag_59\n      swap1\n      tag_42\n      jump\t// in\n    tag_59:\n      dup1\n      0x1f\n      add\n      0x20\n      dup1\n      swap2\n      div\n      mul\n      0x20\n      add\n      mload(0x40)\n      swap1\n      dup2\n      add\n      0x40\n      mstore\n      dup1\n      swap3\n      swap2\n      swap1\n      dup2\n      dup2\n      mstore\n      0x20\n      add\n      dup3\n      dup1\n      sload\n      tag_60\n      swap1\n      tag_42\n      jump\t// in\n    tag_60:\n      dup1\n      iszero\n      tag_61\n      jumpi\n      dup1\n      0x1f\n      lt\n      tag_62\n      jumpi\n      0x0100\n      dup1\n      dup4\n      sload\n      div\n      mul\n      dup4\n      mstore\n      swap2\n      0x20\n      add\n      swap2\n      jump(tag_61)\n    tag_62:\n      dup3\n      add\n      swap2\n      swap1\n      0x00\n      mstore\n      keccak256(0x00, 0x20)\n      swap1\n    tag_63:\n      dup2\n      sload\n      dup2\n      mstore\n      swap1\n      0x01\n      add\n      swap1\n      0x20\n      add\n      dup1\n      dup4\n      gt\n      tag_63\n      jumpi\n      dup3\n      swap1\n      sub\n      0x1f\n      and\n      dup3\n      add\n      swap2\n    tag_61:\n      pop\n      pop\n      pop\n      pop\n      pop\n      swap1\n      dup1\n      0x06\n      add\n      sload\n      swap1\n      dup1\n      0x07\n      add\n      dup1\n      sload\n      tag_64\n      swap1\n      tag_42\n      jump\t// in\n    tag_64:\n      dup1\n      0x1f\n      add\n      0x20\n      dup1\n      swap2\n      div\n      mul\n      0x20\n      add\n      mload(0x40)\n      swap1\n      dup2\n      add\n      0x40\n      mstore\n      dup1\n      swap3\n      swap2\n      swap1\n      dup2\n      dup2\n      mstore\n      0x20\n      add\n      dup3\n      dup1\n      sload\n      tag_65\n      swap1\n      tag_42\n      jump\t// in\n    tag_65:\n      dup1\n      iszero\n      tag_66\n      jumpi\n      dup1\n      0x1f\n      lt\n      tag_67\n      jumpi\n      0x0100\n      dup1\n      dup4\n      sload\n      div\n      mul\n      dup4\n      mstore\n      swap2\n      0x20\n      add\n      swap2\n      jump(tag_66)\n    tag_67:\n      dup3\n      add\n      swap2\n      swap1\n      0x00\n      mstore\n      keccak256(0x00, 0x20)\n      swap1\n    tag_68:\n      dup2\n      sload\n      dup2\n      mstore\n      swap1\n      0x01\n      add\n      swap1\n      0x20\n      add\n      dup1\n      dup4\n      gt\n      tag_68\n      jumpi\n      dup3\n      swap1\n      sub\n      0x1f\n      and\n      dup3\n      add\n      swap2\n    tag_66:\n      pop\n      pop\n      pop\n      pop\n      pop\n      swap1\n      pop\n      dup10\n      jump\t// out\n        /* \"TechTreeCollaborate.sol\":1807:3006  function addNode(... */\n    tag_24:\n        /* \"TechTreeCollaborate.sol\":2081:2095  uint256 nodeId */\n      0x00\n        /* \"TechTreeCollaborate.sol\":2098:2103  nodes */\n      dup1\n        /* \"TechTreeCollaborate.sol\":2098:2110  nodes.length */\n      dup1\n      sload\n      swap1\n      pop\n        /* \"TechTreeCollaborate.sol\":2081:2110  uint256 nodeId = nodes.length */\n      swap1\n      pop\n        /* \"TechTreeCollaborate.sol\":2168:2173  nodes */\n      0x00\n        /* \"TechTreeCollaborate.sol\":2179:2512  Node({... */\n      mload(0x40)\n      dup1\n      0x0120\n      add\n      0x40\n      mstore\n      dup1\n        /* \"TechTreeCollaborate.sol\":2202:2208  nodeId */\n      dup4\n        /* \"TechTreeCollaborate.sol\":2179:2512  Node({... */\n      dup2\n      mstore\n      0x20\n      add\n        /* \"TechTreeCollaborate.sol\":2233:2243  _nodeTitle */\n      dup11\n        /* \"TechTreeCollaborate.sol\":2179:2512  Node({... */\n      dup2\n      mstore\n      0x20\n      add\n        /* \"TechTreeCollaborate.sol\":2274:2290  _nodeDescription */\n      dup10\n        /* \"TechTreeCollaborate.sol\":2179:2512  Node({... */\n      dup2\n      mstore\n      0x20\n      add\n        /* \"TechTreeCollaborate.sol\":2314:2323  _nodeType */\n      dup9\n        /* \"TechTreeCollaborate.sol\":2179:2512  Node({... */\n      0x08\n      dup2\n      gt\n      iszero\n      tag_71\n      jumpi\n      tag_71\n      tag_72\n      jump\t// in\n    tag_71:\n      dup2\n      mstore\n        /* \"TechTreeCollaborate.sol\":2346:2356  msg.sender */\n      caller\n        /* \"TechTreeCollaborate.sol\":2179:2512  Node({... */\n      0x20\n      dup1\n      dup4\n      add\n      swap2\n      swap1\n      swap2\n      mstore\n        /* \"TechTreeCollaborate.sol\":2389:2404  block.timestamp */\n      timestamp\n        /* \"TechTreeCollaborate.sol\":2179:2512  Node({... */\n      0x40\n      dup4\n      add\n      mstore\n      0x60\n      dup3\n      add\n      dup10\n      swap1\n      mstore\n      0x80\n      dup3\n      add\n      dup9\n      swap1\n      mstore\n      0xa0\n      swap1\n      swap2\n      add\n      dup6\n      swap1\n      mstore\n        /* \"TechTreeCollaborate.sol\":2168:2513  nodes.push(Node({... */\n      dup3\n      sload\n      0x01\n      dup2\n      dup2\n      add\n      dup6\n      sstore\n      0x00\n      swap5\n      dup6\n      mstore\n      swap4\n      dup3\n      swap1\n      keccak256\n      dup4\n      mload\n      0x08\n      swap1\n      swap3\n      mul\n      add\n      swap1\n      dup2\n      sstore\n      swap1\n      dup3\n      add\n      mload\n      swap2\n      swap3\n      swap1\n      swap2\n      swap1\n      dup3\n      add\n      swap1\n      tag_74\n      swap1\n      dup3\n      tag_75\n      jump\t// in\n    tag_74:\n      pop\n      0x40\n      dup3\n      add\n      mload\n      0x02\n      dup3\n      add\n      swap1\n      tag_76\n      swap1\n      dup3\n      tag_75\n      jump\t// in\n    tag_76:\n      pop\n      0x60\n      dup3\n      add\n      mload\n      0x03\n      dup3\n      add\n      dup1\n      sload\n      not(0xff)\n      and\n      0x01\n      dup4\n      0x08\n      dup2\n      gt\n      iszero\n      tag_78\n      jumpi\n      tag_78\n      tag_72\n      jump\t// in\n    tag_78:\n      mul\n      or\n      swap1\n      sstore\n      pop\n      0x80\n      dup3\n      add\n      mload\n      0x03\n      dup3\n      add\n      dup1\n      sload\n      sub(shl(0xa0, 0x01), 0x01)\n      swap1\n      swap3\n      and\n      0x0100\n      mul\n      0xffffffffffffffffffffff0000000000000000000000000000000000000000ff\n      swap1\n      swap3\n      and\n      swap2\n      swap1\n      swap2\n      or\n      swap1\n      sstore\n      0xa0\n      dup3\n      add\n      mload\n      0x04\n      dup3\n      add\n      sstore\n      0xc0\n      dup3\n      add\n      mload\n      0x05\n      dup3\n      add\n      swap1\n      tag_79\n      swap1\n      dup3\n      tag_75\n      jump\t// in\n    tag_79:\n      pop\n      0xe0\n      dup3\n      add\n      mload\n      0x06\n      dup3\n      add\n      sstore\n      0x0100\n      dup3\n      add\n      mload\n      0x07\n      dup3\n      add\n      swap1\n      tag_80\n      swap1\n      dup3\n      tag_75\n      jump\t// in\n    tag_80:\n      pop\n      pop\n      pop\n        /* \"TechTreeCollaborate.sol\":2570:2580  msg.sender */\n      caller\n      sub(shl(0xa0, 0x01), 0x01)\n        /* \"TechTreeCollaborate.sol\":2529:2581  NodeAdded(nodeId, _nodeTitle, _nodeType, msg.sender) */\n      and\n        /* \"TechTreeCollaborate.sol\":2539:2545  nodeId */\n      dup2\n        /* \"TechTreeCollaborate.sol\":2529:2581  NodeAdded(nodeId, _nodeTitle, _nodeType, msg.sender) */\n      0xc6bb7849ef4c87b44dcc20f667654b1b4ea07ebb82fb2373297d9337f4f83ca3\n        /* \"TechTreeCollaborate.sol\":2547:2557  _nodeTitle */\n      dup11\n        /* \"TechTreeCollaborate.sol\":2559:2568  _nodeType */\n      dup10\n        /* \"TechTreeCollaborate.sol\":2529:2581  NodeAdded(nodeId, _nodeTitle, _nodeType, msg.sender) */\n      mload(0x40)\n      tag_81\n      swap3\n      swap2\n      swap1\n      tag_82\n      jump\t// in\n    tag_81:\n      mload(0x40)\n      dup1\n      swap2\n      sub\n      swap1\n      log3\n        /* \"TechTreeCollaborate.sol\":2610:2615  edges */\n      0x01\n        /* \"TechTreeCollaborate.sol\":2610:2622  edges.length */\n      dup1\n      sload\n        /* \"TechTreeCollaborate.sol\":2691:2930  Edge({... */\n      0x40\n      dup1\n      mload\n      0xc0\n      dup2\n      add\n      dup3\n      mstore\n      dup3\n      dup2\n      mstore\n      0x20\n      dup2\n      add\n      dup9\n      dup2\n      mstore\n      swap2\n      dup2\n      add\n      dup6\n      dup2\n      mstore\n      0x60\n      dup3\n      add\n      dup9\n      dup2\n      mstore\n        /* \"TechTreeCollaborate.sol\":2814:2824  msg.sender */\n      caller\n        /* \"TechTreeCollaborate.sol\":2691:2930  Edge({... */\n      0x80\n      dup5\n      add\n      mstore\n        /* \"TechTreeCollaborate.sol\":2857:2872  block.timestamp */\n      timestamp\n        /* \"TechTreeCollaborate.sol\":2691:2930  Edge({... */\n      0xa0\n      dup5\n      add\n      mstore\n        /* \"TechTreeCollaborate.sol\":2680:2931  edges.push(Edge({... */\n      dup5\n      dup7\n      add\n      dup7\n      sstore\n        /* \"TechTreeCollaborate.sol\":2593:2607  uint256 edgeId */\n      0x00\n        /* \"TechTreeCollaborate.sol\":2680:2931  edges.push(Edge({... */\n      swap6\n      swap1\n      swap6\n      mstore\n      dup2\n      mload\n      0x06\n      dup6\n      mul\n      0xb10e2d527612073b26eecdfd717e6a320cf44b4afac2b0732d9fcbe2b7fa0cf6\n      dup2\n      add\n      swap2\n      dup3\n      sstore\n      swap4\n      mload\n      0xb10e2d527612073b26eecdfd717e6a320cf44b4afac2b0732d9fcbe2b7fa0cf7\n      dup6\n      add\n      sstore\n      swap1\n      mload\n      0xb10e2d527612073b26eecdfd717e6a320cf44b4afac2b0732d9fcbe2b7fa0cf8\n      dup5\n      add\n      sstore\n      swap4\n      mload\n        /* \"TechTreeCollaborate.sol\":2610:2622  edges.length */\n      swap3\n      swap4\n        /* \"TechTreeCollaborate.sol\":2691:2930  Edge({... */\n      swap1\n      swap3\n        /* \"TechTreeCollaborate.sol\":2680:2931  edges.push(Edge({... */\n      swap1\n      swap2\n      0xb10e2d527612073b26eecdfd717e6a320cf44b4afac2b0732d9fcbe2b7fa0cf9\n      add\n      swap1\n      tag_84\n      swap1\n      dup3\n      tag_75\n      jump\t// in\n    tag_84:\n      pop\n      0x80\n      dup3\n      add\n      mload\n      0x04\n      dup3\n      add\n      dup1\n      sload\n      not(0xffffffffffffffffffffffffffffffffffffffff)\n      and\n      sub(shl(0xa0, 0x01), 0x01)\n      swap1\n      swap3\n      and\n      swap2\n      swap1\n      swap2\n      or\n      swap1\n      sstore\n      0xa0\n      swap1\n      swap2\n      add\n      mload\n      0x05\n      swap1\n      swap2\n      add\n      sstore\n        /* \"TechTreeCollaborate.sol\":2947:2999  EdgeAdded(edgeId, _parentNodeID, nodeId, msg.sender) */\n      0x40\n      dup1\n      mload\n        /* \"#utility.yul\":10772:10797   */\n      dup7\n      dup2\n      mstore\n        /* \"#utility.yul\":10828:10830   */\n      0x20\n        /* \"#utility.yul\":10813:10831   */\n      dup2\n      add\n        /* \"#utility.yul\":10806:10840   */\n      dup5\n      swap1\n      mstore\n        /* \"TechTreeCollaborate.sol\":2988:2998  msg.sender */\n      caller\n      swap2\n        /* \"TechTreeCollaborate.sol\":2957:2963  edgeId */\n      dup4\n      swap2\n        /* \"TechTreeCollaborate.sol\":2947:2999  EdgeAdded(edgeId, _parentNodeID, nodeId, msg.sender) */\n      0x354cb9b915c9f9d75c1b47abf3b3ef0aa8bdbc082fd965c77784f0b625bc08f3\n      swap2\n        /* \"#utility.yul\":10745:10763   */\n      add\n        /* \"TechTreeCollaborate.sol\":2947:2999  EdgeAdded(edgeId, _parentNodeID, nodeId, msg.sender) */\n      mload(0x40)\n      dup1\n      swap2\n      sub\n      swap1\n      log3\n        /* \"TechTreeCollaborate.sol\":2071:3006  {... */\n      pop\n      pop\n        /* \"TechTreeCollaborate.sol\":1807:3006  function addNode(... */\n      pop\n      pop\n      pop\n      pop\n      pop\n      pop\n      pop\n      jump\t// out\n        /* \"TechTreeCollaborate.sol\":3645:3743  function getNode(uint256 _id) public view returns (Node memory) {... */\n    tag_27:\n        /* \"TechTreeCollaborate.sol\":3696:3707  Node memory */\n      tag_87\n      tag_88\n      jump\t// in\n    tag_87:\n        /* \"TechTreeCollaborate.sol\":3726:3731  nodes */\n      0x00\n        /* \"TechTreeCollaborate.sol\":3732:3735  _id */\n      dup3\n        /* \"TechTreeCollaborate.sol\":3726:3736  nodes[_id] */\n      dup2\n      sload\n      dup2\n      lt\n      tag_91\n      jumpi\n      tag_91\n      tag_92\n      jump\t// in\n    tag_91:\n      swap1\n      0x00\n      mstore\n      keccak256(0x00, 0x20)\n      swap1\n      0x08\n      mul\n      add\n        /* \"TechTreeCollaborate.sol\":3719:3736  return nodes[_id] */\n      mload(0x40)\n      dup1\n      0x0120\n      add\n      0x40\n      mstore\n      swap1\n      dup2\n      0x00\n      dup3\n      add\n      sload\n      dup2\n      mstore\n      0x20\n      add\n      0x01\n      dup3\n      add\n      dup1\n      sload\n      tag_94\n      swap1\n      tag_42\n      jump\t// in\n    tag_94:\n      dup1\n      0x1f\n      add\n      0x20\n      dup1\n      swap2\n      div\n      mul\n      0x20\n      add\n      mload(0x40)\n      swap1\n      dup2\n      add\n      0x40\n      mstore\n      dup1\n      swap3\n      swap2\n      swap1\n      dup2\n      dup2\n      mstore\n      0x20\n      add\n      dup3\n      dup1\n      sload\n      tag_95\n      swap1\n      tag_42\n      jump\t// in\n    tag_95:\n      dup1\n      iszero\n      tag_96\n      jumpi\n      dup1\n      0x1f\n      lt\n      tag_97\n      jumpi\n      0x0100\n      dup1\n      dup4\n      sload\n      div\n      mul\n      dup4\n      mstore\n      swap2\n      0x20\n      add\n      swap2\n      jump(tag_96)\n    tag_97:\n      dup3\n      add\n      swap2\n      swap1\n      0x00\n      mstore\n      keccak256(0x00, 0x20)\n      swap1\n    tag_98:\n      dup2\n      sload\n      dup2\n      mstore\n      swap1\n      0x01\n      add\n      swap1\n      0x20\n      add\n      dup1\n      dup4\n      gt\n      tag_98\n      jumpi\n      dup3\n      swap1\n      sub\n      0x1f\n      and\n      dup3\n      add\n      swap2\n    tag_96:\n      pop\n      pop\n      pop\n      pop\n      pop\n      dup2\n      mstore\n      0x20\n      add\n      0x02\n      dup3\n      add\n      dup1\n      sload\n      tag_99\n      swap1\n      tag_42\n      jump\t// in\n    tag_99:\n      dup1\n      0x1f\n      add\n      0x20\n      dup1\n      swap2\n      div\n      mul\n      0x20\n      add\n      mload(0x40)\n      swap1\n      dup2\n      add\n      0x40\n      mstore\n      dup1\n      swap3\n      swap2\n      swap1\n      dup2\n      dup2\n      mstore\n      0x20\n      add\n      dup3\n      dup1\n      sload\n      tag_100\n      swap1\n      tag_42\n      jump\t// in\n    tag_100:\n      dup1\n      iszero\n      tag_101\n      jumpi\n      dup1\n      0x1f\n      lt\n      tag_102\n      jumpi\n      0x0100\n      dup1\n      dup4\n      sload\n      div\n      mul\n      dup4\n      mstore\n      swap2\n      0x20\n      add\n      swap2\n      jump(tag_101)\n    tag_102:\n      dup3\n      add\n      swap2\n      swap1\n      0x00\n      mstore\n      keccak256(0x00, 0x20)\n      swap1\n    tag_103:\n      dup2\n      sload\n      dup2\n      mstore\n      swap1\n      0x01\n      add\n      swap1\n      0x20\n      add\n      dup1\n      dup4\n      gt\n      tag_103\n      jumpi\n      dup3\n      swap1\n      sub\n      0x1f\n      and\n      dup3\n      add\n      swap2\n    tag_101:\n      pop\n      pop\n      pop\n      swap2\n      dup4\n      mstore\n      pop\n      pop\n      0x03\n      dup3\n      add\n      sload\n      0x20\n      swap1\n      swap2\n      add\n      swap1\n      0xff\n      and\n      0x08\n      dup2\n      gt\n      iszero\n      tag_105\n      jumpi\n      tag_105\n      tag_72\n      jump\t// in\n    tag_105:\n      0x08\n      dup2\n      gt\n      iszero\n      tag_107\n      jumpi\n      tag_107\n      tag_72\n      jump\t// in\n    tag_107:\n      dup2\n      mstore\n      0x03\n      dup3\n      add\n      sload\n      0x0100\n      swap1\n      div\n      sub(shl(0xa0, 0x01), 0x01)\n      and\n      0x20\n      dup3\n      add\n      mstore\n      0x04\n      dup3\n      add\n      sload\n      0x40\n      dup3\n      add\n      mstore\n      0x05\n      dup3\n      add\n      dup1\n      sload\n      0x60\n      swap1\n      swap3\n      add\n      swap2\n      tag_108\n      swap1\n      tag_42\n      jump\t// in\n    tag_108:\n      dup1\n      0x1f\n      add\n      0x20\n      dup1\n      swap2\n      div\n      mul\n      0x20\n      add\n      mload(0x40)\n      swap1\n      dup2\n      add\n      0x40\n      mstore\n      dup1\n      swap3\n      swap2\n      swap1\n      dup2\n      dup2\n      mstore\n      0x20\n      add\n      dup3\n      dup1\n      sload\n      tag_109\n      swap1\n      tag_42\n      jump\t// in\n    tag_109:\n      dup1\n      iszero\n      tag_110\n      jumpi\n      dup1\n      0x1f\n      lt\n      tag_111\n      jumpi\n      0x0100\n      dup1\n      dup4\n      sload\n      div\n      mul\n      dup4\n      mstore\n      swap2\n      0x20\n      add\n      swap2\n      jump(tag_110)\n    tag_111:\n      dup3\n      add\n      swap2\n      swap1\n      0x00\n      mstore\n      keccak256(0x00, 0x20)\n      swap1\n    tag_112:\n      dup2\n      sload\n      dup2\n      mstore\n      swap1\n      0x01\n      add\n      swap1\n      0x20\n      add\n      dup1\n      dup4\n      gt\n      tag_112\n      jumpi\n      dup3\n      swap1\n      sub\n      0x1f\n      and\n      dup3\n      add\n      swap2\n    tag_110:\n      pop\n      pop\n      pop\n      pop\n      pop\n      dup2\n      mstore\n      0x20\n      add\n      0x06\n      dup3\n      add\n      sload\n      dup2\n      mstore\n      0x20\n      add\n      0x07\n      dup3\n      add\n      dup1\n      sload\n      tag_113\n      swap1\n      tag_42\n      jump\t// in\n    tag_113:\n      dup1\n      0x1f\n      add\n      0x20\n      dup1\n      swap2\n      div\n      mul\n      0x20\n      add\n      mload(0x40)\n      swap1\n      dup2\n      add\n      0x40\n      mstore\n      dup1\n      swap3\n      swap2\n      swap1\n      dup2\n      dup2\n      mstore\n      0x20\n      add\n      dup3\n      dup1\n      sload\n      tag_114\n      swap1\n      tag_42\n      jump\t// in\n    tag_114:\n      dup1\n      iszero\n      tag_115\n      jumpi\n      dup1\n      0x1f\n      lt\n      tag_116\n      jumpi\n      0x0100\n      dup1\n      dup4\n      sload\n      div\n      mul\n      dup4\n      mstore\n      swap2\n      0x20\n      add\n      swap2\n      jump(tag_115)\n    tag_116:\n      dup3\n      add\n      swap2\n      swap1\n      0x00\n      mstore\n      keccak256(0x00, 0x20)\n      swap1\n    tag_117:\n      dup2\n      sload\n      dup2\n      mstore\n      swap1\n      0x01\n      add\n      swap1\n      0x20\n      add\n      dup1\n      dup4\n      gt\n      tag_117\n      jumpi\n      dup3\n      swap1\n      sub\n      0x1f\n      and\n      dup3\n      add\n      swap2\n    tag_115:\n      pop\n      pop\n      pop\n      pop\n      pop\n      dup2\n      mstore\n      pop\n      pop\n      swap1\n      pop\n        /* \"TechTreeCollaborate.sol\":3645:3743  function getNode(uint256 _id) public view returns (Node memory) {... */\n      swap2\n      swap1\n      pop\n      jump\t// out\n        /* \"TechTreeCollaborate.sol\":3786:3884  function getEdge(uint256 _id) public view returns (Edge memory) {... */\n    tag_32:\n        /* \"TechTreeCollaborate.sol\":3837:3848  Edge memory */\n      tag_118\n      mload(0x40)\n      dup1\n      0xc0\n      add\n      0x40\n      mstore\n      dup1\n      0x00\n      dup2\n      mstore\n      0x20\n      add\n      0x00\n      dup2\n      mstore\n      0x20\n      add\n      0x00\n      dup2\n      mstore\n      0x20\n      add\n      0x60\n      dup2\n      mstore\n      0x20\n      add\n      and(sub(shl(0xa0, 0x01), 0x01), 0x00)\n      dup2\n      mstore\n      0x20\n      add\n      0x00\n      dup2\n      mstore\n      pop\n      swap1\n      jump\n    tag_118:\n        /* \"TechTreeCollaborate.sol\":3867:3872  edges */\n      0x01\n        /* \"TechTreeCollaborate.sol\":3873:3876  _id */\n      dup3\n        /* \"TechTreeCollaborate.sol\":3867:3877  edges[_id] */\n      dup2\n      sload\n      dup2\n      lt\n      tag_122\n      jumpi\n      tag_122\n      tag_92\n      jump\t// in\n    tag_122:\n      swap1\n      0x00\n      mstore\n      keccak256(0x00, 0x20)\n      swap1\n      0x06\n      mul\n      add\n        /* \"TechTreeCollaborate.sol\":3860:3877  return edges[_id] */\n      mload(0x40)\n      dup1\n      0xc0\n      add\n      0x40\n      mstore\n      swap1\n      dup2\n      0x00\n      dup3\n      add\n      sload\n      dup2\n      mstore\n      0x20\n      add\n      0x01\n      dup3\n      add\n      sload\n      dup2\n      mstore\n      0x20\n      add\n      0x02\n      dup3\n      add\n      sload\n      dup2\n      mstore\n      0x20\n      add\n      0x03\n      dup3\n      add\n      dup1\n      sload\n      tag_124\n      swap1\n      tag_42\n      jump\t// in\n    tag_124:\n      dup1\n      0x1f\n      add\n      0x20\n      dup1\n      swap2\n      div\n      mul\n      0x20\n      add\n      mload(0x40)\n      swap1\n      dup2\n      add\n      0x40\n      mstore\n      dup1\n      swap3\n      swap2\n      swap1\n      dup2\n      dup2\n      mstore\n      0x20\n      add\n      dup3\n      dup1\n      sload\n      tag_125\n      swap1\n      tag_42\n      jump\t// in\n    tag_125:\n      dup1\n      iszero\n      tag_126\n      jumpi\n      dup1\n      0x1f\n      lt\n      tag_127\n      jumpi\n      0x0100\n      dup1\n      dup4\n      sload\n      div\n      mul\n      dup4\n      mstore\n      swap2\n      0x20\n      add\n      swap2\n      jump(tag_126)\n    tag_127:\n      dup3\n      add\n      swap2\n      swap1\n      0x00\n      mstore\n      keccak256(0x00, 0x20)\n      swap1\n    tag_128:\n      dup2\n      sload\n      dup2\n      mstore\n      swap1\n      0x01\n      add\n      swap1\n      0x20\n      add\n      dup1\n      dup4\n      gt\n      tag_128\n      jumpi\n      dup3\n      swap1\n      sub\n      0x1f\n      and\n      dup3\n      add\n      swap2\n    tag_126:\n      pop\n      pop\n      pop\n      swap2\n      dup4\n      mstore\n      pop\n      pop\n      0x04\n      dup3\n      add\n      sload\n      sub(shl(0xa0, 0x01), 0x01)\n      and\n      0x20\n      dup3\n      add\n      mstore\n      0x05\n      swap1\n      swap2\n      add\n      sload\n      0x40\n      swap1\n      swap2\n      add\n      mstore\n      swap3\n        /* \"TechTreeCollaborate.sol\":3786:3884  function getEdge(uint256 _id) public view returns (Edge memory) {... */\n      swap2\n      pop\n      pop\n      jump\t// out\n        /* \"TechTreeCollaborate.sol\":3046:3603  function addEdge(... */\n    tag_38:\n        /* \"TechTreeCollaborate.sol\":3201:3206  edges */\n      0x01\n        /* \"TechTreeCollaborate.sol\":3201:3213  edges.length */\n      dup1\n      sload\n        /* \"TechTreeCollaborate.sol\":3282:3524  Edge({... */\n      0x40\n      dup1\n      mload\n      0xc0\n      dup2\n      add\n      dup3\n      mstore\n      dup3\n      dup2\n      mstore\n      0x20\n      dup2\n      add\n      dup8\n      dup2\n      mstore\n      swap2\n      dup2\n      add\n      dup7\n      dup2\n      mstore\n      0x60\n      dup3\n      add\n      dup7\n      dup2\n      mstore\n        /* \"TechTreeCollaborate.sol\":3408:3418  msg.sender */\n      caller\n        /* \"TechTreeCollaborate.sol\":3282:3524  Edge({... */\n      0x80\n      dup5\n      add\n      mstore\n        /* \"TechTreeCollaborate.sol\":3451:3466  block.timestamp */\n      timestamp\n        /* \"TechTreeCollaborate.sol\":3282:3524  Edge({... */\n      0xa0\n      dup5\n      add\n      mstore\n        /* \"TechTreeCollaborate.sol\":3271:3525  edges.push(Edge({... */\n      dup5\n      dup7\n      add\n      dup7\n      sstore\n        /* \"TechTreeCollaborate.sol\":3184:3198  uint256 edgeId */\n      0x00\n        /* \"TechTreeCollaborate.sol\":3271:3525  edges.push(Edge({... */\n      swap6\n      swap1\n      swap6\n      mstore\n      dup2\n      mload\n      0x06\n      dup6\n      mul\n      0xb10e2d527612073b26eecdfd717e6a320cf44b4afac2b0732d9fcbe2b7fa0cf6\n      dup2\n      add\n      swap2\n      dup3\n      sstore\n      swap4\n      mload\n      0xb10e2d527612073b26eecdfd717e6a320cf44b4afac2b0732d9fcbe2b7fa0cf7\n      dup6\n      add\n      sstore\n      swap1\n      mload\n      0xb10e2d527612073b26eecdfd717e6a320cf44b4afac2b0732d9fcbe2b7fa0cf8\n      dup5\n      add\n      sstore\n      swap4\n      mload\n        /* \"TechTreeCollaborate.sol\":3201:3213  edges.length */\n      swap3\n      swap4\n        /* \"TechTreeCollaborate.sol\":3282:3524  Edge({... */\n      swap1\n      swap3\n        /* \"TechTreeCollaborate.sol\":3271:3525  edges.push(Edge({... */\n      swap1\n      swap2\n      0xb10e2d527612073b26eecdfd717e6a320cf44b4afac2b0732d9fcbe2b7fa0cf9\n      add\n      swap1\n      tag_131\n      swap1\n      dup3\n      tag_75\n      jump\t// in\n    tag_131:\n      pop\n      0x80\n      dup3\n      add\n      mload\n      0x04\n      dup3\n      add\n      dup1\n      sload\n      not(0xffffffffffffffffffffffffffffffffffffffff)\n      and\n      sub(shl(0xa0, 0x01), 0x01)\n      swap1\n      swap3\n      and\n      swap2\n      swap1\n      swap2\n      or\n      swap1\n      sstore\n      0xa0\n      swap1\n      swap2\n      add\n      mload\n      0x05\n      swap1\n      swap2\n      add\n      sstore\n        /* \"TechTreeCollaborate.sol\":3541:3596  EdgeAdded(edgeId, _startNodeID, _endNodeID, msg.sender) */\n      0x40\n      dup1\n      mload\n        /* \"#utility.yul\":10772:10797   */\n      dup6\n      dup2\n      mstore\n        /* \"#utility.yul\":10828:10830   */\n      0x20\n        /* \"#utility.yul\":10813:10831   */\n      dup2\n      add\n        /* \"#utility.yul\":10806:10840   */\n      dup6\n      swap1\n      mstore\n        /* \"TechTreeCollaborate.sol\":3585:3595  msg.sender */\n      caller\n      swap2\n        /* \"TechTreeCollaborate.sol\":3551:3557  edgeId */\n      dup4\n      swap2\n        /* \"TechTreeCollaborate.sol\":3541:3596  EdgeAdded(edgeId, _startNodeID, _endNodeID, msg.sender) */\n      0x354cb9b915c9f9d75c1b47abf3b3ef0aa8bdbc082fd965c77784f0b625bc08f3\n      swap2\n        /* \"#utility.yul\":10745:10763   */\n      add\n        /* \"TechTreeCollaborate.sol\":3541:3596  EdgeAdded(edgeId, _startNodeID, _endNodeID, msg.sender) */\n      mload(0x40)\n      dup1\n      swap2\n      sub\n      swap1\n      log3\n        /* \"TechTreeCollaborate.sol\":3174:3603  {... */\n      pop\n        /* \"TechTreeCollaborate.sol\":3046:3603  function addEdge(... */\n      pop\n      pop\n      pop\n      jump\t// out\n    tag_88:\n      mload(0x40)\n      dup1\n      0x0120\n      add\n      0x40\n      mstore\n      dup1\n      0x00\n      dup2\n      mstore\n      0x20\n      add\n      0x60\n      dup2\n      mstore\n      0x20\n      add\n      0x60\n      dup2\n      mstore\n      0x20\n      add\n      0x00\n      0x08\n      dup2\n      gt\n      iszero\n      tag_134\n      jumpi\n      tag_134\n      tag_72\n      jump\t// in\n    tag_134:\n      dup2\n      mstore\n      0x20\n      add\n      and(sub(shl(0xa0, 0x01), 0x01), 0x00)\n      dup2\n      mstore\n      0x20\n      add\n      0x00\n      dup2\n      mstore\n      0x20\n      add\n      0x60\n      dup2\n      mstore\n      0x20\n      add\n      0x00\n      dup2\n      mstore\n      0x20\n      add\n      0x60\n      dup2\n      mstore\n      pop\n      swap1\n      jump\t// out\n        /* \"#utility.yul\":14:194   */\n    tag_12:\n        /* \"#utility.yul\":73:79   */\n      0x00\n        /* \"#utility.yul\":126:128   */\n      0x20\n        /* \"#utility.yul\":114:123   */\n      dup3\n        /* \"#utility.yul\":105:112   */\n      dup5\n        /* \"#utility.yul\":101:124   */\n      sub\n        /* \"#utility.yul\":97:129   */\n      slt\n        /* \"#utility.yul\":94:146   */\n      iszero\n      tag_146\n      jumpi\n        /* \"#utility.yul\":142:143   */\n      0x00\n        /* \"#utility.yul\":139:140   */\n      dup1\n        /* \"#utility.yul\":132:144   */\n      revert\n        /* \"#utility.yul\":94:146   */\n    tag_146:\n      pop\n        /* \"#utility.yul\":165:188   */\n      calldataload\n      swap2\n        /* \"#utility.yul\":14:194   */\n      swap1\n      pop\n      jump\t// out\n        /* \"#utility.yul\":199:488   */\n    tag_135:\n        /* \"#utility.yul\":241:244   */\n      0x00\n        /* \"#utility.yul\":279:284   */\n      dup2\n        /* \"#utility.yul\":273:285   */\n      mload\n        /* \"#utility.yul\":306:312   */\n      dup1\n        /* \"#utility.yul\":301:304   */\n      dup5\n        /* \"#utility.yul\":294:313   */\n      mstore\n        /* \"#utility.yul\":362:368   */\n      dup1\n        /* \"#utility.yul\":355:359   */\n      0x20\n        /* \"#utility.yul\":348:353   */\n      dup5\n        /* \"#utility.yul\":344:360   */\n      add\n        /* \"#utility.yul\":337:341   */\n      0x20\n        /* \"#utility.yul\":332:335   */\n      dup7\n        /* \"#utility.yul\":328:342   */\n      add\n        /* \"#utility.yul\":322:369   */\n      mcopy\n        /* \"#utility.yul\":414:415   */\n      0x00\n        /* \"#utility.yul\":407:411   */\n      0x20\n        /* \"#utility.yul\":398:404   */\n      dup3\n        /* \"#utility.yul\":393:396   */\n      dup7\n        /* \"#utility.yul\":389:405   */\n      add\n        /* \"#utility.yul\":385:412   */\n      add\n        /* \"#utility.yul\":378:416   */\n      mstore\n        /* \"#utility.yul\":477:481   */\n      0x20\n        /* \"#utility.yul\":470:472   */\n      0x1f\n        /* \"#utility.yul\":466:473   */\n      not\n        /* \"#utility.yul\":461:463   */\n      0x1f\n        /* \"#utility.yul\":453:459   */\n      dup4\n        /* \"#utility.yul\":449:464   */\n      add\n        /* \"#utility.yul\":445:474   */\n      and\n        /* \"#utility.yul\":440:443   */\n      dup6\n        /* \"#utility.yul\":436:475   */\n      add\n        /* \"#utility.yul\":432:482   */\n      add\n        /* \"#utility.yul\":425:482   */\n      swap2\n      pop\n      pop\n        /* \"#utility.yul\":199:488   */\n      swap3\n      swap2\n      pop\n      pop\n      jump\t// out\n        /* \"#utility.yul\":625:1253   */\n    tag_15:\n        /* \"#utility.yul\":914:920   */\n      dup7\n        /* \"#utility.yul\":903:912   */\n      dup2\n        /* \"#utility.yul\":896:921   */\n      mstore\n        /* \"#utility.yul\":957:963   */\n      dup6\n        /* \"#utility.yul\":952:954   */\n      0x20\n        /* \"#utility.yul\":941:950   */\n      dup3\n        /* \"#utility.yul\":937:955   */\n      add\n        /* \"#utility.yul\":930:964   */\n      mstore\n        /* \"#utility.yul\":1000:1006   */\n      dup5\n        /* \"#utility.yul\":995:997   */\n      0x40\n        /* \"#utility.yul\":984:993   */\n      dup3\n        /* \"#utility.yul\":980:998   */\n      add\n        /* \"#utility.yul\":973:1007   */\n      mstore\n        /* \"#utility.yul\":1043:1046   */\n      0xc0\n        /* \"#utility.yul\":1038:1040   */\n      0x60\n        /* \"#utility.yul\":1027:1036   */\n      dup3\n        /* \"#utility.yul\":1023:1041   */\n      add\n        /* \"#utility.yul\":1016:1047   */\n      mstore\n        /* \"#utility.yul\":877:881   */\n      0x00\n        /* \"#utility.yul\":1064:1110   */\n      tag_150\n        /* \"#utility.yul\":1105:1108   */\n      0xc0\n        /* \"#utility.yul\":1094:1103   */\n      dup4\n        /* \"#utility.yul\":1090:1109   */\n      add\n        /* \"#utility.yul\":1082:1088   */\n      dup7\n        /* \"#utility.yul\":1064:1110   */\n      tag_135\n      jump\t// in\n    tag_150:\n      sub(shl(0xa0, 0x01), 0x01)\n        /* \"#utility.yul\":1147:1202   */\n      swap5\n      swap1\n      swap5\n      and\n        /* \"#utility.yul\":1141:1144   */\n      0x80\n        /* \"#utility.yul\":1126:1145   */\n      dup4\n      add\n        /* \"#utility.yul\":1119:1203   */\n      mstore\n      pop\n        /* \"#utility.yul\":1234:1237   */\n      0xa0\n        /* \"#utility.yul\":1219:1238   */\n      add\n        /* \"#utility.yul\":1212:1247   */\n      mstore\n        /* \"#utility.yul\":1056:1110   */\n      swap5\n        /* \"#utility.yul\":625:1253   */\n      swap4\n      pop\n      pop\n      pop\n      pop\n      jump\t// out\n        /* \"#utility.yul\":1258:1385   */\n    tag_72:\n        /* \"#utility.yul\":1319:1329   */\n      0x4e487b71\n        /* \"#utility.yul\":1314:1317   */\n      0xe0\n        /* \"#utility.yul\":1310:1330   */\n      shl\n        /* \"#utility.yul\":1307:1308   */\n      0x00\n        /* \"#utility.yul\":1300:1331   */\n      mstore\n        /* \"#utility.yul\":1350:1354   */\n      0x21\n        /* \"#utility.yul\":1347:1348   */\n      0x04\n        /* \"#utility.yul\":1340:1355   */\n      mstore\n        /* \"#utility.yul\":1374:1378   */\n      0x24\n        /* \"#utility.yul\":1371:1372   */\n      0x00\n        /* \"#utility.yul\":1364:1379   */\n      revert\n        /* \"#utility.yul\":1390:1626   */\n    tag_137:\n        /* \"#utility.yul\":1470:1471   */\n      0x09\n        /* \"#utility.yul\":1463:1468   */\n      dup2\n        /* \"#utility.yul\":1460:1472   */\n      lt\n        /* \"#utility.yul\":1450:1593   */\n      tag_153\n      jumpi\n        /* \"#utility.yul\":1515:1525   */\n      0x4e487b71\n        /* \"#utility.yul\":1510:1513   */\n      0xe0\n        /* \"#utility.yul\":1506:1526   */\n      shl\n        /* \"#utility.yul\":1503:1504   */\n      0x00\n        /* \"#utility.yul\":1496:1527   */\n      mstore\n        /* \"#utility.yul\":1550:1554   */\n      0x21\n        /* \"#utility.yul\":1547:1548   */\n      0x04\n        /* \"#utility.yul\":1540:1555   */\n      mstore\n        /* \"#utility.yul\":1578:1582   */\n      0x24\n        /* \"#utility.yul\":1575:1576   */\n      0x00\n        /* \"#utility.yul\":1568:1583   */\n      revert\n        /* \"#utility.yul\":1450:1593   */\n    tag_153:\n        /* \"#utility.yul\":1602:1620   */\n      swap1\n      mstore\n        /* \"#utility.yul\":1390:1626   */\n      jump\t// out\n        /* \"#utility.yul\":1631:2800   */\n    tag_20:\n        /* \"#utility.yul\":2038:2042   */\n      0x00\n        /* \"#utility.yul\":2067:2070   */\n      0x0120\n        /* \"#utility.yul\":2097:2103   */\n      dup12\n        /* \"#utility.yul\":2086:2095   */\n      dup4\n        /* \"#utility.yul\":2079:2104   */\n      mstore\n        /* \"#utility.yul\":2140:2142   */\n      dup1\n        /* \"#utility.yul\":2135:2137   */\n      0x20\n        /* \"#utility.yul\":2124:2133   */\n      dup5\n        /* \"#utility.yul\":2120:2138   */\n      add\n        /* \"#utility.yul\":2113:2143   */\n      mstore\n        /* \"#utility.yul\":2166:2211   */\n      tag_155\n        /* \"#utility.yul\":2207:2209   */\n      dup2\n        /* \"#utility.yul\":2196:2205   */\n      dup5\n        /* \"#utility.yul\":2192:2210   */\n      add\n        /* \"#utility.yul\":2184:2190   */\n      dup13\n        /* \"#utility.yul\":2166:2211   */\n      tag_135\n      jump\t// in\n    tag_155:\n        /* \"#utility.yul\":2152:2211   */\n      swap1\n      pop\n        /* \"#utility.yul\":2259:2268   */\n      dup3\n        /* \"#utility.yul\":2251:2257   */\n      dup2\n        /* \"#utility.yul\":2247:2269   */\n      sub\n        /* \"#utility.yul\":2242:2244   */\n      0x40\n        /* \"#utility.yul\":2231:2240   */\n      dup5\n        /* \"#utility.yul\":2227:2245   */\n      add\n        /* \"#utility.yul\":2220:2270   */\n      mstore\n        /* \"#utility.yul\":2293:2326   */\n      tag_156\n        /* \"#utility.yul\":2319:2325   */\n      dup2\n        /* \"#utility.yul\":2311:2317   */\n      dup12\n        /* \"#utility.yul\":2293:2326   */\n      tag_135\n      jump\t// in\n    tag_156:\n        /* \"#utility.yul\":2279:2326   */\n      swap1\n      pop\n        /* \"#utility.yul\":2335:2387   */\n      tag_157\n        /* \"#utility.yul\":2383:2385   */\n      0x60\n        /* \"#utility.yul\":2372:2381   */\n      dup5\n        /* \"#utility.yul\":2368:2386   */\n      add\n        /* \"#utility.yul\":2360:2366   */\n      dup11\n        /* \"#utility.yul\":2335:2387   */\n      tag_137\n      jump\t// in\n    tag_157:\n      sub(shl(0xa0, 0x01), 0x01)\n        /* \"#utility.yul\":2428:2434   */\n      dup9\n        /* \"#utility.yul\":2424:2479   */\n      and\n        /* \"#utility.yul\":2418:2421   */\n      0x80\n        /* \"#utility.yul\":2407:2416   */\n      dup5\n        /* \"#utility.yul\":2403:2422   */\n      add\n        /* \"#utility.yul\":2396:2480   */\n      mstore\n        /* \"#utility.yul\":2517:2523   */\n      dup7\n        /* \"#utility.yul\":2511:2514   */\n      0xa0\n        /* \"#utility.yul\":2500:2509   */\n      dup5\n        /* \"#utility.yul\":2496:2515   */\n      add\n        /* \"#utility.yul\":2489:2524   */\n      mstore\n        /* \"#utility.yul\":2573:2582   */\n      dup3\n        /* \"#utility.yul\":2565:2571   */\n      dup2\n        /* \"#utility.yul\":2561:2583   */\n      sub\n        /* \"#utility.yul\":2555:2558   */\n      0xc0\n        /* \"#utility.yul\":2544:2553   */\n      dup5\n        /* \"#utility.yul\":2540:2559   */\n      add\n        /* \"#utility.yul\":2533:2584   */\n      mstore\n        /* \"#utility.yul\":2607:2640   */\n      tag_158\n        /* \"#utility.yul\":2633:2639   */\n      dup2\n        /* \"#utility.yul\":2625:2631   */\n      dup8\n        /* \"#utility.yul\":2607:2640   */\n      tag_135\n      jump\t// in\n    tag_158:\n        /* \"#utility.yul\":2593:2640   */\n      swap1\n      pop\n        /* \"#utility.yul\":2677:2683   */\n      dup5\n        /* \"#utility.yul\":2671:2674   */\n      0xe0\n        /* \"#utility.yul\":2660:2669   */\n      dup5\n        /* \"#utility.yul\":2656:2675   */\n      add\n        /* \"#utility.yul\":2649:2684   */\n      mstore\n        /* \"#utility.yul\":2733:2742   */\n      dup3\n        /* \"#utility.yul\":2725:2731   */\n      dup2\n        /* \"#utility.yul\":2721:2743   */\n      sub\n        /* \"#utility.yul\":2715:2718   */\n      0x0100\n        /* \"#utility.yul\":2704:2713   */\n      dup5\n        /* \"#utility.yul\":2700:2719   */\n      add\n        /* \"#utility.yul\":2693:2744   */\n      mstore\n        /* \"#utility.yul\":2761:2794   */\n      tag_159\n        /* \"#utility.yul\":2787:2793   */\n      dup2\n        /* \"#utility.yul\":2779:2785   */\n      dup6\n        /* \"#utility.yul\":2761:2794   */\n      tag_135\n      jump\t// in\n    tag_159:\n        /* \"#utility.yul\":2753:2794   */\n      swap13\n        /* \"#utility.yul\":1631:2800   */\n      swap12\n      pop\n      pop\n      pop\n      pop\n      pop\n      pop\n      pop\n      pop\n      pop\n      pop\n      pop\n      pop\n      jump\t// out\n        /* \"#utility.yul\":2805:2932   */\n    tag_138:\n        /* \"#utility.yul\":2866:2876   */\n      0x4e487b71\n        /* \"#utility.yul\":2861:2864   */\n      0xe0\n        /* \"#utility.yul\":2857:2877   */\n      shl\n        /* \"#utility.yul\":2854:2855   */\n      0x00\n        /* \"#utility.yul\":2847:2878   */\n      mstore\n        /* \"#utility.yul\":2897:2901   */\n      0x41\n        /* \"#utility.yul\":2894:2895   */\n      0x04\n        /* \"#utility.yul\":2887:2902   */\n      mstore\n        /* \"#utility.yul\":2921:2925   */\n      0x24\n        /* \"#utility.yul\":2918:2919   */\n      0x00\n        /* \"#utility.yul\":2911:2926   */\n      revert\n        /* \"#utility.yul\":2937:3656   */\n    tag_139:\n        /* \"#utility.yul\":2980:2985   */\n      0x00\n        /* \"#utility.yul\":3033:3036   */\n      dup3\n        /* \"#utility.yul\":3026:3030   */\n      0x1f\n        /* \"#utility.yul\":3018:3024   */\n      dup4\n        /* \"#utility.yul\":3014:3031   */\n      add\n        /* \"#utility.yul\":3010:3037   */\n      slt\n        /* \"#utility.yul\":3000:3055   */\n      tag_162\n      jumpi\n        /* \"#utility.yul\":3051:3052   */\n      0x00\n        /* \"#utility.yul\":3048:3049   */\n      dup1\n        /* \"#utility.yul\":3041:3053   */\n      revert\n        /* \"#utility.yul\":3000:3055   */\n    tag_162:\n        /* \"#utility.yul\":3087:3093   */\n      dup2\n        /* \"#utility.yul\":3074:3094   */\n      calldataload\n        /* \"#utility.yul\":3113:3131   */\n      0xffffffffffffffff\n        /* \"#utility.yul\":3150:3152   */\n      dup1\n        /* \"#utility.yul\":3146:3148   */\n      dup3\n        /* \"#utility.yul\":3143:3153   */\n      gt\n        /* \"#utility.yul\":3140:3176   */\n      iszero\n      tag_164\n      jumpi\n        /* \"#utility.yul\":3156:3174   */\n      tag_164\n      tag_138\n      jump\t// in\n    tag_164:\n        /* \"#utility.yul\":3231:3233   */\n      0x40\n        /* \"#utility.yul\":3225:3234   */\n      mload\n        /* \"#utility.yul\":3199:3201   */\n      0x1f\n        /* \"#utility.yul\":3285:3298   */\n      dup4\n      add\n      not(0x1f)\n        /* \"#utility.yul\":3281:3303   */\n      swap1\n      dup2\n      and\n        /* \"#utility.yul\":3305:3307   */\n      0x3f\n        /* \"#utility.yul\":3277:3308   */\n      add\n        /* \"#utility.yul\":3273:3313   */\n      and\n        /* \"#utility.yul\":3261:3314   */\n      dup2\n      add\n      swap1\n        /* \"#utility.yul\":3329:3347   */\n      dup3\n      dup3\n      gt\n        /* \"#utility.yul\":3349:3371   */\n      dup2\n      dup4\n      lt\n        /* \"#utility.yul\":3326:3372   */\n      or\n        /* \"#utility.yul\":3323:3395   */\n      iszero\n      tag_166\n      jumpi\n        /* \"#utility.yul\":3375:3393   */\n      tag_166\n      tag_138\n      jump\t// in\n    tag_166:\n        /* \"#utility.yul\":3415:3425   */\n      dup2\n        /* \"#utility.yul\":3411:3413   */\n      0x40\n        /* \"#utility.yul\":3404:3426   */\n      mstore\n        /* \"#utility.yul\":3450:3452   */\n      dup4\n        /* \"#utility.yul\":3442:3448   */\n      dup2\n        /* \"#utility.yul\":3435:3453   */\n      mstore\n        /* \"#utility.yul\":3496:3499   */\n      dup7\n        /* \"#utility.yul\":3489:3493   */\n      0x20\n        /* \"#utility.yul\":3484:3486   */\n      dup6\n        /* \"#utility.yul\":3476:3482   */\n      dup9\n        /* \"#utility.yul\":3472:3487   */\n      add\n        /* \"#utility.yul\":3468:3494   */\n      add\n        /* \"#utility.yul\":3465:3500   */\n      gt\n        /* \"#utility.yul\":3462:3517   */\n      iszero\n      tag_167\n      jumpi\n        /* \"#utility.yul\":3513:3514   */\n      0x00\n        /* \"#utility.yul\":3510:3511   */\n      dup1\n        /* \"#utility.yul\":3503:3515   */\n      revert\n        /* \"#utility.yul\":3462:3517   */\n    tag_167:\n        /* \"#utility.yul\":3577:3579   */\n      dup4\n        /* \"#utility.yul\":3570:3574   */\n      0x20\n        /* \"#utility.yul\":3562:3568   */\n      dup8\n        /* \"#utility.yul\":3558:3575   */\n      add\n        /* \"#utility.yul\":3551:3555   */\n      0x20\n        /* \"#utility.yul\":3543:3549   */\n      dup4\n        /* \"#utility.yul\":3539:3556   */\n      add\n        /* \"#utility.yul\":3526:3580   */\n      calldatacopy\n        /* \"#utility.yul\":3624:3625   */\n      0x00\n        /* \"#utility.yul\":3617:3621   */\n      0x20\n        /* \"#utility.yul\":3612:3614   */\n      dup6\n        /* \"#utility.yul\":3604:3610   */\n      dup4\n        /* \"#utility.yul\":3600:3615   */\n      add\n        /* \"#utility.yul\":3596:3622   */\n      add\n        /* \"#utility.yul\":3589:3626   */\n      mstore\n        /* \"#utility.yul\":3644:3650   */\n      dup1\n        /* \"#utility.yul\":3635:3650   */\n      swap5\n      pop\n      pop\n      pop\n      pop\n      pop\n        /* \"#utility.yul\":2937:3656   */\n      swap3\n      swap2\n      pop\n      pop\n      jump\t// out\n        /* \"#utility.yul\":3661:3810   */\n    tag_140:\n        /* \"#utility.yul\":3735:3755   */\n      dup1\n      calldataload\n        /* \"#utility.yul\":3784:3785   */\n      0x09\n        /* \"#utility.yul\":3774:3786   */\n      dup2\n      lt\n        /* \"#utility.yul\":3764:3804   */\n      tag_169\n      jumpi\n        /* \"#utility.yul\":3800:3801   */\n      0x00\n        /* \"#utility.yul\":3797:3798   */\n      dup1\n        /* \"#utility.yul\":3790:3802   */\n      revert\n        /* \"#utility.yul\":3764:3804   */\n    tag_169:\n        /* \"#utility.yul\":3661:3810   */\n      swap2\n      swap1\n      pop\n      jump\t// out\n        /* \"#utility.yul\":3815:5123   */\n    tag_23:\n        /* \"#utility.yul\":3991:3997   */\n      0x00\n        /* \"#utility.yul\":3999:4005   */\n      dup1\n        /* \"#utility.yul\":4007:4013   */\n      0x00\n        /* \"#utility.yul\":4015:4021   */\n      dup1\n        /* \"#utility.yul\":4023:4029   */\n      0x00\n        /* \"#utility.yul\":4031:4037   */\n      dup1\n        /* \"#utility.yul\":4039:4045   */\n      0x00\n        /* \"#utility.yul\":4092:4095   */\n      0xe0\n        /* \"#utility.yul\":4080:4089   */\n      dup9\n        /* \"#utility.yul\":4071:4078   */\n      dup11\n        /* \"#utility.yul\":4067:4090   */\n      sub\n        /* \"#utility.yul\":4063:4096   */\n      slt\n        /* \"#utility.yul\":4060:4113   */\n      iszero\n      tag_171\n      jumpi\n        /* \"#utility.yul\":4109:4110   */\n      0x00\n        /* \"#utility.yul\":4106:4107   */\n      dup1\n        /* \"#utility.yul\":4099:4111   */\n      revert\n        /* \"#utility.yul\":4060:4113   */\n    tag_171:\n        /* \"#utility.yul\":4149:4158   */\n      dup8\n        /* \"#utility.yul\":4136:4159   */\n      calldataload\n        /* \"#utility.yul\":4178:4196   */\n      0xffffffffffffffff\n        /* \"#utility.yul\":4219:4221   */\n      dup1\n        /* \"#utility.yul\":4211:4217   */\n      dup3\n        /* \"#utility.yul\":4208:4222   */\n      gt\n        /* \"#utility.yul\":4205:4239   */\n      iszero\n      tag_172\n      jumpi\n        /* \"#utility.yul\":4235:4236   */\n      0x00\n        /* \"#utility.yul\":4232:4233   */\n      dup1\n        /* \"#utility.yul\":4225:4237   */\n      revert\n        /* \"#utility.yul\":4205:4239   */\n    tag_172:\n        /* \"#utility.yul\":4258:4308   */\n      tag_173\n        /* \"#utility.yul\":4300:4307   */\n      dup12\n        /* \"#utility.yul\":4291:4297   */\n      dup4\n        /* \"#utility.yul\":4280:4289   */\n      dup13\n        /* \"#utility.yul\":4276:4298   */\n      add\n        /* \"#utility.yul\":4258:4308   */\n      tag_139\n      jump\t// in\n    tag_173:\n        /* \"#utility.yul\":4248:4308   */\n      swap9\n      pop\n        /* \"#utility.yul\":4361:4363   */\n      0x20\n        /* \"#utility.yul\":4350:4359   */\n      dup11\n        /* \"#utility.yul\":4346:4364   */\n      add\n        /* \"#utility.yul\":4333:4365   */\n      calldataload\n        /* \"#utility.yul\":4317:4365   */\n      swap2\n      pop\n        /* \"#utility.yul\":4390:4392   */\n      dup1\n        /* \"#utility.yul\":4380:4388   */\n      dup3\n        /* \"#utility.yul\":4377:4393   */\n      gt\n        /* \"#utility.yul\":4374:4410   */\n      iszero\n      tag_174\n      jumpi\n        /* \"#utility.yul\":4406:4407   */\n      0x00\n        /* \"#utility.yul\":4403:4404   */\n      dup1\n        /* \"#utility.yul\":4396:4408   */\n      revert\n        /* \"#utility.yul\":4374:4410   */\n    tag_174:\n        /* \"#utility.yul\":4429:4481   */\n      tag_175\n        /* \"#utility.yul\":4473:4480   */\n      dup12\n        /* \"#utility.yul\":4462:4470   */\n      dup4\n        /* \"#utility.yul\":4451:4460   */\n      dup13\n        /* \"#utility.yul\":4447:4471   */\n      add\n        /* \"#utility.yul\":4429:4481   */\n      tag_139\n      jump\t// in\n    tag_175:\n        /* \"#utility.yul\":4419:4481   */\n      swap8\n      pop\n        /* \"#utility.yul\":4500:4544   */\n      tag_176\n        /* \"#utility.yul\":4540:4542   */\n      0x40\n        /* \"#utility.yul\":4529:4538   */\n      dup12\n        /* \"#utility.yul\":4525:4543   */\n      add\n        /* \"#utility.yul\":4500:4544   */\n      tag_140\n      jump\t// in\n    tag_176:\n        /* \"#utility.yul\":4490:4544   */\n      swap7\n      pop\n        /* \"#utility.yul\":4597:4599   */\n      0x60\n        /* \"#utility.yul\":4586:4595   */\n      dup11\n        /* \"#utility.yul\":4582:4600   */\n      add\n        /* \"#utility.yul\":4569:4601   */\n      calldataload\n        /* \"#utility.yul\":4553:4601   */\n      swap2\n      pop\n        /* \"#utility.yul\":4626:4628   */\n      dup1\n        /* \"#utility.yul\":4616:4624   */\n      dup3\n        /* \"#utility.yul\":4613:4629   */\n      gt\n        /* \"#utility.yul\":4610:4646   */\n      iszero\n      tag_177\n      jumpi\n        /* \"#utility.yul\":4642:4643   */\n      0x00\n        /* \"#utility.yul\":4639:4640   */\n      dup1\n        /* \"#utility.yul\":4632:4644   */\n      revert\n        /* \"#utility.yul\":4610:4646   */\n    tag_177:\n        /* \"#utility.yul\":4665:4717   */\n      tag_178\n        /* \"#utility.yul\":4709:4716   */\n      dup12\n        /* \"#utility.yul\":4698:4706   */\n      dup4\n        /* \"#utility.yul\":4687:4696   */\n      dup13\n        /* \"#utility.yul\":4683:4707   */\n      add\n        /* \"#utility.yul\":4665:4717   */\n      tag_139\n      jump\t// in\n    tag_178:\n        /* \"#utility.yul\":4655:4717   */\n      swap6\n      pop\n        /* \"#utility.yul\":4764:4767   */\n      0x80\n        /* \"#utility.yul\":4753:4762   */\n      dup11\n        /* \"#utility.yul\":4749:4768   */\n      add\n        /* \"#utility.yul\":4736:4769   */\n      calldataload\n        /* \"#utility.yul\":4726:4769   */\n      swap5\n      pop\n        /* \"#utility.yul\":4822:4825   */\n      0xa0\n        /* \"#utility.yul\":4811:4820   */\n      dup11\n        /* \"#utility.yul\":4807:4826   */\n      add\n        /* \"#utility.yul\":4794:4827   */\n      calldataload\n        /* \"#utility.yul\":4778:4827   */\n      swap2\n      pop\n        /* \"#utility.yul\":4852:4854   */\n      dup1\n        /* \"#utility.yul\":4842:4850   */\n      dup3\n        /* \"#utility.yul\":4839:4855   */\n      gt\n        /* \"#utility.yul\":4836:4872   */\n      iszero\n      tag_179\n      jumpi\n        /* \"#utility.yul\":4868:4869   */\n      0x00\n        /* \"#utility.yul\":4865:4866   */\n      dup1\n        /* \"#utility.yul\":4858:4870   */\n      revert\n        /* \"#utility.yul\":4836:4872   */\n    tag_179:\n        /* \"#utility.yul\":4891:4943   */\n      tag_180\n        /* \"#utility.yul\":4935:4942   */\n      dup12\n        /* \"#utility.yul\":4924:4932   */\n      dup4\n        /* \"#utility.yul\":4913:4922   */\n      dup13\n        /* \"#utility.yul\":4909:4933   */\n      add\n        /* \"#utility.yul\":4891:4943   */\n      tag_139\n      jump\t// in\n    tag_180:\n        /* \"#utility.yul\":4881:4943   */\n      swap4\n      pop\n        /* \"#utility.yul\":4996:4999   */\n      0xc0\n        /* \"#utility.yul\":4985:4994   */\n      dup11\n        /* \"#utility.yul\":4981:5000   */\n      add\n        /* \"#utility.yul\":4968:5001   */\n      calldataload\n        /* \"#utility.yul\":4952:5001   */\n      swap2\n      pop\n        /* \"#utility.yul\":5026:5028   */\n      dup1\n        /* \"#utility.yul\":5016:5024   */\n      dup3\n        /* \"#utility.yul\":5013:5029   */\n      gt\n        /* \"#utility.yul\":5010:5046   */\n      iszero\n      tag_181\n      jumpi\n        /* \"#utility.yul\":5042:5043   */\n      0x00\n        /* \"#utility.yul\":5039:5040   */\n      dup1\n        /* \"#utility.yul\":5032:5044   */\n      revert\n        /* \"#utility.yul\":5010:5046   */\n    tag_181:\n      pop\n        /* \"#utility.yul\":5065:5117   */\n      tag_182\n        /* \"#utility.yul\":5109:5116   */\n      dup11\n        /* \"#utility.yul\":5098:5106   */\n      dup3\n        /* \"#utility.yul\":5087:5096   */\n      dup12\n        /* \"#utility.yul\":5083:5107   */\n      add\n        /* \"#utility.yul\":5065:5117   */\n      tag_139\n      jump\t// in\n    tag_182:\n        /* \"#utility.yul\":5055:5117   */\n      swap2\n      pop\n      pop\n        /* \"#utility.yul\":3815:5123   */\n      swap3\n      swap6\n      swap9\n      swap2\n      swap5\n      swap8\n      pop\n      swap3\n      swap6\n      pop\n      jump\t// out\n        /* \"#utility.yul\":5128:6532   */\n    tag_29:\n        /* \"#utility.yul\":5301:5303   */\n      0x20\n        /* \"#utility.yul\":5290:5299   */\n      dup2\n        /* \"#utility.yul\":5283:5304   */\n      mstore\n        /* \"#utility.yul\":5346:5352   */\n      dup2\n        /* \"#utility.yul\":5340:5353   */\n      mload\n        /* \"#utility.yul\":5335:5337   */\n      0x20\n        /* \"#utility.yul\":5324:5333   */\n      dup3\n        /* \"#utility.yul\":5320:5338   */\n      add\n        /* \"#utility.yul\":5313:5354   */\n      mstore\n        /* \"#utility.yul\":5264:5268   */\n      0x00\n        /* \"#utility.yul\":5401:5403   */\n      0x20\n        /* \"#utility.yul\":5393:5399   */\n      dup4\n        /* \"#utility.yul\":5389:5404   */\n      add\n        /* \"#utility.yul\":5383:5405   */\n      mload\n        /* \"#utility.yul\":5424:5430   */\n      0x0120\n        /* \"#utility.yul\":5466:5468   */\n      dup1\n        /* \"#utility.yul\":5461:5463   */\n      0x40\n        /* \"#utility.yul\":5450:5459   */\n      dup6\n        /* \"#utility.yul\":5446:5464   */\n      add\n        /* \"#utility.yul\":5439:5469   */\n      mstore\n        /* \"#utility.yul\":5492:5544   */\n      tag_184\n        /* \"#utility.yul\":5539:5542   */\n      0x0140\n        /* \"#utility.yul\":5528:5537   */\n      dup6\n        /* \"#utility.yul\":5524:5543   */\n      add\n        /* \"#utility.yul\":5510:5522   */\n      dup4\n        /* \"#utility.yul\":5492:5544   */\n      tag_135\n      jump\t// in\n    tag_184:\n        /* \"#utility.yul\":5478:5544   */\n      swap2\n      pop\n        /* \"#utility.yul\":5593:5595   */\n      0x40\n        /* \"#utility.yul\":5585:5591   */\n      dup6\n        /* \"#utility.yul\":5581:5596   */\n      add\n        /* \"#utility.yul\":5575:5597   */\n      mload\n        /* \"#utility.yul\":5620:5622   */\n      0x1f\n        /* \"#utility.yul\":5616:5623   */\n      not\n        /* \"#utility.yul\":5687:5689   */\n      dup1\n        /* \"#utility.yul\":5675:5684   */\n      dup7\n        /* \"#utility.yul\":5667:5673   */\n      dup6\n        /* \"#utility.yul\":5663:5685   */\n      sub\n        /* \"#utility.yul\":5659:5690   */\n      add\n        /* \"#utility.yul\":5654:5656   */\n      0x60\n        /* \"#utility.yul\":5643:5652   */\n      dup8\n        /* \"#utility.yul\":5639:5657   */\n      add\n        /* \"#utility.yul\":5632:5691   */\n      mstore\n        /* \"#utility.yul\":5714:5755   */\n      tag_185\n        /* \"#utility.yul\":5748:5754   */\n      dup5\n        /* \"#utility.yul\":5732:5746   */\n      dup4\n        /* \"#utility.yul\":5714:5755   */\n      tag_135\n      jump\t// in\n    tag_185:\n        /* \"#utility.yul\":5700:5755   */\n      swap4\n      pop\n        /* \"#utility.yul\":5804:5806   */\n      0x60\n        /* \"#utility.yul\":5796:5802   */\n      dup8\n        /* \"#utility.yul\":5792:5807   */\n      add\n        /* \"#utility.yul\":5786:5808   */\n      mload\n        /* \"#utility.yul\":5764:5808   */\n      swap2\n      pop\n        /* \"#utility.yul\":5817:5878   */\n      tag_186\n        /* \"#utility.yul\":5873:5876   */\n      0x80\n        /* \"#utility.yul\":5862:5871   */\n      dup8\n        /* \"#utility.yul\":5858:5877   */\n      add\n        /* \"#utility.yul\":5842:5856   */\n      dup4\n        /* \"#utility.yul\":5817:5878   */\n      tag_137\n      jump\t// in\n    tag_186:\n        /* \"#utility.yul\":5927:5930   */\n      0x80\n        /* \"#utility.yul\":5915:5931   */\n      dup8\n      add\n        /* \"#utility.yul\":5909:5932   */\n      mload\n      sub(shl(0xa0, 0x01), 0x01)\n        /* \"#utility.yul\":559:613   */\n      dup2\n      and\n        /* \"#utility.yul\":5991:5994   */\n      0xa0\n        /* \"#utility.yul\":5976:5995   */\n      dup9\n      add\n        /* \"#utility.yul\":547:614   */\n      mstore\n        /* \"#utility.yul\":5909:5932   */\n      swap2\n      pop\n        /* \"#utility.yul\":6051:6054   */\n      0xa0\n        /* \"#utility.yul\":6043:6049   */\n      dup8\n        /* \"#utility.yul\":6039:6055   */\n      add\n        /* \"#utility.yul\":6033:6056   */\n      mload\n        /* \"#utility.yul\":6027:6030   */\n      0xc0\n        /* \"#utility.yul\":6016:6025   */\n      dup8\n        /* \"#utility.yul\":6012:6031   */\n      add\n        /* \"#utility.yul\":6005:6057   */\n      mstore\n        /* \"#utility.yul\":6106:6109   */\n      0xc0\n        /* \"#utility.yul\":6098:6104   */\n      dup8\n        /* \"#utility.yul\":6094:6110   */\n      add\n        /* \"#utility.yul\":6088:6111   */\n      mload\n        /* \"#utility.yul\":6066:6111   */\n      swap2\n      pop\n        /* \"#utility.yul\":6176:6178   */\n      dup1\n        /* \"#utility.yul\":6164:6173   */\n      dup7\n        /* \"#utility.yul\":6156:6162   */\n      dup6\n        /* \"#utility.yul\":6152:6174   */\n      sub\n        /* \"#utility.yul\":6148:6179   */\n      add\n        /* \"#utility.yul\":6142:6145   */\n      0xe0\n        /* \"#utility.yul\":6131:6140   */\n      dup8\n        /* \"#utility.yul\":6127:6146   */\n      add\n        /* \"#utility.yul\":6120:6180   */\n      mstore\n        /* \"#utility.yul\":6203:6244   */\n      tag_188\n        /* \"#utility.yul\":6237:6243   */\n      dup5\n        /* \"#utility.yul\":6221:6235   */\n      dup4\n        /* \"#utility.yul\":6203:6244   */\n      tag_135\n      jump\t// in\n    tag_188:\n        /* \"#utility.yul\":6281:6284   */\n      0xe0\n        /* \"#utility.yul\":6269:6285   */\n      dup9\n      add\n        /* \"#utility.yul\":6263:6286   */\n      mload\n        /* \"#utility.yul\":6305:6308   */\n      0x0100\n        /* \"#utility.yul\":6324:6342   */\n      dup9\n      dup2\n      add\n        /* \"#utility.yul\":6317:6347   */\n      swap2\n      swap1\n      swap2\n      mstore\n        /* \"#utility.yul\":6384:6399   */\n      dup9\n      add\n        /* \"#utility.yul\":6378:6400   */\n      mload\n        /* \"#utility.yul\":6440:6462   */\n      dup8\n      dup3\n      sub\n        /* \"#utility.yul\":6436:6467   */\n      swap1\n      swap3\n      add\n        /* \"#utility.yul\":6416:6434   */\n      dup5\n      dup9\n      add\n        /* \"#utility.yul\":6409:6468   */\n      mstore\n        /* \"#utility.yul\":6189:6244   */\n      swap4\n      pop\n        /* \"#utility.yul\":6378:6400   */\n      swap1\n      pop\n        /* \"#utility.yul\":6485:6526   */\n      tag_189\n        /* \"#utility.yul\":6189:6244   */\n      dup4\n        /* \"#utility.yul\":6378:6400   */\n      dup3\n        /* \"#utility.yul\":6485:6526   */\n      tag_135\n      jump\t// in\n    tag_189:\n        /* \"#utility.yul\":6477:6526   */\n      swap7\n        /* \"#utility.yul\":5128:6532   */\n      swap6\n      pop\n      pop\n      pop\n      pop\n      pop\n      pop\n      jump\t// out\n        /* \"#utility.yul\":6537:7250   */\n    tag_34:\n        /* \"#utility.yul\":6710:6712   */\n      0x20\n        /* \"#utility.yul\":6699:6708   */\n      dup2\n        /* \"#utility.yul\":6692:6713   */\n      mstore\n        /* \"#utility.yul\":6755:6761   */\n      dup2\n        /* \"#utility.yul\":6749:6762   */\n      mload\n        /* \"#utility.yul\":6744:6746   */\n      0x20\n        /* \"#utility.yul\":6733:6742   */\n      dup3\n        /* \"#utility.yul\":6729:6747   */\n      add\n        /* \"#utility.yul\":6722:6763   */\n      mstore\n        /* \"#utility.yul\":6817:6819   */\n      0x20\n        /* \"#utility.yul\":6809:6815   */\n      dup3\n        /* \"#utility.yul\":6805:6820   */\n      add\n        /* \"#utility.yul\":6799:6821   */\n      mload\n        /* \"#utility.yul\":6794:6796   */\n      0x40\n        /* \"#utility.yul\":6783:6792   */\n      dup3\n        /* \"#utility.yul\":6779:6797   */\n      add\n        /* \"#utility.yul\":6772:6822   */\n      mstore\n        /* \"#utility.yul\":6876:6878   */\n      0x40\n        /* \"#utility.yul\":6868:6874   */\n      dup3\n        /* \"#utility.yul\":6864:6879   */\n      add\n        /* \"#utility.yul\":6858:6880   */\n      mload\n        /* \"#utility.yul\":6853:6855   */\n      0x60\n        /* \"#utility.yul\":6842:6851   */\n      dup3\n        /* \"#utility.yul\":6838:6856   */\n      add\n        /* \"#utility.yul\":6831:6881   */\n      mstore\n        /* \"#utility.yul\":6673:6677   */\n      0x00\n        /* \"#utility.yul\":6928:6930   */\n      0x60\n        /* \"#utility.yul\":6920:6926   */\n      dup4\n        /* \"#utility.yul\":6916:6931   */\n      add\n        /* \"#utility.yul\":6910:6932   */\n      mload\n        /* \"#utility.yul\":6969:6973   */\n      0xc0\n        /* \"#utility.yul\":6963:6966   */\n      0x80\n        /* \"#utility.yul\":6952:6961   */\n      dup5\n        /* \"#utility.yul\":6948:6967   */\n      add\n        /* \"#utility.yul\":6941:6974   */\n      mstore\n        /* \"#utility.yul\":6997:7049   */\n      tag_191\n        /* \"#utility.yul\":7044:7047   */\n      0xe0\n        /* \"#utility.yul\":7033:7042   */\n      dup5\n        /* \"#utility.yul\":7029:7048   */\n      add\n        /* \"#utility.yul\":7015:7027   */\n      dup3\n        /* \"#utility.yul\":6997:7049   */\n      tag_135\n      jump\t// in\n    tag_191:\n        /* \"#utility.yul\":6983:7049   */\n      swap1\n      pop\n      sub(shl(0xa0, 0x01), 0x01)\n        /* \"#utility.yul\":7108:7111   */\n      0x80\n        /* \"#utility.yul\":7100:7106   */\n      dup6\n        /* \"#utility.yul\":7096:7112   */\n      add\n        /* \"#utility.yul\":7090:7113   */\n      mload\n        /* \"#utility.yul\":7086:7158   */\n      and\n        /* \"#utility.yul\":7080:7083   */\n      0xa0\n        /* \"#utility.yul\":7069:7078   */\n      dup5\n        /* \"#utility.yul\":7065:7084   */\n      add\n        /* \"#utility.yul\":7058:7159   */\n      mstore\n        /* \"#utility.yul\":7215:7218   */\n      0xa0\n        /* \"#utility.yul\":7207:7213   */\n      dup5\n        /* \"#utility.yul\":7203:7219   */\n      add\n        /* \"#utility.yul\":7197:7220   */\n      mload\n        /* \"#utility.yul\":7190:7194   */\n      0xc0\n        /* \"#utility.yul\":7179:7188   */\n      dup5\n        /* \"#utility.yul\":7175:7195   */\n      add\n        /* \"#utility.yul\":7168:7221   */\n      mstore\n        /* \"#utility.yul\":7238:7244   */\n      dup1\n        /* \"#utility.yul\":7230:7244   */\n      swap2\n      pop\n      pop\n        /* \"#utility.yul\":6537:7250   */\n      swap3\n      swap2\n      pop\n      pop\n      jump\t// out\n        /* \"#utility.yul\":7255:7713   */\n    tag_37:\n        /* \"#utility.yul\":7342:7348   */\n      0x00\n        /* \"#utility.yul\":7350:7356   */\n      dup1\n        /* \"#utility.yul\":7358:7364   */\n      0x00\n        /* \"#utility.yul\":7411:7413   */\n      0x60\n        /* \"#utility.yul\":7399:7408   */\n      dup5\n        /* \"#utility.yul\":7390:7397   */\n      dup7\n        /* \"#utility.yul\":7386:7409   */\n      sub\n        /* \"#utility.yul\":7382:7414   */\n      slt\n        /* \"#utility.yul\":7379:7431   */\n      iszero\n      tag_193\n      jumpi\n        /* \"#utility.yul\":7427:7428   */\n      0x00\n        /* \"#utility.yul\":7424:7425   */\n      dup1\n        /* \"#utility.yul\":7417:7429   */\n      revert\n        /* \"#utility.yul\":7379:7431   */\n    tag_193:\n        /* \"#utility.yul\":7463:7472   */\n      dup4\n        /* \"#utility.yul\":7450:7473   */\n      calldataload\n        /* \"#utility.yul\":7440:7473   */\n      swap3\n      pop\n        /* \"#utility.yul\":7520:7522   */\n      0x20\n        /* \"#utility.yul\":7509:7518   */\n      dup5\n        /* \"#utility.yul\":7505:7523   */\n      add\n        /* \"#utility.yul\":7492:7524   */\n      calldataload\n        /* \"#utility.yul\":7482:7524   */\n      swap2\n      pop\n        /* \"#utility.yul\":7575:7577   */\n      0x40\n        /* \"#utility.yul\":7564:7573   */\n      dup5\n        /* \"#utility.yul\":7560:7578   */\n      add\n        /* \"#utility.yul\":7547:7579   */\n      calldataload\n        /* \"#utility.yul\":7602:7620   */\n      0xffffffffffffffff\n        /* \"#utility.yul\":7594:7600   */\n      dup2\n        /* \"#utility.yul\":7591:7621   */\n      gt\n        /* \"#utility.yul\":7588:7638   */\n      iszero\n      tag_194\n      jumpi\n        /* \"#utility.yul\":7634:7635   */\n      0x00\n        /* \"#utility.yul\":7631:7632   */\n      dup1\n        /* \"#utility.yul\":7624:7636   */\n      revert\n        /* \"#utility.yul\":7588:7638   */\n    tag_194:\n        /* \"#utility.yul\":7657:7707   */\n      tag_195\n        /* \"#utility.yul\":7699:7706   */\n      dup7\n        /* \"#utility.yul\":7690:7696   */\n      dup3\n        /* \"#utility.yul\":7679:7688   */\n      dup8\n        /* \"#utility.yul\":7675:7697   */\n      add\n        /* \"#utility.yul\":7657:7707   */\n      tag_139\n      jump\t// in\n    tag_195:\n        /* \"#utility.yul\":7647:7707   */\n      swap2\n      pop\n      pop\n        /* \"#utility.yul\":7255:7713   */\n      swap3\n      pop\n      swap3\n      pop\n      swap3\n      jump\t// out\n        /* \"#utility.yul\":7718:8098   */\n    tag_42:\n        /* \"#utility.yul\":7797:7798   */\n      0x01\n        /* \"#utility.yul\":7793:7805   */\n      dup2\n      dup2\n      shr\n      swap1\n        /* \"#utility.yul\":7840:7852   */\n      dup3\n      and\n      dup1\n        /* \"#utility.yul\":7861:7922   */\n      tag_197\n      jumpi\n        /* \"#utility.yul\":7915:7919   */\n      0x7f\n        /* \"#utility.yul\":7907:7913   */\n      dup3\n        /* \"#utility.yul\":7903:7920   */\n      and\n        /* \"#utility.yul\":7893:7920   */\n      swap2\n      pop\n        /* \"#utility.yul\":7861:7922   */\n    tag_197:\n        /* \"#utility.yul\":7968:7970   */\n      0x20\n        /* \"#utility.yul\":7960:7966   */\n      dup3\n        /* \"#utility.yul\":7957:7971   */\n      lt\n        /* \"#utility.yul\":7937:7955   */\n      dup2\n        /* \"#utility.yul\":7934:7972   */\n      sub\n        /* \"#utility.yul\":7931:8092   */\n      tag_198\n      jumpi\n        /* \"#utility.yul\":8014:8024   */\n      0x4e487b71\n        /* \"#utility.yul\":8009:8012   */\n      0xe0\n        /* \"#utility.yul\":8005:8025   */\n      shl\n        /* \"#utility.yul\":8002:8003   */\n      0x00\n        /* \"#utility.yul\":7995:8026   */\n      mstore\n        /* \"#utility.yul\":8049:8053   */\n      0x22\n        /* \"#utility.yul\":8046:8047   */\n      0x04\n        /* \"#utility.yul\":8039:8054   */\n      mstore\n        /* \"#utility.yul\":8077:8081   */\n      0x24\n        /* \"#utility.yul\":8074:8075   */\n      0x00\n        /* \"#utility.yul\":8067:8082   */\n      revert\n        /* \"#utility.yul\":7931:8092   */\n    tag_198:\n      pop\n        /* \"#utility.yul\":7718:8098   */\n      swap2\n      swap1\n      pop\n      jump\t// out\n        /* \"#utility.yul\":8229:8747   */\n    tag_142:\n        /* \"#utility.yul\":8331:8333   */\n      0x1f\n        /* \"#utility.yul\":8326:8329   */\n      dup3\n        /* \"#utility.yul\":8323:8334   */\n      gt\n        /* \"#utility.yul\":8320:8741   */\n      iszero\n      tag_201\n      jumpi\n        /* \"#utility.yul\":8367:8372   */\n      dup1\n        /* \"#utility.yul\":8364:8365   */\n      0x00\n        /* \"#utility.yul\":8357:8373   */\n      mstore\n        /* \"#utility.yul\":8411:8415   */\n      0x20\n        /* \"#utility.yul\":8408:8409   */\n      0x00\n        /* \"#utility.yul\":8398:8416   */\n      keccak256\n        /* \"#utility.yul\":8481:8483   */\n      0x1f\n        /* \"#utility.yul\":8469:8479   */\n      dup5\n        /* \"#utility.yul\":8465:8484   */\n      add\n        /* \"#utility.yul\":8462:8463   */\n      0x05\n        /* \"#utility.yul\":8458:8485   */\n      shr\n        /* \"#utility.yul\":8452:8456   */\n      dup2\n        /* \"#utility.yul\":8448:8486   */\n      add\n        /* \"#utility.yul\":8517:8521   */\n      0x20\n        /* \"#utility.yul\":8505:8515   */\n      dup6\n        /* \"#utility.yul\":8502:8522   */\n      lt\n        /* \"#utility.yul\":8499:8546   */\n      iszero\n      tag_202\n      jumpi\n      pop\n        /* \"#utility.yul\":8540:8544   */\n      dup1\n        /* \"#utility.yul\":8499:8546   */\n    tag_202:\n        /* \"#utility.yul\":8595:8597   */\n      0x1f\n        /* \"#utility.yul\":8590:8593   */\n      dup5\n        /* \"#utility.yul\":8586:8598   */\n      add\n        /* \"#utility.yul\":8583:8584   */\n      0x05\n        /* \"#utility.yul\":8579:8599   */\n      shr\n        /* \"#utility.yul\":8573:8577   */\n      dup3\n        /* \"#utility.yul\":8569:8600   */\n      add\n        /* \"#utility.yul\":8559:8600   */\n      swap2\n      pop\n        /* \"#utility.yul\":8650:8731   */\n    tag_203:\n        /* \"#utility.yul\":8668:8670   */\n      dup2\n        /* \"#utility.yul\":8661:8666   */\n      dup2\n        /* \"#utility.yul\":8658:8671   */\n      lt\n        /* \"#utility.yul\":8650:8731   */\n      iszero\n      tag_205\n      jumpi\n        /* \"#utility.yul\":8727:8728   */\n      0x00\n        /* \"#utility.yul\":8713:8729   */\n      dup2\n      sstore\n        /* \"#utility.yul\":8694:8695   */\n      0x01\n        /* \"#utility.yul\":8683:8696   */\n      add\n        /* \"#utility.yul\":8650:8731   */\n      jump(tag_203)\n    tag_205:\n        /* \"#utility.yul\":8654:8657   */\n      pop\n      pop\n        /* \"#utility.yul\":8320:8741   */\n    tag_201:\n        /* \"#utility.yul\":8229:8747   */\n      pop\n      pop\n      pop\n      jump\t// out\n        /* \"#utility.yul\":8923:10268   */\n    tag_75:\n        /* \"#utility.yul\":9049:9052   */\n      dup2\n        /* \"#utility.yul\":9043:9053   */\n      mload\n        /* \"#utility.yul\":9076:9094   */\n      0xffffffffffffffff\n        /* \"#utility.yul\":9068:9074   */\n      dup2\n        /* \"#utility.yul\":9065:9095   */\n      gt\n        /* \"#utility.yul\":9062:9118   */\n      iszero\n      tag_209\n      jumpi\n        /* \"#utility.yul\":9098:9116   */\n      tag_209\n      tag_138\n      jump\t// in\n    tag_209:\n        /* \"#utility.yul\":9127:9224   */\n      tag_210\n        /* \"#utility.yul\":9217:9223   */\n      dup2\n        /* \"#utility.yul\":9177:9215   */\n      tag_211\n        /* \"#utility.yul\":9209:9213   */\n      dup5\n        /* \"#utility.yul\":9203:9214   */\n      sload\n        /* \"#utility.yul\":9177:9215   */\n      tag_42\n      jump\t// in\n    tag_211:\n        /* \"#utility.yul\":9171:9175   */\n      dup5\n        /* \"#utility.yul\":9127:9224   */\n      tag_142\n      jump\t// in\n    tag_210:\n        /* \"#utility.yul\":9279:9283   */\n      0x20\n      dup1\n        /* \"#utility.yul\":9336:9338   */\n      0x1f\n        /* \"#utility.yul\":9325:9339   */\n      dup4\n      gt\n        /* \"#utility.yul\":9353:9354   */\n      0x01\n        /* \"#utility.yul\":9348:10011   */\n      dup2\n      eq\n      tag_213\n      jumpi\n        /* \"#utility.yul\":10055:10056   */\n      0x00\n        /* \"#utility.yul\":10072:10078   */\n      dup5\n        /* \"#utility.yul\":10069:10158   */\n      iszero\n      tag_214\n      jumpi\n      pop\n        /* \"#utility.yul\":10124:10143   */\n      dup6\n      dup4\n      add\n        /* \"#utility.yul\":10118:10144   */\n      mload\n        /* \"#utility.yul\":10069:10158   */\n    tag_214:\n      not(0x00)\n        /* \"#utility.yul\":8880:8881   */\n      0x03\n        /* \"#utility.yul\":8876:8887   */\n      dup7\n      swap1\n      shl\n        /* \"#utility.yul\":8872:8896   */\n      shr\n        /* \"#utility.yul\":8868:8897   */\n      not\n        /* \"#utility.yul\":8858:8898   */\n      and\n        /* \"#utility.yul\":8904:8905   */\n      0x01\n        /* \"#utility.yul\":8900:8911   */\n      dup6\n      swap1\n      shl\n        /* \"#utility.yul\":8855:8912   */\n      or\n        /* \"#utility.yul\":10171:10252   */\n      dup6\n      sstore\n        /* \"#utility.yul\":9318:10262   */\n      jump(tag_212)\n        /* \"#utility.yul\":9348:10011   */\n    tag_213:\n        /* \"#utility.yul\":8176:8177   */\n      0x00\n        /* \"#utility.yul\":8169:8183   */\n      dup6\n      dup2\n      mstore\n        /* \"#utility.yul\":8213:8217   */\n      0x20\n        /* \"#utility.yul\":8200:8218   */\n      dup2\n      keccak256\n      not(0x1f)\n        /* \"#utility.yul\":9384:9404   */\n      dup7\n      and\n      swap2\n        /* \"#utility.yul\":9502:9738   */\n    tag_217:\n        /* \"#utility.yul\":9516:9523   */\n      dup3\n        /* \"#utility.yul\":9513:9514   */\n      dup2\n        /* \"#utility.yul\":9510:9524   */\n      lt\n        /* \"#utility.yul\":9502:9738   */\n      iszero\n      tag_219\n      jumpi\n        /* \"#utility.yul\":9605:9624   */\n      dup9\n      dup7\n      add\n        /* \"#utility.yul\":9599:9625   */\n      mload\n        /* \"#utility.yul\":9584:9626   */\n      dup3\n      sstore\n        /* \"#utility.yul\":9697:9724   */\n      swap5\n      dup5\n      add\n      swap5\n        /* \"#utility.yul\":9665:9666   */\n      0x01\n        /* \"#utility.yul\":9653:9667   */\n      swap1\n      swap2\n      add\n      swap1\n        /* \"#utility.yul\":9532:9551   */\n      dup5\n      add\n        /* \"#utility.yul\":9502:9738   */\n      jump(tag_217)\n    tag_219:\n        /* \"#utility.yul\":9506:9509   */\n      pop\n        /* \"#utility.yul\":9766:9772   */\n      dup6\n        /* \"#utility.yul\":9757:9764   */\n      dup3\n        /* \"#utility.yul\":9754:9773   */\n      lt\n        /* \"#utility.yul\":9751:9952   */\n      iszero\n      tag_220\n      jumpi\n        /* \"#utility.yul\":9827:9846   */\n      dup8\n      dup6\n      add\n        /* \"#utility.yul\":9821:9847   */\n      mload\n      not(0x00)\n        /* \"#utility.yul\":9910:9911   */\n      0x03\n        /* \"#utility.yul\":9906:9920   */\n      dup9\n      swap1\n      shl\n        /* \"#utility.yul\":9922:9925   */\n      0xf8\n        /* \"#utility.yul\":9902:9926   */\n      and\n        /* \"#utility.yul\":9898:9935   */\n      shr\n        /* \"#utility.yul\":9894:9936   */\n      not\n        /* \"#utility.yul\":9879:9937   */\n      and\n        /* \"#utility.yul\":9864:9938   */\n      dup2\n      sstore\n        /* \"#utility.yul\":9751:9952   */\n    tag_220:\n      pop\n      pop\n        /* \"#utility.yul\":9998:9999   */\n      0x01\n        /* \"#utility.yul\":9989:9995   */\n      dup5\n        /* \"#utility.yul\":9986:9987   */\n      0x01\n        /* \"#utility.yul\":9982:9996   */\n      shl\n        /* \"#utility.yul\":9978:10000   */\n      add\n        /* \"#utility.yul\":9972:9976   */\n      dup6\n        /* \"#utility.yul\":9965:10001   */\n      sstore\n        /* \"#utility.yul\":9318:10262   */\n    tag_212:\n      pop\n      pop\n      pop\n      pop\n        /* \"#utility.yul\":8923:10268   */\n      pop\n      pop\n      jump\t// out\n        /* \"#utility.yul\":10273:10593   */\n    tag_82:\n        /* \"#utility.yul\":10461:10463   */\n      0x40\n        /* \"#utility.yul\":10450:10459   */\n      dup2\n        /* \"#utility.yul\":10443:10464   */\n      mstore\n        /* \"#utility.yul\":10424:10428   */\n      0x00\n        /* \"#utility.yul\":10481:10526   */\n      tag_222\n        /* \"#utility.yul\":10522:10524   */\n      0x40\n        /* \"#utility.yul\":10511:10520   */\n      dup4\n        /* \"#utility.yul\":10507:10525   */\n      add\n        /* \"#utility.yul\":10499:10505   */\n      dup6\n        /* \"#utility.yul\":10481:10526   */\n      tag_135\n      jump\t// in\n    tag_222:\n        /* \"#utility.yul\":10473:10526   */\n      swap1\n      pop\n        /* \"#utility.yul\":10535:10587   */\n      tag_223\n        /* \"#utility.yul\":10583:10585   */\n      0x20\n        /* \"#utility.yul\":10572:10581   */\n      dup4\n        /* \"#utility.yul\":10568:10586   */\n      add\n        /* \"#utility.yul\":10560:10566   */\n      dup5\n        /* \"#utility.yul\":10535:10587   */\n      tag_137\n      jump\t// in\n    tag_223:\n        /* \"#utility.yul\":10273:10593   */\n      swap4\n      swap3\n      pop\n      pop\n      pop\n      jump\t// out\n        /* \"#utility.yul\":10851:10978   */\n    tag_92:\n        /* \"#utility.yul\":10912:10922   */\n      0x4e487b71\n        /* \"#utility.yul\":10907:10910   */\n      0xe0\n        /* \"#utility.yul\":10903:10923   */\n      shl\n        /* \"#utility.yul\":10900:10901   */\n      0x00\n        /* \"#utility.yul\":10893:10924   */\n      mstore\n        /* \"#utility.yul\":10943:10947   */\n      0x32\n        /* \"#utility.yul\":10940:10941   */\n      0x04\n        /* \"#utility.yul\":10933:10948   */\n      mstore\n        /* \"#utility.yul\":10967:10971   */\n      0x24\n        /* \"#utility.yul\":10964:10965   */\n      0x00\n        /* \"#utility.yul\":10957:10972   */\n      revert\n\n    auxdata: 0xa26469706673582212208711a767e71de99f801935a2cc05db69e3fe16c1e3514bb8078075f8c81ae67164736f6c63430008190033\n}\n",
    "bytecode": {
      "linkReferences": {},
      "object": "608060405234801561000f575f80fd5b506100c96040518060400160405280601181526020017053796e7468657469632042696f6c6f677960781b8152506040518060a0016040528060798152602001611906607991395f6040518060400160405280601f81526020017f62696f6c6f67792c20656e67696e656572696e672c2073796e746865746963008152505f60405180602001604052805f81525060405180604001604052806008815260200167191d5b5b5e50d25160c21b8152506100ce60201b60201c565b610577565b5f808054905090505f6040518061012001604052808381526020018a8152602001898152602001886008811115610107576101076103b4565b815233602080830191909152426040830152606082018990526080820188905260a09091018590528254600181810185555f9485529382902083516008909202019081559082015191929091908201906101619082610460565b50604082015160028201906101769082610460565b50606082015160038201805460ff1916600183600881111561019a5761019a6103b4565b021790555060808201516003820180546001600160a01b0390921661010002610100600160a81b031990921691909117905560a0820151600482015560c082015160058201906101ea9082610460565b5060e08201516006820155610100820151600782019061020a9082610460565b505050336001600160a01b0316817fc6bb7849ef4c87b44dcc20f667654b1b4ea07ebb82fb2373297d9337f4f83ca38a8960405161024992919061051f565b60405180910390a3600180546040805160c08101825282815260208101888152918101858152606082018881523360808401524260a084015284860186555f959095528151600685027fb10e2d527612073b26eecdfd717e6a320cf44b4afac2b0732d9fcbe2b7fa0cf6810191825593517fb10e2d527612073b26eecdfd717e6a320cf44b4afac2b0732d9fcbe2b7fa0cf785015590517fb10e2d527612073b26eecdfd717e6a320cf44b4afac2b0732d9fcbe2b7fa0cf884015593519293909290917fb10e2d527612073b26eecdfd717e6a320cf44b4afac2b0732d9fcbe2b7fa0cf901906103399082610460565b5060808201516004820180546001600160a01b0319166001600160a01b0390921691909117905560a0909101516005909101556040805186815260208101849052339183917f354cb9b915c9f9d75c1b47abf3b3ef0aa8bdbc082fd965c77784f0b625bc08f3910160405180910390a3505050505050505050565b634e487b7160e01b5f52602160045260245ffd5b634e487b7160e01b5f52604160045260245ffd5b600181811c908216806103f057607f821691505b60208210810361040e57634e487b7160e01b5f52602260045260245ffd5b50919050565b601f82111561045b57805f5260205f20601f840160051c810160208510156104395750805b601f840160051c820191505b81811015610458575f8155600101610445565b50505b505050565b81516001600160401b03811115610479576104796103c8565b61048d8161048784546103dc565b84610414565b602080601f8311600181146104c0575f84156104a95750858301515b5f19600386901b1c1916600185901b178555610517565b5f85815260208120601f198616915b828110156104ee578886015182559484019460019091019084016104cf565b508582101561050b57878501515f19600388901b60f8161c191681555b505060018460011b0185555b505050505050565b604081525f83518060408401528060208601606085015e5f606082850101526060601f19601f8301168401019150506009831061056a57634e487b7160e01b5f52602160045260245ffd5b8260208301529392505050565b611382806105845f395ff3fe608060405234801561000f575f80fd5b506004361061006e575f3560e01c80634f0f4aa91161004d5780634f0f4aa9146100dd5780639a914c44146100fd578063c51624821461011d575f80fd5b8062baae78146100725780631c53c280146100a05780632ff666d6146100c8575b5f80fd5b610085610080366004610d78565b610130565b60405161009796959493929190610dbd565b60405180910390f35b6100b36100ae366004610d78565b610207565b60405161009799989796959493929190610e33565b6100db6100d6366004610f71565b610486565b005b6100f06100eb366004610d78565b610790565b6040516100979190611053565b61011061010b366004610d78565b610a74565b604051610097919061111e565b6100db61012b366004611180565b610bac565b6001818154811061013f575f80fd5b905f5260205f2090600602015f91509050805f015490806001015490806002015490806003018054610170906111cc565b80601f016020809104026020016040519081016040528092919081815260200182805461019c906111cc565b80156101e75780601f106101be576101008083540402835291602001916101e7565b820191905f5260205f20905b8154815290600101906020018083116101ca57829003601f168201915b50505050600483015460059093015491926001600160a01b031691905086565b5f8181548110610215575f80fd5b5f9182526020909120600890910201805460018201805491935090610239906111cc565b80601f0160208091040260200160405190810160405280929190818152602001828054610265906111cc565b80156102b05780601f10610287576101008083540402835291602001916102b0565b820191905f5260205f20905b81548152906001019060200180831161029357829003601f168201915b5050505050908060020180546102c5906111cc565b80601f01602080910402602001604051908101604052809291908181526020018280546102f1906111cc565b801561033c5780601f106103135761010080835404028352916020019161033c565b820191905f5260205f20905b81548152906001019060200180831161031f57829003601f168201915b5050505060038301546004840154600585018054949560ff8416956101009094046001600160a01b031694509192610373906111cc565b80601f016020809104026020016040519081016040528092919081815260200182805461039f906111cc565b80156103ea5780601f106103c1576101008083540402835291602001916103ea565b820191905f5260205f20905b8154815290600101906020018083116103cd57829003601f168201915b505050505090806006015490806007018054610405906111cc565b80601f0160208091040260200160405190810160405280929190818152602001828054610431906111cc565b801561047c5780601f106104535761010080835404028352916020019161047c565b820191905f5260205f20905b81548152906001019060200180831161045f57829003601f168201915b5050505050905089565b5f808054905090505f6040518061012001604052808381526020018a81526020018981526020018860088111156104bf576104bf610dff565b815233602080830191909152426040830152606082018990526080820188905260a09091018590528254600181810185555f9485529382902083516008909202019081559082015191929091908201906105199082611250565b506040820151600282019061052e9082611250565b50606082015160038201805460ff1916600183600881111561055257610552610dff565b021790555060808201516003820180546001600160a01b03909216610100027fffffffffffffffffffffff0000000000000000000000000000000000000000ff90921691909117905560a0820151600482015560c082015160058201906105b99082611250565b5060e0820151600682015561010082015160078201906105d99082611250565b505050336001600160a01b0316817fc6bb7849ef4c87b44dcc20f667654b1b4ea07ebb82fb2373297d9337f4f83ca38a89604051610618929190611310565b60405180910390a3600180546040805160c08101825282815260208101888152918101858152606082018881523360808401524260a084015284860186555f959095528151600685027fb10e2d527612073b26eecdfd717e6a320cf44b4afac2b0732d9fcbe2b7fa0cf6810191825593517fb10e2d527612073b26eecdfd717e6a320cf44b4afac2b0732d9fcbe2b7fa0cf785015590517fb10e2d527612073b26eecdfd717e6a320cf44b4afac2b0732d9fcbe2b7fa0cf884015593519293909290917fb10e2d527612073b26eecdfd717e6a320cf44b4afac2b0732d9fcbe2b7fa0cf901906107089082611250565b50608082015160048201805473ffffffffffffffffffffffffffffffffffffffff19166001600160a01b0390921691909117905560a0909101516005909101556040805186815260208101849052339183917f354cb9b915c9f9d75c1b47abf3b3ef0aa8bdbc082fd965c77784f0b625bc08f3910160405180910390a3505050505050505050565b610798610d17565b5f82815481106107aa576107aa611338565b905f5260205f209060080201604051806101200160405290815f82015481526020016001820180546107db906111cc565b80601f0160208091040260200160405190810160405280929190818152602001828054610807906111cc565b80156108525780601f1061082957610100808354040283529160200191610852565b820191905f5260205f20905b81548152906001019060200180831161083557829003601f168201915b5050505050815260200160028201805461086b906111cc565b80601f0160208091040260200160405190810160405280929190818152602001828054610897906111cc565b80156108e25780601f106108b9576101008083540402835291602001916108e2565b820191905f5260205f20905b8154815290600101906020018083116108c557829003601f168201915b5050509183525050600382015460209091019060ff16600881111561090957610909610dff565b600881111561091a5761091a610dff565b8152600382015461010090046001600160a01b0316602082015260048201546040820152600582018054606090920191610953906111cc565b80601f016020809104026020016040519081016040528092919081815260200182805461097f906111cc565b80156109ca5780601f106109a1576101008083540402835291602001916109ca565b820191905f5260205f20905b8154815290600101906020018083116109ad57829003601f168201915b50505050508152602001600682015481526020016007820180546109ed906111cc565b80601f0160208091040260200160405190810160405280929190818152602001828054610a19906111cc565b8015610a645780601f10610a3b57610100808354040283529160200191610a64565b820191905f5260205f20905b815481529060010190602001808311610a4757829003601f168201915b5050505050815250509050919050565b610ab16040518060c001604052805f81526020015f81526020015f8152602001606081526020015f6001600160a01b031681526020015f81525090565b60018281548110610ac457610ac4611338565b905f5260205f2090600602016040518060c00160405290815f82015481526020016001820154815260200160028201548152602001600382018054610b08906111cc565b80601f0160208091040260200160405190810160405280929190818152602001828054610b34906111cc565b8015610b7f5780601f10610b5657610100808354040283529160200191610b7f565b820191905f5260205f20905b815481529060010190602001808311610b6257829003601f168201915b505050918352505060048201546001600160a01b0316602082015260059091015460409091015292915050565b600180546040805160c08101825282815260208101878152918101868152606082018681523360808401524260a084015284860186555f959095528151600685027fb10e2d527612073b26eecdfd717e6a320cf44b4afac2b0732d9fcbe2b7fa0cf6810191825593517fb10e2d527612073b26eecdfd717e6a320cf44b4afac2b0732d9fcbe2b7fa0cf785015590517fb10e2d527612073b26eecdfd717e6a320cf44b4afac2b0732d9fcbe2b7fa0cf884015593519293909290917fb10e2d527612073b26eecdfd717e6a320cf44b4afac2b0732d9fcbe2b7fa0cf90190610c949082611250565b50608082015160048201805473ffffffffffffffffffffffffffffffffffffffff19166001600160a01b0390921691909117905560a0909101516005909101556040805185815260208101859052339183917f354cb9b915c9f9d75c1b47abf3b3ef0aa8bdbc082fd965c77784f0b625bc08f3910160405180910390a350505050565b6040518061012001604052805f815260200160608152602001606081526020015f6008811115610d4957610d49610dff565b81526020015f6001600160a01b031681526020015f8152602001606081526020015f8152602001606081525090565b5f60208284031215610d88575f80fd5b5035919050565b5f81518084528060208401602086015e5f602082860101526020601f19601f83011685010191505092915050565b86815285602082015284604082015260c060608201525f610de160c0830186610d8f565b6001600160a01b039490941660808301525060a00152949350505050565b634e487b7160e01b5f52602160045260245ffd5b60098110610e2f57634e487b7160e01b5f52602160045260245ffd5b9052565b5f6101208b8352806020840152610e4c8184018c610d8f565b90508281036040840152610e60818b610d8f565b9050610e6f606084018a610e13565b6001600160a01b03881660808401528660a084015282810360c0840152610e968187610d8f565b90508460e0840152828103610100840152610eb18185610d8f565b9c9b505050505050505050505050565b634e487b7160e01b5f52604160045260245ffd5b5f82601f830112610ee4575f80fd5b813567ffffffffffffffff80821115610eff57610eff610ec1565b604051601f8301601f19908116603f01168101908282118183101715610f2757610f27610ec1565b81604052838152866020858801011115610f3f575f80fd5b836020870160208301375f602085830101528094505050505092915050565b803560098110610f6c575f80fd5b919050565b5f805f805f805f60e0888a031215610f87575f80fd5b873567ffffffffffffffff80821115610f9e575f80fd5b610faa8b838c01610ed5565b985060208a0135915080821115610fbf575f80fd5b610fcb8b838c01610ed5565b9750610fd960408b01610f5e565b965060608a0135915080821115610fee575f80fd5b610ffa8b838c01610ed5565b955060808a0135945060a08a0135915080821115611016575f80fd5b6110228b838c01610ed5565b935060c08a0135915080821115611037575f80fd5b506110448a828b01610ed5565b91505092959891949750929550565b60208152815160208201525f602083015161012080604085015261107b610140850183610d8f565b91506040850151601f19808685030160608701526110998483610d8f565b9350606087015191506110af6080870183610e13565b60808701516001600160a01b03811660a0880152915060a087015160c087015260c08701519150808685030160e08701526110ea8483610d8f565b60e08801516101008881019190915288015187820390920184880152935090506111148382610d8f565b9695505050505050565b602081528151602082015260208201516040820152604082015160608201525f606083015160c0608084015261115760e0840182610d8f565b90506001600160a01b0360808501511660a084015260a084015160c08401528091505092915050565b5f805f60608486031215611192575f80fd5b8335925060208401359150604084013567ffffffffffffffff8111156111b6575f80fd5b6111c286828701610ed5565b9150509250925092565b600181811c908216806111e057607f821691505b6020821081036111fe57634e487b7160e01b5f52602260045260245ffd5b50919050565b601f82111561124b57805f5260205f20601f840160051c810160208510156112295750805b601f840160051c820191505b81811015611248575f8155600101611235565b50505b505050565b815167ffffffffffffffff81111561126a5761126a610ec1565b61127e8161127884546111cc565b84611204565b602080601f8311600181146112b1575f841561129a5750858301515b5f19600386901b1c1916600185901b178555611308565b5f85815260208120601f198616915b828110156112df578886015182559484019460019091019084016112c0565b50858210156112fc57878501515f19600388901b60f8161c191681555b505060018460011b0185555b505050505050565b604081525f6113226040830185610d8f565b90506113316020830184610e13565b9392505050565b634e487b7160e01b5f52603260045260245ffdfea26469706673582212208711a767e71de99f801935a2cc05db69e3fe16c1e3514bb8078075f8c81ae67164736f6c6343000819003341206469736369706c696e65206272696467696e672062696f6c6f677920616e6420656e67696e656572696e672c2061696d696e6720746f2064657369676e20616e6420636f6e737472756374206e65772062696f6c6f676963616c2070617274732c20646576696365732c20616e642073797374656d732e",
      "opcodes": "PUSH1 0x80 PUSH1 0x40 MSTORE CALLVALUE DUP1 ISZERO PUSH2 0xF JUMPI PUSH0 DUP1 REVERT JUMPDEST POP PUSH2 0xC9 PUSH1 0x40 MLOAD DUP1 PUSH1 0x40 ADD PUSH1 0x40 MSTORE DUP1 PUSH1 0x11 DUP2 MSTORE PUSH1 0x20 ADD PUSH17 0x53796E7468657469632042696F6C6F6779 PUSH1 0x78 SHL DUP2 MSTORE POP PUSH1 0x40 MLOAD DUP1 PUSH1 0xA0 ADD PUSH1 0x40 MSTORE DUP1 PUSH1 0x79 DUP2 MSTORE PUSH1 0x20 ADD PUSH2 0x1906 PUSH1 0x79 SWAP2 CODECOPY PUSH0 PUSH1 0x40 MLOAD DUP1 PUSH1 0x40 ADD PUSH1 0x40 MSTORE DUP1 PUSH1 0x1F DUP2 MSTORE PUSH1 0x20 ADD PUSH32 0x62696F6C6F67792C20656E67696E656572696E672C2073796E74686574696300 DUP2 MSTORE POP PUSH0 PUSH1 0x40 MLOAD DUP1 PUSH1 0x20 ADD PUSH1 0x40 MSTORE DUP1 PUSH0 DUP2 MSTORE POP PUSH1 0x40 MLOAD DUP1 PUSH1 0x40 ADD PUSH1 0x40 MSTORE DUP1 PUSH1 0x8 DUP2 MSTORE PUSH1 0x20 ADD PUSH8 0x191D5B5B5E50D251 PUSH1 0xC2 SHL DUP2 MSTORE POP PUSH2 0xCE PUSH1 0x20 SHL PUSH1 0x20 SHR JUMP JUMPDEST PUSH2 0x577 JUMP JUMPDEST PUSH0 DUP1 DUP1 SLOAD SWAP1 POP SWAP1 POP PUSH0 PUSH1 0x40 MLOAD DUP1 PUSH2 0x120 ADD PUSH1 0x40 MSTORE DUP1 DUP4 DUP2 MSTORE PUSH1 0x20 ADD DUP11 DUP2 MSTORE PUSH1 0x20 ADD DUP10 DUP2 MSTORE PUSH1 0x20 ADD DUP9 PUSH1 0x8 DUP2 GT ISZERO PUSH2 0x107 JUMPI PUSH2 0x107 PUSH2 0x3B4 JUMP JUMPDEST DUP2 MSTORE CALLER PUSH1 0x20 DUP1 DUP4 ADD SWAP2 SWAP1 SWAP2 MSTORE TIMESTAMP PUSH1 0x40 DUP4 ADD MSTORE PUSH1 0x60 DUP3 ADD DUP10 SWAP1 MSTORE PUSH1 0x80 DUP3 ADD DUP9 SWAP1 MSTORE PUSH1 0xA0 SWAP1 SWAP2 ADD DUP6 SWAP1 MSTORE DUP3 SLOAD PUSH1 0x1 DUP2 DUP2 ADD DUP6 SSTORE PUSH0 SWAP5 DUP6 MSTORE SWAP4 DUP3 SWAP1 KECCAK256 DUP4 MLOAD PUSH1 0x8 SWAP1 SWAP3 MUL ADD SWAP1 DUP2 SSTORE SWAP1 DUP3 ADD MLOAD SWAP2 SWAP3 SWAP1 SWAP2 SWAP1 DUP3 ADD SWAP1 PUSH2 0x161 SWAP1 DUP3 PUSH2 0x460 JUMP JUMPDEST POP PUSH1 0x40 DUP3 ADD MLOAD PUSH1 0x2 DUP3 ADD SWAP1 PUSH2 0x176 SWAP1 DUP3 PUSH2 0x460 JUMP JUMPDEST POP PUSH1 0x60 DUP3 ADD MLOAD PUSH1 0x3 DUP3 ADD DUP1 SLOAD PUSH1 0xFF NOT AND PUSH1 0x1 DUP4 PUSH1 0x8 DUP2 GT ISZERO PUSH2 0x19A JUMPI PUSH2 0x19A PUSH2 0x3B4 JUMP JUMPDEST MUL OR SWAP1 SSTORE POP PUSH1 0x80 DUP3 ADD MLOAD PUSH1 0x3 DUP3 ADD DUP1 SLOAD PUSH1 0x1 PUSH1 0x1 PUSH1 0xA0 SHL SUB SWAP1 SWAP3 AND PUSH2 0x100 MUL PUSH2 0x100 PUSH1 0x1 PUSH1 0xA8 SHL SUB NOT SWAP1 SWAP3 AND SWAP2 SWAP1 SWAP2 OR SWAP1 SSTORE PUSH1 0xA0 DUP3 ADD MLOAD PUSH1 0x4 DUP3 ADD SSTORE PUSH1 0xC0 DUP3 ADD MLOAD PUSH1 0x5 DUP3 ADD SWAP1 PUSH2 0x1EA SWAP1 DUP3 PUSH2 0x460 JUMP JUMPDEST POP PUSH1 0xE0 DUP3 ADD MLOAD PUSH1 0x6 DUP3 ADD SSTORE PUSH2 0x100 DUP3 ADD MLOAD PUSH1 0x7 DUP3 ADD SWAP1 PUSH2 0x20A SWAP1 DUP3 PUSH2 0x460 JUMP JUMPDEST POP POP POP CALLER PUSH1 0x1 PUSH1 0x1 PUSH1 0xA0 SHL SUB AND DUP2 PUSH32 0xC6BB7849EF4C87B44DCC20F667654B1B4EA07EBB82FB2373297D9337F4F83CA3 DUP11 DUP10 PUSH1 0x40 MLOAD PUSH2 0x249 SWAP3 SWAP2 SWAP1 PUSH2 0x51F JUMP JUMPDEST PUSH1 0x40 MLOAD DUP1 SWAP2 SUB SWAP1 LOG3 PUSH1 0x1 DUP1 SLOAD PUSH1 0x40 DUP1 MLOAD PUSH1 0xC0 DUP2 ADD DUP3 MSTORE DUP3 DUP2 MSTORE PUSH1 0x20 DUP2 ADD DUP9 DUP2 MSTORE SWAP2 DUP2 ADD DUP6 DUP2 MSTORE PUSH1 0x60 DUP3 ADD DUP9 DUP2 MSTORE CALLER PUSH1 0x80 DUP5 ADD MSTORE TIMESTAMP PUSH1 0xA0 DUP5 ADD MSTORE DUP5 DUP7 ADD DUP7 SSTORE PUSH0 SWAP6 SWAP1 SWAP6 MSTORE DUP2 MLOAD PUSH1 0x6 DUP6 MUL PUSH32 0xB10E2D527612073B26EECDFD717E6A320CF44B4AFAC2B0732D9FCBE2B7FA0CF6 DUP2 ADD SWAP2 DUP3 SSTORE SWAP4 MLOAD PUSH32 0xB10E2D527612073B26EECDFD717E6A320CF44B4AFAC2B0732D9FCBE2B7FA0CF7 DUP6 ADD SSTORE SWAP1 MLOAD PUSH32 0xB10E2D527612073B26EECDFD717E6A320CF44B4AFAC2B0732D9FCBE2B7FA0CF8 DUP5 ADD SSTORE SWAP4 MLOAD SWAP3 SWAP4 SWAP1 SWAP3 SWAP1 SWAP2 PUSH32 0xB10E2D527612073B26EECDFD717E6A320CF44B4AFAC2B0732D9FCBE2B7FA0CF9 ADD SWAP1 PUSH2 0x339 SWAP1 DUP3 PUSH2 0x460 JUMP JUMPDEST POP PUSH1 0x80 DUP3 ADD MLOAD PUSH1 0x4 DUP3 ADD DUP1 SLOAD PUSH1 0x1 PUSH1 0x1 PUSH1 0xA0 SHL SUB NOT AND PUSH1 0x1 PUSH1 0x1 PUSH1 0xA0 SHL SUB SWAP1 SWAP3 AND SWAP2 SWAP1 SWAP2 OR SWAP1 SSTORE PUSH1 0xA0 SWAP1 SWAP2 ADD MLOAD PUSH1 0x5 SWAP1 SWAP2 ADD SSTORE PUSH1 0x40 DUP1 MLOAD DUP7 DUP2 MSTORE PUSH1 0x20 DUP2 ADD DUP5 SWAP1 MSTORE CALLER SWAP2 DUP4 SWAP2 PUSH32 0x354CB9B915C9F9D75C1B47ABF3B3EF0AA8BDBC082FD965C77784F0B625BC08F3 SWAP2 ADD PUSH1 0x40 MLOAD DUP1 SWAP2 SUB SWAP1 LOG3 POP POP POP POP POP POP POP POP POP JUMP JUMPDEST PUSH4 0x4E487B71 PUSH1 0xE0 SHL PUSH0 MSTORE PUSH1 0x21 PUSH1 0x4 MSTORE PUSH1 0x24 PUSH0 REVERT JUMPDEST PUSH4 0x4E487B71 PUSH1 0xE0 SHL PUSH0 MSTORE PUSH1 0x41 PUSH1 0x4 MSTORE PUSH1 0x24 PUSH0 REVERT JUMPDEST PUSH1 0x1 DUP2 DUP2 SHR SWAP1 DUP3 AND DUP1 PUSH2 0x3F0 JUMPI PUSH1 0x7F DUP3 AND SWAP2 POP JUMPDEST PUSH1 0x20 DUP3 LT DUP2 SUB PUSH2 0x40E JUMPI PUSH4 0x4E487B71 PUSH1 0xE0 SHL PUSH0 MSTORE PUSH1 0x22 PUSH1 0x4 MSTORE PUSH1 0x24 PUSH0 REVERT JUMPDEST POP SWAP2 SWAP1 POP JUMP JUMPDEST PUSH1 0x1F DUP3 GT ISZERO PUSH2 0x45B JUMPI DUP1 PUSH0 MSTORE PUSH1 0x20 PUSH0 KECCAK256 PUSH1 0x1F DUP5 ADD PUSH1 0x5 SHR DUP2 ADD PUSH1 0x20 DUP6 LT ISZERO PUSH2 0x439 JUMPI POP DUP1 JUMPDEST PUSH1 0x1F DUP5 ADD PUSH1 0x5 SHR DUP3 ADD SWAP2 POP JUMPDEST DUP2 DUP2 LT ISZERO PUSH2 0x458 JUMPI PUSH0 DUP2 SSTORE PUSH1 0x1 ADD PUSH2 0x445 JUMP JUMPDEST POP POP JUMPDEST POP POP POP JUMP JUMPDEST DUP2 MLOAD PUSH1 0x1 PUSH1 0x1 PUSH1 0x40 SHL SUB DUP2 GT ISZERO PUSH2 0x479 JUMPI PUSH2 0x479 PUSH2 0x3C8 JUMP JUMPDEST PUSH2 0x48D DUP2 PUSH2 0x487 DUP5 SLOAD PUSH2 0x3DC JUMP JUMPDEST DUP5 PUSH2 0x414 JUMP JUMPDEST PUSH1 0x20 DUP1 PUSH1 0x1F DUP4 GT PUSH1 0x1 DUP2 EQ PUSH2 0x4C0 JUMPI PUSH0 DUP5 ISZERO PUSH2 0x4A9 JUMPI POP DUP6 DUP4 ADD MLOAD JUMPDEST PUSH0 NOT PUSH1 0x3 DUP7 SWAP1 SHL SHR NOT AND PUSH1 0x1 DUP6 SWAP1 SHL OR DUP6 SSTORE PUSH2 0x517 JUMP JUMPDEST PUSH0 DUP6 DUP2 MSTORE PUSH1 0x20 DUP2 KECCAK256 PUSH1 0x1F NOT DUP7 AND SWAP2 JUMPDEST DUP3 DUP2 LT ISZERO PUSH2 0x4EE JUMPI DUP9 DUP7 ADD MLOAD DUP3 SSTORE SWAP5 DUP5 ADD SWAP5 PUSH1 0x1 SWAP1 SWAP2 ADD SWAP1 DUP5 ADD PUSH2 0x4CF JUMP JUMPDEST POP DUP6 DUP3 LT ISZERO PUSH2 0x50B JUMPI DUP8 DUP6 ADD MLOAD PUSH0 NOT PUSH1 0x3 DUP9 SWAP1 SHL PUSH1 0xF8 AND SHR NOT AND DUP2 SSTORE JUMPDEST POP POP PUSH1 0x1 DUP5 PUSH1 0x1 SHL ADD DUP6 SSTORE JUMPDEST POP POP POP POP POP POP JUMP JUMPDEST PUSH1 0x40 DUP2 MSTORE PUSH0 DUP4 MLOAD DUP1 PUSH1 0x40 DUP5 ADD MSTORE DUP1 PUSH1 0x20 DUP7 ADD PUSH1 0x60 DUP6 ADD MCOPY PUSH0 PUSH1 0x60 DUP3 DUP6 ADD ADD MSTORE PUSH1 0x60 PUSH1 0x1F NOT PUSH1 0x1F DUP4 ADD AND DUP5 ADD ADD SWAP2 POP POP PUSH1 0x9 DUP4 LT PUSH2 0x56A JUMPI PUSH4 0x4E487B71 PUSH1 0xE0 SHL PUSH0 MSTORE PUSH1 0x21 PUSH1 0x4 MSTORE PUSH1 0x24 PUSH0 REVERT JUMPDEST DUP3 PUSH1 0x20 DUP4 ADD MSTORE SWAP4 SWAP3 POP POP POP JUMP JUMPDEST PUSH2 0x1382 DUP1 PUSH2 0x584 PUSH0 CODECOPY PUSH0 RETURN INVALID PUSH1 0x80 PUSH1 0x40 MSTORE CALLVALUE DUP1 ISZERO PUSH2 0xF JUMPI PUSH0 DUP1 REVERT JUMPDEST POP PUSH1 0x4 CALLDATASIZE LT PUSH2 0x6E JUMPI PUSH0 CALLDATALOAD PUSH1 0xE0 SHR DUP1 PUSH4 0x4F0F4AA9 GT PUSH2 0x4D JUMPI DUP1 PUSH4 0x4F0F4AA9 EQ PUSH2 0xDD JUMPI DUP1 PUSH4 0x9A914C44 EQ PUSH2 0xFD JUMPI DUP1 PUSH4 0xC5162482 EQ PUSH2 0x11D JUMPI PUSH0 DUP1 REVERT JUMPDEST DUP1 PUSH3 0xBAAE78 EQ PUSH2 0x72 JUMPI DUP1 PUSH4 0x1C53C280 EQ PUSH2 0xA0 JUMPI DUP1 PUSH4 0x2FF666D6 EQ PUSH2 0xC8 JUMPI JUMPDEST PUSH0 DUP1 REVERT JUMPDEST PUSH2 0x85 PUSH2 0x80 CALLDATASIZE PUSH1 0x4 PUSH2 0xD78 JUMP JUMPDEST PUSH2 0x130 JUMP JUMPDEST PUSH1 0x40 MLOAD PUSH2 0x97 SWAP7 SWAP6 SWAP5 SWAP4 SWAP3 SWAP2 SWAP1 PUSH2 0xDBD JUMP JUMPDEST PUSH1 0x40 MLOAD DUP1 SWAP2 SUB SWAP1 RETURN JUMPDEST PUSH2 0xB3 PUSH2 0xAE CALLDATASIZE PUSH1 0x4 PUSH2 0xD78 JUMP JUMPDEST PUSH2 0x207 JUMP JUMPDEST PUSH1 0x40 MLOAD PUSH2 0x97 SWAP10 SWAP9 SWAP8 SWAP7 SWAP6 SWAP5 SWAP4 SWAP3 SWAP2 SWAP1 PUSH2 0xE33 JUMP JUMPDEST PUSH2 0xDB PUSH2 0xD6 CALLDATASIZE PUSH1 0x4 PUSH2 0xF71 JUMP JUMPDEST PUSH2 0x486 JUMP JUMPDEST STOP JUMPDEST PUSH2 0xF0 PUSH2 0xEB CALLDATASIZE PUSH1 0x4 PUSH2 0xD78 JUMP JUMPDEST PUSH2 0x790 JUMP JUMPDEST PUSH1 0x40 MLOAD PUSH2 0x97 SWAP2 SWAP1 PUSH2 0x1053 JUMP JUMPDEST PUSH2 0x110 PUSH2 0x10B CALLDATASIZE PUSH1 0x4 PUSH2 0xD78 JUMP JUMPDEST PUSH2 0xA74 JUMP JUMPDEST PUSH1 0x40 MLOAD PUSH2 0x97 SWAP2 SWAP1 PUSH2 0x111E JUMP JUMPDEST PUSH2 0xDB PUSH2 0x12B CALLDATASIZE PUSH1 0x4 PUSH2 0x1180 JUMP JUMPDEST PUSH2 0xBAC JUMP JUMPDEST PUSH1 0x1 DUP2 DUP2 SLOAD DUP2 LT PUSH2 0x13F JUMPI PUSH0 DUP1 REVERT JUMPDEST SWAP1 PUSH0 MSTORE PUSH1 0x20 PUSH0 KECCAK256 SWAP1 PUSH1 0x6 MUL ADD PUSH0 SWAP2 POP SWAP1 POP DUP1 PUSH0 ADD SLOAD SWAP1 DUP1 PUSH1 0x1 ADD SLOAD SWAP1 DUP1 PUSH1 0x2 ADD SLOAD SWAP1 DUP1 PUSH1 0x3 ADD DUP1 SLOAD PUSH2 0x170 SWAP1 PUSH2 0x11CC JUMP JUMPDEST DUP1 PUSH1 0x1F ADD PUSH1 0x20 DUP1 SWAP2 DIV MUL PUSH1 0x20 ADD PUSH1 0x40 MLOAD SWAP1 DUP2 ADD PUSH1 0x40 MSTORE DUP1 SWAP3 SWAP2 SWAP1 DUP2 DUP2 MSTORE PUSH1 0x20 ADD DUP3 DUP1 SLOAD PUSH2 0x19C SWAP1 PUSH2 0x11CC JUMP JUMPDEST DUP1 ISZERO PUSH2 0x1E7 JUMPI DUP1 PUSH1 0x1F LT PUSH2 0x1BE JUMPI PUSH2 0x100 DUP1 DUP4 SLOAD DIV MUL DUP4 MSTORE SWAP2 PUSH1 0x20 ADD SWAP2 PUSH2 0x1E7 JUMP JUMPDEST DUP3 ADD SWAP2 SWAP1 PUSH0 MSTORE PUSH1 0x20 PUSH0 KECCAK256 SWAP1 JUMPDEST DUP2 SLOAD DUP2 MSTORE SWAP1 PUSH1 0x1 ADD SWAP1 PUSH1 0x20 ADD DUP1 DUP4 GT PUSH2 0x1CA JUMPI DUP3 SWAP1 SUB PUSH1 0x1F AND DUP3 ADD SWAP2 JUMPDEST POP POP POP POP PUSH1 0x4 DUP4 ADD SLOAD PUSH1 0x5 SWAP1 SWAP4 ADD SLOAD SWAP2 SWAP3 PUSH1 0x1 PUSH1 0x1 PUSH1 0xA0 SHL SUB AND SWAP2 SWAP1 POP DUP7 JUMP JUMPDEST PUSH0 DUP2 DUP2 SLOAD DUP2 LT PUSH2 0x215 JUMPI PUSH0 DUP1 REVERT JUMPDEST PUSH0 SWAP2 DUP3 MSTORE PUSH1 0x20 SWAP1 SWAP2 KECCAK256 PUSH1 0x8 SWAP1 SWAP2 MUL ADD DUP1 SLOAD PUSH1 0x1 DUP3 ADD DUP1 SLOAD SWAP2 SWAP4 POP SWAP1 PUSH2 0x239 SWAP1 PUSH2 0x11CC JUMP JUMPDEST DUP1 PUSH1 0x1F ADD PUSH1 0x20 DUP1 SWAP2 DIV MUL PUSH1 0x20 ADD PUSH1 0x40 MLOAD SWAP1 DUP2 ADD PUSH1 0x40 MSTORE DUP1 SWAP3 SWAP2 SWAP1 DUP2 DUP2 MSTORE PUSH1 0x20 ADD DUP3 DUP1 SLOAD PUSH2 0x265 SWAP1 PUSH2 0x11CC JUMP JUMPDEST DUP1 ISZERO PUSH2 0x2B0 JUMPI DUP1 PUSH1 0x1F LT PUSH2 0x287 JUMPI PUSH2 0x100 DUP1 DUP4 SLOAD DIV MUL DUP4 MSTORE SWAP2 PUSH1 0x20 ADD SWAP2 PUSH2 0x2B0 JUMP JUMPDEST DUP3 ADD SWAP2 SWAP1 PUSH0 MSTORE PUSH1 0x20 PUSH0 KECCAK256 SWAP1 JUMPDEST DUP2 SLOAD DUP2 MSTORE SWAP1 PUSH1 0x1 ADD SWAP1 PUSH1 0x20 ADD DUP1 DUP4 GT PUSH2 0x293 JUMPI DUP3 SWAP1 SUB PUSH1 0x1F AND DUP3 ADD SWAP2 JUMPDEST POP POP POP POP POP SWAP1 DUP1 PUSH1 0x2 ADD DUP1 SLOAD PUSH2 0x2C5 SWAP1 PUSH2 0x11CC JUMP JUMPDEST DUP1 PUSH1 0x1F ADD PUSH1 0x20 DUP1 SWAP2 DIV MUL PUSH1 0x20 ADD PUSH1 0x40 MLOAD SWAP1 DUP2 ADD PUSH1 0x40 MSTORE DUP1 SWAP3 SWAP2 SWAP1 DUP2 DUP2 MSTORE PUSH1 0x20 ADD DUP3 DUP1 SLOAD PUSH2 0x2F1 SWAP1 PUSH2 0x11CC JUMP JUMPDEST DUP1 ISZERO PUSH2 0x33C JUMPI DUP1 PUSH1 0x1F LT PUSH2 0x313 JUMPI PUSH2 0x100 DUP1 DUP4 SLOAD DIV MUL DUP4 MSTORE SWAP2 PUSH1 0x20 ADD SWAP2 PUSH2 0x33C JUMP JUMPDEST DUP3 ADD SWAP2 SWAP1 PUSH0 MSTORE PUSH1 0x20 PUSH0 KECCAK256 SWAP1 JUMPDEST DUP2 SLOAD DUP2 MSTORE SWAP1 PUSH1 0x1 ADD SWAP1 PUSH1 0x20 ADD DUP1 DUP4 GT PUSH2 0x31F JUMPI DUP3 SWAP1 SUB PUSH1 0x1F AND DUP3 ADD SWAP2 JUMPDEST POP POP POP POP PUSH1 0x3 DUP4 ADD SLOAD PUSH1 0x4 DUP5 ADD SLOAD PUSH1 0x5 DUP6 ADD DUP1 SLOAD SWAP5 SWAP6 PUSH1 0xFF DUP5 AND SWAP6 PUSH2 0x100 SWAP1 SWAP5 DIV PUSH1 0x1 PUSH1 0x1 PUSH1 0xA0 SHL SUB AND SWAP5 POP SWAP2 SWAP3 PUSH2 0x373 SWAP1 PUSH2 0x11CC JUMP JUMPDEST DUP1 PUSH1 0x1F ADD PUSH1 0x20 DUP1 SWAP2 DIV MUL PUSH1 0x20 ADD PUSH1 0x40 MLOAD SWAP1 DUP2 ADD PUSH1 0x40 MSTORE DUP1 SWAP3 SWAP2 SWAP1 DUP2 DUP2 MSTORE PUSH1 0x20 ADD DUP3 DUP1 SLOAD PUSH2 0x39F SWAP1 PUSH2 0x11CC JUMP JUMPDEST DUP1 ISZERO PUSH2 0x3EA JUMPI DUP1 PUSH1 0x1F LT PUSH2 0x3C1 JUMPI PUSH2 0x100 DUP1 DUP4 SLOAD DIV MUL DUP4 MSTORE SWAP2 PUSH1 0x20 ADD SWAP2 PUSH2 0x3EA JUMP JUMPDEST DUP3 ADD SWAP2 SWAP1 PUSH0 MSTORE PUSH1 0x20 PUSH0 KECCAK256 SWAP1 JUMPDEST DUP2 SLOAD DUP2 MSTORE SWAP1 PUSH1 0x1 ADD SWAP1 PUSH1 0x20 ADD DUP1 DUP4 GT PUSH2 0x3CD JUMPI DUP3 SWAP1 SUB PUSH1 0x1F AND DUP3 ADD SWAP2 JUMPDEST POP POP POP POP POP SWAP1 DUP1 PUSH1 0x6 ADD SLOAD SWAP1 DUP1 PUSH1 0x7 ADD DUP1 SLOAD PUSH2 0x405 SWAP1 PUSH2 0x11CC JUMP JUMPDEST DUP1 PUSH1 0x1F ADD PUSH1 0x20 DUP1 SWAP2 DIV MUL PUSH1 0x20 ADD PUSH1 0x40 MLOAD SWAP1 DUP2 ADD PUSH1 0x40 MSTORE DUP1 SWAP3 SWAP2 SWAP1 DUP2 DUP2 MSTORE PUSH1 0x20 ADD DUP3 DUP1 SLOAD PUSH2 0x431 SWAP1 PUSH2 0x11CC JUMP JUMPDEST DUP1 ISZERO PUSH2 0x47C JUMPI DUP1 PUSH1 0x1F LT PUSH2 0x453 JUMPI PUSH2 0x100 DUP1 DUP4 SLOAD DIV MUL DUP4 MSTORE SWAP2 PUSH1 0x20 ADD SWAP2 PUSH2 0x47C JUMP JUMPDEST DUP3 ADD SWAP2 SWAP1 PUSH0 MSTORE PUSH1 0x20 PUSH0 KECCAK256 SWAP1 JUMPDEST DUP2 SLOAD DUP2 MSTORE SWAP1 PUSH1 0x1 ADD SWAP1 PUSH1 0x20 ADD DUP1 DUP4 GT PUSH2 0x45F JUMPI DUP3 SWAP1 SUB PUSH1 0x1F AND DUP3 ADD SWAP2 JUMPDEST POP POP POP POP POP SWAP1 POP DUP10 JUMP JUMPDEST PUSH0 DUP1 DUP1 SLOAD SWAP1 POP SWAP1 POP PUSH0 PUSH1 0x40 MLOAD DUP1 PUSH2 0x120 ADD PUSH1 0x40 MSTORE DUP1 DUP4 DUP2 MSTORE PUSH1 0x20 ADD DUP11 DUP2 MSTORE PUSH1 0x20 ADD DUP10 DUP2 MSTORE PUSH1 0x20 ADD DUP9 PUSH1 0x8 DUP2 GT ISZERO PUSH2 0x4BF JUMPI PUSH2 0x4BF PUSH2 0xDFF JUMP JUMPDEST DUP2 MSTORE CALLER PUSH1 0x20 DUP1 DUP4 ADD SWAP2 SWAP1 SWAP2 MSTORE TIMESTAMP PUSH1 0x40 DUP4 ADD MSTORE PUSH1 0x60 DUP3 ADD DUP10 SWAP1 MSTORE PUSH1 0x80 DUP3 ADD DUP9 SWAP1 MSTORE PUSH1 0xA0 SWAP1 SWAP2 ADD DUP6 SWAP1 MSTORE DUP3 SLOAD PUSH1 0x1 DUP2 DUP2 ADD DUP6 SSTORE PUSH0 SWAP5 DUP6 MSTORE SWAP4 DUP3 SWAP1 KECCAK256 DUP4 MLOAD PUSH1 0x8 SWAP1 SWAP3 MUL ADD SWAP1 DUP2 SSTORE SWAP1 DUP3 ADD MLOAD SWAP2 SWAP3 SWAP1 SWAP2 SWAP1 DUP3 ADD SWAP1 PUSH2 0x519 SWAP1 DUP3 PUSH2 0x1250 JUMP JUMPDEST POP PUSH1 0x40 DUP3 ADD MLOAD PUSH1 0x2 DUP3 ADD SWAP1 PUSH2 0x52E SWAP1 DUP3 PUSH2 0x1250 JUMP JUMPDEST POP PUSH1 0x60 DUP3 ADD MLOAD PUSH1 0x3 DUP3 ADD DUP1 SLOAD PUSH1 0xFF NOT AND PUSH1 0x1 DUP4 PUSH1 0x8 DUP2 GT ISZERO PUSH2 0x552 JUMPI PUSH2 0x552 PUSH2 0xDFF JUMP JUMPDEST MUL OR SWAP1 SSTORE POP PUSH1 0x80 DUP3 ADD MLOAD PUSH1 0x3 DUP3 ADD DUP1 SLOAD PUSH1 0x1 PUSH1 0x1 PUSH1 0xA0 SHL SUB SWAP1 SWAP3 AND PUSH2 0x100 MUL PUSH32 0xFFFFFFFFFFFFFFFFFFFFFF0000000000000000000000000000000000000000FF SWAP1 SWAP3 AND SWAP2 SWAP1 SWAP2 OR SWAP1 SSTORE PUSH1 0xA0 DUP3 ADD MLOAD PUSH1 0x4 DUP3 ADD SSTORE PUSH1 0xC0 DUP3 ADD MLOAD PUSH1 0x5 DUP3 ADD SWAP1 PUSH2 0x5B9 SWAP1 DUP3 PUSH2 0x1250 JUMP JUMPDEST POP PUSH1 0xE0 DUP3 ADD MLOAD PUSH1 0x6 DUP3 ADD SSTORE PUSH2 0x100 DUP3 ADD MLOAD PUSH1 0x7 DUP3 ADD SWAP1 PUSH2 0x5D9 SWAP1 DUP3 PUSH2 0x1250 JUMP JUMPDEST POP POP POP CALLER PUSH1 0x1 PUSH1 0x1 PUSH1 0xA0 SHL SUB AND DUP2 PUSH32 0xC6BB7849EF4C87B44DCC20F667654B1B4EA07EBB82FB2373297D9337F4F83CA3 DUP11 DUP10 PUSH1 0x40 MLOAD PUSH2 0x618 SWAP3 SWAP2 SWAP1 PUSH2 0x1310 JUMP JUMPDEST PUSH1 0x40 MLOAD DUP1 SWAP2 SUB SWAP1 LOG3 PUSH1 0x1 DUP1 SLOAD PUSH1 0x40 DUP1 MLOAD PUSH1 0xC0 DUP2 ADD DUP3 MSTORE DUP3 DUP2 MSTORE PUSH1 0x20 DUP2 ADD DUP9 DUP2 MSTORE SWAP2 DUP2 ADD DUP6 DUP2 MSTORE PUSH1 0x60 DUP3 ADD DUP9 DUP2 MSTORE CALLER PUSH1 0x80 DUP5 ADD MSTORE TIMESTAMP PUSH1 0xA0 DUP5 ADD MSTORE DUP5 DUP7 ADD DUP7 SSTORE PUSH0 SWAP6 SWAP1 SWAP6 MSTORE DUP2 MLOAD PUSH1 0x6 DUP6 MUL PUSH32 0xB10E2D527612073B26EECDFD717E6A320CF44B4AFAC2B0732D9FCBE2B7FA0CF6 DUP2 ADD SWAP2 DUP3 SSTORE SWAP4 MLOAD PUSH32 0xB10E2D527612073B26EECDFD717E6A320CF44B4AFAC2B0732D9FCBE2B7FA0CF7 DUP6 ADD SSTORE SWAP1 MLOAD PUSH32 0xB10E2D527612073B26EECDFD717E6A320CF44B4AFAC2B0732D9FCBE2B7FA0CF8 DUP5 ADD SSTORE SWAP4 MLOAD SWAP3 SWAP4 SWAP1 SWAP3 SWAP1 SWAP2 PUSH32 0xB10E2D527612073B26EECDFD717E6A320CF44B4AFAC2B0732D9FCBE2B7FA0CF9 ADD SWAP1 PUSH2 0x708 SWAP1 DUP3 PUSH2 0x1250 JUMP JUMPDEST POP PUSH1 0x80 DUP3 ADD MLOAD PUSH1 0x4 DUP3 ADD DUP1 SLOAD PUSH20 0xFFFFFFFFFFFFFFFFFFFFFFFFFFFFFFFFFFFFFFFF NOT AND PUSH1 0x1 PUSH1 0x1 PUSH1 0xA0 SHL SUB SWAP1 SWAP3 AND SWAP2 SWAP1 SWAP2 OR SWAP1 SSTORE PUSH1 0xA0 SWAP1 SWAP2 ADD MLOAD PUSH1 0x5 SWAP1 SWAP2 ADD SSTORE PUSH1 0x40 DUP1 MLOAD DUP7 DUP2 MSTORE PUSH1 0x20 DUP2 ADD DUP5 SWAP1 MSTORE CALLER SWAP2 DUP4 SWAP2 PUSH32 0x354CB9B915C9F9D75C1B47ABF3B3EF0AA8BDBC082FD965C77784F0B625BC08F3 SWAP2 ADD PUSH1 0x40 MLOAD DUP1 SWAP2 SUB SWAP1 LOG3 POP POP POP POP POP POP POP POP POP JUMP JUMPDEST PUSH2 0x798 PUSH2 0xD17 JUMP JUMPDEST PUSH0 DUP3 DUP2 SLOAD DUP2 LT PUSH2 0x7AA JUMPI PUSH2 0x7AA PUSH2 0x1338 JUMP JUMPDEST SWAP1 PUSH0 MSTORE PUSH1 0x20 PUSH0 KECCAK256 SWAP1 PUSH1 0x8 MUL ADD PUSH1 0x40 MLOAD DUP1 PUSH2 0x120 ADD PUSH1 0x40 MSTORE SWAP1 DUP2 PUSH0 DUP3 ADD SLOAD DUP2 MSTORE PUSH1 0x20 ADD PUSH1 0x1 DUP3 ADD DUP1 SLOAD PUSH2 0x7DB SWAP1 PUSH2 0x11CC JUMP JUMPDEST DUP1 PUSH1 0x1F ADD PUSH1 0x20 DUP1 SWAP2 DIV MUL PUSH1 0x20 ADD PUSH1 0x40 MLOAD SWAP1 DUP2 ADD PUSH1 0x40 MSTORE DUP1 SWAP3 SWAP2 SWAP1 DUP2 DUP2 MSTORE PUSH1 0x20 ADD DUP3 DUP1 SLOAD PUSH2 0x807 SWAP1 PUSH2 0x11CC JUMP JUMPDEST DUP1 ISZERO PUSH2 0x852 JUMPI DUP1 PUSH1 0x1F LT PUSH2 0x829 JUMPI PUSH2 0x100 DUP1 DUP4 SLOAD DIV MUL DUP4 MSTORE SWAP2 PUSH1 0x20 ADD SWAP2 PUSH2 0x852 JUMP JUMPDEST DUP3 ADD SWAP2 SWAP1 PUSH0 MSTORE PUSH1 0x20 PUSH0 KECCAK256 SWAP1 JUMPDEST DUP2 SLOAD DUP2 MSTORE SWAP1 PUSH1 0x1 ADD SWAP1 PUSH1 0x20 ADD DUP1 DUP4 GT PUSH2 0x835 JUMPI DUP3 SWAP1 SUB PUSH1 0x1F AND DUP3 ADD SWAP2 JUMPDEST POP POP POP POP POP DUP2 MSTORE PUSH1 0x20 ADD PUSH1 0x2 DUP3 ADD DUP1 SLOAD PUSH2 0x86B SWAP1 PUSH2 0x11CC JUMP JUMPDEST DUP1 PUSH1 0x1F ADD PUSH1 0x20 DUP1 SWAP2 DIV MUL PUSH1 0x20 ADD PUSH1 0x40 MLOAD SWAP1 DUP2 ADD PUSH1 0x40 MSTORE DUP1 SWAP3 SWAP2 SWAP1 DUP2 DUP2 MSTORE PUSH1 0x20 ADD DUP3 DUP1 SLOAD PUSH2 0x897 SWAP1 PUSH2 0x11CC JUMP JUMPDEST DUP1 ISZERO PUSH2 0x8E2 JUMPI DUP1 PUSH1 0x1F LT PUSH2 0x8B9 JUMPI PUSH2 0x100 DUP1 DUP4 SLOAD DIV MUL DUP4 MSTORE SWAP2 PUSH1 0x20 ADD SWAP2 PUSH2 0x8E2 JUMP JUMPDEST DUP3 ADD SWAP2 SWAP1 PUSH0 MSTORE PUSH1 0x20 PUSH0 KECCAK256 SWAP1 JUMPDEST DUP2 SLOAD DUP2 MSTORE SWAP1 PUSH1 0x1 ADD SWAP1 PUSH1 0x20 ADD DUP1 DUP4 GT PUSH2 0x8C5 JUMPI DUP3 SWAP1 SUB PUSH1 0x1F AND DUP3 ADD SWAP2 JUMPDEST POP POP POP SWAP2 DUP4 MSTORE POP POP PUSH1 0x3 DUP3 ADD SLOAD PUSH1 0x20 SWAP1 SWAP2 ADD SWAP1 PUSH1 0xFF AND PUSH1 0x8 DUP2 GT ISZERO PUSH2 0x909 JUMPI PUSH2 0x909 PUSH2 0xDFF JUMP JUMPDEST PUSH1 0x8 DUP2 GT ISZERO PUSH2 0x91A JUMPI PUSH2 0x91A PUSH2 0xDFF JUMP JUMPDEST DUP2 MSTORE PUSH1 0x3 DUP3 ADD SLOAD PUSH2 0x100 SWAP1 DIV PUSH1 0x1 PUSH1 0x1 PUSH1 0xA0 SHL SUB AND PUSH1 0x20 DUP3 ADD MSTORE PUSH1 0x4 DUP3 ADD SLOAD PUSH1 0x40 DUP3 ADD MSTORE PUSH1 0x5 DUP3 ADD DUP1 SLOAD PUSH1 0x60 SWAP1 SWAP3 ADD SWAP2 PUSH2 0x953 SWAP1 PUSH2 0x11CC JUMP JUMPDEST DUP1 PUSH1 0x1F ADD PUSH1 0x20 DUP1 SWAP2 DIV MUL PUSH1 0x20 ADD PUSH1 0x40 MLOAD SWAP1 DUP2 ADD PUSH1 0x40 MSTORE DUP1 SWAP3 SWAP2 SWAP1 DUP2 DUP2 MSTORE PUSH1 0x20 ADD DUP3 DUP1 SLOAD PUSH2 0x97F SWAP1 PUSH2 0x11CC JUMP JUMPDEST DUP1 ISZERO PUSH2 0x9CA JUMPI DUP1 PUSH1 0x1F LT PUSH2 0x9A1 JUMPI PUSH2 0x100 DUP1 DUP4 SLOAD DIV MUL DUP4 MSTORE SWAP2 PUSH1 0x20 ADD SWAP2 PUSH2 0x9CA JUMP JUMPDEST DUP3 ADD SWAP2 SWAP1 PUSH0 MSTORE PUSH1 0x20 PUSH0 KECCAK256 SWAP1 JUMPDEST DUP2 SLOAD DUP2 MSTORE SWAP1 PUSH1 0x1 ADD SWAP1 PUSH1 0x20 ADD DUP1 DUP4 GT PUSH2 0x9AD JUMPI DUP3 SWAP1 SUB PUSH1 0x1F AND DUP3 ADD SWAP2 JUMPDEST POP POP POP POP POP DUP2 MSTORE PUSH1 0x20 ADD PUSH1 0x6 DUP3 ADD SLOAD DUP2 MSTORE PUSH1 0x20 ADD PUSH1 0x7 DUP3 ADD DUP1 SLOAD PUSH2 0x9ED SWAP1 PUSH2 0x11CC JUMP JUMPDEST DUP1 PUSH1 0x1F ADD PUSH1 0x20 DUP1 SWAP2 DIV MUL PUSH1 0x20 ADD PUSH1 0x40 MLOAD SWAP1 DUP2 ADD PUSH1 0x40 MSTORE DUP1 SWAP3 SWAP2 SWAP1 DUP2 DUP2 MSTORE PUSH1 0x20 ADD DUP3 DUP1 SLOAD PUSH2 0xA19 SWAP1 PUSH2 0x11CC JUMP JUMPDEST DUP1 ISZERO PUSH2 0xA64 JUMPI DUP1 PUSH1 0x1F LT PUSH2 0xA3B JUMPI PUSH2 0x100 DUP1 DUP4 SLOAD DIV MUL DUP4 MSTORE SWAP2 PUSH1 0x20 ADD SWAP2 PUSH2 0xA64 JUMP JUMPDEST DUP3 ADD SWAP2 SWAP1 PUSH0 MSTORE PUSH1 0x20 PUSH0 KECCAK256 SWAP1 JUMPDEST DUP2 SLOAD DUP2 MSTORE SWAP1 PUSH1 0x1 ADD SWAP1 PUSH1 0x20 ADD DUP1 DUP4 GT PUSH2 0xA47 JUMPI DUP3 SWAP1 SUB PUSH1 0x1F AND DUP3 ADD SWAP2 JUMPDEST POP POP POP POP POP DUP2 MSTORE POP POP SWAP1 POP SWAP2 SWAP1 POP JUMP JUMPDEST PUSH2 0xAB1 PUSH1 0x40 MLOAD DUP1 PUSH1 0xC0 ADD PUSH1 0x40 MSTORE DUP1 PUSH0 DUP2 MSTORE PUSH1 0x20 ADD PUSH0 DUP2 MSTORE PUSH1 0x20 ADD PUSH0 DUP2 MSTORE PUSH1 0x20 ADD PUSH1 0x60 DUP2 MSTORE PUSH1 0x20 ADD PUSH0 PUSH1 0x1 PUSH1 0x1 PUSH1 0xA0 SHL SUB AND DUP2 MSTORE PUSH1 0x20 ADD PUSH0 DUP2 MSTORE POP SWAP1 JUMP JUMPDEST PUSH1 0x1 DUP3 DUP2 SLOAD DUP2 LT PUSH2 0xAC4 JUMPI PUSH2 0xAC4 PUSH2 0x1338 JUMP JUMPDEST SWAP1 PUSH0 MSTORE PUSH1 0x20 PUSH0 KECCAK256 SWAP1 PUSH1 0x6 MUL ADD PUSH1 0x40 MLOAD DUP1 PUSH1 0xC0 ADD PUSH1 0x40 MSTORE SWAP1 DUP2 PUSH0 DUP3 ADD SLOAD DUP2 MSTORE PUSH1 0x20 ADD PUSH1 0x1 DUP3 ADD SLOAD DUP2 MSTORE PUSH1 0x20 ADD PUSH1 0x2 DUP3 ADD SLOAD DUP2 MSTORE PUSH1 0x20 ADD PUSH1 0x3 DUP3 ADD DUP1 SLOAD PUSH2 0xB08 SWAP1 PUSH2 0x11CC JUMP JUMPDEST DUP1 PUSH1 0x1F ADD PUSH1 0x20 DUP1 SWAP2 DIV MUL PUSH1 0x20 ADD PUSH1 0x40 MLOAD SWAP1 DUP2 ADD PUSH1 0x40 MSTORE DUP1 SWAP3 SWAP2 SWAP1 DUP2 DUP2 MSTORE PUSH1 0x20 ADD DUP3 DUP1 SLOAD PUSH2 0xB34 SWAP1 PUSH2 0x11CC JUMP JUMPDEST DUP1 ISZERO PUSH2 0xB7F JUMPI DUP1 PUSH1 0x1F LT PUSH2 0xB56 JUMPI PUSH2 0x100 DUP1 DUP4 SLOAD DIV MUL DUP4 MSTORE SWAP2 PUSH1 0x20 ADD SWAP2 PUSH2 0xB7F JUMP JUMPDEST DUP3 ADD SWAP2 SWAP1 PUSH0 MSTORE PUSH1 0x20 PUSH0 KECCAK256 SWAP1 JUMPDEST DUP2 SLOAD DUP2 MSTORE SWAP1 PUSH1 0x1 ADD SWAP1 PUSH1 0x20 ADD DUP1 DUP4 GT PUSH2 0xB62 JUMPI DUP3 SWAP1 SUB PUSH1 0x1F AND DUP3 ADD SWAP2 JUMPDEST POP POP POP SWAP2 DUP4 MSTORE POP POP PUSH1 0x4 DUP3 ADD SLOAD PUSH1 0x1 PUSH1 0x1 PUSH1 0xA0 SHL SUB AND PUSH1 0x20 DUP3 ADD MSTORE PUSH1 0x5 SWAP1 SWAP2 ADD SLOAD PUSH1 0x40 SWAP1 SWAP2 ADD MSTORE SWAP3 SWAP2 POP POP JUMP JUMPDEST PUSH1 0x1 DUP1 SLOAD PUSH1 0x40 DUP1 MLOAD PUSH1 0xC0 DUP2 ADD DUP3 MSTORE DUP3 DUP2 MSTORE PUSH1 0x20 DUP2 ADD DUP8 DUP2 MSTORE SWAP2 DUP2 ADD DUP7 DUP2 MSTORE PUSH1 0x60 DUP3 ADD DUP7 DUP2 MSTORE CALLER PUSH1 0x80 DUP5 ADD MSTORE TIMESTAMP PUSH1 0xA0 DUP5 ADD MSTORE DUP5 DUP7 ADD DUP7 SSTORE PUSH0 SWAP6 SWAP1 SWAP6 MSTORE DUP2 MLOAD PUSH1 0x6 DUP6 MUL PUSH32 0xB10E2D527612073B26EECDFD717E6A320CF44B4AFAC2B0732D9FCBE2B7FA0CF6 DUP2 ADD SWAP2 DUP3 SSTORE SWAP4 MLOAD PUSH32 0xB10E2D527612073B26EECDFD717E6A320CF44B4AFAC2B0732D9FCBE2B7FA0CF7 DUP6 ADD SSTORE SWAP1 MLOAD PUSH32 0xB10E2D527612073B26EECDFD717E6A320CF44B4AFAC2B0732D9FCBE2B7FA0CF8 DUP5 ADD SSTORE SWAP4 MLOAD SWAP3 SWAP4 SWAP1 SWAP3 SWAP1 SWAP2 PUSH32 0xB10E2D527612073B26EECDFD717E6A320CF44B4AFAC2B0732D9FCBE2B7FA0CF9 ADD SWAP1 PUSH2 0xC94 SWAP1 DUP3 PUSH2 0x1250 JUMP JUMPDEST POP PUSH1 0x80 DUP3 ADD MLOAD PUSH1 0x4 DUP3 ADD DUP1 SLOAD PUSH20 0xFFFFFFFFFFFFFFFFFFFFFFFFFFFFFFFFFFFFFFFF NOT AND PUSH1 0x1 PUSH1 0x1 PUSH1 0xA0 SHL SUB SWAP1 SWAP3 AND SWAP2 SWAP1 SWAP2 OR SWAP1 SSTORE PUSH1 0xA0 SWAP1 SWAP2 ADD MLOAD PUSH1 0x5 SWAP1 SWAP2 ADD SSTORE PUSH1 0x40 DUP1 MLOAD DUP6 DUP2 MSTORE PUSH1 0x20 DUP2 ADD DUP6 SWAP1 MSTORE CALLER SWAP2 DUP4 SWAP2 PUSH32 0x354CB9B915C9F9D75C1B47ABF3B3EF0AA8BDBC082FD965C77784F0B625BC08F3 SWAP2 ADD PUSH1 0x40 MLOAD DUP1 SWAP2 SUB SWAP1 LOG3 POP POP POP POP JUMP JUMPDEST PUSH1 0x40 MLOAD DUP1 PUSH2 0x120 ADD PUSH1 0x40 MSTORE DUP1 PUSH0 DUP2 MSTORE PUSH1 0x20 ADD PUSH1 0x60 DUP2 MSTORE PUSH1 0x20 ADD PUSH1 0x60 DUP2 MSTORE PUSH1 0x20 ADD PUSH0 PUSH1 0x8 DUP2 GT ISZERO PUSH2 0xD49 JUMPI PUSH2 0xD49 PUSH2 0xDFF JUMP JUMPDEST DUP2 MSTORE PUSH1 0x20 ADD PUSH0 PUSH1 0x1 PUSH1 0x1 PUSH1 0xA0 SHL SUB AND DUP2 MSTORE PUSH1 0x20 ADD PUSH0 DUP2 MSTORE PUSH1 0x20 ADD PUSH1 0x60 DUP2 MSTORE PUSH1 0x20 ADD PUSH0 DUP2 MSTORE PUSH1 0x20 ADD PUSH1 0x60 DUP2 MSTORE POP SWAP1 JUMP JUMPDEST PUSH0 PUSH1 0x20 DUP3 DUP5 SUB SLT ISZERO PUSH2 0xD88 JUMPI PUSH0 DUP1 REVERT JUMPDEST POP CALLDATALOAD SWAP2 SWAP1 POP JUMP JUMPDEST PUSH0 DUP2 MLOAD DUP1 DUP5 MSTORE DUP1 PUSH1 0x20 DUP5 ADD PUSH1 0x20 DUP7 ADD MCOPY PUSH0 PUSH1 0x20 DUP3 DUP7 ADD ADD MSTORE PUSH1 0x20 PUSH1 0x1F NOT PUSH1 0x1F DUP4 ADD AND DUP6 ADD ADD SWAP2 POP POP SWAP3 SWAP2 POP POP JUMP JUMPDEST DUP7 DUP2 MSTORE DUP6 PUSH1 0x20 DUP3 ADD MSTORE DUP5 PUSH1 0x40 DUP3 ADD MSTORE PUSH1 0xC0 PUSH1 0x60 DUP3 ADD MSTORE PUSH0 PUSH2 0xDE1 PUSH1 0xC0 DUP4 ADD DUP7 PUSH2 0xD8F JUMP JUMPDEST PUSH1 0x1 PUSH1 0x1 PUSH1 0xA0 SHL SUB SWAP5 SWAP1 SWAP5 AND PUSH1 0x80 DUP4 ADD MSTORE POP PUSH1 0xA0 ADD MSTORE SWAP5 SWAP4 POP POP POP POP JUMP JUMPDEST PUSH4 0x4E487B71 PUSH1 0xE0 SHL PUSH0 MSTORE PUSH1 0x21 PUSH1 0x4 MSTORE PUSH1 0x24 PUSH0 REVERT JUMPDEST PUSH1 0x9 DUP2 LT PUSH2 0xE2F JUMPI PUSH4 0x4E487B71 PUSH1 0xE0 SHL PUSH0 MSTORE PUSH1 0x21 PUSH1 0x4 MSTORE PUSH1 0x24 PUSH0 REVERT JUMPDEST SWAP1 MSTORE JUMP JUMPDEST PUSH0 PUSH2 0x120 DUP12 DUP4 MSTORE DUP1 PUSH1 0x20 DUP5 ADD MSTORE PUSH2 0xE4C DUP2 DUP5 ADD DUP13 PUSH2 0xD8F JUMP JUMPDEST SWAP1 POP DUP3 DUP2 SUB PUSH1 0x40 DUP5 ADD MSTORE PUSH2 0xE60 DUP2 DUP12 PUSH2 0xD8F JUMP JUMPDEST SWAP1 POP PUSH2 0xE6F PUSH1 0x60 DUP5 ADD DUP11 PUSH2 0xE13 JUMP JUMPDEST PUSH1 0x1 PUSH1 0x1 PUSH1 0xA0 SHL SUB DUP9 AND PUSH1 0x80 DUP5 ADD MSTORE DUP7 PUSH1 0xA0 DUP5 ADD MSTORE DUP3 DUP2 SUB PUSH1 0xC0 DUP5 ADD MSTORE PUSH2 0xE96 DUP2 DUP8 PUSH2 0xD8F JUMP JUMPDEST SWAP1 POP DUP5 PUSH1 0xE0 DUP5 ADD MSTORE DUP3 DUP2 SUB PUSH2 0x100 DUP5 ADD MSTORE PUSH2 0xEB1 DUP2 DUP6 PUSH2 0xD8F JUMP JUMPDEST SWAP13 SWAP12 POP POP POP POP POP POP POP POP POP POP POP POP JUMP JUMPDEST PUSH4 0x4E487B71 PUSH1 0xE0 SHL PUSH0 MSTORE PUSH1 0x41 PUSH1 0x4 MSTORE PUSH1 0x24 PUSH0 REVERT JUMPDEST PUSH0 DUP3 PUSH1 0x1F DUP4 ADD SLT PUSH2 0xEE4 JUMPI PUSH0 DUP1 REVERT JUMPDEST DUP2 CALLDATALOAD PUSH8 0xFFFFFFFFFFFFFFFF DUP1 DUP3 GT ISZERO PUSH2 0xEFF JUMPI PUSH2 0xEFF PUSH2 0xEC1 JUMP JUMPDEST PUSH1 0x40 MLOAD PUSH1 0x1F DUP4 ADD PUSH1 0x1F NOT SWAP1 DUP2 AND PUSH1 0x3F ADD AND DUP2 ADD SWAP1 DUP3 DUP3 GT DUP2 DUP4 LT OR ISZERO PUSH2 0xF27 JUMPI PUSH2 0xF27 PUSH2 0xEC1 JUMP JUMPDEST DUP2 PUSH1 0x40 MSTORE DUP4 DUP2 MSTORE DUP7 PUSH1 0x20 DUP6 DUP9 ADD ADD GT ISZERO PUSH2 0xF3F JUMPI PUSH0 DUP1 REVERT JUMPDEST DUP4 PUSH1 0x20 DUP8 ADD PUSH1 0x20 DUP4 ADD CALLDATACOPY PUSH0 PUSH1 0x20 DUP6 DUP4 ADD ADD MSTORE DUP1 SWAP5 POP POP POP POP POP SWAP3 SWAP2 POP POP JUMP JUMPDEST DUP1 CALLDATALOAD PUSH1 0x9 DUP2 LT PUSH2 0xF6C JUMPI PUSH0 DUP1 REVERT JUMPDEST SWAP2 SWAP1 POP JUMP JUMPDEST PUSH0 DUP1 PUSH0 DUP1 PUSH0 DUP1 PUSH0 PUSH1 0xE0 DUP9 DUP11 SUB SLT ISZERO PUSH2 0xF87 JUMPI PUSH0 DUP1 REVERT JUMPDEST DUP8 CALLDATALOAD PUSH8 0xFFFFFFFFFFFFFFFF DUP1 DUP3 GT ISZERO PUSH2 0xF9E JUMPI PUSH0 DUP1 REVERT JUMPDEST PUSH2 0xFAA DUP12 DUP4 DUP13 ADD PUSH2 0xED5 JUMP JUMPDEST SWAP9 POP PUSH1 0x20 DUP11 ADD CALLDATALOAD SWAP2 POP DUP1 DUP3 GT ISZERO PUSH2 0xFBF JUMPI PUSH0 DUP1 REVERT JUMPDEST PUSH2 0xFCB DUP12 DUP4 DUP13 ADD PUSH2 0xED5 JUMP JUMPDEST SWAP8 POP PUSH2 0xFD9 PUSH1 0x40 DUP12 ADD PUSH2 0xF5E JUMP JUMPDEST SWAP7 POP PUSH1 0x60 DUP11 ADD CALLDATALOAD SWAP2 POP DUP1 DUP3 GT ISZERO PUSH2 0xFEE JUMPI PUSH0 DUP1 REVERT JUMPDEST PUSH2 0xFFA DUP12 DUP4 DUP13 ADD PUSH2 0xED5 JUMP JUMPDEST SWAP6 POP PUSH1 0x80 DUP11 ADD CALLDATALOAD SWAP5 POP PUSH1 0xA0 DUP11 ADD CALLDATALOAD SWAP2 POP DUP1 DUP3 GT ISZERO PUSH2 0x1016 JUMPI PUSH0 DUP1 REVERT JUMPDEST PUSH2 0x1022 DUP12 DUP4 DUP13 ADD PUSH2 0xED5 JUMP JUMPDEST SWAP4 POP PUSH1 0xC0 DUP11 ADD CALLDATALOAD SWAP2 POP DUP1 DUP3 GT ISZERO PUSH2 0x1037 JUMPI PUSH0 DUP1 REVERT JUMPDEST POP PUSH2 0x1044 DUP11 DUP3 DUP12 ADD PUSH2 0xED5 JUMP JUMPDEST SWAP2 POP POP SWAP3 SWAP6 SWAP9 SWAP2 SWAP5 SWAP8 POP SWAP3 SWAP6 POP JUMP JUMPDEST PUSH1 0x20 DUP2 MSTORE DUP2 MLOAD PUSH1 0x20 DUP3 ADD MSTORE PUSH0 PUSH1 0x20 DUP4 ADD MLOAD PUSH2 0x120 DUP1 PUSH1 0x40 DUP6 ADD MSTORE PUSH2 0x107B PUSH2 0x140 DUP6 ADD DUP4 PUSH2 0xD8F JUMP JUMPDEST SWAP2 POP PUSH1 0x40 DUP6 ADD MLOAD PUSH1 0x1F NOT DUP1 DUP7 DUP6 SUB ADD PUSH1 0x60 DUP8 ADD MSTORE PUSH2 0x1099 DUP5 DUP4 PUSH2 0xD8F JUMP JUMPDEST SWAP4 POP PUSH1 0x60 DUP8 ADD MLOAD SWAP2 POP PUSH2 0x10AF PUSH1 0x80 DUP8 ADD DUP4 PUSH2 0xE13 JUMP JUMPDEST PUSH1 0x80 DUP8 ADD MLOAD PUSH1 0x1 PUSH1 0x1 PUSH1 0xA0 SHL SUB DUP2 AND PUSH1 0xA0 DUP9 ADD MSTORE SWAP2 POP PUSH1 0xA0 DUP8 ADD MLOAD PUSH1 0xC0 DUP8 ADD MSTORE PUSH1 0xC0 DUP8 ADD MLOAD SWAP2 POP DUP1 DUP7 DUP6 SUB ADD PUSH1 0xE0 DUP8 ADD MSTORE PUSH2 0x10EA DUP5 DUP4 PUSH2 0xD8F JUMP JUMPDEST PUSH1 0xE0 DUP9 ADD MLOAD PUSH2 0x100 DUP9 DUP2 ADD SWAP2 SWAP1 SWAP2 MSTORE DUP9 ADD MLOAD DUP8 DUP3 SUB SWAP1 SWAP3 ADD DUP5 DUP9 ADD MSTORE SWAP4 POP SWAP1 POP PUSH2 0x1114 DUP4 DUP3 PUSH2 0xD8F JUMP JUMPDEST SWAP7 SWAP6 POP POP POP POP POP POP JUMP JUMPDEST PUSH1 0x20 DUP2 MSTORE DUP2 MLOAD PUSH1 0x20 DUP3 ADD MSTORE PUSH1 0x20 DUP3 ADD MLOAD PUSH1 0x40 DUP3 ADD MSTORE PUSH1 0x40 DUP3 ADD MLOAD PUSH1 0x60 DUP3 ADD MSTORE PUSH0 PUSH1 0x60 DUP4 ADD MLOAD PUSH1 0xC0 PUSH1 0x80 DUP5 ADD MSTORE PUSH2 0x1157 PUSH1 0xE0 DUP5 ADD DUP3 PUSH2 0xD8F JUMP JUMPDEST SWAP1 POP PUSH1 0x1 PUSH1 0x1 PUSH1 0xA0 SHL SUB PUSH1 0x80 DUP6 ADD MLOAD AND PUSH1 0xA0 DUP5 ADD MSTORE PUSH1 0xA0 DUP5 ADD MLOAD PUSH1 0xC0 DUP5 ADD MSTORE DUP1 SWAP2 POP POP SWAP3 SWAP2 POP POP JUMP JUMPDEST PUSH0 DUP1 PUSH0 PUSH1 0x60 DUP5 DUP7 SUB SLT ISZERO PUSH2 0x1192 JUMPI PUSH0 DUP1 REVERT JUMPDEST DUP4 CALLDATALOAD SWAP3 POP PUSH1 0x20 DUP5 ADD CALLDATALOAD SWAP2 POP PUSH1 0x40 DUP5 ADD CALLDATALOAD PUSH8 0xFFFFFFFFFFFFFFFF DUP2 GT ISZERO PUSH2 0x11B6 JUMPI PUSH0 DUP1 REVERT JUMPDEST PUSH2 0x11C2 DUP7 DUP3 DUP8 ADD PUSH2 0xED5 JUMP JUMPDEST SWAP2 POP POP SWAP3 POP SWAP3 POP SWAP3 JUMP JUMPDEST PUSH1 0x1 DUP2 DUP2 SHR SWAP1 DUP3 AND DUP1 PUSH2 0x11E0 JUMPI PUSH1 0x7F DUP3 AND SWAP2 POP JUMPDEST PUSH1 0x20 DUP3 LT DUP2 SUB PUSH2 0x11FE JUMPI PUSH4 0x4E487B71 PUSH1 0xE0 SHL PUSH0 MSTORE PUSH1 0x22 PUSH1 0x4 MSTORE PUSH1 0x24 PUSH0 REVERT JUMPDEST POP SWAP2 SWAP1 POP JUMP JUMPDEST PUSH1 0x1F DUP3 GT ISZERO PUSH2 0x124B JUMPI DUP1 PUSH0 MSTORE PUSH1 0x20 PUSH0 KECCAK256 PUSH1 0x1F DUP5 ADD PUSH1 0x5 SHR DUP2 ADD PUSH1 0x20 DUP6 LT ISZERO PUSH2 0x1229 JUMPI POP DUP1 JUMPDEST PUSH1 0x1F DUP5 ADD PUSH1 0x5 SHR DUP3 ADD SWAP2 POP JUMPDEST DUP2 DUP2 LT ISZERO PUSH2 0x1248 JUMPI PUSH0 DUP2 SSTORE PUSH1 0x1 ADD PUSH2 0x1235 JUMP JUMPDEST POP POP JUMPDEST POP POP POP JUMP JUMPDEST DUP2 MLOAD PUSH8 0xFFFFFFFFFFFFFFFF DUP2 GT ISZERO PUSH2 0x126A JUMPI PUSH2 0x126A PUSH2 0xEC1 JUMP JUMPDEST PUSH2 0x127E DUP2 PUSH2 0x1278 DUP5 SLOAD PUSH2 0x11CC JUMP JUMPDEST DUP5 PUSH2 0x1204 JUMP JUMPDEST PUSH1 0x20 DUP1 PUSH1 0x1F DUP4 GT PUSH1 0x1 DUP2 EQ PUSH2 0x12B1 JUMPI PUSH0 DUP5 ISZERO PUSH2 0x129A JUMPI POP DUP6 DUP4 ADD MLOAD JUMPDEST PUSH0 NOT PUSH1 0x3 DUP7 SWAP1 SHL SHR NOT AND PUSH1 0x1 DUP6 SWAP1 SHL OR DUP6 SSTORE PUSH2 0x1308 JUMP JUMPDEST PUSH0 DUP6 DUP2 MSTORE PUSH1 0x20 DUP2 KECCAK256 PUSH1 0x1F NOT DUP7 AND SWAP2 JUMPDEST DUP3 DUP2 LT ISZERO PUSH2 0x12DF JUMPI DUP9 DUP7 ADD MLOAD DUP3 SSTORE SWAP5 DUP5 ADD SWAP5 PUSH1 0x1 SWAP1 SWAP2 ADD SWAP1 DUP5 ADD PUSH2 0x12C0 JUMP JUMPDEST POP DUP6 DUP3 LT ISZERO PUSH2 0x12FC JUMPI DUP8 DUP6 ADD MLOAD PUSH0 NOT PUSH1 0x3 DUP9 SWAP1 SHL PUSH1 0xF8 AND SHR NOT AND DUP2 SSTORE JUMPDEST POP POP PUSH1 0x1 DUP5 PUSH1 0x1 SHL ADD DUP6 SSTORE JUMPDEST POP POP POP POP POP POP JUMP JUMPDEST PUSH1 0x40 DUP2 MSTORE PUSH0 PUSH2 0x1322 PUSH1 0x40 DUP4 ADD DUP6 PUSH2 0xD8F JUMP JUMPDEST SWAP1 POP PUSH2 0x1331 PUSH1 0x20 DUP4 ADD DUP5 PUSH2 0xE13 JUMP JUMPDEST SWAP4 SWAP3 POP POP POP JUMP JUMPDEST PUSH4 0x4E487B71 PUSH1 0xE0 SHL PUSH0 MSTORE PUSH1 0x32 PUSH1 0x4 MSTORE PUSH1 0x24 PUSH0 REVERT INVALID LOG2 PUSH5 0x6970667358 0x22 SLT KECCAK256 DUP8 GT 0xA7 PUSH8 0xE71DE99F801935A2 0xCC SDIV 0xDB PUSH10 0xE3FE16C1E3514BB80780 PUSH22 0xF8C81AE67164736F6C63430008190033412064697363 PUSH10 0x706C696E652062726964 PUSH8 0x696E672062696F6C PUSH16 0x677920616E6420656E67696E65657269 PUSH15 0x672C2061696D696E6720746F206465 PUSH20 0x69676E20616E6420636F6E737472756374206E65 PUSH24 0x2062696F6C6F676963616C2070617274732C206465766963 PUSH6 0x732C20616E64 KECCAK256 PUSH20 0x797374656D732E00000000000000000000000000 "
    },
    "gasEstimates": {
      "creation": {
        "codeDepositCost": "998800",
        "executionCost": "infinite",
        "totalCost": "infinite"
      },
      "external": {
        "addEdge(uint256,uint256,string)": "infinite",
        "addNode(string,string,uint8,string,uint256,string,string)": "infinite",
        "edges(uint256)": "infinite",
        "getEdge(uint256)": "infinite",
        "getNode(uint256)": "infinite",
        "nodes(uint256)": "infinite"
      }
    },
    "methodIdentifiers": {
      "addEdge(uint256,uint256,string)": "c5162482",
      "addNode(string,string,uint8,string,uint256,string,string)": "2ff666d6",
      "edges(uint256)": "00baae78",
      "getEdge(uint256)": "9a914c44",
      "getNode(uint256)": "4f0f4aa9",
      "nodes(uint256)": "1c53c280"
    }
  },
  "storageLayout": {
    "storage": [
      {
        "astId": 1123,
        "contract": "TechTreeCollaborate.sol:TechTree",
        "label": "nodes",
        "offset": 0,
        "slot": "0",
        "type": "t_array(t_struct(Node)1096_storage)dyn_storage"
      },
      {
        "astId": 1127,
        "contract": "TechTreeCollaborate.sol:TechTree",
        "label": "edges",
        "offset": 0,
        "slot": "1",
        "type": "t_array(t_struct(Edge)1109_storage)dyn_storage"
      }
    ],
    "types": {
      "t_address": {
        "encoding": "inplace",
        "label": "address",
        "numberOfBytes": "20"
      },
      "t_array(t_struct(Edge)1109_storage)dyn_storage": {
        "base": "t_struct(Edge)1109_storage",
        "encoding": "dynamic_array",
        "label": "struct TechTree.Edge[]",
        "numberOfBytes": "32"
      },
      "t_array(t_struct(Node)1096_storage)dyn_storage": {
        "base": "t_struct(Node)1096_storage",
        "encoding": "dynamic_array",
        "label": "struct TechTree.Node[]",
        "numberOfBytes": "32"
      },
      "t_enum(NodeType)1119": {
        "encoding": "inplace",
        "label": "enum TechTree.NodeType",
        "numberOfBytes": "1"
      },
      "t_string_storage": {
        "encoding": "bytes",
        "label": "string",
        "numberOfBytes": "32"
      },
      "t_struct(Edge)1109_storage": {
        "encoding": "inplace",
        "label": "struct TechTree.Edge",
        "members": [
          {
            "astId": 1098,
            "contract": "TechTreeCollaborate.sol:TechTree",
            "label": "id",
            "offset": 0,
            "slot": "0",
            "type": "t_uint256"
          },
          {
            "astId": 1100,
            "contract": "TechTreeCollaborate.sol:TechTree",
            "label": "startNodeID",
            "offset": 0,
            "slot": "1",
            "type": "t_uint256"
          },
          {
            "astId": 1102,
            "contract": "TechTreeCollaborate.sol:TechTree",
            "label": "endNodeID",
            "offset": 0,
            "slot": "2",
            "type": "t_uint256"
          },
          {
            "astId": 1104,
            "contract": "TechTreeCollaborate.sol:TechTree",
            "label": "edgeDescription",
            "offset": 0,
            "slot": "3",
            "type": "t_string_storage"
          },
          {
            "astId": 1106,
            "contract": "TechTreeCollaborate.sol:TechTree",
            "label": "creator",
            "offset": 0,
            "slot": "4",
            "type": "t_address"
          },
          {
            "astId": 1108,
            "contract": "TechTreeCollaborate.sol:TechTree",
            "label": "creationTimestamp",
            "offset": 0,
            "slot": "5",
            "type": "t_uint256"
          }
        ],
        "numberOfBytes": "192"
      },
      "t_struct(Node)1096_storage": {
        "encoding": "inplace",
        "label": "struct TechTree.Node",
        "members": [
          {
            "astId": 1078,
            "contract": "TechTreeCollaborate.sol:TechTree",
            "label": "id",
            "offset": 0,
            "slot": "0",
            "type": "t_uint256"
          },
          {
            "astId": 1080,
            "contract": "TechTreeCollaborate.sol:TechTree",
            "label": "nodeTitle",
            "offset": 0,
            "slot": "1",
            "type": "t_string_storage"
          },
          {
            "astId": 1082,
            "contract": "TechTreeCollaborate.sol:TechTree",
            "label": "nodeDescription",
            "offset": 0,
            "slot": "2",
            "type": "t_string_storage"
          },
          {
            "astId": 1085,
            "contract": "TechTreeCollaborate.sol:TechTree",
            "label": "nodeType",
            "offset": 0,
            "slot": "3",
            "type": "t_enum(NodeType)1119"
          },
          {
            "astId": 1087,
            "contract": "TechTreeCollaborate.sol:TechTree",
            "label": "creator",
            "offset": 1,
            "slot": "3",
            "type": "t_address"
          },
          {
            "astId": 1089,
            "contract": "TechTreeCollaborate.sol:TechTree",
            "label": "creationTimestamp",
            "offset": 0,
            "slot": "4",
            "type": "t_uint256"
          },
          {
            "astId": 1091,
            "contract": "TechTreeCollaborate.sol:TechTree",
            "label": "keywords",
            "offset": 0,
            "slot": "5",
            "type": "t_string_storage"
          },
          {
            "astId": 1093,
            "contract": "TechTreeCollaborate.sol:TechTree",
            "label": "parentNodeID",
            "offset": 0,
            "slot": "6",
            "type": "t_uint256"
          },
          {
            "astId": 1095,
            "contract": "TechTreeCollaborate.sol:TechTree",
            "label": "CID",
            "offset": 0,
            "slot": "7",
            "type": "t_string_storage"
          }
        ],
        "numberOfBytes": "256"
      },
      "t_uint256": {
        "encoding": "inplace",
        "label": "uint256",
        "numberOfBytes": "32"
      }
    }
  },
  "userdoc": {
    "kind": "user",
    "methods": {},
    "version": 1
  }
}