{
  "abi": [
    {
      "anonymous": false,
      "inputs": [
        {
          "indexed": true,
          "internalType": "address",
          "name": "user",
          "type": "address"
        },
        {
          "indexed": false,
          "internalType": "uint256",
          "name": "nodeIndex",
          "type": "uint256"
        },
        {
          "indexed": false,
          "internalType": "string",
          "name": "ipfsHash",
          "type": "string"
        },
        {
          "indexed": false,
          "internalType": "uint256",
          "name": "points",
          "type": "uint256"
        }
      ],
      "name": "ContributionAdded",
      "type": "event"
    },
    {
      "anonymous": false,
      "inputs": [
        {
          "indexed": true,
          "internalType": "uint256",
          "name": "nodeIndex",
          "type": "uint256"
        },
        {
          "indexed": false,
          "internalType": "uint256",
          "name": "amount",
          "type": "uint256"
        }
      ],
      "name": "FundsAdded",
      "type": "event"
    },
    {
      "anonymous": false,
      "inputs": [
        {
          "indexed": true,
          "internalType": "uint256",
          "name": "nodeId",
          "type": "uint256"
        },
        {
          "indexed": false,
          "internalType": "string",
          "name": "title",
          "type": "string"
        },
        {
          "indexed": false,
          "internalType": "uint256",
          "name": "points",
          "type": "uint256"
        }
      ],
      "name": "NodeAdded",
      "type": "event"
    },
    {
      "anonymous": false,
      "inputs": [
        {
          "indexed": true,
          "internalType": "uint256",
          "name": "nodeId",
          "type": "uint256"
        }
      ],
      "name": "NodeFinished",
      "type": "event"
    },
    {
      "inputs": [
        {
          "internalType": "uint256",
          "name": "nodeIndex",
          "type": "uint256"
        },
        {
          "internalType": "string",
          "name": "_ipfsHash",
          "type": "string"
        }
      ],
      "name": "addContribution",
      "outputs": [],
      "stateMutability": "nonpayable",
      "type": "function"
    },
    {
      "inputs": [
        {
          "internalType": "uint256",
          "name": "nodeIndex",
          "type": "uint256"
        },
        {
          "internalType": "string",
          "name": "_ipfsHash",
          "type": "string"
        }
      ],
      "name": "addFunds",
      "outputs": [],
      "stateMutability": "payable",
      "type": "function"
    },
    {
      "inputs": [
        {
          "internalType": "string",
          "name": "_title",
          "type": "string"
        },
        {
          "internalType": "string",
          "name": "_ipfsHash",
          "type": "string"
        }
      ],
      "name": "addNode",
      "outputs": [],
      "stateMutability": "nonpayable",
      "type": "function"
    },
    {
      "inputs": [
        {
          "internalType": "uint256",
          "name": "nodeIndex",
          "type": "uint256"
        }
      ],
      "name": "finishNode",
      "outputs": [],
      "stateMutability": "nonpayable",
      "type": "function"
    },
    {
      "inputs": [
        {
          "internalType": "address",
          "name": "_user",
          "type": "address"
        },
        {
          "internalType": "uint256",
          "name": "nodeIndex",
          "type": "uint256"
        }
      ],
      "name": "getLastDripBlock",
      "outputs": [
        {
          "internalType": "uint256",
          "name": "",
          "type": "uint256"
        }
      ],
      "stateMutability": "view",
      "type": "function"
    },
    {
      "inputs": [],
      "name": "getNodesLite",
      "outputs": [
        {
          "components": [
            {
              "internalType": "string",
              "name": "title",
              "type": "string"
            },
            {
              "components": [
                {
                  "internalType": "address",
                  "name": "contributor",
                  "type": "address"
                },
                {
                  "internalType": "string",
                  "name": "ipfsHash",
                  "type": "string"
                }
              ],
              "internalType": "struct Contribution.ContributionDetail[]",
              "name": "contributions",
              "type": "tuple[]"
            },
            {
              "internalType": "uint256",
              "name": "points",
              "type": "uint256"
            },
            {
              "internalType": "address",
              "name": "fundingAddress",
              "type": "address"
            },
            {
              "internalType": "uint256",
              "name": "fundingPool",
              "type": "uint256"
            },
            {
              "internalType": "uint256",
              "name": "creationTime",
              "type": "uint256"
            },
            {
              "internalType": "bool",
              "name": "isFunded",
              "type": "bool"
            },
            {
              "internalType": "bool",
              "name": "isFinished",
              "type": "bool"
            }
          ],
          "internalType": "struct Contribution.NodeLite[]",
          "name": "",
          "type": "tuple[]"
        }
      ],
      "stateMutability": "view",
      "type": "function"
    },
    {
      "inputs": [
        {
          "internalType": "address",
          "name": "_user",
          "type": "address"
        },
        {
          "internalType": "uint256",
          "name": "nodeIndex",
          "type": "uint256"
        }
      ],
      "name": "getUserNodePoints",
      "outputs": [
        {
          "internalType": "uint256",
          "name": "",
          "type": "uint256"
        }
      ],
      "stateMutability": "view",
      "type": "function"
    },
    {
      "inputs": [
        {
          "internalType": "uint256",
          "name": "",
          "type": "uint256"
        }
      ],
      "name": "nodes",
      "outputs": [
        {
          "internalType": "string",
          "name": "title",
          "type": "string"
        },
        {
          "internalType": "uint256",
          "name": "points",
          "type": "uint256"
        },
        {
          "internalType": "address",
          "name": "fundingAddress",
          "type": "address"
        },
        {
          "internalType": "uint256",
          "name": "fundingPool",
          "type": "uint256"
        },
        {
          "internalType": "uint256",
          "name": "creationTime",
          "type": "uint256"
        },
        {
          "internalType": "bool",
          "name": "isFunded",
          "type": "bool"
        },
        {
          "internalType": "bool",
          "name": "isFinished",
          "type": "bool"
        },
        {
          "components": [
            {
              "internalType": "address",
              "name": "funder",
              "type": "address"
            },
            {
              "internalType": "uint256",
              "name": "amount",
              "type": "uint256"
            },
            {
              "internalType": "string",
              "name": "ipfsHash",
              "type": "string"
            }
          ],
          "internalType": "struct Contribution.Funder",
          "name": "funder",
          "type": "tuple"
        },
        {
          "components": [
            {
              "internalType": "address",
              "name": "rpc",
              "type": "address"
            },
            {
              "internalType": "string",
              "name": "ipfsHash",
              "type": "string"
            }
          ],
          "internalType": "struct Contribution.RPC",
          "name": "rpc",
          "type": "tuple"
        }
      ],
      "stateMutability": "view",
      "type": "function"
    },
    {
      "inputs": [
        {
          "internalType": "address",
          "name": "_user",
          "type": "address"
        },
        {
          "internalType": "uint256",
          "name": "nodeIndex",
          "type": "uint256"
        }
      ],
      "name": "updateLastDripBlock",
      "outputs": [],
      "stateMutability": "nonpayable",
      "type": "function"
    },
    {
      "inputs": [
        {
          "internalType": "address",
          "name": "",
          "type": "address"
        },
        {
          "internalType": "uint256",
          "name": "",
          "type": "uint256"
        }
      ],
      "name": "userNodePoints",
      "outputs": [
        {
          "internalType": "uint256",
          "name": "",
          "type": "uint256"
        }
      ],
      "stateMutability": "view",
      "type": "function"
    }
  ],
  "devdoc": {
    "kind": "dev",
    "methods": {},
    "version": 1
  },
  "evm": {
    "assembly": "    /* \"Contributionv2.sol\":57:4857  contract Contribution {... */\n  mstore(0x40, 0x80)\n  callvalue\n  dup1\n  iszero\n  tag_1\n  jumpi\n  0x00\n  dup1\n  revert\ntag_1:\n  pop\n  dataSize(sub_0)\n  dup1\n  dataOffset(sub_0)\n  0x00\n  codecopy\n  0x00\n  return\nstop\n\nsub_0: assembly {\n        /* \"Contributionv2.sol\":57:4857  contract Contribution {... */\n      mstore(0x40, 0x80)\n      jumpi(tag_1, lt(calldatasize, 0x04))\n      shr(0xe0, calldataload(0x00))\n      dup1\n      0x4fa650f1\n      gt\n      tag_12\n      jumpi\n      dup1\n      0xa97a4406\n      gt\n      tag_13\n      jumpi\n      dup1\n      0xa97a4406\n      eq\n      tag_9\n      jumpi\n      dup1\n      0xc8b4d1d6\n      eq\n      tag_10\n      jumpi\n      dup1\n      0xdd1ead00\n      eq\n      tag_11\n      jumpi\n      0x00\n      dup1\n      revert\n    tag_13:\n      dup1\n      0x4fa650f1\n      eq\n      tag_7\n      jumpi\n      dup1\n      0x60d177fe\n      eq\n      tag_8\n      jumpi\n      0x00\n      dup1\n      revert\n    tag_12:\n      dup1\n      0x23995ade\n      gt\n      tag_14\n      jumpi\n      dup1\n      0x23995ade\n      eq\n      tag_4\n      jumpi\n      dup1\n      0x2db00354\n      eq\n      tag_5\n      jumpi\n      dup1\n      0x4a55ef1e\n      eq\n      tag_6\n      jumpi\n      0x00\n      dup1\n      revert\n    tag_14:\n      dup1\n      0x04abc319\n      eq\n      tag_2\n      jumpi\n      dup1\n      0x1c53c280\n      eq\n      tag_3\n      jumpi\n    tag_1:\n      0x00\n      dup1\n      revert\n        /* \"Contributionv2.sol\":4680:4855  function updateLastDripBlock(address _user, uint256 nodeIndex) external {... */\n    tag_2:\n      callvalue\n      dup1\n      iszero\n      tag_15\n      jumpi\n      0x00\n      dup1\n      revert\n    tag_15:\n      pop\n      tag_16\n      tag_17\n      calldatasize\n      0x04\n      tag_18\n      jump\t// in\n    tag_17:\n      tag_19\n      jump\t// in\n    tag_16:\n      stop\n        /* \"Contributionv2.sol\":951:970  Node[] public nodes */\n    tag_3:\n      callvalue\n      dup1\n      iszero\n      tag_20\n      jumpi\n      0x00\n      dup1\n      revert\n    tag_20:\n      pop\n      tag_21\n      tag_22\n      calldatasize\n      0x04\n      tag_23\n      jump\t// in\n    tag_22:\n      tag_24\n      jump\t// in\n    tag_21:\n      mload(0x40)\n      tag_25\n      swap10\n      swap9\n      swap8\n      swap7\n      swap6\n      swap5\n      swap4\n      swap3\n      swap2\n      swap1\n      tag_26\n      jump\t// in\n    tag_25:\n      mload(0x40)\n      dup1\n      swap2\n      sub\n      swap1\n      return\n        /* \"Contributionv2.sol\":4487:4674  function getLastDripBlock(address _user, uint256 nodeIndex) external view returns (uint256) {... */\n    tag_4:\n      callvalue\n      dup1\n      iszero\n      tag_27\n      jumpi\n      0x00\n      dup1\n      revert\n    tag_27:\n      pop\n      tag_28\n      tag_29\n      calldatasize\n      0x04\n      tag_18\n      jump\t// in\n    tag_29:\n      tag_30\n      jump\t// in\n    tag_28:\n      mload(0x40)\n        /* \"#utility.yul\":2890:2915   */\n      swap1\n      dup2\n      mstore\n        /* \"#utility.yul\":2878:2880   */\n      0x20\n        /* \"#utility.yul\":2863:2881   */\n      add\n        /* \"Contributionv2.sol\":4487:4674  function getLastDripBlock(address _user, uint256 nodeIndex) external view returns (uint256) {... */\n      tag_25\n        /* \"#utility.yul\":2744:2921   */\n      jump\n        /* \"Contributionv2.sol\":2586:3307  function addFunds(uint256 nodeIndex, string memory _ipfsHash) public payable {... */\n    tag_5:\n      tag_16\n      tag_34\n      calldatasize\n      0x04\n      tag_35\n      jump\t// in\n    tag_34:\n      tag_36\n      jump\t// in\n        /* \"Contributionv2.sol\":3313:3640  function finishNode(uint256 nodeIndex) public {... */\n    tag_6:\n      callvalue\n      dup1\n      iszero\n      tag_37\n      jumpi\n      0x00\n      dup1\n      revert\n    tag_37:\n      pop\n      tag_16\n      tag_39\n      calldatasize\n      0x04\n      tag_23\n      jump\t// in\n    tag_39:\n      tag_40\n      jump\t// in\n        /* \"Contributionv2.sol\":1946:2580  function addContribution(uint256 nodeIndex, string memory _ipfsHash) public {... */\n    tag_7:\n      callvalue\n      dup1\n      iszero\n      tag_41\n      jumpi\n      0x00\n      dup1\n      revert\n    tag_41:\n      pop\n      tag_16\n      tag_43\n      calldatasize\n      0x04\n      tag_35\n      jump\t// in\n    tag_43:\n      tag_44\n      jump\t// in\n        /* \"Contributionv2.sol\":3646:4326  function getNodesLite() external view returns (NodeLite[] memory) {... */\n    tag_8:\n      callvalue\n      dup1\n      iszero\n      tag_45\n      jumpi\n      0x00\n      dup1\n      revert\n    tag_45:\n      pop\n      tag_46\n      tag_47\n      jump\t// in\n    tag_46:\n      mload(0x40)\n      tag_25\n      swap2\n      swap1\n      tag_49\n      jump\t// in\n        /* \"Contributionv2.sol\":1344:1940  function addNode(string memory _title, string memory _ipfsHash) public {... */\n    tag_9:\n      callvalue\n      dup1\n      iszero\n      tag_50\n      jumpi\n      0x00\n      dup1\n      revert\n    tag_50:\n      pop\n      tag_16\n      tag_52\n      calldatasize\n      0x04\n      tag_53\n      jump\t// in\n    tag_52:\n      tag_54\n      jump\t// in\n        /* \"Contributionv2.sol\":4332:4481  function getUserNodePoints(address _user, uint256 nodeIndex) external view returns (uint256) {... */\n    tag_10:\n      callvalue\n      dup1\n      iszero\n      tag_55\n      jumpi\n      0x00\n      dup1\n      revert\n    tag_55:\n      pop\n      tag_28\n      tag_57\n      calldatasize\n      0x04\n      tag_18\n      jump\t// in\n    tag_57:\n      sub(shl(0xa0, 0x01), 0x01)\n        /* \"Contributionv2.sol\":4442:4463  userNodePoints[_user] */\n      swap2\n      swap1\n      swap2\n      and\n        /* \"Contributionv2.sol\":4416:4423  uint256 */\n      0x00\n        /* \"Contributionv2.sol\":4442:4463  userNodePoints[_user] */\n      swap1\n      dup2\n      mstore\n        /* \"Contributionv2.sol\":4442:4456  userNodePoints */\n      0x01\n        /* \"Contributionv2.sol\":4442:4463  userNodePoints[_user] */\n      0x20\n      swap1\n      dup2\n      mstore\n      0x40\n      dup1\n      dup4\n      keccak256\n        /* \"Contributionv2.sol\":4442:4474  userNodePoints[_user][nodeIndex] */\n      swap4\n      dup4\n      mstore\n      swap3\n      swap1\n      mstore\n      keccak256\n      sload\n      swap1\n        /* \"Contributionv2.sol\":4332:4481  function getUserNodePoints(address _user, uint256 nodeIndex) external view returns (uint256) {... */\n      jump\n        /* \"Contributionv2.sol\":976:1045  mapping(address => mapping(uint256 => uint256)) public userNodePoints */\n    tag_11:\n      callvalue\n      dup1\n      iszero\n      tag_60\n      jumpi\n      0x00\n      dup1\n      revert\n    tag_60:\n      pop\n      tag_28\n      tag_62\n      calldatasize\n      0x04\n      tag_18\n      jump\t// in\n    tag_62:\n      0x01\n      0x20\n      swap1\n      dup2\n      mstore\n      0x00\n      swap3\n      dup4\n      mstore\n      0x40\n      dup1\n      dup5\n      keccak256\n      swap1\n      swap2\n      mstore\n      swap1\n      dup3\n      mstore\n      swap1\n      keccak256\n      sload\n      dup2\n      jump\n        /* \"Contributionv2.sol\":4680:4855  function updateLastDripBlock(address _user, uint256 nodeIndex) external {... */\n    tag_19:\n        /* \"Contributionv2.sol\":4762:4779  Node storage node */\n      0x00\n        /* \"Contributionv2.sol\":4782:4787  nodes */\n      dup1\n        /* \"Contributionv2.sol\":4788:4797  nodeIndex */\n      dup3\n        /* \"Contributionv2.sol\":4782:4798  nodes[nodeIndex] */\n      dup2\n      sload\n      dup2\n      lt\n      tag_67\n      jumpi\n      tag_67\n      tag_68\n      jump\t// in\n    tag_67:\n      0x00\n      swap2\n      dup3\n      mstore\n      0x20\n      dup1\n      dup4\n      keccak256\n      sub(shl(0xa0, 0x01), 0x01)\n        /* \"Contributionv2.sol\":4808:4833  node.lastDripBlock[_user] */\n      swap1\n      swap7\n      and\n      dup4\n      mstore\n        /* \"Contributionv2.sol\":4808:4826  node.lastDripBlock */\n      0x0c\n        /* \"Contributionv2.sol\":4782:4798  nodes[nodeIndex] */\n      0x0d\n      swap1\n      swap3\n      mul\n      swap1\n      swap6\n      add\n        /* \"Contributionv2.sol\":4808:4826  node.lastDripBlock */\n      add\n        /* \"Contributionv2.sol\":4808:4833  node.lastDripBlock[_user] */\n      swap1\n      swap4\n      mstore\n      pop\n      pop\n      0x40\n      swap1\n      keccak256\n        /* \"Contributionv2.sol\":4836:4848  block.number */\n      number\n        /* \"Contributionv2.sol\":4808:4848  node.lastDripBlock[_user] = block.number */\n      swap1\n      sstore\n        /* \"Contributionv2.sol\":4680:4855  function updateLastDripBlock(address _user, uint256 nodeIndex) external {... */\n      jump\t// out\n        /* \"Contributionv2.sol\":951:970  Node[] public nodes */\n    tag_24:\n      0x00\n      dup2\n      dup2\n      sload\n      dup2\n      lt\n      tag_70\n      jumpi\n      0x00\n      dup1\n      revert\n    tag_70:\n      swap1\n      0x00\n      mstore\n      keccak256(0x00, 0x20)\n      swap1\n      0x0d\n      mul\n      add\n      0x00\n      swap2\n      pop\n      swap1\n      pop\n      dup1\n      0x00\n      add\n      dup1\n      sload\n      tag_72\n      swap1\n      tag_73\n      jump\t// in\n    tag_72:\n      dup1\n      0x1f\n      add\n      0x20\n      dup1\n      swap2\n      div\n      mul\n      0x20\n      add\n      mload(0x40)\n      swap1\n      dup2\n      add\n      0x40\n      mstore\n      dup1\n      swap3\n      swap2\n      swap1\n      dup2\n      dup2\n      mstore\n      0x20\n      add\n      dup3\n      dup1\n      sload\n      tag_74\n      swap1\n      tag_73\n      jump\t// in\n    tag_74:\n      dup1\n      iszero\n      tag_75\n      jumpi\n      dup1\n      0x1f\n      lt\n      tag_76\n      jumpi\n      0x0100\n      dup1\n      dup4\n      sload\n      div\n      mul\n      dup4\n      mstore\n      swap2\n      0x20\n      add\n      swap2\n      jump(tag_75)\n    tag_76:\n      dup3\n      add\n      swap2\n      swap1\n      0x00\n      mstore\n      keccak256(0x00, 0x20)\n      swap1\n    tag_77:\n      dup2\n      sload\n      dup2\n      mstore\n      swap1\n      0x01\n      add\n      swap1\n      0x20\n      add\n      dup1\n      dup4\n      gt\n      tag_77\n      jumpi\n      dup3\n      swap1\n      sub\n      0x1f\n      and\n      dup3\n      add\n      swap2\n    tag_75:\n      pop\n      pop\n      pop\n      pop\n      0x02\n      dup4\n      add\n      sload\n      0x03\n      dup5\n      add\n      sload\n      0x04\n      dup6\n      add\n      sload\n      0x05\n      dup7\n      add\n      sload\n      0x06\n      dup8\n      add\n      sload\n      0x40\n      dup1\n      mload\n      0x60\n      dup2\n      add\n      dup3\n      mstore\n      0x07\n      dup11\n      add\n      dup1\n      sload\n      sub(shl(0xa0, 0x01), 0x01)\n      swap1\n      dup2\n      and\n      dup4\n      mstore\n      0x08\n      dup13\n      add\n      sload\n      0x20\n      dup5\n      add\n      mstore\n      0x09\n      dup13\n      add\n      dup1\n      sload\n      swap12\n      swap13\n      swap10\n      swap12\n      swap2\n      swap1\n      swap9\n      and\n      swap10\n      pop\n      swap6\n      swap8\n      swap5\n      swap7\n      0xff\n      dup1\n      dup7\n      and\n      swap8\n      0x0100\n      swap1\n      swap7\n      div\n      and\n      swap6\n      swap5\n      swap3\n      swap4\n      swap2\n      swap3\n      swap2\n      dup5\n      add\n      swap2\n      tag_78\n      swap1\n      tag_73\n      jump\t// in\n    tag_78:\n      dup1\n      0x1f\n      add\n      0x20\n      dup1\n      swap2\n      div\n      mul\n      0x20\n      add\n      mload(0x40)\n      swap1\n      dup2\n      add\n      0x40\n      mstore\n      dup1\n      swap3\n      swap2\n      swap1\n      dup2\n      dup2\n      mstore\n      0x20\n      add\n      dup3\n      dup1\n      sload\n      tag_79\n      swap1\n      tag_73\n      jump\t// in\n    tag_79:\n      dup1\n      iszero\n      tag_80\n      jumpi\n      dup1\n      0x1f\n      lt\n      tag_81\n      jumpi\n      0x0100\n      dup1\n      dup4\n      sload\n      div\n      mul\n      dup4\n      mstore\n      swap2\n      0x20\n      add\n      swap2\n      jump(tag_80)\n    tag_81:\n      dup3\n      add\n      swap2\n      swap1\n      0x00\n      mstore\n      keccak256(0x00, 0x20)\n      swap1\n    tag_82:\n      dup2\n      sload\n      dup2\n      mstore\n      swap1\n      0x01\n      add\n      swap1\n      0x20\n      add\n      dup1\n      dup4\n      gt\n      tag_82\n      jumpi\n      dup3\n      swap1\n      sub\n      0x1f\n      and\n      dup3\n      add\n      swap2\n    tag_80:\n      pop\n      pop\n      pop\n      swap2\n      swap1\n      swap3\n      mstore\n      pop\n      pop\n      0x40\n      dup1\n      mload\n      dup1\n      dup3\n      add\n      swap1\n      swap2\n      mstore\n      0x0a\n      dup5\n      add\n      dup1\n      sload\n      sub(shl(0xa0, 0x01), 0x01)\n      and\n      dup3\n      mstore\n      0x0b\n      dup6\n      add\n      dup1\n      sload\n      swap5\n      swap6\n      swap5\n      swap3\n      swap4\n      pop\n      swap1\n      swap2\n      0x20\n      dup5\n      add\n      swap2\n      swap1\n      tag_83\n      swap1\n      tag_73\n      jump\t// in\n    tag_83:\n      dup1\n      0x1f\n      add\n      0x20\n      dup1\n      swap2\n      div\n      mul\n      0x20\n      add\n      mload(0x40)\n      swap1\n      dup2\n      add\n      0x40\n      mstore\n      dup1\n      swap3\n      swap2\n      swap1\n      dup2\n      dup2\n      mstore\n      0x20\n      add\n      dup3\n      dup1\n      sload\n      tag_84\n      swap1\n      tag_73\n      jump\t// in\n    tag_84:\n      dup1\n      iszero\n      tag_85\n      jumpi\n      dup1\n      0x1f\n      lt\n      tag_86\n      jumpi\n      0x0100\n      dup1\n      dup4\n      sload\n      div\n      mul\n      dup4\n      mstore\n      swap2\n      0x20\n      add\n      swap2\n      jump(tag_85)\n    tag_86:\n      dup3\n      add\n      swap2\n      swap1\n      0x00\n      mstore\n      keccak256(0x00, 0x20)\n      swap1\n    tag_87:\n      dup2\n      sload\n      dup2\n      mstore\n      swap1\n      0x01\n      add\n      swap1\n      0x20\n      add\n      dup1\n      dup4\n      gt\n      tag_87\n      jumpi\n      dup3\n      swap1\n      sub\n      0x1f\n      and\n      dup3\n      add\n      swap2\n    tag_85:\n      pop\n      pop\n      pop\n      pop\n      pop\n      dup2\n      mstore\n      pop\n      pop\n      swap1\n      pop\n      dup10\n      jump\t// out\n        /* \"Contributionv2.sol\":4487:4674  function getLastDripBlock(address _user, uint256 nodeIndex) external view returns (uint256) {... */\n    tag_30:\n        /* \"Contributionv2.sol\":4570:4577  uint256 */\n      0x00\n        /* \"Contributionv2.sol\":4589:4606  Node storage node */\n      dup1\n        /* \"Contributionv2.sol\":4609:4614  nodes */\n      0x00\n        /* \"Contributionv2.sol\":4615:4624  nodeIndex */\n      dup4\n        /* \"Contributionv2.sol\":4609:4625  nodes[nodeIndex] */\n      dup2\n      sload\n      dup2\n      lt\n      tag_90\n      jumpi\n      tag_90\n      tag_68\n      jump\t// in\n    tag_90:\n      0x00\n      swap2\n      dup3\n      mstore\n      0x20\n      dup1\n      dup4\n      keccak256\n      sub(shl(0xa0, 0x01), 0x01)\n        /* \"Contributionv2.sol\":4642:4667  node.lastDripBlock[_user] */\n      dup9\n      and\n      dup5\n      mstore\n        /* \"Contributionv2.sol\":4642:4660  node.lastDripBlock */\n      0x0c\n        /* \"Contributionv2.sol\":4609:4625  nodes[nodeIndex] */\n      0x0d\n      swap1\n      swap4\n      mul\n      add\n        /* \"Contributionv2.sol\":4642:4660  node.lastDripBlock */\n      swap2\n      swap1\n      swap2\n      add\n        /* \"Contributionv2.sol\":4642:4667  node.lastDripBlock[_user] */\n      swap1\n      mstore\n      0x40\n      swap1\n      keccak256\n      sload\n      swap2\n      pop\n      pop\n        /* \"Contributionv2.sol\":4487:4674  function getLastDripBlock(address _user, uint256 nodeIndex) external view returns (uint256) {... */\n    tag_88:\n      swap3\n      swap2\n      pop\n      pop\n      jump\t// out\n        /* \"Contributionv2.sol\":2586:3307  function addFunds(uint256 nodeIndex, string memory _ipfsHash) public payable {... */\n    tag_36:\n        /* \"Contributionv2.sol\":2693:2698  nodes */\n      0x00\n        /* \"Contributionv2.sol\":2693:2705  nodes.length */\n      sload\n        /* \"Contributionv2.sol\":2681:2705  nodeIndex < nodes.length */\n      dup3\n      lt\n        /* \"Contributionv2.sol\":2673:2729  require(nodeIndex < nodes.length, \"Node does not exist\") */\n      tag_93\n      jumpi\n      mload(0x40)\n      shl(0xe5, 0x461bcd)\n      dup2\n      mstore\n        /* \"#utility.yul\":7875:7877   */\n      0x20\n        /* \"Contributionv2.sol\":2673:2729  require(nodeIndex < nodes.length, \"Node does not exist\") */\n      0x04\n      dup3\n      add\n        /* \"#utility.yul\":7857:7878   */\n      mstore\n        /* \"#utility.yul\":7914:7916   */\n      0x13\n        /* \"#utility.yul\":7894:7912   */\n      0x24\n      dup3\n      add\n        /* \"#utility.yul\":7887:7917   */\n      mstore\n      shl(0x6a, 0x139bd91948191bd95cc81b9bdd08195e1a5cdd)\n        /* \"#utility.yul\":7933:7951   */\n      0x44\n      dup3\n      add\n        /* \"#utility.yul\":7926:7975   */\n      mstore\n        /* \"#utility.yul\":7992:8010   */\n      0x64\n      add\n        /* \"Contributionv2.sol\":2673:2729  require(nodeIndex < nodes.length, \"Node does not exist\") */\n    tag_94:\n      mload(0x40)\n      dup1\n      swap2\n      sub\n      swap1\n      revert\n    tag_93:\n        /* \"Contributionv2.sol\":2759:2760  0 */\n      0x00\n        /* \"Contributionv2.sol\":2747:2756  msg.value */\n      callvalue\n        /* \"Contributionv2.sol\":2747:2760  msg.value > 0 */\n      gt\n        /* \"Contributionv2.sol\":2739:2802  require(msg.value > 0, \"Must send some ether to fund the node\") */\n      tag_96\n      jumpi\n      mload(0x40)\n      shl(0xe5, 0x461bcd)\n      dup2\n      mstore\n        /* \"#utility.yul\":8223:8225   */\n      0x20\n        /* \"Contributionv2.sol\":2739:2802  require(msg.value > 0, \"Must send some ether to fund the node\") */\n      0x04\n      dup3\n      add\n        /* \"#utility.yul\":8205:8226   */\n      mstore\n        /* \"#utility.yul\":8262:8264   */\n      0x25\n        /* \"#utility.yul\":8242:8260   */\n      0x24\n      dup3\n      add\n        /* \"#utility.yul\":8235:8265   */\n      mstore\n        /* \"#utility.yul\":8301:8335   */\n      0x4d7573742073656e6420736f6d6520657468657220746f2066756e6420746865\n        /* \"#utility.yul\":8281:8299   */\n      0x44\n      dup3\n      add\n        /* \"#utility.yul\":8274:8336   */\n      mstore\n        /* \"#utility.yul\":8372:8379   */\n      0x206e6f6465000000000000000000000000000000000000000000000000000000\n        /* \"#utility.yul\":8352:8370   */\n      0x64\n      dup3\n      add\n        /* \"#utility.yul\":8345:8380   */\n      mstore\n        /* \"#utility.yul\":8397:8416   */\n      0x84\n      add\n        /* \"Contributionv2.sol\":2739:2802  require(msg.value > 0, \"Must send some ether to fund the node\") */\n      tag_94\n        /* \"#utility.yul\":8021:8422   */\n      jump\n        /* \"Contributionv2.sol\":2739:2802  require(msg.value > 0, \"Must send some ether to fund the node\") */\n    tag_96:\n        /* \"Contributionv2.sol\":2813:2830  Node storage node */\n      0x00\n        /* \"Contributionv2.sol\":2833:2838  nodes */\n      dup1\n        /* \"Contributionv2.sol\":2839:2848  nodeIndex */\n      dup4\n        /* \"Contributionv2.sol\":2833:2849  nodes[nodeIndex] */\n      dup2\n      sload\n      dup2\n      lt\n      tag_100\n      jumpi\n      tag_100\n      tag_68\n      jump\t// in\n    tag_100:\n      0x00\n      swap2\n      dup3\n      mstore\n      0x20\n      swap1\n      swap2\n      keccak256\n      0x0d\n      swap1\n      swap2\n      mul\n      add\n        /* \"Contributionv2.sol\":2867:2886  node.fundingAddress */\n      0x03\n      dup2\n      add\n      sload\n        /* \"Contributionv2.sol\":2833:2849  nodes[nodeIndex] */\n      swap1\n      swap2\n      pop\n      sub(shl(0xa0, 0x01), 0x01)\n        /* \"Contributionv2.sol\":2867:2886  node.fundingAddress */\n      and\n        /* \"Contributionv2.sol\":2867:2900  node.fundingAddress == address(0) */\n      iszero\n      dup1\n        /* \"Contributionv2.sol\":2867:2937  node.fundingAddress == address(0) || node.fundingAddress == msg.sender */\n      tag_102\n      jumpi\n      pop\n        /* \"Contributionv2.sol\":2904:2923  node.fundingAddress */\n      0x03\n      dup2\n      add\n      sload\n      sub(shl(0xa0, 0x01), 0x01)\n      and\n        /* \"Contributionv2.sol\":2927:2937  msg.sender */\n      caller\n        /* \"Contributionv2.sol\":2904:2937  node.fundingAddress == msg.sender */\n      eq\n        /* \"Contributionv2.sol\":2867:2937  node.fundingAddress == address(0) || node.fundingAddress == msg.sender */\n    tag_102:\n        /* \"Contributionv2.sol\":2859:2976  require(node.fundingAddress == address(0) || node.fundingAddress == msg.sender, \"Only the funder can add more funds\") */\n      tag_103\n      jumpi\n      mload(0x40)\n      shl(0xe5, 0x461bcd)\n      dup2\n      mstore\n        /* \"#utility.yul\":8629:8631   */\n      0x20\n        /* \"Contributionv2.sol\":2859:2976  require(node.fundingAddress == address(0) || node.fundingAddress == msg.sender, \"Only the funder can add more funds\") */\n      0x04\n      dup3\n      add\n        /* \"#utility.yul\":8611:8632   */\n      mstore\n        /* \"#utility.yul\":8668:8670   */\n      0x22\n        /* \"#utility.yul\":8648:8666   */\n      0x24\n      dup3\n      add\n        /* \"#utility.yul\":8641:8671   */\n      mstore\n        /* \"#utility.yul\":8707:8741   */\n      0x4f6e6c79207468652066756e6465722063616e20616464206d6f72652066756e\n        /* \"#utility.yul\":8687:8705   */\n      0x44\n      dup3\n      add\n        /* \"#utility.yul\":8680:8742   */\n      mstore\n      shl(0xf0, 0x6473)\n        /* \"#utility.yul\":8758:8776   */\n      0x64\n      dup3\n      add\n        /* \"#utility.yul\":8751:8783   */\n      mstore\n        /* \"#utility.yul\":8800:8819   */\n      0x84\n      add\n        /* \"Contributionv2.sol\":2859:2976  require(node.fundingAddress == address(0) || node.fundingAddress == msg.sender, \"Only the funder can add more funds\") */\n      tag_94\n        /* \"#utility.yul\":8427:8825   */\n      jump\n        /* \"Contributionv2.sol\":2859:2976  require(node.fundingAddress == address(0) || node.fundingAddress == msg.sender, \"Only the funder can add more funds\") */\n    tag_103:\n        /* \"Contributionv2.sol\":2999:3018  node.fundingAddress */\n      0x03\n      dup2\n      add\n      sload\n      sub(shl(0xa0, 0x01), 0x01)\n      and\n        /* \"Contributionv2.sol\":2995:3091  if (node.fundingAddress == address(0)) {... */\n      tag_106\n      jumpi\n        /* \"Contributionv2.sol\":3048:3067  node.fundingAddress */\n      0x03\n      dup2\n      add\n        /* \"Contributionv2.sol\":3048:3080  node.fundingAddress = msg.sender */\n      dup1\n      sload\n      not(sub(shl(0xa0, 0x01), 0x01))\n      and\n        /* \"Contributionv2.sol\":3070:3080  msg.sender */\n      caller\n        /* \"Contributionv2.sol\":3048:3080  node.fundingAddress = msg.sender */\n      or\n      swap1\n      sstore\n        /* \"Contributionv2.sol\":2995:3091  if (node.fundingAddress == address(0)) {... */\n    tag_106:\n        /* \"Contributionv2.sol\":3121:3130  msg.value */\n      callvalue\n        /* \"Contributionv2.sol\":3101:3105  node */\n      dup2\n        /* \"Contributionv2.sol\":3101:3117  node.fundingPool */\n      0x04\n      add\n      0x00\n        /* \"Contributionv2.sol\":3101:3130  node.fundingPool += msg.value */\n      dup3\n      dup3\n      sload\n      tag_107\n      swap2\n      swap1\n      tag_108\n      jump\t// in\n    tag_107:\n      swap1\n      swap2\n      sstore\n      pop\n      pop\n        /* \"Contributionv2.sol\":3140:3153  node.isFunded */\n      0x06\n      dup2\n      add\n        /* \"Contributionv2.sol\":3140:3160  node.isFunded = true */\n      dup1\n      sload\n      not(0xff)\n      and\n        /* \"Contributionv2.sol\":3156:3160  true */\n      0x01\n        /* \"Contributionv2.sol\":3140:3160  node.isFunded = true */\n      or\n      swap1\n      sstore\n        /* \"Contributionv2.sol\":3184:3252  Funder({funder: msg.sender, amount: msg.value, ipfsHash: _ipfsHash}) */\n      0x40\n      dup1\n      mload\n      0x60\n      dup2\n      add\n      dup3\n      mstore\n        /* \"Contributionv2.sol\":3200:3210  msg.sender */\n      caller\n        /* \"Contributionv2.sol\":3184:3252  Funder({funder: msg.sender, amount: msg.value, ipfsHash: _ipfsHash}) */\n      dup1\n      dup3\n      mstore\n        /* \"Contributionv2.sol\":3220:3229  msg.value */\n      callvalue\n        /* \"Contributionv2.sol\":3184:3252  Funder({funder: msg.sender, amount: msg.value, ipfsHash: _ipfsHash}) */\n      0x20\n      dup4\n      add\n      dup2\n      swap1\n      mstore\n      swap3\n      dup3\n      add\n      dup6\n      swap1\n      mstore\n        /* \"Contributionv2.sol\":3170:3181  node.funder */\n      0x07\n      dup5\n      add\n        /* \"Contributionv2.sol\":3170:3252  node.funder = Funder({funder: msg.sender, amount: msg.value, ipfsHash: _ipfsHash}) */\n      dup1\n      sload\n      not(sub(shl(0xa0, 0x01), 0x01))\n      and\n      swap1\n      swap2\n      or\n      dup2\n      sstore\n      0x08\n      dup5\n      add\n      swap3\n      swap1\n      swap3\n      sstore\n        /* \"Contributionv2.sol\":3184:3252  Funder({funder: msg.sender, amount: msg.value, ipfsHash: _ipfsHash}) */\n      swap1\n        /* \"Contributionv2.sol\":3170:3252  node.funder = Funder({funder: msg.sender, amount: msg.value, ipfsHash: _ipfsHash}) */\n      0x09\n      dup4\n      add\n      tag_109\n        /* \"Contributionv2.sol\":3241:3250  _ipfsHash */\n      dup6\n        /* \"Contributionv2.sol\":3170:3252  node.funder = Funder({funder: msg.sender, amount: msg.value, ipfsHash: _ipfsHash}) */\n      dup3\n      tag_110\n      jump\t// in\n    tag_109:\n      pop\n      pop\n        /* \"Contributionv2.sol\":3268:3300  FundsAdded(nodeIndex, msg.value) */\n      mload(0x40)\n        /* \"Contributionv2.sol\":3290:3299  msg.value */\n      callvalue\n        /* \"#utility.yul\":2890:2915   */\n      dup2\n      mstore\n        /* \"Contributionv2.sol\":3279:3288  nodeIndex */\n      dup5\n      swap2\n      pop\n        /* \"Contributionv2.sol\":3268:3300  FundsAdded(nodeIndex, msg.value) */\n      0xf5e4934928a1e45d88c7a5aa2661fe0a801ca5017922e15122d74f1880155e1a\n      swap1\n        /* \"#utility.yul\":2878:2880   */\n      0x20\n        /* \"#utility.yul\":2863:2881   */\n      add\n        /* \"Contributionv2.sol\":3268:3300  FundsAdded(nodeIndex, msg.value) */\n      mload(0x40)\n      dup1\n      swap2\n      sub\n      swap1\n      log2\n        /* \"Contributionv2.sol\":2663:3307  {... */\n      pop\n        /* \"Contributionv2.sol\":2586:3307  function addFunds(uint256 nodeIndex, string memory _ipfsHash) public payable {... */\n      pop\n      pop\n      jump\t// out\n        /* \"Contributionv2.sol\":3313:3640  function finishNode(uint256 nodeIndex) public {... */\n    tag_40:\n        /* \"Contributionv2.sol\":3389:3394  nodes */\n      0x00\n        /* \"Contributionv2.sol\":3389:3401  nodes.length */\n      sload\n        /* \"Contributionv2.sol\":3377:3401  nodeIndex < nodes.length */\n      dup2\n      lt\n        /* \"Contributionv2.sol\":3369:3425  require(nodeIndex < nodes.length, \"Node does not exist\") */\n      tag_113\n      jumpi\n      mload(0x40)\n      shl(0xe5, 0x461bcd)\n      dup2\n      mstore\n        /* \"#utility.yul\":7875:7877   */\n      0x20\n        /* \"Contributionv2.sol\":3369:3425  require(nodeIndex < nodes.length, \"Node does not exist\") */\n      0x04\n      dup3\n      add\n        /* \"#utility.yul\":7857:7878   */\n      mstore\n        /* \"#utility.yul\":7914:7916   */\n      0x13\n        /* \"#utility.yul\":7894:7912   */\n      0x24\n      dup3\n      add\n        /* \"#utility.yul\":7887:7917   */\n      mstore\n      shl(0x6a, 0x139bd91948191bd95cc81b9bdd08195e1a5cdd)\n        /* \"#utility.yul\":7933:7951   */\n      0x44\n      dup3\n      add\n        /* \"#utility.yul\":7926:7975   */\n      mstore\n        /* \"#utility.yul\":7992:8010   */\n      0x64\n      add\n        /* \"Contributionv2.sol\":3369:3425  require(nodeIndex < nodes.length, \"Node does not exist\") */\n      tag_94\n        /* \"#utility.yul\":7673:8016   */\n      jump\n        /* \"Contributionv2.sol\":3369:3425  require(nodeIndex < nodes.length, \"Node does not exist\") */\n    tag_113:\n        /* \"Contributionv2.sol\":3436:3453  Node storage node */\n      0x00\n        /* \"Contributionv2.sol\":3456:3461  nodes */\n      dup1\n        /* \"Contributionv2.sol\":3462:3471  nodeIndex */\n      dup3\n        /* \"Contributionv2.sol\":3456:3472  nodes[nodeIndex] */\n      dup2\n      sload\n      dup2\n      lt\n      tag_116\n      jumpi\n      tag_116\n      tag_68\n      jump\t// in\n    tag_116:\n      0x00\n      swap2\n      dup3\n      mstore\n      0x20\n      swap1\n      swap2\n      keccak256\n        /* \"Contributionv2.sol\":3490:3501  node.funder */\n      0x07\n        /* \"Contributionv2.sol\":3456:3472  nodes[nodeIndex] */\n      0x0d\n      swap1\n      swap3\n      mul\n      add\n        /* \"Contributionv2.sol\":3490:3501  node.funder */\n      swap1\n      dup2\n      add\n        /* \"Contributionv2.sol\":3490:3508  node.funder.funder */\n      sload\n        /* \"Contributionv2.sol\":3456:3472  nodes[nodeIndex] */\n      swap1\n      swap2\n      pop\n      sub(shl(0xa0, 0x01), 0x01)\n        /* \"Contributionv2.sol\":3490:3508  node.funder.funder */\n      and\n        /* \"Contributionv2.sol\":3512:3522  msg.sender */\n      caller\n        /* \"Contributionv2.sol\":3490:3522  node.funder.funder == msg.sender */\n      eq\n        /* \"Contributionv2.sol\":3482:3562  require(node.funder.funder == msg.sender, \"Only the funder can finish the node\") */\n      tag_118\n      jumpi\n      mload(0x40)\n      shl(0xe5, 0x461bcd)\n      dup2\n      mstore\n        /* \"#utility.yul\":11464:11466   */\n      0x20\n        /* \"Contributionv2.sol\":3482:3562  require(node.funder.funder == msg.sender, \"Only the funder can finish the node\") */\n      0x04\n      dup3\n      add\n        /* \"#utility.yul\":11446:11467   */\n      mstore\n        /* \"#utility.yul\":11503:11505   */\n      0x23\n        /* \"#utility.yul\":11483:11501   */\n      0x24\n      dup3\n      add\n        /* \"#utility.yul\":11476:11506   */\n      mstore\n        /* \"#utility.yul\":11542:11576   */\n      0x4f6e6c79207468652066756e6465722063616e2066696e69736820746865206e\n        /* \"#utility.yul\":11522:11540   */\n      0x44\n      dup3\n      add\n        /* \"#utility.yul\":11515:11577   */\n      mstore\n      shl(0xe8, 0x6f6465)\n        /* \"#utility.yul\":11593:11611   */\n      0x64\n      dup3\n      add\n        /* \"#utility.yul\":11586:11619   */\n      mstore\n        /* \"#utility.yul\":11636:11655   */\n      0x84\n      add\n        /* \"Contributionv2.sol\":3482:3562  require(node.funder.funder == msg.sender, \"Only the funder can finish the node\") */\n      tag_94\n        /* \"#utility.yul\":11262:11661   */\n      jump\n        /* \"Contributionv2.sol\":3482:3562  require(node.funder.funder == msg.sender, \"Only the funder can finish the node\") */\n    tag_118:\n        /* \"Contributionv2.sol\":3572:3587  node.isFinished */\n      0x06\n      dup2\n      add\n        /* \"Contributionv2.sol\":3572:3594  node.isFinished = true */\n      dup1\n      sload\n      not(0xff00)\n      and\n      0x0100\n      or\n      swap1\n      sstore\n        /* \"Contributionv2.sol\":3610:3633  NodeFinished(nodeIndex) */\n      mload(0x40)\n        /* \"Contributionv2.sol\":3623:3632  nodeIndex */\n      dup3\n      swap1\n        /* \"Contributionv2.sol\":3610:3633  NodeFinished(nodeIndex) */\n      0xf1c92498f9b82ac12ed4160513cd238f89e2cf39b41ed4173c014e05b4abb5da\n      swap1\n        /* \"Contributionv2.sol\":3572:3594  node.isFinished = true */\n      0x00\n      swap1\n        /* \"Contributionv2.sol\":3610:3633  NodeFinished(nodeIndex) */\n      log2\n        /* \"Contributionv2.sol\":3359:3640  {... */\n      pop\n        /* \"Contributionv2.sol\":3313:3640  function finishNode(uint256 nodeIndex) public {... */\n      pop\n      jump\t// out\n        /* \"Contributionv2.sol\":1946:2580  function addContribution(uint256 nodeIndex, string memory _ipfsHash) public {... */\n    tag_44:\n        /* \"Contributionv2.sol\":2052:2057  nodes */\n      0x00\n        /* \"Contributionv2.sol\":2052:2064  nodes.length */\n      sload\n        /* \"Contributionv2.sol\":2040:2064  nodeIndex < nodes.length */\n      dup3\n      lt\n        /* \"Contributionv2.sol\":2032:2088  require(nodeIndex < nodes.length, \"Node does not exist\") */\n      tag_122\n      jumpi\n      mload(0x40)\n      shl(0xe5, 0x461bcd)\n      dup2\n      mstore\n        /* \"#utility.yul\":7875:7877   */\n      0x20\n        /* \"Contributionv2.sol\":2032:2088  require(nodeIndex < nodes.length, \"Node does not exist\") */\n      0x04\n      dup3\n      add\n        /* \"#utility.yul\":7857:7878   */\n      mstore\n        /* \"#utility.yul\":7914:7916   */\n      0x13\n        /* \"#utility.yul\":7894:7912   */\n      0x24\n      dup3\n      add\n        /* \"#utility.yul\":7887:7917   */\n      mstore\n      shl(0x6a, 0x139bd91948191bd95cc81b9bdd08195e1a5cdd)\n        /* \"#utility.yul\":7933:7951   */\n      0x44\n      dup3\n      add\n        /* \"#utility.yul\":7926:7975   */\n      mstore\n        /* \"#utility.yul\":7992:8010   */\n      0x64\n      add\n        /* \"Contributionv2.sol\":2032:2088  require(nodeIndex < nodes.length, \"Node does not exist\") */\n      tag_94\n        /* \"#utility.yul\":7673:8016   */\n      jump\n        /* \"Contributionv2.sol\":2032:2088  require(nodeIndex < nodes.length, \"Node does not exist\") */\n    tag_122:\n        /* \"Contributionv2.sol\":2099:2116  Node storage node */\n      0x00\n        /* \"Contributionv2.sol\":2119:2124  nodes */\n      dup1\n        /* \"Contributionv2.sol\":2125:2134  nodeIndex */\n      dup4\n        /* \"Contributionv2.sol\":2119:2135  nodes[nodeIndex] */\n      dup2\n      sload\n      dup2\n      lt\n      tag_125\n      jumpi\n      tag_125\n      tag_68\n      jump\t// in\n    tag_125:\n      0x00\n      swap2\n      dup3\n      mstore\n      0x20\n      dup1\n      dup4\n      keccak256\n        /* \"Contributionv2.sol\":2169:2235  ContributionDetail({contributor: msg.sender, ipfsHash: _ipfsHash}) */\n      0x40\n      dup1\n      mload\n      dup1\n      dup3\n      add\n      swap1\n      swap2\n      mstore\n        /* \"Contributionv2.sol\":2202:2212  msg.sender */\n      caller\n        /* \"Contributionv2.sol\":2169:2235  ContributionDetail({contributor: msg.sender, ipfsHash: _ipfsHash}) */\n      dup2\n      mstore\n      dup1\n      dup4\n      add\n      dup8\n      dup2\n      mstore\n        /* \"Contributionv2.sol\":2119:2135  nodes[nodeIndex] */\n      0x0d\n      swap5\n      swap1\n      swap5\n      mul\n      swap1\n      swap2\n      add\n        /* \"Contributionv2.sol\":2145:2163  node.contributions */\n      0x01\n      dup2\n      dup2\n      add\n        /* \"Contributionv2.sol\":2145:2236  node.contributions.push(ContributionDetail({contributor: msg.sender, ipfsHash: _ipfsHash})) */\n      dup1\n      sload\n      dup1\n      dup4\n      add\n      dup3\n      sstore\n      swap1\n      dup8\n      mstore\n      swap4\n      swap1\n      swap6\n      keccak256\n      dup3\n      mload\n      0x02\n      swap1\n      swap5\n      mul\n      add\n      dup1\n      sload\n      not(sub(shl(0xa0, 0x01), 0x01))\n      and\n      sub(shl(0xa0, 0x01), 0x01)\n      swap1\n      swap5\n      and\n      swap4\n      swap1\n      swap4\n      or\n      dup4\n      sstore\n      swap3\n      mload\n        /* \"Contributionv2.sol\":2119:2135  nodes[nodeIndex] */\n      swap3\n      swap5\n      pop\n        /* \"Contributionv2.sol\":2169:2235  ContributionDetail({contributor: msg.sender, ipfsHash: _ipfsHash}) */\n      swap3\n        /* \"Contributionv2.sol\":2145:2236  node.contributions.push(ContributionDetail({contributor: msg.sender, ipfsHash: _ipfsHash})) */\n      swap1\n      swap2\n      swap1\n      dup3\n      add\n      swap1\n      tag_128\n      swap1\n      dup3\n      tag_110\n      jump\t// in\n    tag_128:\n      pop\n      pop\n      pop\n        /* \"Contributionv2.sol\":2247:2273  uint256 contributionPoints */\n      0x00\n        /* \"Contributionv2.sol\":2276:2277  5 */\n      0x05\n        /* \"Contributionv2.sol\":2247:2277  uint256 contributionPoints = 5 */\n      swap1\n      pop\n        /* \"Contributionv2.sol\":2344:2362  contributionPoints */\n      dup1\n        /* \"Contributionv2.sol\":2329:2333  node */\n      dup3\n        /* \"Contributionv2.sol\":2329:2340  node.points */\n      0x02\n      add\n      0x00\n        /* \"Contributionv2.sol\":2329:2362  node.points += contributionPoints */\n      dup3\n      dup3\n      sload\n      tag_129\n      swap2\n      swap1\n      tag_108\n      jump\t// in\n    tag_129:\n      swap1\n      swap2\n      sstore\n      pop\n      pop\n        /* \"Contributionv2.sol\":2387:2397  msg.sender */\n      caller\n        /* \"Contributionv2.sol\":2372:2398  userNodePoints[msg.sender] */\n      0x00\n      swap1\n      dup2\n      mstore\n        /* \"Contributionv2.sol\":2372:2386  userNodePoints */\n      0x01\n        /* \"Contributionv2.sol\":2372:2398  userNodePoints[msg.sender] */\n      0x20\n      swap1\n      dup2\n      mstore\n      0x40\n      dup1\n      dup4\n      keccak256\n        /* \"Contributionv2.sol\":2372:2409  userNodePoints[msg.sender][nodeIndex] */\n      dup8\n      dup5\n      mstore\n      swap1\n      swap2\n      mstore\n      dup2\n      keccak256\n        /* \"Contributionv2.sol\":2372:2431  userNodePoints[msg.sender][nodeIndex] += contributionPoints */\n      dup1\n      sload\n        /* \"Contributionv2.sol\":2413:2431  contributionPoints */\n      dup4\n      swap3\n        /* \"Contributionv2.sol\":2372:2398  userNodePoints[msg.sender] */\n      swap1\n        /* \"Contributionv2.sol\":2372:2431  userNodePoints[msg.sender][nodeIndex] += contributionPoints */\n      tag_130\n      swap1\n        /* \"Contributionv2.sol\":2413:2431  contributionPoints */\n      dup5\n      swap1\n        /* \"Contributionv2.sol\":2372:2431  userNodePoints[msg.sender][nodeIndex] += contributionPoints */\n      tag_108\n      jump\t// in\n    tag_130:\n      swap1\n      swap2\n      sstore\n      pop\n      pop\n        /* \"Contributionv2.sol\":2460:2470  msg.sender */\n      caller\n        /* \"Contributionv2.sol\":2441:2471  node.lastDripBlock[msg.sender] */\n      0x00\n      dup2\n      dup2\n      mstore\n        /* \"Contributionv2.sol\":2441:2459  node.lastDripBlock */\n      0x0c\n      dup5\n      add\n        /* \"Contributionv2.sol\":2441:2471  node.lastDripBlock[msg.sender] */\n      0x20\n      mstore\n      0x40\n      swap1\n      dup2\n      swap1\n      keccak256\n        /* \"Contributionv2.sol\":2474:2486  block.number */\n      number\n        /* \"Contributionv2.sol\":2441:2486  node.lastDripBlock[msg.sender] = block.number */\n      swap1\n      sstore\n        /* \"Contributionv2.sol\":2502:2573  ContributionAdded(msg.sender, nodeIndex, _ipfsHash, contributionPoints) */\n      mload\n      0x3c3079987b43946fd419a2052d1ae0337f195b72ca998bc06bfc3f3f0e9de040\n      swap1\n      tag_131\n      swap1\n        /* \"Contributionv2.sol\":2532:2541  nodeIndex */\n      dup8\n      swap1\n        /* \"Contributionv2.sol\":2543:2552  _ipfsHash */\n      dup8\n      swap1\n        /* \"Contributionv2.sol\":2554:2572  contributionPoints */\n      dup7\n      swap1\n        /* \"Contributionv2.sol\":2502:2573  ContributionAdded(msg.sender, nodeIndex, _ipfsHash, contributionPoints) */\n      tag_132\n      jump\t// in\n    tag_131:\n      mload(0x40)\n      dup1\n      swap2\n      sub\n      swap1\n      log2\n        /* \"Contributionv2.sol\":2022:2580  {... */\n      pop\n      pop\n        /* \"Contributionv2.sol\":1946:2580  function addContribution(uint256 nodeIndex, string memory _ipfsHash) public {... */\n      pop\n      pop\n      jump\t// out\n        /* \"Contributionv2.sol\":3646:4326  function getNodesLite() external view returns (NodeLite[] memory) {... */\n    tag_47:\n        /* \"Contributionv2.sol\":3722:3749  NodeLite[] memory nodesLite */\n      0x00\n        /* \"Contributionv2.sol\":3767:3779  nodes.length */\n      dup1\n      sload\n        /* \"Contributionv2.sol\":3693:3710  NodeLite[] memory */\n      0x60\n      swap2\n        /* \"Contributionv2.sol\":3722:3749  NodeLite[] memory nodesLite */\n      swap1\n        /* \"Contributionv2.sol\":3752:3780  new NodeLite[](nodes.length) */\n      0xffffffffffffffff\n      dup2\n      gt\n      iszero\n      tag_135\n      jumpi\n      tag_135\n      tag_136\n      jump\t// in\n    tag_135:\n      mload(0x40)\n      swap1\n      dup1\n      dup3\n      mstore\n      dup1\n      0x20\n      mul\n      0x20\n      add\n      dup3\n      add\n      0x40\n      mstore\n      dup1\n      iszero\n      tag_137\n      jumpi\n      dup2\n      0x20\n      add\n    tag_138:\n      tag_139\n      mload(0x40)\n      dup1\n      0x0100\n      add\n      0x40\n      mstore\n      dup1\n      0x60\n      dup2\n      mstore\n      0x20\n      add\n      0x60\n      dup2\n      mstore\n      0x20\n      add\n      0x00\n      dup2\n      mstore\n      0x20\n      add\n      and(sub(shl(0xa0, 0x01), 0x01), 0x00)\n      dup2\n      mstore\n      0x20\n      add\n      0x00\n      dup2\n      mstore\n      0x20\n      add\n      0x00\n      dup2\n      mstore\n      0x20\n      add\n      iszero(iszero(0x00))\n      dup2\n      mstore\n      0x20\n      add\n      iszero(iszero(0x00))\n      dup2\n      mstore\n      pop\n      swap1\n      jump\n    tag_139:\n      dup2\n      mstore\n      0x20\n      add\n      swap1\n      0x01\n      swap1\n      sub\n      swap1\n      dup2\n      tag_138\n      jumpi\n      swap1\n      pop\n    tag_137:\n      pop\n        /* \"Contributionv2.sol\":3722:3780  NodeLite[] memory nodesLite = new NodeLite[](nodes.length) */\n      swap1\n      pop\n        /* \"Contributionv2.sol\":3795:3801  uint i */\n      0x00\n        /* \"Contributionv2.sol\":3790:4294  for (uint i = 0; i < nodes.length; i++) {... */\n    tag_141:\n        /* \"Contributionv2.sol\":3811:3816  nodes */\n      0x00\n        /* \"Contributionv2.sol\":3811:3823  nodes.length */\n      sload\n        /* \"Contributionv2.sol\":3807:3823  i < nodes.length */\n      dup2\n      lt\n        /* \"Contributionv2.sol\":3790:4294  for (uint i = 0; i < nodes.length; i++) {... */\n      iszero\n      tag_142\n      jumpi\n        /* \"Contributionv2.sol\":3844:3861  Node storage node */\n      0x00\n        /* \"Contributionv2.sol\":3864:3869  nodes */\n      dup1\n        /* \"Contributionv2.sol\":3870:3871  i */\n      dup3\n        /* \"Contributionv2.sol\":3864:3872  nodes[i] */\n      dup2\n      sload\n      dup2\n      lt\n      tag_145\n      jumpi\n      tag_145\n      tag_68\n      jump\t// in\n    tag_145:\n      swap1\n      0x00\n      mstore\n      keccak256(0x00, 0x20)\n      swap1\n      0x0d\n      mul\n      add\n        /* \"Contributionv2.sol\":3844:3872  Node storage node = nodes[i] */\n      swap1\n      pop\n        /* \"Contributionv2.sol\":3901:4283  NodeLite({... */\n      mload(0x40)\n      dup1\n      0x0100\n      add\n      0x40\n      mstore\n      dup1\n        /* \"Contributionv2.sol\":3935:3939  node */\n      dup3\n        /* \"Contributionv2.sol\":3935:3945  node.title */\n      0x00\n      add\n        /* \"Contributionv2.sol\":3901:4283  NodeLite({... */\n      dup1\n      sload\n      tag_147\n      swap1\n      tag_73\n      jump\t// in\n    tag_147:\n      dup1\n      0x1f\n      add\n      0x20\n      dup1\n      swap2\n      div\n      mul\n      0x20\n      add\n      mload(0x40)\n      swap1\n      dup2\n      add\n      0x40\n      mstore\n      dup1\n      swap3\n      swap2\n      swap1\n      dup2\n      dup2\n      mstore\n      0x20\n      add\n      dup3\n      dup1\n      sload\n      tag_148\n      swap1\n      tag_73\n      jump\t// in\n    tag_148:\n      dup1\n      iszero\n      tag_149\n      jumpi\n      dup1\n      0x1f\n      lt\n      tag_150\n      jumpi\n      0x0100\n      dup1\n      dup4\n      sload\n      div\n      mul\n      dup4\n      mstore\n      swap2\n      0x20\n      add\n      swap2\n      jump(tag_149)\n    tag_150:\n      dup3\n      add\n      swap2\n      swap1\n      0x00\n      mstore\n      keccak256(0x00, 0x20)\n      swap1\n    tag_151:\n      dup2\n      sload\n      dup2\n      mstore\n      swap1\n      0x01\n      add\n      swap1\n      0x20\n      add\n      dup1\n      dup4\n      gt\n      tag_151\n      jumpi\n      dup3\n      swap1\n      sub\n      0x1f\n      and\n      dup3\n      add\n      swap2\n    tag_149:\n      pop\n      pop\n      pop\n      pop\n      pop\n      dup2\n      mstore\n      0x20\n      add\n        /* \"Contributionv2.sol\":3978:3982  node */\n      dup3\n        /* \"Contributionv2.sol\":3978:3996  node.contributions */\n      0x01\n      add\n        /* \"Contributionv2.sol\":3901:4283  NodeLite({... */\n      dup1\n      sload\n      dup1\n      0x20\n      mul\n      0x20\n      add\n      mload(0x40)\n      swap1\n      dup2\n      add\n      0x40\n      mstore\n      dup1\n      swap3\n      swap2\n      swap1\n      dup2\n      dup2\n      mstore\n      0x20\n      add\n      0x00\n      swap1\n    tag_152:\n      dup3\n      dup3\n      lt\n      iszero\n      tag_153\n      jumpi\n      0x00\n      dup5\n      dup2\n      mstore\n      0x20\n      swap1\n      dup2\n      swap1\n      keccak256\n      0x40\n      dup1\n      mload\n      dup1\n      dup3\n      add\n      swap1\n      swap2\n      mstore\n      0x02\n      dup6\n      mul\n      swap1\n      swap2\n      add\n      dup1\n      sload\n      sub(shl(0xa0, 0x01), 0x01)\n      and\n      dup3\n      mstore\n      0x01\n      dup2\n      add\n      dup1\n      sload\n      swap3\n      swap4\n      swap2\n      swap3\n      swap2\n      dup5\n      add\n      swap2\n      tag_155\n      swap1\n      tag_73\n      jump\t// in\n    tag_155:\n      dup1\n      0x1f\n      add\n      0x20\n      dup1\n      swap2\n      div\n      mul\n      0x20\n      add\n      mload(0x40)\n      swap1\n      dup2\n      add\n      0x40\n      mstore\n      dup1\n      swap3\n      swap2\n      swap1\n      dup2\n      dup2\n      mstore\n      0x20\n      add\n      dup3\n      dup1\n      sload\n      tag_156\n      swap1\n      tag_73\n      jump\t// in\n    tag_156:\n      dup1\n      iszero\n      tag_157\n      jumpi\n      dup1\n      0x1f\n      lt\n      tag_158\n      jumpi\n      0x0100\n      dup1\n      dup4\n      sload\n      div\n      mul\n      dup4\n      mstore\n      swap2\n      0x20\n      add\n      swap2\n      jump(tag_157)\n    tag_158:\n      dup3\n      add\n      swap2\n      swap1\n      0x00\n      mstore\n      keccak256(0x00, 0x20)\n      swap1\n    tag_159:\n      dup2\n      sload\n      dup2\n      mstore\n      swap1\n      0x01\n      add\n      swap1\n      0x20\n      add\n      dup1\n      dup4\n      gt\n      tag_159\n      jumpi\n      dup3\n      swap1\n      sub\n      0x1f\n      and\n      dup3\n      add\n      swap2\n    tag_157:\n      pop\n      pop\n      pop\n      pop\n      pop\n      dup2\n      mstore\n      pop\n      pop\n      dup2\n      mstore\n      0x20\n      add\n      swap1\n      0x01\n      add\n      swap1\n      jump(tag_152)\n    tag_153:\n      pop\n      pop\n      pop\n      swap1\n      dup3\n      mstore\n      pop\n        /* \"Contributionv2.sol\":4022:4033  node.points */\n      0x02\n      dup4\n      add\n      sload\n        /* \"Contributionv2.sol\":3901:4283  NodeLite({... */\n      0x20\n      dup3\n      add\n      mstore\n        /* \"Contributionv2.sol\":4067:4086  node.fundingAddress */\n      0x03\n      dup4\n      add\n      sload\n      sub(shl(0xa0, 0x01), 0x01)\n      and\n        /* \"Contributionv2.sol\":3901:4283  NodeLite({... */\n      0x40\n      dup3\n      add\n      mstore\n        /* \"Contributionv2.sol\":4117:4133  node.fundingPool */\n      0x04\n      dup4\n      add\n      sload\n        /* \"Contributionv2.sol\":3901:4283  NodeLite({... */\n      0x60\n      dup3\n      add\n      mstore\n        /* \"Contributionv2.sol\":4165:4182  node.creationTime */\n      0x05\n      dup4\n      add\n      sload\n        /* \"Contributionv2.sol\":3901:4283  NodeLite({... */\n      0x80\n      dup3\n      add\n      mstore\n        /* \"Contributionv2.sol\":4210:4223  node.isFunded */\n      0x06\n      dup4\n      add\n      sload\n      0xff\n      dup1\n      dup3\n      and\n        /* \"Contributionv2.sol\":3901:4283  NodeLite({... */\n      iszero\n      iszero\n      0xa0\n      dup5\n      add\n      mstore\n        /* \"Contributionv2.sol\":4067:4086  node.fundingAddress */\n      0x0100\n        /* \"Contributionv2.sol\":4253:4268  node.isFinished */\n      swap1\n      swap2\n      div\n      and\n        /* \"Contributionv2.sol\":3901:4283  NodeLite({... */\n      iszero\n      iszero\n      0xc0\n      swap1\n      swap2\n      add\n      mstore\n        /* \"Contributionv2.sol\":3886:3898  nodesLite[i] */\n      dup4\n      mload\n        /* \"Contributionv2.sol\":3886:3895  nodesLite */\n      dup5\n      swap1\n        /* \"Contributionv2.sol\":3896:3897  i */\n      dup5\n      swap1\n        /* \"Contributionv2.sol\":3886:3898  nodesLite[i] */\n      dup2\n      lt\n      tag_161\n      jumpi\n      tag_161\n      tag_68\n      jump\t// in\n    tag_161:\n      0x20\n      swap1\n      dup2\n      mul\n      swap2\n      swap1\n      swap2\n      add\n      add\n        /* \"Contributionv2.sol\":3886:4283  nodesLite[i] = NodeLite({... */\n      mstore\n      pop\n        /* \"Contributionv2.sol\":3825:3828  i++ */\n      0x01\n      add\n        /* \"Contributionv2.sol\":3790:4294  for (uint i = 0; i < nodes.length; i++) {... */\n      jump(tag_141)\n    tag_142:\n      pop\n        /* \"Contributionv2.sol\":4310:4319  nodesLite */\n      swap2\n        /* \"Contributionv2.sol\":3646:4326  function getNodesLite() external view returns (NodeLite[] memory) {... */\n      swap1\n      pop\n      jump\t// out\n        /* \"Contributionv2.sol\":1344:1940  function addNode(string memory _title, string memory _ipfsHash) public {... */\n    tag_54:\n        /* \"Contributionv2.sol\":1425:1445  Node storage newNode */\n      0x00\n        /* \"Contributionv2.sol\":1448:1460  nodes.push() */\n      dup1\n      sload\n      0x01\n      dup2\n      add\n      dup3\n      sstore\n      swap1\n      dup1\n      mstore\n      0x0d\n      mul\n      0x290decd9548b62a8d60345a988386fc84ba6bc95484008f6362f93160ef3e563\n      add\n      dup1\n        /* \"Contributionv2.sol\":1470:1492  newNode.title = _title */\n      tag_164\n        /* \"Contributionv2.sol\":1486:1492  _title */\n      dup5\n        /* \"Contributionv2.sol\":1448:1460  nodes.push() */\n      dup3\n        /* \"Contributionv2.sol\":1470:1492  newNode.title = _title */\n      tag_110\n      jump\t// in\n    tag_164:\n      pop\n        /* \"Contributionv2.sol\":1519:1521  10 */\n      0x0a\n        /* \"Contributionv2.sol\":1502:1516  newNode.points */\n      0x02\n      dup3\n      add\n        /* \"Contributionv2.sol\":1502:1521  newNode.points = 10 */\n      dup2\n      swap1\n      sstore\n        /* \"Contributionv2.sol\":1587:1588  0 */\n      0x00\n        /* \"Contributionv2.sol\":1565:1584  newNode.fundingPool */\n      0x04\n      dup4\n      add\n        /* \"Contributionv2.sol\":1565:1588  newNode.fundingPool = 0 */\n      sstore\n        /* \"Contributionv2.sol\":1621:1636  block.timestamp */\n      timestamp\n        /* \"Contributionv2.sol\":1598:1618  newNode.creationTime */\n      0x05\n      dup4\n      add\n        /* \"Contributionv2.sol\":1598:1636  newNode.creationTime = block.timestamp */\n      sstore\n        /* \"Contributionv2.sol\":1646:1664  newNode.isFinished */\n      0x06\n      dup3\n      add\n        /* \"Contributionv2.sol\":1646:1672  newNode.isFinished = false */\n      dup1\n      sload\n      not(0xffff)\n        /* \"Contributionv2.sol\":1682:1706  newNode.isFunded = false */\n      and\n      swap1\n      sstore\n        /* \"Contributionv2.sol\":1730:1773  RPC({rpc: msg.sender, ipfsHash: _ipfsHash}) */\n      0x40\n      dup1\n      mload\n      dup1\n      dup3\n      add\n      swap1\n      swap2\n      mstore\n        /* \"Contributionv2.sol\":1740:1750  msg.sender */\n      caller\n        /* \"Contributionv2.sol\":1730:1773  RPC({rpc: msg.sender, ipfsHash: _ipfsHash}) */\n      dup1\n      dup3\n      mstore\n      0x20\n      dup3\n      add\n      dup6\n      swap1\n      mstore\n        /* \"Contributionv2.sol\":1716:1727  newNode.rpc */\n      swap2\n      dup4\n      add\n        /* \"Contributionv2.sol\":1716:1773  newNode.rpc = RPC({rpc: msg.sender, ipfsHash: _ipfsHash}) */\n      dup1\n      sload\n      not(sub(shl(0xa0, 0x01), 0x01))\n      and\n      swap1\n      swap3\n      or\n      dup3\n      sstore\n        /* \"Contributionv2.sol\":1730:1773  RPC({rpc: msg.sender, ipfsHash: _ipfsHash}) */\n      swap1\n        /* \"Contributionv2.sol\":1716:1773  newNode.rpc = RPC({rpc: msg.sender, ipfsHash: _ipfsHash}) */\n      0x0b\n      dup4\n      add\n      tag_165\n        /* \"Contributionv2.sol\":1762:1771  _ipfsHash */\n      dup6\n        /* \"Contributionv2.sol\":1716:1773  newNode.rpc = RPC({rpc: msg.sender, ipfsHash: _ipfsHash}) */\n      dup3\n      tag_110\n      jump\t// in\n    tag_165:\n      pop\n      pop\n        /* \"Contributionv2.sol\":1784:1798  uint256 nodeId */\n      0x00\n        /* \"Contributionv2.sol\":1801:1813  nodes.length */\n      dup1\n      sload\n        /* \"Contributionv2.sol\":1784:1798  uint256 nodeId */\n      swap1\n      swap2\n      pop\n        /* \"Contributionv2.sol\":1801:1817  nodes.length - 1 */\n      tag_166\n      swap1\n        /* \"Contributionv2.sol\":1816:1817  1 */\n      0x01\n      swap1\n        /* \"Contributionv2.sol\":1801:1817  nodes.length - 1 */\n      tag_167\n      jump\t// in\n    tag_166:\n        /* \"Contributionv2.sol\":1849:1859  msg.sender */\n      caller\n        /* \"Contributionv2.sol\":1827:1860  newNode.lastDripBlock[msg.sender] */\n      0x00\n      swap1\n      dup2\n      mstore\n        /* \"Contributionv2.sol\":1827:1848  newNode.lastDripBlock */\n      0x0c\n      dup5\n      add\n        /* \"Contributionv2.sol\":1827:1860  newNode.lastDripBlock[msg.sender] */\n      0x20\n      mstore\n      0x40\n      swap1\n      dup2\n      swap1\n      keccak256\n        /* \"Contributionv2.sol\":1863:1875  block.number */\n      number\n        /* \"Contributionv2.sol\":1827:1875  newNode.lastDripBlock[msg.sender] = block.number */\n      swap1\n      sstore\n        /* \"Contributionv2.sol\":1918:1932  newNode.points */\n      0x02\n      dup5\n      add\n      sload\n        /* \"Contributionv2.sol\":1892:1933  NodeAdded(nodeId, _title, newNode.points) */\n      swap1\n      mload\n        /* \"Contributionv2.sol\":1784:1817  uint256 nodeId = nodes.length - 1 */\n      swap2\n      swap3\n      pop\n      dup3\n      swap2\n        /* \"Contributionv2.sol\":1892:1933  NodeAdded(nodeId, _title, newNode.points) */\n      0xd6b9fd965278c07866df5cd73b387c2be1b4cee8babd38ce44f1910c2f2a6ef0\n      swap2\n      tag_131\n      swap2\n        /* \"Contributionv2.sol\":1910:1916  _title */\n      dup9\n      swap2\n        /* \"Contributionv2.sol\":1918:1932  newNode.points */\n      swap1\n        /* \"Contributionv2.sol\":1892:1933  NodeAdded(nodeId, _title, newNode.points) */\n      tag_169\n      jump\t// in\n        /* \"#utility.yul\":14:391   */\n    tag_18:\n        /* \"#utility.yul\":82:88   */\n      0x00\n        /* \"#utility.yul\":90:96   */\n      dup1\n        /* \"#utility.yul\":143:145   */\n      0x40\n        /* \"#utility.yul\":131:140   */\n      dup4\n        /* \"#utility.yul\":122:129   */\n      dup6\n        /* \"#utility.yul\":118:141   */\n      sub\n        /* \"#utility.yul\":114:146   */\n      slt\n        /* \"#utility.yul\":111:163   */\n      iszero\n      tag_182\n      jumpi\n        /* \"#utility.yul\":159:160   */\n      0x00\n        /* \"#utility.yul\":156:157   */\n      dup1\n        /* \"#utility.yul\":149:161   */\n      revert\n        /* \"#utility.yul\":111:163   */\n    tag_182:\n        /* \"#utility.yul\":198:207   */\n      dup3\n        /* \"#utility.yul\":185:208   */\n      calldataload\n      sub(shl(0xa0, 0x01), 0x01)\n        /* \"#utility.yul\":241:246   */\n      dup2\n        /* \"#utility.yul\":237:291   */\n      and\n        /* \"#utility.yul\":230:235   */\n      dup2\n        /* \"#utility.yul\":227:292   */\n      eq\n        /* \"#utility.yul\":217:310   */\n      tag_183\n      jumpi\n        /* \"#utility.yul\":306:307   */\n      0x00\n        /* \"#utility.yul\":303:304   */\n      dup1\n        /* \"#utility.yul\":296:308   */\n      revert\n        /* \"#utility.yul\":217:310   */\n    tag_183:\n        /* \"#utility.yul\":329:334   */\n      swap5\n        /* \"#utility.yul\":381:383   */\n      0x20\n        /* \"#utility.yul\":366:384   */\n      swap4\n      swap1\n      swap4\n      add\n        /* \"#utility.yul\":353:385   */\n      calldataload\n      swap4\n      pop\n      pop\n      pop\n        /* \"#utility.yul\":14:391   */\n      jump\t// out\n        /* \"#utility.yul\":396:576   */\n    tag_23:\n        /* \"#utility.yul\":455:461   */\n      0x00\n        /* \"#utility.yul\":508:510   */\n      0x20\n        /* \"#utility.yul\":496:505   */\n      dup3\n        /* \"#utility.yul\":487:494   */\n      dup5\n        /* \"#utility.yul\":483:506   */\n      sub\n        /* \"#utility.yul\":479:511   */\n      slt\n        /* \"#utility.yul\":476:528   */\n      iszero\n      tag_185\n      jumpi\n        /* \"#utility.yul\":524:525   */\n      0x00\n        /* \"#utility.yul\":521:522   */\n      dup1\n        /* \"#utility.yul\":514:526   */\n      revert\n        /* \"#utility.yul\":476:528   */\n    tag_185:\n      pop\n        /* \"#utility.yul\":547:570   */\n      calldataload\n      swap2\n        /* \"#utility.yul\":396:576   */\n      swap1\n      pop\n      jump\t// out\n        /* \"#utility.yul\":581:870   */\n    tag_171:\n        /* \"#utility.yul\":623:626   */\n      0x00\n        /* \"#utility.yul\":661:666   */\n      dup2\n        /* \"#utility.yul\":655:667   */\n      mload\n        /* \"#utility.yul\":688:694   */\n      dup1\n        /* \"#utility.yul\":683:686   */\n      dup5\n        /* \"#utility.yul\":676:695   */\n      mstore\n        /* \"#utility.yul\":744:750   */\n      dup1\n        /* \"#utility.yul\":737:741   */\n      0x20\n        /* \"#utility.yul\":730:735   */\n      dup5\n        /* \"#utility.yul\":726:742   */\n      add\n        /* \"#utility.yul\":719:723   */\n      0x20\n        /* \"#utility.yul\":714:717   */\n      dup7\n        /* \"#utility.yul\":710:724   */\n      add\n        /* \"#utility.yul\":704:751   */\n      mcopy\n        /* \"#utility.yul\":796:797   */\n      0x00\n        /* \"#utility.yul\":789:793   */\n      0x20\n        /* \"#utility.yul\":780:786   */\n      dup3\n        /* \"#utility.yul\":775:778   */\n      dup7\n        /* \"#utility.yul\":771:787   */\n      add\n        /* \"#utility.yul\":767:794   */\n      add\n        /* \"#utility.yul\":760:798   */\n      mstore\n        /* \"#utility.yul\":859:863   */\n      0x20\n        /* \"#utility.yul\":852:854   */\n      0x1f\n        /* \"#utility.yul\":848:855   */\n      not\n        /* \"#utility.yul\":843:845   */\n      0x1f\n        /* \"#utility.yul\":835:841   */\n      dup4\n        /* \"#utility.yul\":831:846   */\n      add\n        /* \"#utility.yul\":827:856   */\n      and\n        /* \"#utility.yul\":822:825   */\n      dup6\n        /* \"#utility.yul\":818:857   */\n      add\n        /* \"#utility.yul\":814:864   */\n      add\n        /* \"#utility.yul\":807:864   */\n      swap2\n      pop\n      pop\n        /* \"#utility.yul\":581:870   */\n      swap3\n      swap2\n      pop\n      pop\n      jump\t// out\n        /* \"#utility.yul\":1103:1399   */\n    tag_174:\n      sub(shl(0xa0, 0x01), 0x01)\n        /* \"#utility.yul\":1189:1194   */\n      dup2\n        /* \"#utility.yul\":1183:1195   */\n      mload\n        /* \"#utility.yul\":1179:1240   */\n      and\n        /* \"#utility.yul\":1174:1177   */\n      dup3\n        /* \"#utility.yul\":1167:1241   */\n      mstore\n        /* \"#utility.yul\":1149:1152   */\n      0x00\n        /* \"#utility.yul\":1287:1291   */\n      0x20\n        /* \"#utility.yul\":1280:1285   */\n      dup3\n        /* \"#utility.yul\":1276:1292   */\n      add\n        /* \"#utility.yul\":1270:1293   */\n      mload\n        /* \"#utility.yul\":1325:1329   */\n      0x40\n        /* \"#utility.yul\":1318:1322   */\n      0x20\n        /* \"#utility.yul\":1313:1316   */\n      dup6\n        /* \"#utility.yul\":1309:1323   */\n      add\n        /* \"#utility.yul\":1302:1330   */\n      mstore\n        /* \"#utility.yul\":1346:1393   */\n      tag_190\n        /* \"#utility.yul\":1387:1391   */\n      0x40\n        /* \"#utility.yul\":1382:1385   */\n      dup6\n        /* \"#utility.yul\":1378:1392   */\n      add\n        /* \"#utility.yul\":1364:1376   */\n      dup3\n        /* \"#utility.yul\":1346:1393   */\n      tag_171\n      jump\t// in\n    tag_190:\n        /* \"#utility.yul\":1339:1393   */\n      swap5\n        /* \"#utility.yul\":1103:1399   */\n      swap4\n      pop\n      pop\n      pop\n      pop\n      jump\t// out\n        /* \"#utility.yul\":1404:2739   */\n    tag_26:\n        /* \"#utility.yul\":1814:1818   */\n      0x00\n        /* \"#utility.yul\":1843:1846   */\n      0x0120\n        /* \"#utility.yul\":1873:1875   */\n      dup1\n        /* \"#utility.yul\":1862:1871   */\n      dup4\n        /* \"#utility.yul\":1855:1876   */\n      mstore\n        /* \"#utility.yul\":1899:1944   */\n      tag_192\n        /* \"#utility.yul\":1940:1942   */\n      dup2\n        /* \"#utility.yul\":1929:1938   */\n      dup5\n        /* \"#utility.yul\":1925:1943   */\n      add\n        /* \"#utility.yul\":1917:1923   */\n      dup14\n        /* \"#utility.yul\":1899:1944   */\n      tag_171\n      jump\t// in\n    tag_192:\n        /* \"#utility.yul\":1885:1944   */\n      swap1\n      pop\n        /* \"#utility.yul\":1980:1986   */\n      dup11\n        /* \"#utility.yul\":1975:1977   */\n      0x20\n        /* \"#utility.yul\":1964:1973   */\n      dup5\n        /* \"#utility.yul\":1960:1978   */\n      add\n        /* \"#utility.yul\":1953:1987   */\n      mstore\n      sub(shl(0xa0, 0x01), 0x01)\n        /* \"#utility.yul\":2096:2098   */\n      dup1\n        /* \"#utility.yul\":2088:2094   */\n      dup12\n        /* \"#utility.yul\":2084:2099   */\n      and\n        /* \"#utility.yul\":2079:2081   */\n      0x40\n        /* \"#utility.yul\":2068:2077   */\n      dup6\n        /* \"#utility.yul\":2064:2082   */\n      add\n        /* \"#utility.yul\":2057:2100   */\n      mstore\n        /* \"#utility.yul\":2136:2142   */\n      dup10\n        /* \"#utility.yul\":2131:2133   */\n      0x60\n        /* \"#utility.yul\":2120:2129   */\n      dup6\n        /* \"#utility.yul\":2116:2134   */\n      add\n        /* \"#utility.yul\":2109:2143   */\n      mstore\n        /* \"#utility.yul\":2180:2186   */\n      dup9\n        /* \"#utility.yul\":2174:2177   */\n      0x80\n        /* \"#utility.yul\":2163:2172   */\n      dup6\n        /* \"#utility.yul\":2159:2178   */\n      add\n        /* \"#utility.yul\":2152:2187   */\n      mstore\n        /* \"#utility.yul\":2238:2244   */\n      dup8\n        /* \"#utility.yul\":2231:2245   */\n      iszero\n        /* \"#utility.yul\":2224:2246   */\n      iszero\n        /* \"#utility.yul\":2218:2221   */\n      0xa0\n        /* \"#utility.yul\":2207:2216   */\n      dup6\n        /* \"#utility.yul\":2203:2222   */\n      add\n        /* \"#utility.yul\":2196:2247   */\n      mstore\n        /* \"#utility.yul\":2298:2304   */\n      dup7\n        /* \"#utility.yul\":2291:2305   */\n      iszero\n        /* \"#utility.yul\":2284:2306   */\n      iszero\n        /* \"#utility.yul\":2278:2281   */\n      0xc0\n        /* \"#utility.yul\":2267:2276   */\n      dup6\n        /* \"#utility.yul\":2263:2282   */\n      add\n        /* \"#utility.yul\":2256:2307   */\n      mstore\n        /* \"#utility.yul\":2356:2365   */\n      dup4\n        /* \"#utility.yul\":2348:2354   */\n      dup3\n        /* \"#utility.yul\":2344:2366   */\n      sub\n        /* \"#utility.yul\":2338:2341   */\n      0xe0\n        /* \"#utility.yul\":2327:2336   */\n      dup6\n        /* \"#utility.yul\":2323:2342   */\n      add\n        /* \"#utility.yul\":2316:2367   */\n      mstore\n        /* \"#utility.yul\":2410:2412   */\n      dup1\n        /* \"#utility.yul\":2401:2407   */\n      dup7\n        /* \"#utility.yul\":2395:2408   */\n      mload\n        /* \"#utility.yul\":2391:2413   */\n      and\n        /* \"#utility.yul\":2383:2389   */\n      dup3\n        /* \"#utility.yul\":2376:2414   */\n      mstore\n      pop\n        /* \"#utility.yul\":2465:2467   */\n      0x20\n        /* \"#utility.yul\":2457:2463   */\n      dup6\n        /* \"#utility.yul\":2453:2468   */\n      add\n        /* \"#utility.yul\":2447:2469   */\n      mload\n        /* \"#utility.yul\":2442:2444   */\n      0x20\n        /* \"#utility.yul\":2434:2440   */\n      dup3\n        /* \"#utility.yul\":2430:2445   */\n      add\n        /* \"#utility.yul\":2423:2470   */\n      mstore\n        /* \"#utility.yul\":2517:2519   */\n      0x40\n        /* \"#utility.yul\":2509:2515   */\n      dup6\n        /* \"#utility.yul\":2505:2520   */\n      add\n        /* \"#utility.yul\":2499:2521   */\n      mload\n        /* \"#utility.yul\":2554:2556   */\n      0x60\n        /* \"#utility.yul\":2549:2551   */\n      0x40\n        /* \"#utility.yul\":2541:2547   */\n      dup4\n        /* \"#utility.yul\":2537:2552   */\n      add\n        /* \"#utility.yul\":2530:2557   */\n      mstore\n        /* \"#utility.yul\":2577:2625   */\n      tag_193\n        /* \"#utility.yul\":2621:2623   */\n      0x60\n        /* \"#utility.yul\":2613:2619   */\n      dup4\n        /* \"#utility.yul\":2609:2624   */\n      add\n        /* \"#utility.yul\":2595:2607   */\n      dup3\n        /* \"#utility.yul\":2577:2625   */\n      tag_171\n      jump\t// in\n    tag_193:\n        /* \"#utility.yul\":2566:2625   */\n      swap2\n      pop\n      pop\n        /* \"#utility.yul\":2671:2680   */\n      dup3\n        /* \"#utility.yul\":2666:2669   */\n      dup2\n        /* \"#utility.yul\":2662:2681   */\n      sub\n        /* \"#utility.yul\":2656:2659   */\n      0x0100\n        /* \"#utility.yul\":2645:2654   */\n      dup5\n        /* \"#utility.yul\":2641:2660   */\n      add\n        /* \"#utility.yul\":2634:2682   */\n      mstore\n        /* \"#utility.yul\":2699:2733   */\n      tag_194\n        /* \"#utility.yul\":2729:2732   */\n      dup2\n        /* \"#utility.yul\":2721:2727   */\n      dup6\n        /* \"#utility.yul\":2699:2733   */\n      tag_174\n      jump\t// in\n    tag_194:\n        /* \"#utility.yul\":2691:2733   */\n      swap13\n        /* \"#utility.yul\":1404:2739   */\n      swap12\n      pop\n      pop\n      pop\n      pop\n      pop\n      pop\n      pop\n      pop\n      pop\n      pop\n      pop\n      pop\n      jump\t// out\n        /* \"#utility.yul\":2926:3053   */\n    tag_136:\n        /* \"#utility.yul\":2987:2997   */\n      0x4e487b71\n        /* \"#utility.yul\":2982:2985   */\n      0xe0\n        /* \"#utility.yul\":2978:2998   */\n      shl\n        /* \"#utility.yul\":2975:2976   */\n      0x00\n        /* \"#utility.yul\":2968:2999   */\n      mstore\n        /* \"#utility.yul\":3018:3022   */\n      0x41\n        /* \"#utility.yul\":3015:3016   */\n      0x04\n        /* \"#utility.yul\":3008:3023   */\n      mstore\n        /* \"#utility.yul\":3042:3046   */\n      0x24\n        /* \"#utility.yul\":3039:3040   */\n      0x00\n        /* \"#utility.yul\":3032:3047   */\n      revert\n        /* \"#utility.yul\":3058:3777   */\n    tag_175:\n        /* \"#utility.yul\":3101:3106   */\n      0x00\n        /* \"#utility.yul\":3154:3157   */\n      dup3\n        /* \"#utility.yul\":3147:3151   */\n      0x1f\n        /* \"#utility.yul\":3139:3145   */\n      dup4\n        /* \"#utility.yul\":3135:3152   */\n      add\n        /* \"#utility.yul\":3131:3158   */\n      slt\n        /* \"#utility.yul\":3121:3176   */\n      tag_198\n      jumpi\n        /* \"#utility.yul\":3172:3173   */\n      0x00\n        /* \"#utility.yul\":3169:3170   */\n      dup1\n        /* \"#utility.yul\":3162:3174   */\n      revert\n        /* \"#utility.yul\":3121:3176   */\n    tag_198:\n        /* \"#utility.yul\":3208:3214   */\n      dup2\n        /* \"#utility.yul\":3195:3215   */\n      calldataload\n        /* \"#utility.yul\":3234:3252   */\n      0xffffffffffffffff\n        /* \"#utility.yul\":3271:3273   */\n      dup1\n        /* \"#utility.yul\":3267:3269   */\n      dup3\n        /* \"#utility.yul\":3264:3274   */\n      gt\n        /* \"#utility.yul\":3261:3297   */\n      iszero\n      tag_200\n      jumpi\n        /* \"#utility.yul\":3277:3295   */\n      tag_200\n      tag_136\n      jump\t// in\n    tag_200:\n        /* \"#utility.yul\":3352:3354   */\n      0x40\n        /* \"#utility.yul\":3346:3355   */\n      mload\n        /* \"#utility.yul\":3320:3322   */\n      0x1f\n        /* \"#utility.yul\":3406:3419   */\n      dup4\n      add\n      not(0x1f)\n        /* \"#utility.yul\":3402:3424   */\n      swap1\n      dup2\n      and\n        /* \"#utility.yul\":3426:3428   */\n      0x3f\n        /* \"#utility.yul\":3398:3429   */\n      add\n        /* \"#utility.yul\":3394:3434   */\n      and\n        /* \"#utility.yul\":3382:3435   */\n      dup2\n      add\n      swap1\n        /* \"#utility.yul\":3450:3468   */\n      dup3\n      dup3\n      gt\n        /* \"#utility.yul\":3470:3492   */\n      dup2\n      dup4\n      lt\n        /* \"#utility.yul\":3447:3493   */\n      or\n        /* \"#utility.yul\":3444:3516   */\n      iszero\n      tag_202\n      jumpi\n        /* \"#utility.yul\":3496:3514   */\n      tag_202\n      tag_136\n      jump\t// in\n    tag_202:\n        /* \"#utility.yul\":3536:3546   */\n      dup2\n        /* \"#utility.yul\":3532:3534   */\n      0x40\n        /* \"#utility.yul\":3525:3547   */\n      mstore\n        /* \"#utility.yul\":3571:3573   */\n      dup4\n        /* \"#utility.yul\":3563:3569   */\n      dup2\n        /* \"#utility.yul\":3556:3574   */\n      mstore\n        /* \"#utility.yul\":3617:3620   */\n      dup7\n        /* \"#utility.yul\":3610:3614   */\n      0x20\n        /* \"#utility.yul\":3605:3607   */\n      dup6\n        /* \"#utility.yul\":3597:3603   */\n      dup9\n        /* \"#utility.yul\":3593:3608   */\n      add\n        /* \"#utility.yul\":3589:3615   */\n      add\n        /* \"#utility.yul\":3586:3621   */\n      gt\n        /* \"#utility.yul\":3583:3638   */\n      iszero\n      tag_203\n      jumpi\n        /* \"#utility.yul\":3634:3635   */\n      0x00\n        /* \"#utility.yul\":3631:3632   */\n      dup1\n        /* \"#utility.yul\":3624:3636   */\n      revert\n        /* \"#utility.yul\":3583:3638   */\n    tag_203:\n        /* \"#utility.yul\":3698:3700   */\n      dup4\n        /* \"#utility.yul\":3691:3695   */\n      0x20\n        /* \"#utility.yul\":3683:3689   */\n      dup8\n        /* \"#utility.yul\":3679:3696   */\n      add\n        /* \"#utility.yul\":3672:3676   */\n      0x20\n        /* \"#utility.yul\":3664:3670   */\n      dup4\n        /* \"#utility.yul\":3660:3677   */\n      add\n        /* \"#utility.yul\":3647:3701   */\n      calldatacopy\n        /* \"#utility.yul\":3745:3746   */\n      0x00\n        /* \"#utility.yul\":3738:3742   */\n      0x20\n        /* \"#utility.yul\":3733:3735   */\n      dup6\n        /* \"#utility.yul\":3725:3731   */\n      dup4\n        /* \"#utility.yul\":3721:3736   */\n      add\n        /* \"#utility.yul\":3717:3743   */\n      add\n        /* \"#utility.yul\":3710:3747   */\n      mstore\n        /* \"#utility.yul\":3765:3771   */\n      dup1\n        /* \"#utility.yul\":3756:3771   */\n      swap5\n      pop\n      pop\n      pop\n      pop\n      pop\n        /* \"#utility.yul\":3058:3777   */\n      swap3\n      swap2\n      pop\n      pop\n      jump\t// out\n        /* \"#utility.yul\":3782:4172   */\n    tag_35:\n        /* \"#utility.yul\":3860:3866   */\n      0x00\n        /* \"#utility.yul\":3868:3874   */\n      dup1\n        /* \"#utility.yul\":3921:3923   */\n      0x40\n        /* \"#utility.yul\":3909:3918   */\n      dup4\n        /* \"#utility.yul\":3900:3907   */\n      dup6\n        /* \"#utility.yul\":3896:3919   */\n      sub\n        /* \"#utility.yul\":3892:3924   */\n      slt\n        /* \"#utility.yul\":3889:3941   */\n      iszero\n      tag_205\n      jumpi\n        /* \"#utility.yul\":3937:3938   */\n      0x00\n        /* \"#utility.yul\":3934:3935   */\n      dup1\n        /* \"#utility.yul\":3927:3939   */\n      revert\n        /* \"#utility.yul\":3889:3941   */\n    tag_205:\n        /* \"#utility.yul\":3973:3982   */\n      dup3\n        /* \"#utility.yul\":3960:3983   */\n      calldataload\n        /* \"#utility.yul\":3950:3983   */\n      swap2\n      pop\n        /* \"#utility.yul\":4034:4036   */\n      0x20\n        /* \"#utility.yul\":4023:4032   */\n      dup4\n        /* \"#utility.yul\":4019:4037   */\n      add\n        /* \"#utility.yul\":4006:4038   */\n      calldataload\n        /* \"#utility.yul\":4061:4079   */\n      0xffffffffffffffff\n        /* \"#utility.yul\":4053:4059   */\n      dup2\n        /* \"#utility.yul\":4050:4080   */\n      gt\n        /* \"#utility.yul\":4047:4097   */\n      iszero\n      tag_206\n      jumpi\n        /* \"#utility.yul\":4093:4094   */\n      0x00\n        /* \"#utility.yul\":4090:4091   */\n      dup1\n        /* \"#utility.yul\":4083:4095   */\n      revert\n        /* \"#utility.yul\":4047:4097   */\n    tag_206:\n        /* \"#utility.yul\":4116:4166   */\n      tag_207\n        /* \"#utility.yul\":4158:4165   */\n      dup6\n        /* \"#utility.yul\":4149:4155   */\n      dup3\n        /* \"#utility.yul\":4138:4147   */\n      dup7\n        /* \"#utility.yul\":4134:4156   */\n      add\n        /* \"#utility.yul\":4116:4166   */\n      tag_175\n      jump\t// in\n    tag_207:\n        /* \"#utility.yul\":4106:4166   */\n      swap2\n      pop\n      pop\n        /* \"#utility.yul\":3782:4172   */\n      swap3\n      pop\n      swap3\n      swap1\n      pop\n      jump\t// out\n        /* \"#utility.yul\":4177:6603   */\n    tag_49:\n        /* \"#utility.yul\":4398:4400   */\n      0x20\n        /* \"#utility.yul\":4450:4471   */\n      dup1\n      dup3\n      mstore\n        /* \"#utility.yul\":4520:4533   */\n      dup3\n      mload\n        /* \"#utility.yul\":4423:4441   */\n      dup3\n      dup3\n      add\n        /* \"#utility.yul\":4542:4564   */\n      dup2\n      swap1\n      mstore\n        /* \"#utility.yul\":4369:4373   */\n      0x00\n      swap2\n        /* \"#utility.yul\":4398:4400   */\n      swap1\n        /* \"#utility.yul\":4583:4585   */\n      0x40\n      swap1\n        /* \"#utility.yul\":4601:4619   */\n      dup2\n      dup6\n      add\n      swap1\n        /* \"#utility.yul\":4638:4639   */\n      0x05\n        /* \"#utility.yul\":4681:4695   */\n      dup2\n      dup2\n      shl\n        /* \"#utility.yul\":4666:4696   */\n      dup8\n      add\n        /* \"#utility.yul\":4662:4701   */\n      dup5\n      add\n        /* \"#utility.yul\":4724:4739   */\n      dup9\n      dup7\n      add\n        /* \"#utility.yul\":4369:4373   */\n      dup8\n        /* \"#utility.yul\":4767:6574   */\n    tag_209:\n        /* \"#utility.yul\":4781:4787   */\n      dup5\n        /* \"#utility.yul\":4778:4779   */\n      dup2\n        /* \"#utility.yul\":4775:4788   */\n      lt\n        /* \"#utility.yul\":4767:6574   */\n      iszero\n      tag_211\n      jumpi\n        /* \"#utility.yul\":4874:4876   */\n      0x3f\n        /* \"#utility.yul\":4870:4877   */\n      not\n        /* \"#utility.yul\":4858:4867   */\n      dup11\n        /* \"#utility.yul\":4850:4856   */\n      dup5\n        /* \"#utility.yul\":4846:4868   */\n      sub\n        /* \"#utility.yul\":4842:4878   */\n      add\n        /* \"#utility.yul\":4837:4840   */\n      dup7\n        /* \"#utility.yul\":4830:4879   */\n      mstore\n        /* \"#utility.yul\":4908:4914   */\n      dup2\n        /* \"#utility.yul\":4902:4915   */\n      mload\n        /* \"#utility.yul\":4938:4944   */\n      0x0100\n        /* \"#utility.yul\":4983:4985   */\n      dup2\n        /* \"#utility.yul\":4977:4986   */\n      mload\n        /* \"#utility.yul\":5014:5016   */\n      dup2\n        /* \"#utility.yul\":5006:5012   */\n      dup7\n        /* \"#utility.yul\":4999:5017   */\n      mstore\n        /* \"#utility.yul\":5044:5092   */\n      tag_212\n        /* \"#utility.yul\":5088:5090   */\n      dup3\n        /* \"#utility.yul\":5080:5086   */\n      dup8\n        /* \"#utility.yul\":5076:5091   */\n      add\n        /* \"#utility.yul\":5062:5074   */\n      dup3\n        /* \"#utility.yul\":5044:5092   */\n      tag_171\n      jump\t// in\n    tag_212:\n        /* \"#utility.yul\":5133:5144   */\n      dup4\n      dup13\n      add\n        /* \"#utility.yul\":5127:5145   */\n      mload\n        /* \"#utility.yul\":5182:5201   */\n      dup8\n      dup3\n      sub\n        /* \"#utility.yul\":5165:5180   */\n      dup9\n      dup15\n      add\n        /* \"#utility.yul\":5158:5202   */\n      mstore\n        /* \"#utility.yul\":5263:5284   */\n      dup1\n      mload\n        /* \"#utility.yul\":5297:5321   */\n      dup1\n      dup4\n      mstore\n        /* \"#utility.yul\":5030:5092   */\n      swap2\n      swap4\n      pop\n        /* \"#utility.yul\":5453:5476   */\n      dup13\n      add\n      swap2\n      pop\n        /* \"#utility.yul\":5343:5358   */\n      dup12\n      dup4\n      add\n      swap1\n        /* \"#utility.yul\":5401:5418   */\n      dup1\n      dup10\n      shl\n        /* \"#utility.yul\":5389:5419   */\n      dup5\n      add\n        /* \"#utility.yul\":5385:5424   */\n      dup14\n      add\n        /* \"#utility.yul\":5500:5501   */\n      0x00\n        /* \"#utility.yul\":5514:5814   */\n    tag_213:\n        /* \"#utility.yul\":5530:5538   */\n      dup3\n        /* \"#utility.yul\":5525:5528   */\n      dup2\n        /* \"#utility.yul\":5522:5539   */\n      lt\n        /* \"#utility.yul\":5514:5814   */\n      iszero\n      tag_215\n      jumpi\n        /* \"#utility.yul\":5636:5638   */\n      0x1f\n        /* \"#utility.yul\":5632:5639   */\n      not\n        /* \"#utility.yul\":5623:5629   */\n      dup7\n        /* \"#utility.yul\":5615:5621   */\n      dup4\n        /* \"#utility.yul\":5611:5630   */\n      sub\n        /* \"#utility.yul\":5607:5640   */\n      add\n        /* \"#utility.yul\":5600:5605   */\n      dup5\n        /* \"#utility.yul\":5593:5641   */\n      mstore\n        /* \"#utility.yul\":5668:5714   */\n      tag_216\n        /* \"#utility.yul\":5707:5713   */\n      dup3\n        /* \"#utility.yul\":5696:5704   */\n      dup7\n        /* \"#utility.yul\":5690:5705   */\n      mload\n        /* \"#utility.yul\":5668:5714   */\n      tag_174\n      jump\t// in\n    tag_216:\n        /* \"#utility.yul\":5743:5760   */\n      swap5\n      dup16\n      add\n      swap5\n        /* \"#utility.yul\":5786:5800   */\n      swap4\n      dup16\n      add\n      swap4\n        /* \"#utility.yul\":5658:5714   */\n      swap2\n      pop\n        /* \"#utility.yul\":5558:5559   */\n      0x01\n        /* \"#utility.yul\":5549:5560   */\n      add\n        /* \"#utility.yul\":5514:5814   */\n      jump(tag_213)\n    tag_215:\n        /* \"#utility.yul\":5518:5521   */\n      pop\n        /* \"#utility.yul\":5865:5867   */\n      dup13\n        /* \"#utility.yul\":5861:5863   */\n      dup7\n        /* \"#utility.yul\":5857:5868   */\n      add\n        /* \"#utility.yul\":5851:5869   */\n      mload\n        /* \"#utility.yul\":5846:5848   */\n      dup14\n        /* \"#utility.yul\":5838:5844   */\n      dup11\n        /* \"#utility.yul\":5834:5849   */\n      add\n        /* \"#utility.yul\":5827:5870   */\n      mstore\n        /* \"#utility.yul\":5893:5897   */\n      0x60\n        /* \"#utility.yul\":5883:5897   */\n      swap5\n      pop\n        /* \"#utility.yul\":5946:5948   */\n      dup5\n        /* \"#utility.yul\":5942:5944   */\n      dup7\n        /* \"#utility.yul\":5938:5949   */\n      add\n        /* \"#utility.yul\":5932:5950   */\n      mload\n        /* \"#utility.yul\":5910:5950   */\n      swap4\n      pop\n        /* \"#utility.yul\":5963:6014   */\n      tag_217\n        /* \"#utility.yul\":6010:6012   */\n      dup6\n        /* \"#utility.yul\":6002:6008   */\n      dup11\n        /* \"#utility.yul\":5998:6013   */\n      add\n        /* \"#utility.yul\":5982:5996   */\n      dup6\n      sub(shl(0xa0, 0x01), 0x01)\n        /* \"#utility.yul\":941:995   */\n      and\n        /* \"#utility.yul\":929:996   */\n      swap1\n      mstore\n        /* \"#utility.yul\":875:1002   */\n      jump\n        /* \"#utility.yul\":5963:6014   */\n    tag_217:\n        /* \"#utility.yul\":6037:6041   */\n      0x80\n        /* \"#utility.yul\":6084:6095   */\n      dup7\n      dup2\n      add\n        /* \"#utility.yul\":6078:6096   */\n      mload\n        /* \"#utility.yul\":6061:6076   */\n      swap1\n      dup11\n      add\n        /* \"#utility.yul\":6054:6097   */\n      mstore\n        /* \"#utility.yul\":6120:6124   */\n      0xa0\n        /* \"#utility.yul\":6167:6178   */\n      dup1\n      dup8\n      add\n        /* \"#utility.yul\":6161:6179   */\n      mload\n        /* \"#utility.yul\":6144:6159   */\n      swap1\n      dup11\n      add\n        /* \"#utility.yul\":6137:6180   */\n      mstore\n        /* \"#utility.yul\":6203:6207   */\n      0xc0\n        /* \"#utility.yul\":6248:6259   */\n      dup1\n      dup8\n      add\n        /* \"#utility.yul\":6242:6260   */\n      mload\n        /* \"#utility.yul\":1077:1090   */\n      iszero\n        /* \"#utility.yul\":1070:1091   */\n      iszero\n        /* \"#utility.yul\":6305:6320   */\n      swap1\n      dup11\n      add\n        /* \"#utility.yul\":1058:1092   */\n      mstore\n        /* \"#utility.yul\":6345:6349   */\n      0xe0\n        /* \"#utility.yul\":6390:6402   */\n      swap6\n      dup7\n      add\n        /* \"#utility.yul\":6384:6403   */\n      mload\n        /* \"#utility.yul\":1077:1090   */\n      iszero\n        /* \"#utility.yul\":1070:1091   */\n      iszero\n        /* \"#utility.yul\":6448:6464   */\n      swap6\n      swap1\n      swap9\n      add\n        /* \"#utility.yul\":1058:1092   */\n      swap5\n      swap1\n      swap5\n      mstore\n      pop\n      pop\n      pop\n        /* \"#utility.yul\":6552:6564   */\n      swap6\n      dup9\n      add\n      swap6\n      pop\n        /* \"#utility.yul\":6517:6532   */\n      swap1\n      dup8\n      add\n      swap1\n        /* \"#utility.yul\":4803:4804   */\n      0x01\n        /* \"#utility.yul\":4796:4805   */\n      add\n        /* \"#utility.yul\":4767:6574   */\n      jump(tag_209)\n    tag_211:\n      pop\n        /* \"#utility.yul\":6591:6597   */\n      swap1\n      swap10\n        /* \"#utility.yul\":4177:6603   */\n      swap9\n      pop\n      pop\n      pop\n      pop\n      pop\n      pop\n      pop\n      pop\n      pop\n      jump\t// out\n        /* \"#utility.yul\":6608:7151   */\n    tag_53:\n        /* \"#utility.yul\":6696:6702   */\n      0x00\n        /* \"#utility.yul\":6704:6710   */\n      dup1\n        /* \"#utility.yul\":6757:6759   */\n      0x40\n        /* \"#utility.yul\":6745:6754   */\n      dup4\n        /* \"#utility.yul\":6736:6743   */\n      dup6\n        /* \"#utility.yul\":6732:6755   */\n      sub\n        /* \"#utility.yul\":6728:6760   */\n      slt\n        /* \"#utility.yul\":6725:6777   */\n      iszero\n      tag_221\n      jumpi\n        /* \"#utility.yul\":6773:6774   */\n      0x00\n        /* \"#utility.yul\":6770:6771   */\n      dup1\n        /* \"#utility.yul\":6763:6775   */\n      revert\n        /* \"#utility.yul\":6725:6777   */\n    tag_221:\n        /* \"#utility.yul\":6813:6822   */\n      dup3\n        /* \"#utility.yul\":6800:6823   */\n      calldataload\n        /* \"#utility.yul\":6842:6860   */\n      0xffffffffffffffff\n        /* \"#utility.yul\":6883:6885   */\n      dup1\n        /* \"#utility.yul\":6875:6881   */\n      dup3\n        /* \"#utility.yul\":6872:6886   */\n      gt\n        /* \"#utility.yul\":6869:6903   */\n      iszero\n      tag_222\n      jumpi\n        /* \"#utility.yul\":6899:6900   */\n      0x00\n        /* \"#utility.yul\":6896:6897   */\n      dup1\n        /* \"#utility.yul\":6889:6901   */\n      revert\n        /* \"#utility.yul\":6869:6903   */\n    tag_222:\n        /* \"#utility.yul\":6922:6972   */\n      tag_223\n        /* \"#utility.yul\":6964:6971   */\n      dup7\n        /* \"#utility.yul\":6955:6961   */\n      dup4\n        /* \"#utility.yul\":6944:6953   */\n      dup8\n        /* \"#utility.yul\":6940:6962   */\n      add\n        /* \"#utility.yul\":6922:6972   */\n      tag_175\n      jump\t// in\n    tag_223:\n        /* \"#utility.yul\":6912:6972   */\n      swap4\n      pop\n        /* \"#utility.yul\":7025:7027   */\n      0x20\n        /* \"#utility.yul\":7014:7023   */\n      dup6\n        /* \"#utility.yul\":7010:7028   */\n      add\n        /* \"#utility.yul\":6997:7029   */\n      calldataload\n        /* \"#utility.yul\":6981:7029   */\n      swap2\n      pop\n        /* \"#utility.yul\":7054:7056   */\n      dup1\n        /* \"#utility.yul\":7044:7052   */\n      dup3\n        /* \"#utility.yul\":7041:7057   */\n      gt\n        /* \"#utility.yul\":7038:7074   */\n      iszero\n      tag_224\n      jumpi\n        /* \"#utility.yul\":7070:7071   */\n      0x00\n        /* \"#utility.yul\":7067:7068   */\n      dup1\n        /* \"#utility.yul\":7060:7072   */\n      revert\n        /* \"#utility.yul\":7038:7074   */\n    tag_224:\n      pop\n        /* \"#utility.yul\":7093:7145   */\n      tag_207\n        /* \"#utility.yul\":7137:7144   */\n      dup6\n        /* \"#utility.yul\":7126:7134   */\n      dup3\n        /* \"#utility.yul\":7115:7124   */\n      dup7\n        /* \"#utility.yul\":7111:7135   */\n      add\n        /* \"#utility.yul\":7093:7145   */\n      tag_175\n      jump\t// in\n        /* \"#utility.yul\":7156:7283   */\n    tag_68:\n        /* \"#utility.yul\":7217:7227   */\n      0x4e487b71\n        /* \"#utility.yul\":7212:7215   */\n      0xe0\n        /* \"#utility.yul\":7208:7228   */\n      shl\n        /* \"#utility.yul\":7205:7206   */\n      0x00\n        /* \"#utility.yul\":7198:7229   */\n      mstore\n        /* \"#utility.yul\":7248:7252   */\n      0x32\n        /* \"#utility.yul\":7245:7246   */\n      0x04\n        /* \"#utility.yul\":7238:7253   */\n      mstore\n        /* \"#utility.yul\":7272:7276   */\n      0x24\n        /* \"#utility.yul\":7269:7270   */\n      0x00\n        /* \"#utility.yul\":7262:7277   */\n      revert\n        /* \"#utility.yul\":7288:7668   */\n    tag_73:\n        /* \"#utility.yul\":7367:7368   */\n      0x01\n        /* \"#utility.yul\":7363:7375   */\n      dup2\n      dup2\n      shr\n      swap1\n        /* \"#utility.yul\":7410:7422   */\n      dup3\n      and\n      dup1\n        /* \"#utility.yul\":7431:7492   */\n      tag_228\n      jumpi\n        /* \"#utility.yul\":7485:7489   */\n      0x7f\n        /* \"#utility.yul\":7477:7483   */\n      dup3\n        /* \"#utility.yul\":7473:7490   */\n      and\n        /* \"#utility.yul\":7463:7490   */\n      swap2\n      pop\n        /* \"#utility.yul\":7431:7492   */\n    tag_228:\n        /* \"#utility.yul\":7538:7540   */\n      0x20\n        /* \"#utility.yul\":7530:7536   */\n      dup3\n        /* \"#utility.yul\":7527:7541   */\n      lt\n        /* \"#utility.yul\":7507:7525   */\n      dup2\n        /* \"#utility.yul\":7504:7542   */\n      sub\n        /* \"#utility.yul\":7501:7662   */\n      tag_142\n      jumpi\n        /* \"#utility.yul\":7584:7594   */\n      0x4e487b71\n        /* \"#utility.yul\":7579:7582   */\n      0xe0\n        /* \"#utility.yul\":7575:7595   */\n      shl\n        /* \"#utility.yul\":7572:7573   */\n      0x00\n        /* \"#utility.yul\":7565:7596   */\n      mstore\n        /* \"#utility.yul\":7619:7623   */\n      0x22\n        /* \"#utility.yul\":7616:7617   */\n      0x04\n        /* \"#utility.yul\":7609:7624   */\n      mstore\n        /* \"#utility.yul\":7647:7651   */\n      0x24\n        /* \"#utility.yul\":7644:7645   */\n      0x00\n        /* \"#utility.yul\":7637:7652   */\n      revert\n        /* \"#utility.yul\":8830:8957   */\n    tag_176:\n        /* \"#utility.yul\":8891:8901   */\n      0x4e487b71\n        /* \"#utility.yul\":8886:8889   */\n      0xe0\n        /* \"#utility.yul\":8882:8902   */\n      shl\n        /* \"#utility.yul\":8879:8880   */\n      0x00\n        /* \"#utility.yul\":8872:8903   */\n      mstore\n        /* \"#utility.yul\":8922:8926   */\n      0x11\n        /* \"#utility.yul\":8919:8920   */\n      0x04\n        /* \"#utility.yul\":8912:8927   */\n      mstore\n        /* \"#utility.yul\":8946:8950   */\n      0x24\n        /* \"#utility.yul\":8943:8944   */\n      0x00\n        /* \"#utility.yul\":8936:8951   */\n      revert\n        /* \"#utility.yul\":8962:9087   */\n    tag_108:\n        /* \"#utility.yul\":9027:9036   */\n      dup1\n      dup3\n      add\n        /* \"#utility.yul\":9048:9058   */\n      dup1\n      dup3\n      gt\n        /* \"#utility.yul\":9045:9081   */\n      iszero\n      tag_88\n      jumpi\n        /* \"#utility.yul\":9061:9079   */\n      tag_88\n      tag_176\n      jump\t// in\n        /* \"#utility.yul\":9218:9736   */\n    tag_178:\n        /* \"#utility.yul\":9320:9322   */\n      0x1f\n        /* \"#utility.yul\":9315:9318   */\n      dup3\n        /* \"#utility.yul\":9312:9323   */\n      gt\n        /* \"#utility.yul\":9309:9730   */\n      iszero\n      tag_239\n      jumpi\n        /* \"#utility.yul\":9356:9361   */\n      dup1\n        /* \"#utility.yul\":9353:9354   */\n      0x00\n        /* \"#utility.yul\":9346:9362   */\n      mstore\n        /* \"#utility.yul\":9400:9404   */\n      0x20\n        /* \"#utility.yul\":9397:9398   */\n      0x00\n        /* \"#utility.yul\":9387:9405   */\n      keccak256\n        /* \"#utility.yul\":9470:9472   */\n      0x1f\n        /* \"#utility.yul\":9458:9468   */\n      dup5\n        /* \"#utility.yul\":9454:9473   */\n      add\n        /* \"#utility.yul\":9451:9452   */\n      0x05\n        /* \"#utility.yul\":9447:9474   */\n      shr\n        /* \"#utility.yul\":9441:9445   */\n      dup2\n        /* \"#utility.yul\":9437:9475   */\n      add\n        /* \"#utility.yul\":9506:9510   */\n      0x20\n        /* \"#utility.yul\":9494:9504   */\n      dup6\n        /* \"#utility.yul\":9491:9511   */\n      lt\n        /* \"#utility.yul\":9488:9535   */\n      iszero\n      tag_240\n      jumpi\n      pop\n        /* \"#utility.yul\":9529:9533   */\n      dup1\n        /* \"#utility.yul\":9488:9535   */\n    tag_240:\n        /* \"#utility.yul\":9584:9586   */\n      0x1f\n        /* \"#utility.yul\":9579:9582   */\n      dup5\n        /* \"#utility.yul\":9575:9587   */\n      add\n        /* \"#utility.yul\":9572:9573   */\n      0x05\n        /* \"#utility.yul\":9568:9588   */\n      shr\n        /* \"#utility.yul\":9562:9566   */\n      dup3\n        /* \"#utility.yul\":9558:9589   */\n      add\n        /* \"#utility.yul\":9548:9589   */\n      swap2\n      pop\n        /* \"#utility.yul\":9639:9720   */\n    tag_241:\n        /* \"#utility.yul\":9657:9659   */\n      dup2\n        /* \"#utility.yul\":9650:9655   */\n      dup2\n        /* \"#utility.yul\":9647:9660   */\n      lt\n        /* \"#utility.yul\":9639:9720   */\n      iszero\n      tag_243\n      jumpi\n        /* \"#utility.yul\":9716:9717   */\n      0x00\n        /* \"#utility.yul\":9702:9718   */\n      dup2\n      sstore\n        /* \"#utility.yul\":9683:9684   */\n      0x01\n        /* \"#utility.yul\":9672:9685   */\n      add\n        /* \"#utility.yul\":9639:9720   */\n      jump(tag_241)\n    tag_243:\n        /* \"#utility.yul\":9643:9646   */\n      pop\n      pop\n        /* \"#utility.yul\":9309:9730   */\n    tag_239:\n        /* \"#utility.yul\":9218:9736   */\n      pop\n      pop\n      pop\n      jump\t// out\n        /* \"#utility.yul\":9912:11257   */\n    tag_110:\n        /* \"#utility.yul\":10038:10041   */\n      dup2\n        /* \"#utility.yul\":10032:10042   */\n      mload\n        /* \"#utility.yul\":10065:10083   */\n      0xffffffffffffffff\n        /* \"#utility.yul\":10057:10063   */\n      dup2\n        /* \"#utility.yul\":10054:10084   */\n      gt\n        /* \"#utility.yul\":10051:10107   */\n      iszero\n      tag_247\n      jumpi\n        /* \"#utility.yul\":10087:10105   */\n      tag_247\n      tag_136\n      jump\t// in\n    tag_247:\n        /* \"#utility.yul\":10116:10213   */\n      tag_248\n        /* \"#utility.yul\":10206:10212   */\n      dup2\n        /* \"#utility.yul\":10166:10204   */\n      tag_249\n        /* \"#utility.yul\":10198:10202   */\n      dup5\n        /* \"#utility.yul\":10192:10203   */\n      sload\n        /* \"#utility.yul\":10166:10204   */\n      tag_73\n      jump\t// in\n    tag_249:\n        /* \"#utility.yul\":10160:10164   */\n      dup5\n        /* \"#utility.yul\":10116:10213   */\n      tag_178\n      jump\t// in\n    tag_248:\n        /* \"#utility.yul\":10268:10272   */\n      0x20\n      dup1\n        /* \"#utility.yul\":10325:10327   */\n      0x1f\n        /* \"#utility.yul\":10314:10328   */\n      dup4\n      gt\n        /* \"#utility.yul\":10342:10343   */\n      0x01\n        /* \"#utility.yul\":10337:11000   */\n      dup2\n      eq\n      tag_251\n      jumpi\n        /* \"#utility.yul\":11044:11045   */\n      0x00\n        /* \"#utility.yul\":11061:11067   */\n      dup5\n        /* \"#utility.yul\":11058:11147   */\n      iszero\n      tag_252\n      jumpi\n      pop\n        /* \"#utility.yul\":11113:11132   */\n      dup6\n      dup4\n      add\n        /* \"#utility.yul\":11107:11133   */\n      mload\n        /* \"#utility.yul\":11058:11147   */\n    tag_252:\n      not(0x00)\n        /* \"#utility.yul\":9869:9870   */\n      0x03\n        /* \"#utility.yul\":9865:9876   */\n      dup7\n      swap1\n      shl\n        /* \"#utility.yul\":9861:9885   */\n      shr\n        /* \"#utility.yul\":9857:9886   */\n      not\n        /* \"#utility.yul\":9847:9887   */\n      and\n        /* \"#utility.yul\":9893:9894   */\n      0x01\n        /* \"#utility.yul\":9889:9900   */\n      dup6\n      swap1\n      shl\n        /* \"#utility.yul\":9844:9901   */\n      or\n        /* \"#utility.yul\":11160:11241   */\n      dup6\n      sstore\n        /* \"#utility.yul\":10307:11251   */\n      jump(tag_250)\n        /* \"#utility.yul\":10337:11000   */\n    tag_251:\n        /* \"#utility.yul\":9165:9166   */\n      0x00\n        /* \"#utility.yul\":9158:9172   */\n      dup6\n      dup2\n      mstore\n        /* \"#utility.yul\":9202:9206   */\n      0x20\n        /* \"#utility.yul\":9189:9207   */\n      dup2\n      keccak256\n      not(0x1f)\n        /* \"#utility.yul\":10373:10393   */\n      dup7\n      and\n      swap2\n        /* \"#utility.yul\":10491:10727   */\n    tag_255:\n        /* \"#utility.yul\":10505:10512   */\n      dup3\n        /* \"#utility.yul\":10502:10503   */\n      dup2\n        /* \"#utility.yul\":10499:10513   */\n      lt\n        /* \"#utility.yul\":10491:10727   */\n      iszero\n      tag_257\n      jumpi\n        /* \"#utility.yul\":10594:10613   */\n      dup9\n      dup7\n      add\n        /* \"#utility.yul\":10588:10614   */\n      mload\n        /* \"#utility.yul\":10573:10615   */\n      dup3\n      sstore\n        /* \"#utility.yul\":10686:10713   */\n      swap5\n      dup5\n      add\n      swap5\n        /* \"#utility.yul\":10654:10655   */\n      0x01\n        /* \"#utility.yul\":10642:10656   */\n      swap1\n      swap2\n      add\n      swap1\n        /* \"#utility.yul\":10521:10540   */\n      dup5\n      add\n        /* \"#utility.yul\":10491:10727   */\n      jump(tag_255)\n    tag_257:\n        /* \"#utility.yul\":10495:10498   */\n      pop\n        /* \"#utility.yul\":10755:10761   */\n      dup6\n        /* \"#utility.yul\":10746:10753   */\n      dup3\n        /* \"#utility.yul\":10743:10762   */\n      lt\n        /* \"#utility.yul\":10740:10941   */\n      iszero\n      tag_258\n      jumpi\n        /* \"#utility.yul\":10816:10835   */\n      dup8\n      dup6\n      add\n        /* \"#utility.yul\":10810:10836   */\n      mload\n      not(0x00)\n        /* \"#utility.yul\":10899:10900   */\n      0x03\n        /* \"#utility.yul\":10895:10909   */\n      dup9\n      swap1\n      shl\n        /* \"#utility.yul\":10911:10914   */\n      0xf8\n        /* \"#utility.yul\":10891:10915   */\n      and\n        /* \"#utility.yul\":10887:10924   */\n      shr\n        /* \"#utility.yul\":10883:10925   */\n      not\n        /* \"#utility.yul\":10868:10926   */\n      and\n        /* \"#utility.yul\":10853:10927   */\n      dup2\n      sstore\n        /* \"#utility.yul\":10740:10941   */\n    tag_258:\n      pop\n      pop\n        /* \"#utility.yul\":10987:10988   */\n      0x01\n        /* \"#utility.yul\":10978:10984   */\n      dup5\n        /* \"#utility.yul\":10975:10976   */\n      0x01\n        /* \"#utility.yul\":10971:10985   */\n      shl\n        /* \"#utility.yul\":10967:10989   */\n      add\n        /* \"#utility.yul\":10961:10965   */\n      dup6\n        /* \"#utility.yul\":10954:10990   */\n      sstore\n        /* \"#utility.yul\":10307:11251   */\n    tag_250:\n      pop\n      pop\n      pop\n      pop\n        /* \"#utility.yul\":9912:11257   */\n      pop\n      pop\n      jump\t// out\n        /* \"#utility.yul\":11666:12028   */\n    tag_132:\n        /* \"#utility.yul\":11871:11877   */\n      dup4\n        /* \"#utility.yul\":11860:11869   */\n      dup2\n        /* \"#utility.yul\":11853:11878   */\n      mstore\n        /* \"#utility.yul\":11914:11916   */\n      0x60\n        /* \"#utility.yul\":11909:11911   */\n      0x20\n        /* \"#utility.yul\":11898:11907   */\n      dup3\n        /* \"#utility.yul\":11894:11912   */\n      add\n        /* \"#utility.yul\":11887:11917   */\n      mstore\n        /* \"#utility.yul\":11834:11838   */\n      0x00\n        /* \"#utility.yul\":11934:11979   */\n      tag_261\n        /* \"#utility.yul\":11975:11977   */\n      0x60\n        /* \"#utility.yul\":11964:11973   */\n      dup4\n        /* \"#utility.yul\":11960:11978   */\n      add\n        /* \"#utility.yul\":11952:11958   */\n      dup6\n        /* \"#utility.yul\":11934:11979   */\n      tag_171\n      jump\t// in\n    tag_261:\n        /* \"#utility.yul\":11926:11979   */\n      swap1\n      pop\n        /* \"#utility.yul\":12015:12021   */\n      dup3\n        /* \"#utility.yul\":12010:12012   */\n      0x40\n        /* \"#utility.yul\":11999:12008   */\n      dup4\n        /* \"#utility.yul\":11995:12013   */\n      add\n        /* \"#utility.yul\":11988:12022   */\n      mstore\n        /* \"#utility.yul\":11666:12028   */\n      swap5\n      swap4\n      pop\n      pop\n      pop\n      pop\n      jump\t// out\n        /* \"#utility.yul\":12033:12161   */\n    tag_167:\n        /* \"#utility.yul\":12100:12109   */\n      dup2\n      dup2\n      sub\n        /* \"#utility.yul\":12121:12132   */\n      dup2\n      dup2\n      gt\n        /* \"#utility.yul\":12118:12155   */\n      iszero\n      tag_88\n      jumpi\n        /* \"#utility.yul\":12135:12153   */\n      tag_88\n      tag_176\n      jump\t// in\n        /* \"#utility.yul\":12166:12457   */\n    tag_169:\n        /* \"#utility.yul\":12343:12345   */\n      0x40\n        /* \"#utility.yul\":12332:12341   */\n      dup2\n        /* \"#utility.yul\":12325:12346   */\n      mstore\n        /* \"#utility.yul\":12306:12310   */\n      0x00\n        /* \"#utility.yul\":12363:12408   */\n      tag_266\n        /* \"#utility.yul\":12404:12406   */\n      0x40\n        /* \"#utility.yul\":12393:12402   */\n      dup4\n        /* \"#utility.yul\":12389:12407   */\n      add\n        /* \"#utility.yul\":12381:12387   */\n      dup6\n        /* \"#utility.yul\":12363:12408   */\n      tag_171\n      jump\t// in\n    tag_266:\n        /* \"#utility.yul\":12355:12408   */\n      swap1\n      pop\n        /* \"#utility.yul\":12444:12450   */\n      dup3\n        /* \"#utility.yul\":12439:12441   */\n      0x20\n        /* \"#utility.yul\":12428:12437   */\n      dup4\n        /* \"#utility.yul\":12424:12442   */\n      add\n        /* \"#utility.yul\":12417:12451   */\n      mstore\n        /* \"#utility.yul\":12166:12457   */\n      swap4\n      swap3\n      pop\n      pop\n      pop\n      jump\t// out\n\n    auxdata: 0xa2646970667358221220c2d35296e88f9203a986f0c37b3aa65f03186f6f8404e5b12ae575194e4afbc264736f6c63430008190033\n}\n",
    "bytecode": {
      "linkReferences": {},
      "object": "6080604052348015600e575f80fd5b506113608061001c5f395ff3fe6080604052600436106100ad575f3560e01c80634fa650f111610066578063a97a44061161004c578063a97a4406146101ae578063c8b4d1d6146101cd578063dd1ead001461020e575f80fd5b80634fa650f11461016e57806360d177fe1461018d575f80fd5b806323995ade1161009657806323995ade1461010f5780632db003541461013c5780634a55ef1e1461014f575f80fd5b806304abc319146100b15780631c53c280146100d2575b5f80fd5b3480156100bc575f80fd5b506100d06100cb366004610dbe565b610244565b005b3480156100dd575f80fd5b506100f16100ec366004610df3565b610286565b60405161010699989796959493929190610e67565b60405180910390f35b34801561011a575f80fd5b5061012e610129366004610dbe565b6104df565b604051908152602001610106565b6100d061014a366004610fa3565b610525565b34801561015a575f80fd5b506100d0610169366004610df3565b61075a565b348015610179575f80fd5b506100d0610188366004610fa3565b61086d565b348015610198575f80fd5b506101a16109dc565b6040516101069190610fe7565b3480156101b9575f80fd5b506100d06101c83660046110ff565b610cc4565b3480156101d8575f80fd5b5061012e6101e7366004610dbe565b6001600160a01b03919091165f908152600160209081526040808320938352929052205490565b348015610219575f80fd5b5061012e610228366004610dbe565b600160209081525f928352604080842090915290825290205481565b5f80828154811061025757610257611155565b5f91825260208083206001600160a01b039096168352600c600d90920290950101909352505060409020439055565b5f8181548110610294575f80fd5b905f5260205f2090600d02015f91509050805f0180546102b390611169565b80601f01602080910402602001604051908101604052809291908181526020018280546102df90611169565b801561032a5780601f106103015761010080835404028352916020019161032a565b820191905f5260205f20905b81548152906001019060200180831161030d57829003601f168201915b50505050600283015460038401546004850154600586015460068701546040805160608101825260078a0180546001600160a01b03908116835260088c0154602084015260098c0180549b9c999b9190981699509597949660ff8086169761010090960416959492939192918401916103a290611169565b80601f01602080910402602001604051908101604052809291908181526020018280546103ce90611169565b80156104195780601f106103f057610100808354040283529160200191610419565b820191905f5260205f20905b8154815290600101906020018083116103fc57829003601f168201915b50505091909252505060408051808201909152600a840180546001600160a01b03168252600b85018054949594929350909160208401919061045a90611169565b80601f016020809104026020016040519081016040528092919081815260200182805461048690611169565b80156104d15780601f106104a8576101008083540402835291602001916104d1565b820191905f5260205f20905b8154815290600101906020018083116104b457829003601f168201915b505050505081525050905089565b5f805f83815481106104f3576104f3611155565b5f91825260208083206001600160a01b0388168452600c600d9093020191909101905260409020549150505b92915050565b5f5482106105705760405162461bcd60e51b8152602060048201526013602482015272139bd91948191bd95cc81b9bdd08195e1a5cdd606a1b60448201526064015b60405180910390fd5b5f34116105e55760405162461bcd60e51b815260206004820152602560248201527f4d7573742073656e6420736f6d6520657468657220746f2066756e642074686560448201527f206e6f64650000000000000000000000000000000000000000000000000000006064820152608401610567565b5f8083815481106105f8576105f8611155565b5f9182526020909120600d9091020160038101549091506001600160a01b03161580610630575060038101546001600160a01b031633145b6106875760405162461bcd60e51b815260206004820152602260248201527f4f6e6c79207468652066756e6465722063616e20616464206d6f72652066756e604482015261647360f01b6064820152608401610567565b60038101546001600160a01b03166106ae576003810180546001600160a01b031916331790555b34816004015f8282546106c191906111af565b909155505060068101805460ff19166001179055604080516060810182523380825234602083018190529282018590526007840180546001600160a01b03191690911781556008840192909255906009830161071d858261120e565b50506040513481528491507ff5e4934928a1e45d88c7a5aa2661fe0a801ca5017922e15122d74f1880155e1a9060200160405180910390a2505050565b5f5481106107a05760405162461bcd60e51b8152602060048201526013602482015272139bd91948191bd95cc81b9bdd08195e1a5cdd606a1b6044820152606401610567565b5f8082815481106107b3576107b3611155565b5f91825260209091206007600d90920201908101549091506001600160a01b0316331461082e5760405162461bcd60e51b815260206004820152602360248201527f4f6e6c79207468652066756e6465722063616e2066696e69736820746865206e6044820152626f646560e81b6064820152608401610567565b60068101805461ff00191661010017905560405182907ff1c92498f9b82ac12ed4160513cd238f89e2cf39b41ed4173c014e05b4abb5da905f90a25050565b5f5482106108b35760405162461bcd60e51b8152602060048201526013602482015272139bd91948191bd95cc81b9bdd08195e1a5cdd606a1b6044820152606401610567565b5f8083815481106108c6576108c6611155565b5f918252602080832060408051808201909152338152808301878152600d9490940290910160018181018054808301825590875293909520825160029094020180546001600160a01b0319166001600160a01b03909416939093178355925192945092909190820190610939908261120e565b5050505f6005905080826002015f82825461095491906111af565b9091555050335f908152600160209081526040808320878452909152812080548392906109829084906111af565b9091555050335f818152600c8401602052604090819020439055517f3c3079987b43946fd419a2052d1ae0337f195b72ca998bc06bfc3f3f0e9de040906109ce908790879086906112ce565b60405180910390a250505050565b5f80546060919067ffffffffffffffff8111156109fb576109fb610f06565b604051908082528060200260200182016040528015610a7b57816020015b610a6860405180610100016040528060608152602001606081526020015f81526020015f6001600160a01b031681526020015f81526020015f81526020015f151581526020015f151581525090565b815260200190600190039081610a195790505b5090505f5b5f54811015610cbe575f808281548110610a9c57610a9c611155565b905f5260205f2090600d02019050604051806101000160405280825f018054610ac490611169565b80601f0160208091040260200160405190810160405280929190818152602001828054610af090611169565b8015610b3b5780601f10610b1257610100808354040283529160200191610b3b565b820191905f5260205f20905b815481529060010190602001808311610b1e57829003601f168201915b5050505050815260200182600101805480602002602001604051908101604052809291908181526020015f905b82821015610c3e575f848152602090819020604080518082019091526002850290910180546001600160a01b031682526001810180549293919291840191610baf90611169565b80601f0160208091040260200160405190810160405280929190818152602001828054610bdb90611169565b8015610c265780601f10610bfd57610100808354040283529160200191610c26565b820191905f5260205f20905b815481529060010190602001808311610c0957829003601f168201915b50505050508152505081526020019060010190610b68565b505050908252506002830154602082015260038301546001600160a01b031660408201526004830154606082015260058301546080820152600683015460ff808216151560a084015261010090910416151560c0909101528351849084908110610caa57610caa611155565b602090810291909101015250600101610a80565b50919050565b5f8054600181018255908052600d027f290decd9548b62a8d60345a988386fc84ba6bc95484008f6362f93160ef3e5630180610d00848261120e565b50600a600282018190555f600483015542600583015560068201805461ffff1916905560408051808201909152338082526020820185905291830180546001600160a01b031916909217825590600b8301610d5b858261120e565b50505f8054909150610d6f906001906112f6565b335f908152600c84016020526040908190204390556002840154905191925082917fd6b9fd965278c07866df5cd73b387c2be1b4cee8babd38ce44f1910c2f2a6ef0916109ce91889190611309565b5f8060408385031215610dcf575f80fd5b82356001600160a01b0381168114610de5575f80fd5b946020939093013593505050565b5f60208284031215610e03575f80fd5b5035919050565b5f81518084528060208401602086015e5f602082860101526020601f19601f83011685010191505092915050565b6001600160a01b0381511682525f602082015160406020850152610e5f6040850182610e0a565b949350505050565b5f610120808352610e7a8184018d610e0a565b90508a60208401526001600160a01b03808b16604085015289606085015288608085015287151560a085015286151560c085015283820360e08501528086511682525060208501516020820152604085015160606040830152610ee06060830182610e0a565b915050828103610100840152610ef68185610e38565b9c9b505050505050505050505050565b634e487b7160e01b5f52604160045260245ffd5b5f82601f830112610f29575f80fd5b813567ffffffffffffffff80821115610f4457610f44610f06565b604051601f8301601f19908116603f01168101908282118183101715610f6c57610f6c610f06565b81604052838152866020858801011115610f84575f80fd5b836020870160208301375f602085830101528094505050505092915050565b5f8060408385031215610fb4575f80fd5b82359150602083013567ffffffffffffffff811115610fd1575f80fd5b610fdd85828601610f1a565b9150509250929050565b602080825282518282018190525f919060409081850190600581811b87018401888601875b848110156110f057603f198a84030186528151610100815181865261103382870182610e0a565b838c0151878203888e015280518083529193508c0191508b83019080891b84018d015f5b8281101561108557601f19868303018452611073828651610e38565b948f0194938f01939150600101611057565b508c8601518d8a0152606094508486015193506110ac858a01856001600160a01b03169052565b608086810151908a015260a080870151908a015260c0808701511515908a015260e0958601511515959098019490945250505095880195509087019060010161100c565b50909998505050505050505050565b5f8060408385031215611110575f80fd5b823567ffffffffffffffff80821115611127575f80fd5b61113386838701610f1a565b93506020850135915080821115611148575f80fd5b50610fdd85828601610f1a565b634e487b7160e01b5f52603260045260245ffd5b600181811c9082168061117d57607f821691505b602082108103610cbe57634e487b7160e01b5f52602260045260245ffd5b634e487b7160e01b5f52601160045260245ffd5b8082018082111561051f5761051f61119b565b601f82111561120957805f5260205f20601f840160051c810160208510156111e75750805b601f840160051c820191505b81811015611206575f81556001016111f3565b50505b505050565b815167ffffffffffffffff81111561122857611228610f06565b61123c816112368454611169565b846111c2565b602080601f83116001811461126f575f84156112585750858301515b5f19600386901b1c1916600185901b1785556112c6565b5f85815260208120601f198616915b8281101561129d5788860151825594840194600190910190840161127e565b50858210156112ba57878501515f19600388901b60f8161c191681555b505060018460011b0185555b505050505050565b838152606060208201525f6112e66060830185610e0a565b9050826040830152949350505050565b8181038181111561051f5761051f61119b565b604081525f61131b6040830185610e0a565b9050826020830152939250505056fea2646970667358221220c2d35296e88f9203a986f0c37b3aa65f03186f6f8404e5b12ae575194e4afbc264736f6c63430008190033",
      "opcodes": "PUSH1 0x80 PUSH1 0x40 MSTORE CALLVALUE DUP1 ISZERO PUSH1 0xE JUMPI PUSH0 DUP1 REVERT JUMPDEST POP PUSH2 0x1360 DUP1 PUSH2 0x1C PUSH0 CODECOPY PUSH0 RETURN INVALID PUSH1 0x80 PUSH1 0x40 MSTORE PUSH1 0x4 CALLDATASIZE LT PUSH2 0xAD JUMPI PUSH0 CALLDATALOAD PUSH1 0xE0 SHR DUP1 PUSH4 0x4FA650F1 GT PUSH2 0x66 JUMPI DUP1 PUSH4 0xA97A4406 GT PUSH2 0x4C JUMPI DUP1 PUSH4 0xA97A4406 EQ PUSH2 0x1AE JUMPI DUP1 PUSH4 0xC8B4D1D6 EQ PUSH2 0x1CD JUMPI DUP1 PUSH4 0xDD1EAD00 EQ PUSH2 0x20E JUMPI PUSH0 DUP1 REVERT JUMPDEST DUP1 PUSH4 0x4FA650F1 EQ PUSH2 0x16E JUMPI DUP1 PUSH4 0x60D177FE EQ PUSH2 0x18D JUMPI PUSH0 DUP1 REVERT JUMPDEST DUP1 PUSH4 0x23995ADE GT PUSH2 0x96 JUMPI DUP1 PUSH4 0x23995ADE EQ PUSH2 0x10F JUMPI DUP1 PUSH4 0x2DB00354 EQ PUSH2 0x13C JUMPI DUP1 PUSH4 0x4A55EF1E EQ PUSH2 0x14F JUMPI PUSH0 DUP1 REVERT JUMPDEST DUP1 PUSH4 0x4ABC319 EQ PUSH2 0xB1 JUMPI DUP1 PUSH4 0x1C53C280 EQ PUSH2 0xD2 JUMPI JUMPDEST PUSH0 DUP1 REVERT JUMPDEST CALLVALUE DUP1 ISZERO PUSH2 0xBC JUMPI PUSH0 DUP1 REVERT JUMPDEST POP PUSH2 0xD0 PUSH2 0xCB CALLDATASIZE PUSH1 0x4 PUSH2 0xDBE JUMP JUMPDEST PUSH2 0x244 JUMP JUMPDEST STOP JUMPDEST CALLVALUE DUP1 ISZERO PUSH2 0xDD JUMPI PUSH0 DUP1 REVERT JUMPDEST POP PUSH2 0xF1 PUSH2 0xEC CALLDATASIZE PUSH1 0x4 PUSH2 0xDF3 JUMP JUMPDEST PUSH2 0x286 JUMP JUMPDEST PUSH1 0x40 MLOAD PUSH2 0x106 SWAP10 SWAP9 SWAP8 SWAP7 SWAP6 SWAP5 SWAP4 SWAP3 SWAP2 SWAP1 PUSH2 0xE67 JUMP JUMPDEST PUSH1 0x40 MLOAD DUP1 SWAP2 SUB SWAP1 RETURN JUMPDEST CALLVALUE DUP1 ISZERO PUSH2 0x11A JUMPI PUSH0 DUP1 REVERT JUMPDEST POP PUSH2 0x12E PUSH2 0x129 CALLDATASIZE PUSH1 0x4 PUSH2 0xDBE JUMP JUMPDEST PUSH2 0x4DF JUMP JUMPDEST PUSH1 0x40 MLOAD SWAP1 DUP2 MSTORE PUSH1 0x20 ADD PUSH2 0x106 JUMP JUMPDEST PUSH2 0xD0 PUSH2 0x14A CALLDATASIZE PUSH1 0x4 PUSH2 0xFA3 JUMP JUMPDEST PUSH2 0x525 JUMP JUMPDEST CALLVALUE DUP1 ISZERO PUSH2 0x15A JUMPI PUSH0 DUP1 REVERT JUMPDEST POP PUSH2 0xD0 PUSH2 0x169 CALLDATASIZE PUSH1 0x4 PUSH2 0xDF3 JUMP JUMPDEST PUSH2 0x75A JUMP JUMPDEST CALLVALUE DUP1 ISZERO PUSH2 0x179 JUMPI PUSH0 DUP1 REVERT JUMPDEST POP PUSH2 0xD0 PUSH2 0x188 CALLDATASIZE PUSH1 0x4 PUSH2 0xFA3 JUMP JUMPDEST PUSH2 0x86D JUMP JUMPDEST CALLVALUE DUP1 ISZERO PUSH2 0x198 JUMPI PUSH0 DUP1 REVERT JUMPDEST POP PUSH2 0x1A1 PUSH2 0x9DC JUMP JUMPDEST PUSH1 0x40 MLOAD PUSH2 0x106 SWAP2 SWAP1 PUSH2 0xFE7 JUMP JUMPDEST CALLVALUE DUP1 ISZERO PUSH2 0x1B9 JUMPI PUSH0 DUP1 REVERT JUMPDEST POP PUSH2 0xD0 PUSH2 0x1C8 CALLDATASIZE PUSH1 0x4 PUSH2 0x10FF JUMP JUMPDEST PUSH2 0xCC4 JUMP JUMPDEST CALLVALUE DUP1 ISZERO PUSH2 0x1D8 JUMPI PUSH0 DUP1 REVERT JUMPDEST POP PUSH2 0x12E PUSH2 0x1E7 CALLDATASIZE PUSH1 0x4 PUSH2 0xDBE JUMP JUMPDEST PUSH1 0x1 PUSH1 0x1 PUSH1 0xA0 SHL SUB SWAP2 SWAP1 SWAP2 AND PUSH0 SWAP1 DUP2 MSTORE PUSH1 0x1 PUSH1 0x20 SWAP1 DUP2 MSTORE PUSH1 0x40 DUP1 DUP4 KECCAK256 SWAP4 DUP4 MSTORE SWAP3 SWAP1 MSTORE KECCAK256 SLOAD SWAP1 JUMP JUMPDEST CALLVALUE DUP1 ISZERO PUSH2 0x219 JUMPI PUSH0 DUP1 REVERT JUMPDEST POP PUSH2 0x12E PUSH2 0x228 CALLDATASIZE PUSH1 0x4 PUSH2 0xDBE JUMP JUMPDEST PUSH1 0x1 PUSH1 0x20 SWAP1 DUP2 MSTORE PUSH0 SWAP3 DUP4 MSTORE PUSH1 0x40 DUP1 DUP5 KECCAK256 SWAP1 SWAP2 MSTORE SWAP1 DUP3 MSTORE SWAP1 KECCAK256 SLOAD DUP2 JUMP JUMPDEST PUSH0 DUP1 DUP3 DUP2 SLOAD DUP2 LT PUSH2 0x257 JUMPI PUSH2 0x257 PUSH2 0x1155 JUMP JUMPDEST PUSH0 SWAP2 DUP3 MSTORE PUSH1 0x20 DUP1 DUP4 KECCAK256 PUSH1 0x1 PUSH1 0x1 PUSH1 0xA0 SHL SUB SWAP1 SWAP7 AND DUP4 MSTORE PUSH1 0xC PUSH1 0xD SWAP1 SWAP3 MUL SWAP1 SWAP6 ADD ADD SWAP1 SWAP4 MSTORE POP POP PUSH1 0x40 SWAP1 KECCAK256 NUMBER SWAP1 SSTORE JUMP JUMPDEST PUSH0 DUP2 DUP2 SLOAD DUP2 LT PUSH2 0x294 JUMPI PUSH0 DUP1 REVERT JUMPDEST SWAP1 PUSH0 MSTORE PUSH1 0x20 PUSH0 KECCAK256 SWAP1 PUSH1 0xD MUL ADD PUSH0 SWAP2 POP SWAP1 POP DUP1 PUSH0 ADD DUP1 SLOAD PUSH2 0x2B3 SWAP1 PUSH2 0x1169 JUMP JUMPDEST DUP1 PUSH1 0x1F ADD PUSH1 0x20 DUP1 SWAP2 DIV MUL PUSH1 0x20 ADD PUSH1 0x40 MLOAD SWAP1 DUP2 ADD PUSH1 0x40 MSTORE DUP1 SWAP3 SWAP2 SWAP1 DUP2 DUP2 MSTORE PUSH1 0x20 ADD DUP3 DUP1 SLOAD PUSH2 0x2DF SWAP1 PUSH2 0x1169 JUMP JUMPDEST DUP1 ISZERO PUSH2 0x32A JUMPI DUP1 PUSH1 0x1F LT PUSH2 0x301 JUMPI PUSH2 0x100 DUP1 DUP4 SLOAD DIV MUL DUP4 MSTORE SWAP2 PUSH1 0x20 ADD SWAP2 PUSH2 0x32A JUMP JUMPDEST DUP3 ADD SWAP2 SWAP1 PUSH0 MSTORE PUSH1 0x20 PUSH0 KECCAK256 SWAP1 JUMPDEST DUP2 SLOAD DUP2 MSTORE SWAP1 PUSH1 0x1 ADD SWAP1 PUSH1 0x20 ADD DUP1 DUP4 GT PUSH2 0x30D JUMPI DUP3 SWAP1 SUB PUSH1 0x1F AND DUP3 ADD SWAP2 JUMPDEST POP POP POP POP PUSH1 0x2 DUP4 ADD SLOAD PUSH1 0x3 DUP5 ADD SLOAD PUSH1 0x4 DUP6 ADD SLOAD PUSH1 0x5 DUP7 ADD SLOAD PUSH1 0x6 DUP8 ADD SLOAD PUSH1 0x40 DUP1 MLOAD PUSH1 0x60 DUP2 ADD DUP3 MSTORE PUSH1 0x7 DUP11 ADD DUP1 SLOAD PUSH1 0x1 PUSH1 0x1 PUSH1 0xA0 SHL SUB SWAP1 DUP2 AND DUP4 MSTORE PUSH1 0x8 DUP13 ADD SLOAD PUSH1 0x20 DUP5 ADD MSTORE PUSH1 0x9 DUP13 ADD DUP1 SLOAD SWAP12 SWAP13 SWAP10 SWAP12 SWAP2 SWAP1 SWAP9 AND SWAP10 POP SWAP6 SWAP8 SWAP5 SWAP7 PUSH1 0xFF DUP1 DUP7 AND SWAP8 PUSH2 0x100 SWAP1 SWAP7 DIV AND SWAP6 SWAP5 SWAP3 SWAP4 SWAP2 SWAP3 SWAP2 DUP5 ADD SWAP2 PUSH2 0x3A2 SWAP1 PUSH2 0x1169 JUMP JUMPDEST DUP1 PUSH1 0x1F ADD PUSH1 0x20 DUP1 SWAP2 DIV MUL PUSH1 0x20 ADD PUSH1 0x40 MLOAD SWAP1 DUP2 ADD PUSH1 0x40 MSTORE DUP1 SWAP3 SWAP2 SWAP1 DUP2 DUP2 MSTORE PUSH1 0x20 ADD DUP3 DUP1 SLOAD PUSH2 0x3CE SWAP1 PUSH2 0x1169 JUMP JUMPDEST DUP1 ISZERO PUSH2 0x419 JUMPI DUP1 PUSH1 0x1F LT PUSH2 0x3F0 JUMPI PUSH2 0x100 DUP1 DUP4 SLOAD DIV MUL DUP4 MSTORE SWAP2 PUSH1 0x20 ADD SWAP2 PUSH2 0x419 JUMP JUMPDEST DUP3 ADD SWAP2 SWAP1 PUSH0 MSTORE PUSH1 0x20 PUSH0 KECCAK256 SWAP1 JUMPDEST DUP2 SLOAD DUP2 MSTORE SWAP1 PUSH1 0x1 ADD SWAP1 PUSH1 0x20 ADD DUP1 DUP4 GT PUSH2 0x3FC JUMPI DUP3 SWAP1 SUB PUSH1 0x1F AND DUP3 ADD SWAP2 JUMPDEST POP POP POP SWAP2 SWAP1 SWAP3 MSTORE POP POP PUSH1 0x40 DUP1 MLOAD DUP1 DUP3 ADD SWAP1 SWAP2 MSTORE PUSH1 0xA DUP5 ADD DUP1 SLOAD PUSH1 0x1 PUSH1 0x1 PUSH1 0xA0 SHL SUB AND DUP3 MSTORE PUSH1 0xB DUP6 ADD DUP1 SLOAD SWAP5 SWAP6 SWAP5 SWAP3 SWAP4 POP SWAP1 SWAP2 PUSH1 0x20 DUP5 ADD SWAP2 SWAP1 PUSH2 0x45A SWAP1 PUSH2 0x1169 JUMP JUMPDEST DUP1 PUSH1 0x1F ADD PUSH1 0x20 DUP1 SWAP2 DIV MUL PUSH1 0x20 ADD PUSH1 0x40 MLOAD SWAP1 DUP2 ADD PUSH1 0x40 MSTORE DUP1 SWAP3 SWAP2 SWAP1 DUP2 DUP2 MSTORE PUSH1 0x20 ADD DUP3 DUP1 SLOAD PUSH2 0x486 SWAP1 PUSH2 0x1169 JUMP JUMPDEST DUP1 ISZERO PUSH2 0x4D1 JUMPI DUP1 PUSH1 0x1F LT PUSH2 0x4A8 JUMPI PUSH2 0x100 DUP1 DUP4 SLOAD DIV MUL DUP4 MSTORE SWAP2 PUSH1 0x20 ADD SWAP2 PUSH2 0x4D1 JUMP JUMPDEST DUP3 ADD SWAP2 SWAP1 PUSH0 MSTORE PUSH1 0x20 PUSH0 KECCAK256 SWAP1 JUMPDEST DUP2 SLOAD DUP2 MSTORE SWAP1 PUSH1 0x1 ADD SWAP1 PUSH1 0x20 ADD DUP1 DUP4 GT PUSH2 0x4B4 JUMPI DUP3 SWAP1 SUB PUSH1 0x1F AND DUP3 ADD SWAP2 JUMPDEST POP POP POP POP POP DUP2 MSTORE POP POP SWAP1 POP DUP10 JUMP JUMPDEST PUSH0 DUP1 PUSH0 DUP4 DUP2 SLOAD DUP2 LT PUSH2 0x4F3 JUMPI PUSH2 0x4F3 PUSH2 0x1155 JUMP JUMPDEST PUSH0 SWAP2 DUP3 MSTORE PUSH1 0x20 DUP1 DUP4 KECCAK256 PUSH1 0x1 PUSH1 0x1 PUSH1 0xA0 SHL SUB DUP9 AND DUP5 MSTORE PUSH1 0xC PUSH1 0xD SWAP1 SWAP4 MUL ADD SWAP2 SWAP1 SWAP2 ADD SWAP1 MSTORE PUSH1 0x40 SWAP1 KECCAK256 SLOAD SWAP2 POP POP JUMPDEST SWAP3 SWAP2 POP POP JUMP JUMPDEST PUSH0 SLOAD DUP3 LT PUSH2 0x570 JUMPI PUSH1 0x40 MLOAD PUSH3 0x461BCD PUSH1 0xE5 SHL DUP2 MSTORE PUSH1 0x20 PUSH1 0x4 DUP3 ADD MSTORE PUSH1 0x13 PUSH1 0x24 DUP3 ADD MSTORE PUSH19 0x139BD91948191BD95CC81B9BDD08195E1A5CDD PUSH1 0x6A SHL PUSH1 0x44 DUP3 ADD MSTORE PUSH1 0x64 ADD JUMPDEST PUSH1 0x40 MLOAD DUP1 SWAP2 SUB SWAP1 REVERT JUMPDEST PUSH0 CALLVALUE GT PUSH2 0x5E5 JUMPI PUSH1 0x40 MLOAD PUSH3 0x461BCD PUSH1 0xE5 SHL DUP2 MSTORE PUSH1 0x20 PUSH1 0x4 DUP3 ADD MSTORE PUSH1 0x25 PUSH1 0x24 DUP3 ADD MSTORE PUSH32 0x4D7573742073656E6420736F6D6520657468657220746F2066756E6420746865 PUSH1 0x44 DUP3 ADD MSTORE PUSH32 0x206E6F6465000000000000000000000000000000000000000000000000000000 PUSH1 0x64 DUP3 ADD MSTORE PUSH1 0x84 ADD PUSH2 0x567 JUMP JUMPDEST PUSH0 DUP1 DUP4 DUP2 SLOAD DUP2 LT PUSH2 0x5F8 JUMPI PUSH2 0x5F8 PUSH2 0x1155 JUMP JUMPDEST PUSH0 SWAP2 DUP3 MSTORE PUSH1 0x20 SWAP1 SWAP2 KECCAK256 PUSH1 0xD SWAP1 SWAP2 MUL ADD PUSH1 0x3 DUP2 ADD SLOAD SWAP1 SWAP2 POP PUSH1 0x1 PUSH1 0x1 PUSH1 0xA0 SHL SUB AND ISZERO DUP1 PUSH2 0x630 JUMPI POP PUSH1 0x3 DUP2 ADD SLOAD PUSH1 0x1 PUSH1 0x1 PUSH1 0xA0 SHL SUB AND CALLER EQ JUMPDEST PUSH2 0x687 JUMPI PUSH1 0x40 MLOAD PUSH3 0x461BCD PUSH1 0xE5 SHL DUP2 MSTORE PUSH1 0x20 PUSH1 0x4 DUP3 ADD MSTORE PUSH1 0x22 PUSH1 0x24 DUP3 ADD MSTORE PUSH32 0x4F6E6C79207468652066756E6465722063616E20616464206D6F72652066756E PUSH1 0x44 DUP3 ADD MSTORE PUSH2 0x6473 PUSH1 0xF0 SHL PUSH1 0x64 DUP3 ADD MSTORE PUSH1 0x84 ADD PUSH2 0x567 JUMP JUMPDEST PUSH1 0x3 DUP2 ADD SLOAD PUSH1 0x1 PUSH1 0x1 PUSH1 0xA0 SHL SUB AND PUSH2 0x6AE JUMPI PUSH1 0x3 DUP2 ADD DUP1 SLOAD PUSH1 0x1 PUSH1 0x1 PUSH1 0xA0 SHL SUB NOT AND CALLER OR SWAP1 SSTORE JUMPDEST CALLVALUE DUP2 PUSH1 0x4 ADD PUSH0 DUP3 DUP3 SLOAD PUSH2 0x6C1 SWAP2 SWAP1 PUSH2 0x11AF JUMP JUMPDEST SWAP1 SWAP2 SSTORE POP POP PUSH1 0x6 DUP2 ADD DUP1 SLOAD PUSH1 0xFF NOT AND PUSH1 0x1 OR SWAP1 SSTORE PUSH1 0x40 DUP1 MLOAD PUSH1 0x60 DUP2 ADD DUP3 MSTORE CALLER DUP1 DUP3 MSTORE CALLVALUE PUSH1 0x20 DUP4 ADD DUP2 SWAP1 MSTORE SWAP3 DUP3 ADD DUP6 SWAP1 MSTORE PUSH1 0x7 DUP5 ADD DUP1 SLOAD PUSH1 0x1 PUSH1 0x1 PUSH1 0xA0 SHL SUB NOT AND SWAP1 SWAP2 OR DUP2 SSTORE PUSH1 0x8 DUP5 ADD SWAP3 SWAP1 SWAP3 SSTORE SWAP1 PUSH1 0x9 DUP4 ADD PUSH2 0x71D DUP6 DUP3 PUSH2 0x120E JUMP JUMPDEST POP POP PUSH1 0x40 MLOAD CALLVALUE DUP2 MSTORE DUP5 SWAP2 POP PUSH32 0xF5E4934928A1E45D88C7A5AA2661FE0A801CA5017922E15122D74F1880155E1A SWAP1 PUSH1 0x20 ADD PUSH1 0x40 MLOAD DUP1 SWAP2 SUB SWAP1 LOG2 POP POP POP JUMP JUMPDEST PUSH0 SLOAD DUP2 LT PUSH2 0x7A0 JUMPI PUSH1 0x40 MLOAD PUSH3 0x461BCD PUSH1 0xE5 SHL DUP2 MSTORE PUSH1 0x20 PUSH1 0x4 DUP3 ADD MSTORE PUSH1 0x13 PUSH1 0x24 DUP3 ADD MSTORE PUSH19 0x139BD91948191BD95CC81B9BDD08195E1A5CDD PUSH1 0x6A SHL PUSH1 0x44 DUP3 ADD MSTORE PUSH1 0x64 ADD PUSH2 0x567 JUMP JUMPDEST PUSH0 DUP1 DUP3 DUP2 SLOAD DUP2 LT PUSH2 0x7B3 JUMPI PUSH2 0x7B3 PUSH2 0x1155 JUMP JUMPDEST PUSH0 SWAP2 DUP3 MSTORE PUSH1 0x20 SWAP1 SWAP2 KECCAK256 PUSH1 0x7 PUSH1 0xD SWAP1 SWAP3 MUL ADD SWAP1 DUP2 ADD SLOAD SWAP1 SWAP2 POP PUSH1 0x1 PUSH1 0x1 PUSH1 0xA0 SHL SUB AND CALLER EQ PUSH2 0x82E JUMPI PUSH1 0x40 MLOAD PUSH3 0x461BCD PUSH1 0xE5 SHL DUP2 MSTORE PUSH1 0x20 PUSH1 0x4 DUP3 ADD MSTORE PUSH1 0x23 PUSH1 0x24 DUP3 ADD MSTORE PUSH32 0x4F6E6C79207468652066756E6465722063616E2066696E69736820746865206E PUSH1 0x44 DUP3 ADD MSTORE PUSH3 0x6F6465 PUSH1 0xE8 SHL PUSH1 0x64 DUP3 ADD MSTORE PUSH1 0x84 ADD PUSH2 0x567 JUMP JUMPDEST PUSH1 0x6 DUP2 ADD DUP1 SLOAD PUSH2 0xFF00 NOT AND PUSH2 0x100 OR SWAP1 SSTORE PUSH1 0x40 MLOAD DUP3 SWAP1 PUSH32 0xF1C92498F9B82AC12ED4160513CD238F89E2CF39B41ED4173C014E05B4ABB5DA SWAP1 PUSH0 SWAP1 LOG2 POP POP JUMP JUMPDEST PUSH0 SLOAD DUP3 LT PUSH2 0x8B3 JUMPI PUSH1 0x40 MLOAD PUSH3 0x461BCD PUSH1 0xE5 SHL DUP2 MSTORE PUSH1 0x20 PUSH1 0x4 DUP3 ADD MSTORE PUSH1 0x13 PUSH1 0x24 DUP3 ADD MSTORE PUSH19 0x139BD91948191BD95CC81B9BDD08195E1A5CDD PUSH1 0x6A SHL PUSH1 0x44 DUP3 ADD MSTORE PUSH1 0x64 ADD PUSH2 0x567 JUMP JUMPDEST PUSH0 DUP1 DUP4 DUP2 SLOAD DUP2 LT PUSH2 0x8C6 JUMPI PUSH2 0x8C6 PUSH2 0x1155 JUMP JUMPDEST PUSH0 SWAP2 DUP3 MSTORE PUSH1 0x20 DUP1 DUP4 KECCAK256 PUSH1 0x40 DUP1 MLOAD DUP1 DUP3 ADD SWAP1 SWAP2 MSTORE CALLER DUP2 MSTORE DUP1 DUP4 ADD DUP8 DUP2 MSTORE PUSH1 0xD SWAP5 SWAP1 SWAP5 MUL SWAP1 SWAP2 ADD PUSH1 0x1 DUP2 DUP2 ADD DUP1 SLOAD DUP1 DUP4 ADD DUP3 SSTORE SWAP1 DUP8 MSTORE SWAP4 SWAP1 SWAP6 KECCAK256 DUP3 MLOAD PUSH1 0x2 SWAP1 SWAP5 MUL ADD DUP1 SLOAD PUSH1 0x1 PUSH1 0x1 PUSH1 0xA0 SHL SUB NOT AND PUSH1 0x1 PUSH1 0x1 PUSH1 0xA0 SHL SUB SWAP1 SWAP5 AND SWAP4 SWAP1 SWAP4 OR DUP4 SSTORE SWAP3 MLOAD SWAP3 SWAP5 POP SWAP3 SWAP1 SWAP2 SWAP1 DUP3 ADD SWAP1 PUSH2 0x939 SWAP1 DUP3 PUSH2 0x120E JUMP JUMPDEST POP POP POP PUSH0 PUSH1 0x5 SWAP1 POP DUP1 DUP3 PUSH1 0x2 ADD PUSH0 DUP3 DUP3 SLOAD PUSH2 0x954 SWAP2 SWAP1 PUSH2 0x11AF JUMP JUMPDEST SWAP1 SWAP2 SSTORE POP POP CALLER PUSH0 SWAP1 DUP2 MSTORE PUSH1 0x1 PUSH1 0x20 SWAP1 DUP2 MSTORE PUSH1 0x40 DUP1 DUP4 KECCAK256 DUP8 DUP5 MSTORE SWAP1 SWAP2 MSTORE DUP2 KECCAK256 DUP1 SLOAD DUP4 SWAP3 SWAP1 PUSH2 0x982 SWAP1 DUP5 SWAP1 PUSH2 0x11AF JUMP JUMPDEST SWAP1 SWAP2 SSTORE POP POP CALLER PUSH0 DUP2 DUP2 MSTORE PUSH1 0xC DUP5 ADD PUSH1 0x20 MSTORE PUSH1 0x40 SWAP1 DUP2 SWAP1 KECCAK256 NUMBER SWAP1 SSTORE MLOAD PUSH32 0x3C3079987B43946FD419A2052D1AE0337F195B72CA998BC06BFC3F3F0E9DE040 SWAP1 PUSH2 0x9CE SWAP1 DUP8 SWAP1 DUP8 SWAP1 DUP7 SWAP1 PUSH2 0x12CE JUMP JUMPDEST PUSH1 0x40 MLOAD DUP1 SWAP2 SUB SWAP1 LOG2 POP POP POP POP JUMP JUMPDEST PUSH0 DUP1 SLOAD PUSH1 0x60 SWAP2 SWAP1 PUSH8 0xFFFFFFFFFFFFFFFF DUP2 GT ISZERO PUSH2 0x9FB JUMPI PUSH2 0x9FB PUSH2 0xF06 JUMP JUMPDEST PUSH1 0x40 MLOAD SWAP1 DUP1 DUP3 MSTORE DUP1 PUSH1 0x20 MUL PUSH1 0x20 ADD DUP3 ADD PUSH1 0x40 MSTORE DUP1 ISZERO PUSH2 0xA7B JUMPI DUP2 PUSH1 0x20 ADD JUMPDEST PUSH2 0xA68 PUSH1 0x40 MLOAD DUP1 PUSH2 0x100 ADD PUSH1 0x40 MSTORE DUP1 PUSH1 0x60 DUP2 MSTORE PUSH1 0x20 ADD PUSH1 0x60 DUP2 MSTORE PUSH1 0x20 ADD PUSH0 DUP2 MSTORE PUSH1 0x20 ADD PUSH0 PUSH1 0x1 PUSH1 0x1 PUSH1 0xA0 SHL SUB AND DUP2 MSTORE PUSH1 0x20 ADD PUSH0 DUP2 MSTORE PUSH1 0x20 ADD PUSH0 DUP2 MSTORE PUSH1 0x20 ADD PUSH0 ISZERO ISZERO DUP2 MSTORE PUSH1 0x20 ADD PUSH0 ISZERO ISZERO DUP2 MSTORE POP SWAP1 JUMP JUMPDEST DUP2 MSTORE PUSH1 0x20 ADD SWAP1 PUSH1 0x1 SWAP1 SUB SWAP1 DUP2 PUSH2 0xA19 JUMPI SWAP1 POP JUMPDEST POP SWAP1 POP PUSH0 JUMPDEST PUSH0 SLOAD DUP2 LT ISZERO PUSH2 0xCBE JUMPI PUSH0 DUP1 DUP3 DUP2 SLOAD DUP2 LT PUSH2 0xA9C JUMPI PUSH2 0xA9C PUSH2 0x1155 JUMP JUMPDEST SWAP1 PUSH0 MSTORE PUSH1 0x20 PUSH0 KECCAK256 SWAP1 PUSH1 0xD MUL ADD SWAP1 POP PUSH1 0x40 MLOAD DUP1 PUSH2 0x100 ADD PUSH1 0x40 MSTORE DUP1 DUP3 PUSH0 ADD DUP1 SLOAD PUSH2 0xAC4 SWAP1 PUSH2 0x1169 JUMP JUMPDEST DUP1 PUSH1 0x1F ADD PUSH1 0x20 DUP1 SWAP2 DIV MUL PUSH1 0x20 ADD PUSH1 0x40 MLOAD SWAP1 DUP2 ADD PUSH1 0x40 MSTORE DUP1 SWAP3 SWAP2 SWAP1 DUP2 DUP2 MSTORE PUSH1 0x20 ADD DUP3 DUP1 SLOAD PUSH2 0xAF0 SWAP1 PUSH2 0x1169 JUMP JUMPDEST DUP1 ISZERO PUSH2 0xB3B JUMPI DUP1 PUSH1 0x1F LT PUSH2 0xB12 JUMPI PUSH2 0x100 DUP1 DUP4 SLOAD DIV MUL DUP4 MSTORE SWAP2 PUSH1 0x20 ADD SWAP2 PUSH2 0xB3B JUMP JUMPDEST DUP3 ADD SWAP2 SWAP1 PUSH0 MSTORE PUSH1 0x20 PUSH0 KECCAK256 SWAP1 JUMPDEST DUP2 SLOAD DUP2 MSTORE SWAP1 PUSH1 0x1 ADD SWAP1 PUSH1 0x20 ADD DUP1 DUP4 GT PUSH2 0xB1E JUMPI DUP3 SWAP1 SUB PUSH1 0x1F AND DUP3 ADD SWAP2 JUMPDEST POP POP POP POP POP DUP2 MSTORE PUSH1 0x20 ADD DUP3 PUSH1 0x1 ADD DUP1 SLOAD DUP1 PUSH1 0x20 MUL PUSH1 0x20 ADD PUSH1 0x40 MLOAD SWAP1 DUP2 ADD PUSH1 0x40 MSTORE DUP1 SWAP3 SWAP2 SWAP1 DUP2 DUP2 MSTORE PUSH1 0x20 ADD PUSH0 SWAP1 JUMPDEST DUP3 DUP3 LT ISZERO PUSH2 0xC3E JUMPI PUSH0 DUP5 DUP2 MSTORE PUSH1 0x20 SWAP1 DUP2 SWAP1 KECCAK256 PUSH1 0x40 DUP1 MLOAD DUP1 DUP3 ADD SWAP1 SWAP2 MSTORE PUSH1 0x2 DUP6 MUL SWAP1 SWAP2 ADD DUP1 SLOAD PUSH1 0x1 PUSH1 0x1 PUSH1 0xA0 SHL SUB AND DUP3 MSTORE PUSH1 0x1 DUP2 ADD DUP1 SLOAD SWAP3 SWAP4 SWAP2 SWAP3 SWAP2 DUP5 ADD SWAP2 PUSH2 0xBAF SWAP1 PUSH2 0x1169 JUMP JUMPDEST DUP1 PUSH1 0x1F ADD PUSH1 0x20 DUP1 SWAP2 DIV MUL PUSH1 0x20 ADD PUSH1 0x40 MLOAD SWAP1 DUP2 ADD PUSH1 0x40 MSTORE DUP1 SWAP3 SWAP2 SWAP1 DUP2 DUP2 MSTORE PUSH1 0x20 ADD DUP3 DUP1 SLOAD PUSH2 0xBDB SWAP1 PUSH2 0x1169 JUMP JUMPDEST DUP1 ISZERO PUSH2 0xC26 JUMPI DUP1 PUSH1 0x1F LT PUSH2 0xBFD JUMPI PUSH2 0x100 DUP1 DUP4 SLOAD DIV MUL DUP4 MSTORE SWAP2 PUSH1 0x20 ADD SWAP2 PUSH2 0xC26 JUMP JUMPDEST DUP3 ADD SWAP2 SWAP1 PUSH0 MSTORE PUSH1 0x20 PUSH0 KECCAK256 SWAP1 JUMPDEST DUP2 SLOAD DUP2 MSTORE SWAP1 PUSH1 0x1 ADD SWAP1 PUSH1 0x20 ADD DUP1 DUP4 GT PUSH2 0xC09 JUMPI DUP3 SWAP1 SUB PUSH1 0x1F AND DUP3 ADD SWAP2 JUMPDEST POP POP POP POP POP DUP2 MSTORE POP POP DUP2 MSTORE PUSH1 0x20 ADD SWAP1 PUSH1 0x1 ADD SWAP1 PUSH2 0xB68 JUMP JUMPDEST POP POP POP SWAP1 DUP3 MSTORE POP PUSH1 0x2 DUP4 ADD SLOAD PUSH1 0x20 DUP3 ADD MSTORE PUSH1 0x3 DUP4 ADD SLOAD PUSH1 0x1 PUSH1 0x1 PUSH1 0xA0 SHL SUB AND PUSH1 0x40 DUP3 ADD MSTORE PUSH1 0x4 DUP4 ADD SLOAD PUSH1 0x60 DUP3 ADD MSTORE PUSH1 0x5 DUP4 ADD SLOAD PUSH1 0x80 DUP3 ADD MSTORE PUSH1 0x6 DUP4 ADD SLOAD PUSH1 0xFF DUP1 DUP3 AND ISZERO ISZERO PUSH1 0xA0 DUP5 ADD MSTORE PUSH2 0x100 SWAP1 SWAP2 DIV AND ISZERO ISZERO PUSH1 0xC0 SWAP1 SWAP2 ADD MSTORE DUP4 MLOAD DUP5 SWAP1 DUP5 SWAP1 DUP2 LT PUSH2 0xCAA JUMPI PUSH2 0xCAA PUSH2 0x1155 JUMP JUMPDEST PUSH1 0x20 SWAP1 DUP2 MUL SWAP2 SWAP1 SWAP2 ADD ADD MSTORE POP PUSH1 0x1 ADD PUSH2 0xA80 JUMP JUMPDEST POP SWAP2 SWAP1 POP JUMP JUMPDEST PUSH0 DUP1 SLOAD PUSH1 0x1 DUP2 ADD DUP3 SSTORE SWAP1 DUP1 MSTORE PUSH1 0xD MUL PUSH32 0x290DECD9548B62A8D60345A988386FC84BA6BC95484008F6362F93160EF3E563 ADD DUP1 PUSH2 0xD00 DUP5 DUP3 PUSH2 0x120E JUMP JUMPDEST POP PUSH1 0xA PUSH1 0x2 DUP3 ADD DUP2 SWAP1 SSTORE PUSH0 PUSH1 0x4 DUP4 ADD SSTORE TIMESTAMP PUSH1 0x5 DUP4 ADD SSTORE PUSH1 0x6 DUP3 ADD DUP1 SLOAD PUSH2 0xFFFF NOT AND SWAP1 SSTORE PUSH1 0x40 DUP1 MLOAD DUP1 DUP3 ADD SWAP1 SWAP2 MSTORE CALLER DUP1 DUP3 MSTORE PUSH1 0x20 DUP3 ADD DUP6 SWAP1 MSTORE SWAP2 DUP4 ADD DUP1 SLOAD PUSH1 0x1 PUSH1 0x1 PUSH1 0xA0 SHL SUB NOT AND SWAP1 SWAP3 OR DUP3 SSTORE SWAP1 PUSH1 0xB DUP4 ADD PUSH2 0xD5B DUP6 DUP3 PUSH2 0x120E JUMP JUMPDEST POP POP PUSH0 DUP1 SLOAD SWAP1 SWAP2 POP PUSH2 0xD6F SWAP1 PUSH1 0x1 SWAP1 PUSH2 0x12F6 JUMP JUMPDEST CALLER PUSH0 SWAP1 DUP2 MSTORE PUSH1 0xC DUP5 ADD PUSH1 0x20 MSTORE PUSH1 0x40 SWAP1 DUP2 SWAP1 KECCAK256 NUMBER SWAP1 SSTORE PUSH1 0x2 DUP5 ADD SLOAD SWAP1 MLOAD SWAP2 SWAP3 POP DUP3 SWAP2 PUSH32 0xD6B9FD965278C07866DF5CD73B387C2BE1B4CEE8BABD38CE44F1910C2F2A6EF0 SWAP2 PUSH2 0x9CE SWAP2 DUP9 SWAP2 SWAP1 PUSH2 0x1309 JUMP JUMPDEST PUSH0 DUP1 PUSH1 0x40 DUP4 DUP6 SUB SLT ISZERO PUSH2 0xDCF JUMPI PUSH0 DUP1 REVERT JUMPDEST DUP3 CALLDATALOAD PUSH1 0x1 PUSH1 0x1 PUSH1 0xA0 SHL SUB DUP2 AND DUP2 EQ PUSH2 0xDE5 JUMPI PUSH0 DUP1 REVERT JUMPDEST SWAP5 PUSH1 0x20 SWAP4 SWAP1 SWAP4 ADD CALLDATALOAD SWAP4 POP POP POP JUMP JUMPDEST PUSH0 PUSH1 0x20 DUP3 DUP5 SUB SLT ISZERO PUSH2 0xE03 JUMPI PUSH0 DUP1 REVERT JUMPDEST POP CALLDATALOAD SWAP2 SWAP1 POP JUMP JUMPDEST PUSH0 DUP2 MLOAD DUP1 DUP5 MSTORE DUP1 PUSH1 0x20 DUP5 ADD PUSH1 0x20 DUP7 ADD MCOPY PUSH0 PUSH1 0x20 DUP3 DUP7 ADD ADD MSTORE PUSH1 0x20 PUSH1 0x1F NOT PUSH1 0x1F DUP4 ADD AND DUP6 ADD ADD SWAP2 POP POP SWAP3 SWAP2 POP POP JUMP JUMPDEST PUSH1 0x1 PUSH1 0x1 PUSH1 0xA0 SHL SUB DUP2 MLOAD AND DUP3 MSTORE PUSH0 PUSH1 0x20 DUP3 ADD MLOAD PUSH1 0x40 PUSH1 0x20 DUP6 ADD MSTORE PUSH2 0xE5F PUSH1 0x40 DUP6 ADD DUP3 PUSH2 0xE0A JUMP JUMPDEST SWAP5 SWAP4 POP POP POP POP JUMP JUMPDEST PUSH0 PUSH2 0x120 DUP1 DUP4 MSTORE PUSH2 0xE7A DUP2 DUP5 ADD DUP14 PUSH2 0xE0A JUMP JUMPDEST SWAP1 POP DUP11 PUSH1 0x20 DUP5 ADD MSTORE PUSH1 0x1 PUSH1 0x1 PUSH1 0xA0 SHL SUB DUP1 DUP12 AND PUSH1 0x40 DUP6 ADD MSTORE DUP10 PUSH1 0x60 DUP6 ADD MSTORE DUP9 PUSH1 0x80 DUP6 ADD MSTORE DUP8 ISZERO ISZERO PUSH1 0xA0 DUP6 ADD MSTORE DUP7 ISZERO ISZERO PUSH1 0xC0 DUP6 ADD MSTORE DUP4 DUP3 SUB PUSH1 0xE0 DUP6 ADD MSTORE DUP1 DUP7 MLOAD AND DUP3 MSTORE POP PUSH1 0x20 DUP6 ADD MLOAD PUSH1 0x20 DUP3 ADD MSTORE PUSH1 0x40 DUP6 ADD MLOAD PUSH1 0x60 PUSH1 0x40 DUP4 ADD MSTORE PUSH2 0xEE0 PUSH1 0x60 DUP4 ADD DUP3 PUSH2 0xE0A JUMP JUMPDEST SWAP2 POP POP DUP3 DUP2 SUB PUSH2 0x100 DUP5 ADD MSTORE PUSH2 0xEF6 DUP2 DUP6 PUSH2 0xE38 JUMP JUMPDEST SWAP13 SWAP12 POP POP POP POP POP POP POP POP POP POP POP POP JUMP JUMPDEST PUSH4 0x4E487B71 PUSH1 0xE0 SHL PUSH0 MSTORE PUSH1 0x41 PUSH1 0x4 MSTORE PUSH1 0x24 PUSH0 REVERT JUMPDEST PUSH0 DUP3 PUSH1 0x1F DUP4 ADD SLT PUSH2 0xF29 JUMPI PUSH0 DUP1 REVERT JUMPDEST DUP2 CALLDATALOAD PUSH8 0xFFFFFFFFFFFFFFFF DUP1 DUP3 GT ISZERO PUSH2 0xF44 JUMPI PUSH2 0xF44 PUSH2 0xF06 JUMP JUMPDEST PUSH1 0x40 MLOAD PUSH1 0x1F DUP4 ADD PUSH1 0x1F NOT SWAP1 DUP2 AND PUSH1 0x3F ADD AND DUP2 ADD SWAP1 DUP3 DUP3 GT DUP2 DUP4 LT OR ISZERO PUSH2 0xF6C JUMPI PUSH2 0xF6C PUSH2 0xF06 JUMP JUMPDEST DUP2 PUSH1 0x40 MSTORE DUP4 DUP2 MSTORE DUP7 PUSH1 0x20 DUP6 DUP9 ADD ADD GT ISZERO PUSH2 0xF84 JUMPI PUSH0 DUP1 REVERT JUMPDEST DUP4 PUSH1 0x20 DUP8 ADD PUSH1 0x20 DUP4 ADD CALLDATACOPY PUSH0 PUSH1 0x20 DUP6 DUP4 ADD ADD MSTORE DUP1 SWAP5 POP POP POP POP POP SWAP3 SWAP2 POP POP JUMP JUMPDEST PUSH0 DUP1 PUSH1 0x40 DUP4 DUP6 SUB SLT ISZERO PUSH2 0xFB4 JUMPI PUSH0 DUP1 REVERT JUMPDEST DUP3 CALLDATALOAD SWAP2 POP PUSH1 0x20 DUP4 ADD CALLDATALOAD PUSH8 0xFFFFFFFFFFFFFFFF DUP2 GT ISZERO PUSH2 0xFD1 JUMPI PUSH0 DUP1 REVERT JUMPDEST PUSH2 0xFDD DUP6 DUP3 DUP7 ADD PUSH2 0xF1A JUMP JUMPDEST SWAP2 POP POP SWAP3 POP SWAP3 SWAP1 POP JUMP JUMPDEST PUSH1 0x20 DUP1 DUP3 MSTORE DUP3 MLOAD DUP3 DUP3 ADD DUP2 SWAP1 MSTORE PUSH0 SWAP2 SWAP1 PUSH1 0x40 SWAP1 DUP2 DUP6 ADD SWAP1 PUSH1 0x5 DUP2 DUP2 SHL DUP8 ADD DUP5 ADD DUP9 DUP7 ADD DUP8 JUMPDEST DUP5 DUP2 LT ISZERO PUSH2 0x10F0 JUMPI PUSH1 0x3F NOT DUP11 DUP5 SUB ADD DUP7 MSTORE DUP2 MLOAD PUSH2 0x100 DUP2 MLOAD DUP2 DUP7 MSTORE PUSH2 0x1033 DUP3 DUP8 ADD DUP3 PUSH2 0xE0A JUMP JUMPDEST DUP4 DUP13 ADD MLOAD DUP8 DUP3 SUB DUP9 DUP15 ADD MSTORE DUP1 MLOAD DUP1 DUP4 MSTORE SWAP2 SWAP4 POP DUP13 ADD SWAP2 POP DUP12 DUP4 ADD SWAP1 DUP1 DUP10 SHL DUP5 ADD DUP14 ADD PUSH0 JUMPDEST DUP3 DUP2 LT ISZERO PUSH2 0x1085 JUMPI PUSH1 0x1F NOT DUP7 DUP4 SUB ADD DUP5 MSTORE PUSH2 0x1073 DUP3 DUP7 MLOAD PUSH2 0xE38 JUMP JUMPDEST SWAP5 DUP16 ADD SWAP5 SWAP4 DUP16 ADD SWAP4 SWAP2 POP PUSH1 0x1 ADD PUSH2 0x1057 JUMP JUMPDEST POP DUP13 DUP7 ADD MLOAD DUP14 DUP11 ADD MSTORE PUSH1 0x60 SWAP5 POP DUP5 DUP7 ADD MLOAD SWAP4 POP PUSH2 0x10AC DUP6 DUP11 ADD DUP6 PUSH1 0x1 PUSH1 0x1 PUSH1 0xA0 SHL SUB AND SWAP1 MSTORE JUMP JUMPDEST PUSH1 0x80 DUP7 DUP2 ADD MLOAD SWAP1 DUP11 ADD MSTORE PUSH1 0xA0 DUP1 DUP8 ADD MLOAD SWAP1 DUP11 ADD MSTORE PUSH1 0xC0 DUP1 DUP8 ADD MLOAD ISZERO ISZERO SWAP1 DUP11 ADD MSTORE PUSH1 0xE0 SWAP6 DUP7 ADD MLOAD ISZERO ISZERO SWAP6 SWAP1 SWAP9 ADD SWAP5 SWAP1 SWAP5 MSTORE POP POP POP SWAP6 DUP9 ADD SWAP6 POP SWAP1 DUP8 ADD SWAP1 PUSH1 0x1 ADD PUSH2 0x100C JUMP JUMPDEST POP SWAP1 SWAP10 SWAP9 POP POP POP POP POP POP POP POP POP JUMP JUMPDEST PUSH0 DUP1 PUSH1 0x40 DUP4 DUP6 SUB SLT ISZERO PUSH2 0x1110 JUMPI PUSH0 DUP1 REVERT JUMPDEST DUP3 CALLDATALOAD PUSH8 0xFFFFFFFFFFFFFFFF DUP1 DUP3 GT ISZERO PUSH2 0x1127 JUMPI PUSH0 DUP1 REVERT JUMPDEST PUSH2 0x1133 DUP7 DUP4 DUP8 ADD PUSH2 0xF1A JUMP JUMPDEST SWAP4 POP PUSH1 0x20 DUP6 ADD CALLDATALOAD SWAP2 POP DUP1 DUP3 GT ISZERO PUSH2 0x1148 JUMPI PUSH0 DUP1 REVERT JUMPDEST POP PUSH2 0xFDD DUP6 DUP3 DUP7 ADD PUSH2 0xF1A JUMP JUMPDEST PUSH4 0x4E487B71 PUSH1 0xE0 SHL PUSH0 MSTORE PUSH1 0x32 PUSH1 0x4 MSTORE PUSH1 0x24 PUSH0 REVERT JUMPDEST PUSH1 0x1 DUP2 DUP2 SHR SWAP1 DUP3 AND DUP1 PUSH2 0x117D JUMPI PUSH1 0x7F DUP3 AND SWAP2 POP JUMPDEST PUSH1 0x20 DUP3 LT DUP2 SUB PUSH2 0xCBE JUMPI PUSH4 0x4E487B71 PUSH1 0xE0 SHL PUSH0 MSTORE PUSH1 0x22 PUSH1 0x4 MSTORE PUSH1 0x24 PUSH0 REVERT JUMPDEST PUSH4 0x4E487B71 PUSH1 0xE0 SHL PUSH0 MSTORE PUSH1 0x11 PUSH1 0x4 MSTORE PUSH1 0x24 PUSH0 REVERT JUMPDEST DUP1 DUP3 ADD DUP1 DUP3 GT ISZERO PUSH2 0x51F JUMPI PUSH2 0x51F PUSH2 0x119B JUMP JUMPDEST PUSH1 0x1F DUP3 GT ISZERO PUSH2 0x1209 JUMPI DUP1 PUSH0 MSTORE PUSH1 0x20 PUSH0 KECCAK256 PUSH1 0x1F DUP5 ADD PUSH1 0x5 SHR DUP2 ADD PUSH1 0x20 DUP6 LT ISZERO PUSH2 0x11E7 JUMPI POP DUP1 JUMPDEST PUSH1 0x1F DUP5 ADD PUSH1 0x5 SHR DUP3 ADD SWAP2 POP JUMPDEST DUP2 DUP2 LT ISZERO PUSH2 0x1206 JUMPI PUSH0 DUP2 SSTORE PUSH1 0x1 ADD PUSH2 0x11F3 JUMP JUMPDEST POP POP JUMPDEST POP POP POP JUMP JUMPDEST DUP2 MLOAD PUSH8 0xFFFFFFFFFFFFFFFF DUP2 GT ISZERO PUSH2 0x1228 JUMPI PUSH2 0x1228 PUSH2 0xF06 JUMP JUMPDEST PUSH2 0x123C DUP2 PUSH2 0x1236 DUP5 SLOAD PUSH2 0x1169 JUMP JUMPDEST DUP5 PUSH2 0x11C2 JUMP JUMPDEST PUSH1 0x20 DUP1 PUSH1 0x1F DUP4 GT PUSH1 0x1 DUP2 EQ PUSH2 0x126F JUMPI PUSH0 DUP5 ISZERO PUSH2 0x1258 JUMPI POP DUP6 DUP4 ADD MLOAD JUMPDEST PUSH0 NOT PUSH1 0x3 DUP7 SWAP1 SHL SHR NOT AND PUSH1 0x1 DUP6 SWAP1 SHL OR DUP6 SSTORE PUSH2 0x12C6 JUMP JUMPDEST PUSH0 DUP6 DUP2 MSTORE PUSH1 0x20 DUP2 KECCAK256 PUSH1 0x1F NOT DUP7 AND SWAP2 JUMPDEST DUP3 DUP2 LT ISZERO PUSH2 0x129D JUMPI DUP9 DUP7 ADD MLOAD DUP3 SSTORE SWAP5 DUP5 ADD SWAP5 PUSH1 0x1 SWAP1 SWAP2 ADD SWAP1 DUP5 ADD PUSH2 0x127E JUMP JUMPDEST POP DUP6 DUP3 LT ISZERO PUSH2 0x12BA JUMPI DUP8 DUP6 ADD MLOAD PUSH0 NOT PUSH1 0x3 DUP9 SWAP1 SHL PUSH1 0xF8 AND SHR NOT AND DUP2 SSTORE JUMPDEST POP POP PUSH1 0x1 DUP5 PUSH1 0x1 SHL ADD DUP6 SSTORE JUMPDEST POP POP POP POP POP POP JUMP JUMPDEST DUP4 DUP2 MSTORE PUSH1 0x60 PUSH1 0x20 DUP3 ADD MSTORE PUSH0 PUSH2 0x12E6 PUSH1 0x60 DUP4 ADD DUP6 PUSH2 0xE0A JUMP JUMPDEST SWAP1 POP DUP3 PUSH1 0x40 DUP4 ADD MSTORE SWAP5 SWAP4 POP POP POP POP JUMP JUMPDEST DUP2 DUP2 SUB DUP2 DUP2 GT ISZERO PUSH2 0x51F JUMPI PUSH2 0x51F PUSH2 0x119B JUMP JUMPDEST PUSH1 0x40 DUP2 MSTORE PUSH0 PUSH2 0x131B PUSH1 0x40 DUP4 ADD DUP6 PUSH2 0xE0A JUMP JUMPDEST SWAP1 POP DUP3 PUSH1 0x20 DUP4 ADD MSTORE SWAP4 SWAP3 POP POP POP JUMP INVALID LOG2 PUSH5 0x6970667358 0x22 SLT KECCAK256 0xC2 0xD3 MSTORE SWAP7 0xE8 DUP16 SWAP3 SUB 0xA9 DUP7 CREATE 0xC3 PUSH28 0x3AA65F03186F6F8404E5B12AE575194E4AFBC264736F6C6343000819 STOP CALLER "
    },
    "gasEstimates": {
      "creation": {
        "codeDepositCost": "992000",
        "executionCost": "1025",
        "totalCost": "993025"
      },
      "external": {
        "addContribution(uint256,string)": "infinite",
        "addFunds(uint256,string)": "infinite",
        "addNode(string,string)": "infinite",
        "finishNode(uint256)": "32151",
        "getLastDripBlock(address,uint256)": "4786",
        "getNodesLite()": "infinite",
        "getUserNodePoints(address,uint256)": "2642",
        "nodes(uint256)": "infinite",
        "updateLastDripBlock(address,uint256)": "24722",
        "userNodePoints(address,uint256)": "2640"
      }
    },
    "methodIdentifiers": {
      "addContribution(uint256,string)": "4fa650f1",
      "addFunds(uint256,string)": "2db00354",
      "addNode(string,string)": "a97a4406",
      "finishNode(uint256)": "4a55ef1e",
      "getLastDripBlock(address,uint256)": "23995ade",
      "getNodesLite()": "60d177fe",
      "getUserNodePoints(address,uint256)": "c8b4d1d6",
      "nodes(uint256)": "1c53c280",
      "updateLastDripBlock(address,uint256)": "04abc319",
      "userNodePoints(address,uint256)": "dd1ead00"
    }
  },
  "storageLayout": {
    "storage": [
      {
        "astId": 421,
        "contract": "Contributionv2.sol:Contribution",
        "label": "nodes",
        "offset": 0,
        "slot": "0",
        "type": "t_array(t_struct(Node)398_storage)dyn_storage"
      },
      {
        "astId": 427,
        "contract": "Contributionv2.sol:Contribution",
        "label": "userNodePoints",
        "offset": 0,
        "slot": "1",
        "type": "t_mapping(t_address,t_mapping(t_uint256,t_uint256))"
      }
    ],
    "types": {
      "t_address": {
        "encoding": "inplace",
        "label": "address",
        "numberOfBytes": "20"
      },
      "t_array(t_struct(ContributionDetail)369_storage)dyn_storage": {
        "base": "t_struct(ContributionDetail)369_storage",
        "encoding": "dynamic_array",
        "label": "struct Contribution.ContributionDetail[]",
        "numberOfBytes": "32"
      },
      "t_array(t_struct(Node)398_storage)dyn_storage": {
        "base": "t_struct(Node)398_storage",
        "encoding": "dynamic_array",
        "label": "struct Contribution.Node[]",
        "numberOfBytes": "32"
      },
      "t_bool": {
        "encoding": "inplace",
        "label": "bool",
        "numberOfBytes": "1"
      },
      "t_mapping(t_address,t_mapping(t_uint256,t_uint256))": {
        "encoding": "mapping",
        "key": "t_address",
        "label": "mapping(address => mapping(uint256 => uint256))",
        "numberOfBytes": "32",
        "value": "t_mapping(t_uint256,t_uint256)"
      },
      "t_mapping(t_address,t_uint256)": {
        "encoding": "mapping",
        "key": "t_address",
        "label": "mapping(address => uint256)",
        "numberOfBytes": "32",
        "value": "t_uint256"
      },
      "t_mapping(t_uint256,t_uint256)": {
        "encoding": "mapping",
        "key": "t_uint256",
        "label": "mapping(uint256 => uint256)",
        "numberOfBytes": "32",
        "value": "t_uint256"
      },
      "t_string_storage": {
        "encoding": "bytes",
        "label": "string",
        "numberOfBytes": "32"
      },
      "t_struct(ContributionDetail)369_storage": {
        "encoding": "inplace",
        "label": "struct Contribution.ContributionDetail",
        "members": [
          {
            "astId": 366,
            "contract": "Contributionv2.sol:Contribution",
            "label": "contributor",
            "offset": 0,
            "slot": "0",
            "type": "t_address"
          },
          {
            "astId": 368,
            "contract": "Contributionv2.sol:Contribution",
            "label": "ipfsHash",
            "offset": 0,
            "slot": "1",
            "type": "t_string_storage"
          }
        ],
        "numberOfBytes": "64"
      },
      "t_struct(Funder)364_storage": {
        "encoding": "inplace",
        "label": "struct Contribution.Funder",
        "members": [
          {
            "astId": 359,
            "contract": "Contributionv2.sol:Contribution",
            "label": "funder",
            "offset": 0,
            "slot": "0",
            "type": "t_address"
          },
          {
            "astId": 361,
            "contract": "Contributionv2.sol:Contribution",
            "label": "amount",
            "offset": 0,
            "slot": "1",
            "type": "t_uint256"
          },
          {
            "astId": 363,
            "contract": "Contributionv2.sol:Contribution",
            "label": "ipfsHash",
            "offset": 0,
            "slot": "2",
            "type": "t_string_storage"
          }
        ],
        "numberOfBytes": "96"
      },
      "t_struct(Node)398_storage": {
        "encoding": "inplace",
        "label": "struct Contribution.Node",
        "members": [
          {
            "astId": 371,
            "contract": "Contributionv2.sol:Contribution",
            "label": "title",
            "offset": 0,
            "slot": "0",
            "type": "t_string_storage"
          },
          {
            "astId": 375,
            "contract": "Contributionv2.sol:Contribution",
            "label": "contributions",
            "offset": 0,
            "slot": "1",
            "type": "t_array(t_struct(ContributionDetail)369_storage)dyn_storage"
          },
          {
            "astId": 377,
            "contract": "Contributionv2.sol:Contribution",
            "label": "points",
            "offset": 0,
            "slot": "2",
            "type": "t_uint256"
          },
          {
            "astId": 379,
            "contract": "Contributionv2.sol:Contribution",
            "label": "fundingAddress",
            "offset": 0,
            "slot": "3",
            "type": "t_address"
          },
          {
            "astId": 381,
            "contract": "Contributionv2.sol:Contribution",
            "label": "fundingPool",
            "offset": 0,
            "slot": "4",
            "type": "t_uint256"
          },
          {
            "astId": 383,
            "contract": "Contributionv2.sol:Contribution",
            "label": "creationTime",
            "offset": 0,
            "slot": "5",
            "type": "t_uint256"
          },
          {
            "astId": 385,
            "contract": "Contributionv2.sol:Contribution",
            "label": "isFunded",
            "offset": 0,
            "slot": "6",
            "type": "t_bool"
          },
          {
            "astId": 387,
            "contract": "Contributionv2.sol:Contribution",
            "label": "isFinished",
            "offset": 1,
            "slot": "6",
            "type": "t_bool"
          },
          {
            "astId": 390,
            "contract": "Contributionv2.sol:Contribution",
            "label": "funder",
            "offset": 0,
            "slot": "7",
            "type": "t_struct(Funder)364_storage"
          },
          {
            "astId": 393,
            "contract": "Contributionv2.sol:Contribution",
            "label": "rpc",
            "offset": 0,
            "slot": "10",
            "type": "t_struct(RPC)357_storage"
          },
          {
            "astId": 397,
            "contract": "Contributionv2.sol:Contribution",
            "label": "lastDripBlock",
            "offset": 0,
            "slot": "12",
            "type": "t_mapping(t_address,t_uint256)"
          }
        ],
        "numberOfBytes": "416"
      },
      "t_struct(RPC)357_storage": {
        "encoding": "inplace",
        "label": "struct Contribution.RPC",
        "members": [
          {
            "astId": 354,
            "contract": "Contributionv2.sol:Contribution",
            "label": "rpc",
            "offset": 0,
            "slot": "0",
            "type": "t_address"
          },
          {
            "astId": 356,
            "contract": "Contributionv2.sol:Contribution",
            "label": "ipfsHash",
            "offset": 0,
            "slot": "1",
            "type": "t_string_storage"
          }
        ],
        "numberOfBytes": "64"
      },
      "t_uint256": {
        "encoding": "inplace",
        "label": "uint256",
        "numberOfBytes": "32"
      }
    }
  },
  "userdoc": {
    "kind": "user",
    "methods": {},
    "version": 1
  }
}